{
	"contracts/Array.sol": {
		"ArrayExample": {
			"abi": [
				{
					"inputs": [
						{
							"internalType": "uint256",
							"name": "index",
							"type": "uint256"
						}
					],
					"name": "get",
					"outputs": [
						{
							"internalType": "uint256",
							"name": "",
							"type": "uint256"
						}
					],
					"stateMutability": "view",
					"type": "function"
				},
				{
					"inputs": [],
					"name": "getNames",
					"outputs": [
						{
							"internalType": "string[]",
							"name": "",
							"type": "string[]"
						}
					],
					"stateMutability": "view",
					"type": "function"
				},
				{
					"inputs": [
						{
							"internalType": "uint256",
							"name": "",
							"type": "uint256"
						}
					],
					"name": "myArray",
					"outputs": [
						{
							"internalType": "uint256",
							"name": "",
							"type": "uint256"
						}
					],
					"stateMutability": "view",
					"type": "function"
				},
				{
					"inputs": [
						{
							"internalType": "uint256",
							"name": "",
							"type": "uint256"
						}
					],
					"name": "names",
					"outputs": [
						{
							"internalType": "string",
							"name": "",
							"type": "string"
						}
					],
					"stateMutability": "view",
					"type": "function"
				},
				{
					"inputs": [
						{
							"internalType": "uint256",
							"name": "",
							"type": "uint256"
						}
					],
					"name": "numbers",
					"outputs": [
						{
							"internalType": "uint256",
							"name": "",
							"type": "uint256"
						}
					],
					"stateMutability": "view",
					"type": "function"
				},
				{
					"inputs": [
						{
							"internalType": "string",
							"name": "value",
							"type": "string"
						}
					],
					"name": "set",
					"outputs": [],
					"stateMutability": "nonpayable",
					"type": "function"
				}
			],
			"devdoc": {
				"kind": "dev",
				"methods": {},
				"version": 1
			},
			"evm": {
				"assembly": "    /* \"contracts/Array.sol\":66:517  contract ArrayExample {... */\n  mstore(0x40, 0x80)\n    /* \"contracts/Array.sol\":110:143  uint[] public numbers = [1, 2, 3] */\n  mload(0x40)\n  dup1\n  0x60\n  add\n  0x40\n  mstore\n  dup1\n    /* \"contracts/Array.sol\":135:136  1 */\n  0x01\n    /* \"contracts/Array.sol\":110:143  uint[] public numbers = [1, 2, 3] */\n  0xff\n  and\n  dup2\n  mstore\n  0x20\n  add\n    /* \"contracts/Array.sol\":138:139  2 */\n  0x02\n    /* \"contracts/Array.sol\":110:143  uint[] public numbers = [1, 2, 3] */\n  0xff\n  and\n  dup2\n  mstore\n  0x20\n  add\n    /* \"contracts/Array.sol\":141:142  3 */\n  0x03\n    /* \"contracts/Array.sol\":110:143  uint[] public numbers = [1, 2, 3] */\n  0xff\n  and\n  dup2\n  mstore\n  pop\n  0x00\n  swap1\n  0x03\n  tag_1\n  swap3\n  swap2\n  swap1\n  tag_2\n  jump\t// in\ntag_1:\n  pop\n    /* \"contracts/Array.sol\":150:190  string[] public names = ['bob', 'alice'] */\n  mload(0x40)\n  dup1\n  0x40\n  add\n  0x40\n  mstore\n  dup1\n  mload(0x40)\n  dup1\n  0x40\n  add\n  0x40\n  mstore\n  dup1\n  0x03\n  dup2\n  mstore\n  0x20\n  add\n  0x626f620000000000000000000000000000000000000000000000000000000000\n  dup2\n  mstore\n  pop\n  dup2\n  mstore\n  0x20\n  add\n  mload(0x40)\n  dup1\n  0x40\n  add\n  0x40\n  mstore\n  dup1\n  0x05\n  dup2\n  mstore\n  0x20\n  add\n  0x616c696365000000000000000000000000000000000000000000000000000000\n  dup2\n  mstore\n  pop\n  dup2\n  mstore\n  pop\n  0x01\n  swap1\n  0x02\n  tag_3\n  swap3\n  swap2\n  swap1\n  tag_4\n  jump\t// in\ntag_3:\n  pop\n    /* \"contracts/Array.sol\":66:517  contract ArrayExample {... */\n  callvalue\n  dup1\n  iszero\n  tag_5\n  jumpi\n  0x00\n  dup1\n  revert\ntag_5:\n  pop\n  jump(tag_6)\ntag_2:\n  dup3\n  dup1\n  sload\n  dup3\n  dup3\n  sstore\n  swap1\n  0x00\n  mstore\n  keccak256(0x00, 0x20)\n  swap1\n  dup2\n  add\n  swap3\n  dup3\n  iszero\n  tag_7\n  jumpi\n  swap2\n  0x20\n  mul\n  dup3\n  add\ntag_8:\n  dup3\n  dup2\n  gt\n  iszero\n  tag_9\n  jumpi\n  dup3\n  mload\n  dup3\n  swap1\n  0xff\n  and\n  swap1\n  sstore\n  swap2\n  0x20\n  add\n  swap2\n  swap1\n  0x01\n  add\n  swap1\n  jump(tag_8)\ntag_9:\ntag_7:\n  pop\n  swap1\n  pop\n  tag_10\n  swap2\n  swap1\n  tag_11\n  jump\t// in\ntag_10:\n  pop\n  swap1\n  jump\t// out\ntag_4:\n  dup3\n  dup1\n  sload\n  dup3\n  dup3\n  sstore\n  swap1\n  0x00\n  mstore\n  keccak256(0x00, 0x20)\n  swap1\n  dup2\n  add\n  swap3\n  dup3\n  iszero\n  tag_12\n  jumpi\n  swap2\n  0x20\n  mul\n  dup3\n  add\ntag_13:\n  dup3\n  dup2\n  gt\n  iszero\n  tag_14\n  jumpi\n  dup3\n  mload\n  dup3\n  swap1\n  dup2\n  tag_15\n  swap2\n  swap1\n  tag_16\n  jump\t// in\ntag_15:\n  pop\n  swap2\n  0x20\n  add\n  swap2\n  swap1\n  0x01\n  add\n  swap1\n  jump(tag_13)\ntag_14:\ntag_12:\n  pop\n  swap1\n  pop\n  tag_17\n  swap2\n  swap1\n  tag_18\n  jump\t// in\ntag_17:\n  pop\n  swap1\n  jump\t// out\ntag_11:\ntag_19:\n  dup1\n  dup3\n  gt\n  iszero\n  tag_20\n  jumpi\n  0x00\n  dup2\n  0x00\n  swap1\n  sstore\n  pop\n  0x01\n  add\n  jump(tag_19)\ntag_20:\n  pop\n  swap1\n  jump\t// out\ntag_18:\ntag_21:\n  dup1\n  dup3\n  gt\n  iszero\n  tag_22\n  jumpi\n  0x00\n  dup2\n  dup2\n  tag_23\n  swap2\n  swap1\n  tag_24\n  jump\t// in\ntag_23:\n  pop\n  0x01\n  add\n  jump(tag_21)\ntag_22:\n  pop\n  swap1\n  jump\t// out\ntag_24:\n  pop\n  dup1\n  sload\n  tag_25\n  swap1\n  tag_26\n  jump\t// in\ntag_25:\n  0x00\n  dup3\n  sstore\n  dup1\n  0x1f\n  lt\n  tag_28\n  jumpi\n  pop\n  jump(tag_27)\ntag_28:\n  0x1f\n  add\n  0x20\n  swap1\n  div\n  swap1\n  0x00\n  mstore\n  keccak256(0x00, 0x20)\n  swap1\n  dup2\n  add\n  swap1\n  tag_29\n  swap2\n  swap1\n  tag_11\n  jump\t// in\ntag_29:\ntag_27:\n  pop\n  jump\t// out\n    /* \"#utility.yul\":7:106   */\ntag_30:\n    /* \"#utility.yul\":59:65   */\n  0x00\n    /* \"#utility.yul\":93:98   */\n  dup2\n    /* \"#utility.yul\":87:99   */\n  mload\n    /* \"#utility.yul\":77:99   */\n  swap1\n  pop\n    /* \"#utility.yul\":7:106   */\n  swap2\n  swap1\n  pop\n  jump\t// out\n    /* \"#utility.yul\":112:292   */\ntag_31:\n    /* \"#utility.yul\":160:237   */\n  0x4e487b7100000000000000000000000000000000000000000000000000000000\n    /* \"#utility.yul\":157:158   */\n  0x00\n    /* \"#utility.yul\":150:238   */\n  mstore\n    /* \"#utility.yul\":257:261   */\n  0x41\n    /* \"#utility.yul\":254:255   */\n  0x04\n    /* \"#utility.yul\":247:262   */\n  mstore\n    /* \"#utility.yul\":281:285   */\n  0x24\n    /* \"#utility.yul\":278:279   */\n  0x00\n    /* \"#utility.yul\":271:286   */\n  revert\n    /* \"#utility.yul\":298:478   */\ntag_32:\n    /* \"#utility.yul\":346:423   */\n  0x4e487b7100000000000000000000000000000000000000000000000000000000\n    /* \"#utility.yul\":343:344   */\n  0x00\n    /* \"#utility.yul\":336:424   */\n  mstore\n    /* \"#utility.yul\":443:447   */\n  0x22\n    /* \"#utility.yul\":440:441   */\n  0x04\n    /* \"#utility.yul\":433:448   */\n  mstore\n    /* \"#utility.yul\":467:471   */\n  0x24\n    /* \"#utility.yul\":464:465   */\n  0x00\n    /* \"#utility.yul\":457:472   */\n  revert\n    /* \"#utility.yul\":484:804   */\ntag_26:\n    /* \"#utility.yul\":528:534   */\n  0x00\n    /* \"#utility.yul\":565:566   */\n  0x02\n    /* \"#utility.yul\":559:563   */\n  dup3\n    /* \"#utility.yul\":555:567   */\n  div\n    /* \"#utility.yul\":545:567   */\n  swap1\n  pop\n    /* \"#utility.yul\":612:613   */\n  0x01\n    /* \"#utility.yul\":606:610   */\n  dup3\n    /* \"#utility.yul\":602:614   */\n  and\n    /* \"#utility.yul\":633:651   */\n  dup1\n    /* \"#utility.yul\":623:704   */\n  tag_54\n  jumpi\n    /* \"#utility.yul\":689:693   */\n  0x7f\n    /* \"#utility.yul\":681:687   */\n  dup3\n    /* \"#utility.yul\":677:694   */\n  and\n    /* \"#utility.yul\":667:694   */\n  swap2\n  pop\n    /* \"#utility.yul\":623:704   */\ntag_54:\n    /* \"#utility.yul\":751:753   */\n  0x20\n    /* \"#utility.yul\":743:749   */\n  dup3\n    /* \"#utility.yul\":740:754   */\n  lt\n    /* \"#utility.yul\":720:738   */\n  dup2\n    /* \"#utility.yul\":717:755   */\n  sub\n    /* \"#utility.yul\":714:798   */\n  tag_55\n  jumpi\n    /* \"#utility.yul\":770:788   */\n  tag_56\n  tag_32\n  jump\t// in\ntag_56:\n    /* \"#utility.yul\":714:798   */\ntag_55:\n    /* \"#utility.yul\":535:804   */\n  pop\n    /* \"#utility.yul\":484:804   */\n  swap2\n  swap1\n  pop\n  jump\t// out\n    /* \"#utility.yul\":810:951   */\ntag_33:\n    /* \"#utility.yul\":859:863   */\n  0x00\n    /* \"#utility.yul\":882:885   */\n  dup2\n    /* \"#utility.yul\":874:885   */\n  swap1\n  pop\n    /* \"#utility.yul\":905:908   */\n  dup2\n    /* \"#utility.yul\":902:903   */\n  0x00\n    /* \"#utility.yul\":895:909   */\n  mstore\n    /* \"#utility.yul\":939:943   */\n  0x20\n    /* \"#utility.yul\":936:937   */\n  0x00\n    /* \"#utility.yul\":926:944   */\n  keccak256\n    /* \"#utility.yul\":918:944   */\n  swap1\n  pop\n    /* \"#utility.yul\":810:951   */\n  swap2\n  swap1\n  pop\n  jump\t// out\n    /* \"#utility.yul\":957:1050   */\ntag_34:\n    /* \"#utility.yul\":994:1000   */\n  0x00\n    /* \"#utility.yul\":1041:1043   */\n  0x20\n    /* \"#utility.yul\":1036:1038   */\n  0x1f\n    /* \"#utility.yul\":1029:1034   */\n  dup4\n    /* \"#utility.yul\":1025:1039   */\n  add\n    /* \"#utility.yul\":1021:1044   */\n  div\n    /* \"#utility.yul\":1011:1044   */\n  swap1\n  pop\n    /* \"#utility.yul\":957:1050   */\n  swap2\n  swap1\n  pop\n  jump\t// out\n    /* \"#utility.yul\":1056:1163   */\ntag_35:\n    /* \"#utility.yul\":1100:1108   */\n  0x00\n    /* \"#utility.yul\":1150:1155   */\n  dup3\n    /* \"#utility.yul\":1144:1148   */\n  dup3\n    /* \"#utility.yul\":1140:1156   */\n  shl\n    /* \"#utility.yul\":1119:1156   */\n  swap1\n  pop\n    /* \"#utility.yul\":1056:1163   */\n  swap3\n  swap2\n  pop\n  pop\n  jump\t// out\n    /* \"#utility.yul\":1169:1562   */\ntag_36:\n    /* \"#utility.yul\":1238:1244   */\n  0x00\n    /* \"#utility.yul\":1288:1289   */\n  0x08\n    /* \"#utility.yul\":1276:1286   */\n  dup4\n    /* \"#utility.yul\":1272:1290   */\n  mul\n    /* \"#utility.yul\":1311:1408   */\n  tag_61\n    /* \"#utility.yul\":1341:1407   */\n  0xffffffffffffffffffffffffffffffffffffffffffffffffffffffffffffffff\n    /* \"#utility.yul\":1330:1339   */\n  dup3\n    /* \"#utility.yul\":1311:1408   */\n  tag_35\n  jump\t// in\ntag_61:\n    /* \"#utility.yul\":1429:1468   */\n  tag_62\n    /* \"#utility.yul\":1459:1467   */\n  dup7\n    /* \"#utility.yul\":1448:1457   */\n  dup4\n    /* \"#utility.yul\":1429:1468   */\n  tag_35\n  jump\t// in\ntag_62:\n    /* \"#utility.yul\":1417:1468   */\n  swap6\n  pop\n    /* \"#utility.yul\":1501:1505   */\n  dup1\n    /* \"#utility.yul\":1497:1506   */\n  not\n    /* \"#utility.yul\":1490:1495   */\n  dup5\n    /* \"#utility.yul\":1486:1507   */\n  and\n    /* \"#utility.yul\":1477:1507   */\n  swap4\n  pop\n    /* \"#utility.yul\":1550:1554   */\n  dup1\n    /* \"#utility.yul\":1540:1548   */\n  dup7\n    /* \"#utility.yul\":1536:1555   */\n  and\n    /* \"#utility.yul\":1529:1534   */\n  dup5\n    /* \"#utility.yul\":1526:1556   */\n  or\n    /* \"#utility.yul\":1516:1556   */\n  swap3\n  pop\n    /* \"#utility.yul\":1245:1562   */\n  pop\n  pop\n    /* \"#utility.yul\":1169:1562   */\n  swap4\n  swap3\n  pop\n  pop\n  pop\n  jump\t// out\n    /* \"#utility.yul\":1568:1645   */\ntag_37:\n    /* \"#utility.yul\":1605:1612   */\n  0x00\n    /* \"#utility.yul\":1634:1639   */\n  dup2\n    /* \"#utility.yul\":1623:1639   */\n  swap1\n  pop\n    /* \"#utility.yul\":1568:1645   */\n  swap2\n  swap1\n  pop\n  jump\t// out\n    /* \"#utility.yul\":1651:1711   */\ntag_38:\n    /* \"#utility.yul\":1679:1682   */\n  0x00\n    /* \"#utility.yul\":1700:1705   */\n  dup2\n    /* \"#utility.yul\":1693:1705   */\n  swap1\n  pop\n    /* \"#utility.yul\":1651:1711   */\n  swap2\n  swap1\n  pop\n  jump\t// out\n    /* \"#utility.yul\":1717:1859   */\ntag_39:\n    /* \"#utility.yul\":1767:1776   */\n  0x00\n    /* \"#utility.yul\":1800:1853   */\n  tag_66\n    /* \"#utility.yul\":1818:1852   */\n  tag_67\n    /* \"#utility.yul\":1827:1851   */\n  tag_68\n    /* \"#utility.yul\":1845:1850   */\n  dup5\n    /* \"#utility.yul\":1827:1851   */\n  tag_37\n  jump\t// in\ntag_68:\n    /* \"#utility.yul\":1818:1852   */\n  tag_38\n  jump\t// in\ntag_67:\n    /* \"#utility.yul\":1800:1853   */\n  tag_37\n  jump\t// in\ntag_66:\n    /* \"#utility.yul\":1787:1853   */\n  swap1\n  pop\n    /* \"#utility.yul\":1717:1859   */\n  swap2\n  swap1\n  pop\n  jump\t// out\n    /* \"#utility.yul\":1865:1940   */\ntag_40:\n    /* \"#utility.yul\":1908:1911   */\n  0x00\n    /* \"#utility.yul\":1929:1934   */\n  dup2\n    /* \"#utility.yul\":1922:1934   */\n  swap1\n  pop\n    /* \"#utility.yul\":1865:1940   */\n  swap2\n  swap1\n  pop\n  jump\t// out\n    /* \"#utility.yul\":1946:2215   */\ntag_41:\n    /* \"#utility.yul\":2056:2095   */\n  tag_71\n    /* \"#utility.yul\":2087:2094   */\n  dup4\n    /* \"#utility.yul\":2056:2095   */\n  tag_39\n  jump\t// in\ntag_71:\n    /* \"#utility.yul\":2117:2208   */\n  tag_72\n    /* \"#utility.yul\":2166:2207   */\n  tag_73\n    /* \"#utility.yul\":2190:2206   */\n  dup3\n    /* \"#utility.yul\":2166:2207   */\n  tag_40\n  jump\t// in\ntag_73:\n    /* \"#utility.yul\":2158:2164   */\n  dup5\n    /* \"#utility.yul\":2151:2155   */\n  dup5\n    /* \"#utility.yul\":2145:2156   */\n  sload\n    /* \"#utility.yul\":2117:2208   */\n  tag_36\n  jump\t// in\ntag_72:\n    /* \"#utility.yul\":2111:2115   */\n  dup3\n    /* \"#utility.yul\":2104:2209   */\n  sstore\n    /* \"#utility.yul\":2022:2215   */\n  pop\n    /* \"#utility.yul\":1946:2215   */\n  pop\n  pop\n  pop\n  jump\t// out\n    /* \"#utility.yul\":2221:2294   */\ntag_42:\n    /* \"#utility.yul\":2266:2269   */\n  0x00\n    /* \"#utility.yul\":2221:2294   */\n  swap1\n  jump\t// out\n    /* \"#utility.yul\":2300:2489   */\ntag_43:\n    /* \"#utility.yul\":2377:2409   */\n  tag_76\n  tag_42\n  jump\t// in\ntag_76:\n    /* \"#utility.yul\":2418:2483   */\n  tag_77\n    /* \"#utility.yul\":2476:2482   */\n  dup2\n    /* \"#utility.yul\":2468:2474   */\n  dup5\n    /* \"#utility.yul\":2462:2466   */\n  dup5\n    /* \"#utility.yul\":2418:2483   */\n  tag_41\n  jump\t// in\ntag_77:\n    /* \"#utility.yul\":2353:2489   */\n  pop\n    /* \"#utility.yul\":2300:2489   */\n  pop\n  pop\n  jump\t// out\n    /* \"#utility.yul\":2495:2681   */\ntag_44:\n    /* \"#utility.yul\":2555:2675   */\ntag_79:\n    /* \"#utility.yul\":2572:2575   */\n  dup2\n    /* \"#utility.yul\":2565:2570   */\n  dup2\n    /* \"#utility.yul\":2562:2576   */\n  lt\n    /* \"#utility.yul\":2555:2675   */\n  iszero\n  tag_81\n  jumpi\n    /* \"#utility.yul\":2626:2665   */\n  tag_82\n    /* \"#utility.yul\":2663:2664   */\n  0x00\n    /* \"#utility.yul\":2656:2661   */\n  dup3\n    /* \"#utility.yul\":2626:2665   */\n  tag_43\n  jump\t// in\ntag_82:\n    /* \"#utility.yul\":2599:2600   */\n  0x01\n    /* \"#utility.yul\":2592:2597   */\n  dup2\n    /* \"#utility.yul\":2588:2601   */\n  add\n    /* \"#utility.yul\":2579:2601   */\n  swap1\n  pop\n    /* \"#utility.yul\":2555:2675   */\n  jump(tag_79)\ntag_81:\n    /* \"#utility.yul\":2495:2681   */\n  pop\n  pop\n  jump\t// out\n    /* \"#utility.yul\":2687:3230   */\ntag_45:\n    /* \"#utility.yul\":2788:2790   */\n  0x1f\n    /* \"#utility.yul\":2783:2786   */\n  dup3\n    /* \"#utility.yul\":2780:2791   */\n  gt\n    /* \"#utility.yul\":2777:3223   */\n  iszero\n  tag_84\n  jumpi\n    /* \"#utility.yul\":2822:2860   */\n  tag_85\n    /* \"#utility.yul\":2854:2859   */\n  dup2\n    /* \"#utility.yul\":2822:2860   */\n  tag_33\n  jump\t// in\ntag_85:\n    /* \"#utility.yul\":2906:2935   */\n  tag_86\n    /* \"#utility.yul\":2924:2934   */\n  dup5\n    /* \"#utility.yul\":2906:2935   */\n  tag_34\n  jump\t// in\ntag_86:\n    /* \"#utility.yul\":2896:2904   */\n  dup2\n    /* \"#utility.yul\":2892:2936   */\n  add\n    /* \"#utility.yul\":3089:3091   */\n  0x20\n    /* \"#utility.yul\":3077:3087   */\n  dup6\n    /* \"#utility.yul\":3074:3092   */\n  lt\n    /* \"#utility.yul\":3071:3120   */\n  iszero\n  tag_87\n  jumpi\n    /* \"#utility.yul\":3110:3118   */\n  dup2\n    /* \"#utility.yul\":3095:3118   */\n  swap1\n  pop\n    /* \"#utility.yul\":3071:3120   */\ntag_87:\n    /* \"#utility.yul\":3133:3213   */\n  tag_88\n    /* \"#utility.yul\":3189:3211   */\n  tag_89\n    /* \"#utility.yul\":3207:3210   */\n  dup6\n    /* \"#utility.yul\":3189:3211   */\n  tag_34\n  jump\t// in\ntag_89:\n    /* \"#utility.yul\":3179:3187   */\n  dup4\n    /* \"#utility.yul\":3175:3212   */\n  add\n    /* \"#utility.yul\":3162:3173   */\n  dup3\n    /* \"#utility.yul\":3133:3213   */\n  tag_44\n  jump\t// in\ntag_88:\n    /* \"#utility.yul\":2792:3223   */\n  pop\n  pop\n    /* \"#utility.yul\":2777:3223   */\ntag_84:\n    /* \"#utility.yul\":2687:3230   */\n  pop\n  pop\n  pop\n  jump\t// out\n    /* \"#utility.yul\":3236:3353   */\ntag_46:\n    /* \"#utility.yul\":3290:3298   */\n  0x00\n    /* \"#utility.yul\":3340:3345   */\n  dup3\n    /* \"#utility.yul\":3334:3338   */\n  dup3\n    /* \"#utility.yul\":3330:3346   */\n  shr\n    /* \"#utility.yul\":3309:3346   */\n  swap1\n  pop\n    /* \"#utility.yul\":3236:3353   */\n  swap3\n  swap2\n  pop\n  pop\n  jump\t// out\n    /* \"#utility.yul\":3359:3528   */\ntag_47:\n    /* \"#utility.yul\":3403:3409   */\n  0x00\n    /* \"#utility.yul\":3436:3487   */\n  tag_92\n    /* \"#utility.yul\":3484:3485   */\n  0x00\n    /* \"#utility.yul\":3480:3486   */\n  not\n    /* \"#utility.yul\":3472:3477   */\n  dup5\n    /* \"#utility.yul\":3469:3470   */\n  0x08\n    /* \"#utility.yul\":3465:3478   */\n  mul\n    /* \"#utility.yul\":3436:3487   */\n  tag_46\n  jump\t// in\ntag_92:\n    /* \"#utility.yul\":3432:3488   */\n  not\n    /* \"#utility.yul\":3517:3521   */\n  dup1\n    /* \"#utility.yul\":3511:3515   */\n  dup4\n    /* \"#utility.yul\":3507:3522   */\n  and\n    /* \"#utility.yul\":3497:3522   */\n  swap2\n  pop\n    /* \"#utility.yul\":3410:3528   */\n  pop\n    /* \"#utility.yul\":3359:3528   */\n  swap3\n  swap2\n  pop\n  pop\n  jump\t// out\n    /* \"#utility.yul\":3533:3828   */\ntag_48:\n    /* \"#utility.yul\":3609:3613   */\n  0x00\n    /* \"#utility.yul\":3755:3784   */\n  tag_94\n    /* \"#utility.yul\":3780:3783   */\n  dup4\n    /* \"#utility.yul\":3774:3778   */\n  dup4\n    /* \"#utility.yul\":3755:3784   */\n  tag_47\n  jump\t// in\ntag_94:\n    /* \"#utility.yul\":3747:3784   */\n  swap2\n  pop\n    /* \"#utility.yul\":3817:3820   */\n  dup3\n    /* \"#utility.yul\":3814:3815   */\n  0x02\n    /* \"#utility.yul\":3810:3821   */\n  mul\n    /* \"#utility.yul\":3804:3808   */\n  dup3\n    /* \"#utility.yul\":3801:3822   */\n  or\n    /* \"#utility.yul\":3793:3822   */\n  swap1\n  pop\n    /* \"#utility.yul\":3533:3828   */\n  swap3\n  swap2\n  pop\n  pop\n  jump\t// out\n    /* \"#utility.yul\":3833:5228   */\ntag_16:\n    /* \"#utility.yul\":3950:3987   */\n  tag_96\n    /* \"#utility.yul\":3983:3986   */\n  dup3\n    /* \"#utility.yul\":3950:3987   */\n  tag_30\n  jump\t// in\ntag_96:\n    /* \"#utility.yul\":4052:4070   */\n  0xffffffffffffffff\n    /* \"#utility.yul\":4044:4050   */\n  dup2\n    /* \"#utility.yul\":4041:4071   */\n  gt\n    /* \"#utility.yul\":4038:4094   */\n  iszero\n  tag_97\n  jumpi\n    /* \"#utility.yul\":4074:4092   */\n  tag_98\n  tag_31\n  jump\t// in\ntag_98:\n    /* \"#utility.yul\":4038:4094   */\ntag_97:\n    /* \"#utility.yul\":4118:4156   */\n  tag_99\n    /* \"#utility.yul\":4150:4154   */\n  dup3\n    /* \"#utility.yul\":4144:4155   */\n  sload\n    /* \"#utility.yul\":4118:4156   */\n  tag_26\n  jump\t// in\ntag_99:\n    /* \"#utility.yul\":4203:4270   */\n  tag_100\n    /* \"#utility.yul\":4263:4269   */\n  dup3\n    /* \"#utility.yul\":4255:4261   */\n  dup3\n    /* \"#utility.yul\":4249:4253   */\n  dup6\n    /* \"#utility.yul\":4203:4270   */\n  tag_45\n  jump\t// in\ntag_100:\n    /* \"#utility.yul\":4297:4298   */\n  0x00\n    /* \"#utility.yul\":4321:4325   */\n  0x20\n    /* \"#utility.yul\":4308:4325   */\n  swap1\n  pop\n    /* \"#utility.yul\":4353:4355   */\n  0x1f\n    /* \"#utility.yul\":4345:4351   */\n  dup4\n    /* \"#utility.yul\":4342:4356   */\n  gt\n    /* \"#utility.yul\":4370:4371   */\n  0x01\n    /* \"#utility.yul\":4365:4983   */\n  dup2\n  eq\n  tag_102\n  jumpi\n    /* \"#utility.yul\":5027:5028   */\n  0x00\n    /* \"#utility.yul\":5044:5050   */\n  dup5\n    /* \"#utility.yul\":5041:5118   */\n  iszero\n  tag_103\n  jumpi\n    /* \"#utility.yul\":5093:5102   */\n  dup3\n    /* \"#utility.yul\":5088:5091   */\n  dup8\n    /* \"#utility.yul\":5084:5103   */\n  add\n    /* \"#utility.yul\":5078:5104   */\n  mload\n    /* \"#utility.yul\":5069:5104   */\n  swap1\n  pop\n    /* \"#utility.yul\":5041:5118   */\ntag_103:\n    /* \"#utility.yul\":5144:5211   */\n  tag_104\n    /* \"#utility.yul\":5204:5210   */\n  dup6\n    /* \"#utility.yul\":5197:5202   */\n  dup3\n    /* \"#utility.yul\":5144:5211   */\n  tag_48\n  jump\t// in\ntag_104:\n    /* \"#utility.yul\":5138:5142   */\n  dup7\n    /* \"#utility.yul\":5131:5212   */\n  sstore\n    /* \"#utility.yul\":5000:5222   */\n  pop\n    /* \"#utility.yul\":4335:5222   */\n  jump(tag_101)\n    /* \"#utility.yul\":4365:4983   */\ntag_102:\n    /* \"#utility.yul\":4417:4421   */\n  0x1f\n    /* \"#utility.yul\":4413:4422   */\n  not\n    /* \"#utility.yul\":4405:4411   */\n  dup5\n    /* \"#utility.yul\":4401:4423   */\n  and\n    /* \"#utility.yul\":4451:4488   */\n  tag_105\n    /* \"#utility.yul\":4483:4487   */\n  dup7\n    /* \"#utility.yul\":4451:4488   */\n  tag_33\n  jump\t// in\ntag_105:\n    /* \"#utility.yul\":4510:4511   */\n  0x00\n    /* \"#utility.yul\":4524:4732   */\ntag_106:\n    /* \"#utility.yul\":4538:4545   */\n  dup3\n    /* \"#utility.yul\":4535:4536   */\n  dup2\n    /* \"#utility.yul\":4532:4546   */\n  lt\n    /* \"#utility.yul\":4524:4732   */\n  iszero\n  tag_108\n  jumpi\n    /* \"#utility.yul\":4617:4626   */\n  dup5\n    /* \"#utility.yul\":4612:4615   */\n  dup10\n    /* \"#utility.yul\":4608:4627   */\n  add\n    /* \"#utility.yul\":4602:4628   */\n  mload\n    /* \"#utility.yul\":4594:4600   */\n  dup3\n    /* \"#utility.yul\":4587:4629   */\n  sstore\n    /* \"#utility.yul\":4668:4669   */\n  0x01\n    /* \"#utility.yul\":4660:4666   */\n  dup3\n    /* \"#utility.yul\":4656:4670   */\n  add\n    /* \"#utility.yul\":4646:4670   */\n  swap2\n  pop\n    /* \"#utility.yul\":4715:4717   */\n  0x20\n    /* \"#utility.yul\":4704:4713   */\n  dup6\n    /* \"#utility.yul\":4700:4718   */\n  add\n    /* \"#utility.yul\":4687:4718   */\n  swap5\n  pop\n    /* \"#utility.yul\":4561:4565   */\n  0x20\n    /* \"#utility.yul\":4558:4559   */\n  dup2\n    /* \"#utility.yul\":4554:4566   */\n  add\n    /* \"#utility.yul\":4549:4566   */\n  swap1\n  pop\n    /* \"#utility.yul\":4524:4732   */\n  jump(tag_106)\ntag_108:\n    /* \"#utility.yul\":4760:4766   */\n  dup7\n    /* \"#utility.yul\":4751:4758   */\n  dup4\n    /* \"#utility.yul\":4748:4767   */\n  lt\n    /* \"#utility.yul\":4745:4924   */\n  iszero\n  tag_109\n  jumpi\n    /* \"#utility.yul\":4818:4827   */\n  dup5\n    /* \"#utility.yul\":4813:4816   */\n  dup10\n    /* \"#utility.yul\":4809:4828   */\n  add\n    /* \"#utility.yul\":4803:4829   */\n  mload\n    /* \"#utility.yul\":4861:4909   */\n  tag_110\n    /* \"#utility.yul\":4903:4907   */\n  0x1f\n    /* \"#utility.yul\":4895:4901   */\n  dup10\n    /* \"#utility.yul\":4891:4908   */\n  and\n    /* \"#utility.yul\":4880:4889   */\n  dup3\n    /* \"#utility.yul\":4861:4909   */\n  tag_47\n  jump\t// in\ntag_110:\n    /* \"#utility.yul\":4853:4859   */\n  dup4\n    /* \"#utility.yul\":4846:4910   */\n  sstore\n    /* \"#utility.yul\":4768:4924   */\n  pop\n    /* \"#utility.yul\":4745:4924   */\ntag_109:\n    /* \"#utility.yul\":4970:4971   */\n  0x01\n    /* \"#utility.yul\":4966:4967   */\n  0x02\n    /* \"#utility.yul\":4958:4964   */\n  dup9\n    /* \"#utility.yul\":4954:4968   */\n  mul\n    /* \"#utility.yul\":4950:4972   */\n  add\n    /* \"#utility.yul\":4944:4948   */\n  dup9\n    /* \"#utility.yul\":4937:4973   */\n  sstore\n    /* \"#utility.yul\":4372:4983   */\n  pop\n  pop\n  pop\n    /* \"#utility.yul\":4335:5222   */\ntag_101:\n  pop\n    /* \"#utility.yul\":3925:5228   */\n  pop\n  pop\n  pop\n    /* \"#utility.yul\":3833:5228   */\n  pop\n  pop\n  jump\t// out\n    /* \"contracts/Array.sol\":66:517  contract ArrayExample {... */\ntag_6:\n  dataSize(sub_0)\n  dup1\n  dataOffset(sub_0)\n  0x00\n  codecopy\n  0x00\n  return\nstop\n\nsub_0: assembly {\n        /* \"contracts/Array.sol\":66:517  contract ArrayExample {... */\n      mstore(0x40, 0x80)\n      callvalue\n      dup1\n      iszero\n      tag_1\n      jumpi\n      0x00\n      dup1\n      revert\n    tag_1:\n      pop\n      jumpi(tag_2, lt(calldatasize, 0x04))\n      shr(0xe0, calldataload(0x00))\n      dup1\n      0x4622ab03\n      eq\n      tag_3\n      jumpi\n      dup1\n      0x4ed3885e\n      eq\n      tag_4\n      jumpi\n      dup1\n      0x9507d39a\n      eq\n      tag_5\n      jumpi\n      dup1\n      0xcc3e57d9\n      eq\n      tag_6\n      jumpi\n      dup1\n      0xcd838f0f\n      eq\n      tag_7\n      jumpi\n      dup1\n      0xd39fa233\n      eq\n      tag_8\n      jumpi\n    tag_2:\n      0x00\n      dup1\n      revert\n        /* \"contracts/Array.sol\":150:190  string[] public names = ['bob', 'alice'] */\n    tag_3:\n      tag_9\n      0x04\n      dup1\n      calldatasize\n      sub\n      dup2\n      add\n      swap1\n      tag_10\n      swap2\n      swap1\n      tag_11\n      jump\t// in\n    tag_10:\n      tag_12\n      jump\t// in\n    tag_9:\n      mload(0x40)\n      tag_13\n      swap2\n      swap1\n      tag_14\n      jump\t// in\n    tag_13:\n      mload(0x40)\n      dup1\n      swap2\n      sub\n      swap1\n      return\n        /* \"contracts/Array.sol\":338:416  function set(string memory value) public  {... */\n    tag_4:\n      tag_15\n      0x04\n      dup1\n      calldatasize\n      sub\n      dup2\n      add\n      swap1\n      tag_16\n      swap2\n      swap1\n      tag_17\n      jump\t// in\n    tag_16:\n      tag_18\n      jump\t// in\n    tag_15:\n      stop\n        /* \"contracts/Array.sol\":241:332  function get(uint index) public view returns(uint) {... */\n    tag_5:\n      tag_19\n      0x04\n      dup1\n      calldatasize\n      sub\n      dup2\n      add\n      swap1\n      tag_20\n      swap2\n      swap1\n      tag_11\n      jump\t// in\n    tag_20:\n      tag_21\n      jump\t// in\n    tag_19:\n      mload(0x40)\n      tag_22\n      swap2\n      swap1\n      tag_23\n      jump\t// in\n    tag_22:\n      mload(0x40)\n      dup1\n      swap2\n      sub\n      swap1\n      return\n        /* \"contracts/Array.sol\":210:232  uint[5] public myArray */\n    tag_6:\n      tag_24\n      0x04\n      dup1\n      calldatasize\n      sub\n      dup2\n      add\n      swap1\n      tag_25\n      swap2\n      swap1\n      tag_11\n      jump\t// in\n    tag_25:\n      tag_26\n      jump\t// in\n    tag_24:\n      mload(0x40)\n      tag_27\n      swap2\n      swap1\n      tag_23\n      jump\t// in\n    tag_27:\n      mload(0x40)\n      dup1\n      swap2\n      sub\n      swap1\n      return\n        /* \"contracts/Array.sol\":424:514  function getNames() public  view returns (string[] memory) {... */\n    tag_7:\n      tag_28\n      tag_29\n      jump\t// in\n    tag_28:\n      mload(0x40)\n      tag_30\n      swap2\n      swap1\n      tag_31\n      jump\t// in\n    tag_30:\n      mload(0x40)\n      dup1\n      swap2\n      sub\n      swap1\n      return\n        /* \"contracts/Array.sol\":110:143  uint[] public numbers = [1, 2, 3] */\n    tag_8:\n      tag_32\n      0x04\n      dup1\n      calldatasize\n      sub\n      dup2\n      add\n      swap1\n      tag_33\n      swap2\n      swap1\n      tag_11\n      jump\t// in\n    tag_33:\n      tag_34\n      jump\t// in\n    tag_32:\n      mload(0x40)\n      tag_35\n      swap2\n      swap1\n      tag_23\n      jump\t// in\n    tag_35:\n      mload(0x40)\n      dup1\n      swap2\n      sub\n      swap1\n      return\n        /* \"contracts/Array.sol\":150:190  string[] public names = ['bob', 'alice'] */\n    tag_12:\n      0x01\n      dup2\n      dup2\n      sload\n      dup2\n      lt\n      tag_36\n      jumpi\n      0x00\n      dup1\n      revert\n    tag_36:\n      swap1\n      0x00\n      mstore\n      keccak256(0x00, 0x20)\n      add\n      0x00\n      swap2\n      pop\n      swap1\n      pop\n      dup1\n      sload\n      tag_38\n      swap1\n      tag_39\n      jump\t// in\n    tag_38:\n      dup1\n      0x1f\n      add\n      0x20\n      dup1\n      swap2\n      div\n      mul\n      0x20\n      add\n      mload(0x40)\n      swap1\n      dup2\n      add\n      0x40\n      mstore\n      dup1\n      swap3\n      swap2\n      swap1\n      dup2\n      dup2\n      mstore\n      0x20\n      add\n      dup3\n      dup1\n      sload\n      tag_40\n      swap1\n      tag_39\n      jump\t// in\n    tag_40:\n      dup1\n      iszero\n      tag_41\n      jumpi\n      dup1\n      0x1f\n      lt\n      tag_42\n      jumpi\n      0x0100\n      dup1\n      dup4\n      sload\n      div\n      mul\n      dup4\n      mstore\n      swap2\n      0x20\n      add\n      swap2\n      jump(tag_41)\n    tag_42:\n      dup3\n      add\n      swap2\n      swap1\n      0x00\n      mstore\n      keccak256(0x00, 0x20)\n      swap1\n    tag_43:\n      dup2\n      sload\n      dup2\n      mstore\n      swap1\n      0x01\n      add\n      swap1\n      0x20\n      add\n      dup1\n      dup4\n      gt\n      tag_43\n      jumpi\n      dup3\n      swap1\n      sub\n      0x1f\n      and\n      dup3\n      add\n      swap2\n    tag_41:\n      pop\n      pop\n      pop\n      pop\n      pop\n      dup2\n      jump\t// out\n        /* \"contracts/Array.sol\":338:416  function set(string memory value) public  {... */\n    tag_18:\n        /* \"contracts/Array.sol\":391:396  names */\n      0x01\n        /* \"contracts/Array.sol\":402:407  value */\n      dup2\n        /* \"contracts/Array.sol\":391:408  names.push(value) */\n      swap1\n      dup1\n      0x01\n      dup2\n      sload\n      add\n      dup1\n      dup3\n      sstore\n      dup1\n      swap2\n      pop\n      pop\n      0x01\n      swap1\n      sub\n      swap1\n      0x00\n      mstore\n      keccak256(0x00, 0x20)\n      add\n      0x00\n      swap1\n      swap2\n      swap1\n      swap2\n      swap1\n      swap2\n      pop\n      swap1\n      dup2\n      tag_46\n      swap2\n      swap1\n      tag_47\n      jump\t// in\n    tag_46:\n      pop\n        /* \"contracts/Array.sol\":338:416  function set(string memory value) public  {... */\n      pop\n      jump\t// out\n        /* \"contracts/Array.sol\":241:332  function get(uint index) public view returns(uint) {... */\n    tag_21:\n        /* \"contracts/Array.sol\":286:290  uint */\n      0x00\n        /* \"contracts/Array.sol\":310:317  numbers */\n      dup1\n        /* \"contracts/Array.sol\":318:323  index */\n      dup3\n        /* \"contracts/Array.sol\":310:324  numbers[index] */\n      dup2\n      sload\n      dup2\n      lt\n      tag_49\n      jumpi\n      tag_50\n      tag_51\n      jump\t// in\n    tag_50:\n    tag_49:\n      swap1\n      0x00\n      mstore\n      keccak256(0x00, 0x20)\n      add\n      sload\n        /* \"contracts/Array.sol\":303:324  return numbers[index] */\n      swap1\n      pop\n        /* \"contracts/Array.sol\":241:332  function get(uint index) public view returns(uint) {... */\n      swap2\n      swap1\n      pop\n      jump\t// out\n        /* \"contracts/Array.sol\":210:232  uint[5] public myArray */\n    tag_26:\n      0x02\n      dup2\n      0x05\n      dup2\n      lt\n      tag_53\n      jumpi\n      0x00\n      dup1\n      revert\n    tag_53:\n      add\n      0x00\n      swap2\n      pop\n      swap1\n      pop\n      sload\n      dup2\n      jump\t// out\n        /* \"contracts/Array.sol\":424:514  function getNames() public  view returns (string[] memory) {... */\n    tag_29:\n        /* \"contracts/Array.sol\":466:481  string[] memory */\n      0x60\n        /* \"contracts/Array.sol\":501:506  names */\n      0x01\n        /* \"contracts/Array.sol\":494:506  return names */\n      dup1\n      sload\n      dup1\n      0x20\n      mul\n      0x20\n      add\n      mload(0x40)\n      swap1\n      dup2\n      add\n      0x40\n      mstore\n      dup1\n      swap3\n      swap2\n      swap1\n      dup2\n      dup2\n      mstore\n      0x20\n      add\n      0x00\n      swap1\n    tag_56:\n      dup3\n      dup3\n      lt\n      iszero\n      tag_57\n      jumpi\n      dup4\n      dup3\n      swap1\n      0x00\n      mstore\n      keccak256(0x00, 0x20)\n      add\n      dup1\n      sload\n      tag_59\n      swap1\n      tag_39\n      jump\t// in\n    tag_59:\n      dup1\n      0x1f\n      add\n      0x20\n      dup1\n      swap2\n      div\n      mul\n      0x20\n      add\n      mload(0x40)\n      swap1\n      dup2\n      add\n      0x40\n      mstore\n      dup1\n      swap3\n      swap2\n      swap1\n      dup2\n      dup2\n      mstore\n      0x20\n      add\n      dup3\n      dup1\n      sload\n      tag_60\n      swap1\n      tag_39\n      jump\t// in\n    tag_60:\n      dup1\n      iszero\n      tag_61\n      jumpi\n      dup1\n      0x1f\n      lt\n      tag_62\n      jumpi\n      0x0100\n      dup1\n      dup4\n      sload\n      div\n      mul\n      dup4\n      mstore\n      swap2\n      0x20\n      add\n      swap2\n      jump(tag_61)\n    tag_62:\n      dup3\n      add\n      swap2\n      swap1\n      0x00\n      mstore\n      keccak256(0x00, 0x20)\n      swap1\n    tag_63:\n      dup2\n      sload\n      dup2\n      mstore\n      swap1\n      0x01\n      add\n      swap1\n      0x20\n      add\n      dup1\n      dup4\n      gt\n      tag_63\n      jumpi\n      dup3\n      swap1\n      sub\n      0x1f\n      and\n      dup3\n      add\n      swap2\n    tag_61:\n      pop\n      pop\n      pop\n      pop\n      pop\n      dup2\n      mstore\n      0x20\n      add\n      swap1\n      0x01\n      add\n      swap1\n      jump(tag_56)\n    tag_57:\n      pop\n      pop\n      pop\n      pop\n      swap1\n      pop\n        /* \"contracts/Array.sol\":424:514  function getNames() public  view returns (string[] memory) {... */\n      swap1\n      jump\t// out\n        /* \"contracts/Array.sol\":110:143  uint[] public numbers = [1, 2, 3] */\n    tag_34:\n      0x00\n      dup2\n      dup2\n      sload\n      dup2\n      lt\n      tag_64\n      jumpi\n      0x00\n      dup1\n      revert\n    tag_64:\n      swap1\n      0x00\n      mstore\n      keccak256(0x00, 0x20)\n      add\n      0x00\n      swap2\n      pop\n      swap1\n      pop\n      sload\n      dup2\n      jump\t// out\n        /* \"#utility.yul\":7:82   */\n    tag_66:\n        /* \"#utility.yul\":40:46   */\n      0x00\n        /* \"#utility.yul\":73:75   */\n      0x40\n        /* \"#utility.yul\":67:76   */\n      mload\n        /* \"#utility.yul\":57:76   */\n      swap1\n      pop\n        /* \"#utility.yul\":7:82   */\n      swap1\n      jump\t// out\n        /* \"#utility.yul\":88:205   */\n    tag_67:\n        /* \"#utility.yul\":197:198   */\n      0x00\n        /* \"#utility.yul\":194:195   */\n      dup1\n        /* \"#utility.yul\":187:199   */\n      revert\n        /* \"#utility.yul\":211:328   */\n    tag_68:\n        /* \"#utility.yul\":320:321   */\n      0x00\n        /* \"#utility.yul\":317:318   */\n      dup1\n        /* \"#utility.yul\":310:322   */\n      revert\n        /* \"#utility.yul\":334:411   */\n    tag_69:\n        /* \"#utility.yul\":371:378   */\n      0x00\n        /* \"#utility.yul\":400:405   */\n      dup2\n        /* \"#utility.yul\":389:405   */\n      swap1\n      pop\n        /* \"#utility.yul\":334:411   */\n      swap2\n      swap1\n      pop\n      jump\t// out\n        /* \"#utility.yul\":417:539   */\n    tag_70:\n        /* \"#utility.yul\":490:514   */\n      tag_117\n        /* \"#utility.yul\":508:513   */\n      dup2\n        /* \"#utility.yul\":490:514   */\n      tag_69\n      jump\t// in\n    tag_117:\n        /* \"#utility.yul\":483:488   */\n      dup2\n        /* \"#utility.yul\":480:515   */\n      eq\n        /* \"#utility.yul\":470:533   */\n      tag_118\n      jumpi\n        /* \"#utility.yul\":529:530   */\n      0x00\n        /* \"#utility.yul\":526:527   */\n      dup1\n        /* \"#utility.yul\":519:531   */\n      revert\n        /* \"#utility.yul\":470:533   */\n    tag_118:\n        /* \"#utility.yul\":417:539   */\n      pop\n      jump\t// out\n        /* \"#utility.yul\":545:684   */\n    tag_71:\n        /* \"#utility.yul\":591:596   */\n      0x00\n        /* \"#utility.yul\":629:635   */\n      dup2\n        /* \"#utility.yul\":616:636   */\n      calldataload\n        /* \"#utility.yul\":607:636   */\n      swap1\n      pop\n        /* \"#utility.yul\":645:678   */\n      tag_120\n        /* \"#utility.yul\":672:677   */\n      dup2\n        /* \"#utility.yul\":645:678   */\n      tag_70\n      jump\t// in\n    tag_120:\n        /* \"#utility.yul\":545:684   */\n      swap3\n      swap2\n      pop\n      pop\n      jump\t// out\n        /* \"#utility.yul\":690:1019   */\n    tag_11:\n        /* \"#utility.yul\":749:755   */\n      0x00\n        /* \"#utility.yul\":798:800   */\n      0x20\n        /* \"#utility.yul\":786:795   */\n      dup3\n        /* \"#utility.yul\":777:784   */\n      dup5\n        /* \"#utility.yul\":773:796   */\n      sub\n        /* \"#utility.yul\":769:801   */\n      slt\n        /* \"#utility.yul\":766:885   */\n      iszero\n      tag_122\n      jumpi\n        /* \"#utility.yul\":804:883   */\n      tag_123\n      tag_67\n      jump\t// in\n    tag_123:\n        /* \"#utility.yul\":766:885   */\n    tag_122:\n        /* \"#utility.yul\":924:925   */\n      0x00\n        /* \"#utility.yul\":949:1002   */\n      tag_124\n        /* \"#utility.yul\":994:1001   */\n      dup5\n        /* \"#utility.yul\":985:991   */\n      dup3\n        /* \"#utility.yul\":974:983   */\n      dup6\n        /* \"#utility.yul\":970:992   */\n      add\n        /* \"#utility.yul\":949:1002   */\n      tag_71\n      jump\t// in\n    tag_124:\n        /* \"#utility.yul\":939:1002   */\n      swap2\n      pop\n        /* \"#utility.yul\":895:1012   */\n      pop\n        /* \"#utility.yul\":690:1019   */\n      swap3\n      swap2\n      pop\n      pop\n      jump\t// out\n        /* \"#utility.yul\":1025:1124   */\n    tag_72:\n        /* \"#utility.yul\":1077:1083   */\n      0x00\n        /* \"#utility.yul\":1111:1116   */\n      dup2\n        /* \"#utility.yul\":1105:1117   */\n      mload\n        /* \"#utility.yul\":1095:1117   */\n      swap1\n      pop\n        /* \"#utility.yul\":1025:1124   */\n      swap2\n      swap1\n      pop\n      jump\t// out\n        /* \"#utility.yul\":1130:1299   */\n    tag_73:\n        /* \"#utility.yul\":1214:1225   */\n      0x00\n        /* \"#utility.yul\":1248:1254   */\n      dup3\n        /* \"#utility.yul\":1243:1246   */\n      dup3\n        /* \"#utility.yul\":1236:1255   */\n      mstore\n        /* \"#utility.yul\":1288:1292   */\n      0x20\n        /* \"#utility.yul\":1283:1286   */\n      dup3\n        /* \"#utility.yul\":1279:1293   */\n      add\n        /* \"#utility.yul\":1264:1293   */\n      swap1\n      pop\n        /* \"#utility.yul\":1130:1299   */\n      swap3\n      swap2\n      pop\n      pop\n      jump\t// out\n        /* \"#utility.yul\":1305:1444   */\n    tag_74:\n        /* \"#utility.yul\":1394:1400   */\n      dup3\n        /* \"#utility.yul\":1389:1392   */\n      dup2\n        /* \"#utility.yul\":1384:1387   */\n      dup4\n        /* \"#utility.yul\":1378:1401   */\n      mcopy\n        /* \"#utility.yul\":1435:1436   */\n      0x00\n        /* \"#utility.yul\":1426:1432   */\n      dup4\n        /* \"#utility.yul\":1421:1424   */\n      dup4\n        /* \"#utility.yul\":1417:1433   */\n      add\n        /* \"#utility.yul\":1410:1437   */\n      mstore\n        /* \"#utility.yul\":1305:1444   */\n      pop\n      pop\n      pop\n      jump\t// out\n        /* \"#utility.yul\":1450:1552   */\n    tag_75:\n        /* \"#utility.yul\":1491:1497   */\n      0x00\n        /* \"#utility.yul\":1542:1544   */\n      0x1f\n        /* \"#utility.yul\":1538:1545   */\n      not\n        /* \"#utility.yul\":1533:1535   */\n      0x1f\n        /* \"#utility.yul\":1526:1531   */\n      dup4\n        /* \"#utility.yul\":1522:1536   */\n      add\n        /* \"#utility.yul\":1518:1546   */\n      and\n        /* \"#utility.yul\":1508:1546   */\n      swap1\n      pop\n        /* \"#utility.yul\":1450:1552   */\n      swap2\n      swap1\n      pop\n      jump\t// out\n        /* \"#utility.yul\":1558:1935   */\n    tag_76:\n        /* \"#utility.yul\":1646:1649   */\n      0x00\n        /* \"#utility.yul\":1674:1713   */\n      tag_130\n        /* \"#utility.yul\":1707:1712   */\n      dup3\n        /* \"#utility.yul\":1674:1713   */\n      tag_72\n      jump\t// in\n    tag_130:\n        /* \"#utility.yul\":1729:1800   */\n      tag_131\n        /* \"#utility.yul\":1793:1799   */\n      dup2\n        /* \"#utility.yul\":1788:1791   */\n      dup6\n        /* \"#utility.yul\":1729:1800   */\n      tag_73\n      jump\t// in\n    tag_131:\n        /* \"#utility.yul\":1722:1800   */\n      swap4\n      pop\n        /* \"#utility.yul\":1809:1874   */\n      tag_132\n        /* \"#utility.yul\":1867:1873   */\n      dup2\n        /* \"#utility.yul\":1862:1865   */\n      dup6\n        /* \"#utility.yul\":1855:1859   */\n      0x20\n        /* \"#utility.yul\":1848:1853   */\n      dup7\n        /* \"#utility.yul\":1844:1860   */\n      add\n        /* \"#utility.yul\":1809:1874   */\n      tag_74\n      jump\t// in\n    tag_132:\n        /* \"#utility.yul\":1899:1928   */\n      tag_133\n        /* \"#utility.yul\":1921:1927   */\n      dup2\n        /* \"#utility.yul\":1899:1928   */\n      tag_75\n      jump\t// in\n    tag_133:\n        /* \"#utility.yul\":1894:1897   */\n      dup5\n        /* \"#utility.yul\":1890:1929   */\n      add\n        /* \"#utility.yul\":1883:1929   */\n      swap2\n      pop\n        /* \"#utility.yul\":1650:1935   */\n      pop\n        /* \"#utility.yul\":1558:1935   */\n      swap3\n      swap2\n      pop\n      pop\n      jump\t// out\n        /* \"#utility.yul\":1941:2254   */\n    tag_14:\n        /* \"#utility.yul\":2054:2058   */\n      0x00\n        /* \"#utility.yul\":2092:2094   */\n      0x20\n        /* \"#utility.yul\":2081:2090   */\n      dup3\n        /* \"#utility.yul\":2077:2095   */\n      add\n        /* \"#utility.yul\":2069:2095   */\n      swap1\n      pop\n        /* \"#utility.yul\":2141:2150   */\n      dup2\n        /* \"#utility.yul\":2135:2139   */\n      dup2\n        /* \"#utility.yul\":2131:2151   */\n      sub\n        /* \"#utility.yul\":2127:2128   */\n      0x00\n        /* \"#utility.yul\":2116:2125   */\n      dup4\n        /* \"#utility.yul\":2112:2129   */\n      add\n        /* \"#utility.yul\":2105:2152   */\n      mstore\n        /* \"#utility.yul\":2169:2247   */\n      tag_135\n        /* \"#utility.yul\":2242:2246   */\n      dup2\n        /* \"#utility.yul\":2233:2239   */\n      dup5\n        /* \"#utility.yul\":2169:2247   */\n      tag_76\n      jump\t// in\n    tag_135:\n        /* \"#utility.yul\":2161:2247   */\n      swap1\n      pop\n        /* \"#utility.yul\":1941:2254   */\n      swap3\n      swap2\n      pop\n      pop\n      jump\t// out\n        /* \"#utility.yul\":2260:2377   */\n    tag_77:\n        /* \"#utility.yul\":2369:2370   */\n      0x00\n        /* \"#utility.yul\":2366:2367   */\n      dup1\n        /* \"#utility.yul\":2359:2371   */\n      revert\n        /* \"#utility.yul\":2383:2500   */\n    tag_78:\n        /* \"#utility.yul\":2492:2493   */\n      0x00\n        /* \"#utility.yul\":2489:2490   */\n      dup1\n        /* \"#utility.yul\":2482:2494   */\n      revert\n        /* \"#utility.yul\":2506:2686   */\n    tag_79:\n        /* \"#utility.yul\":2554:2631   */\n      0x4e487b7100000000000000000000000000000000000000000000000000000000\n        /* \"#utility.yul\":2551:2552   */\n      0x00\n        /* \"#utility.yul\":2544:2632   */\n      mstore\n        /* \"#utility.yul\":2651:2655   */\n      0x41\n        /* \"#utility.yul\":2648:2649   */\n      0x04\n        /* \"#utility.yul\":2641:2656   */\n      mstore\n        /* \"#utility.yul\":2675:2679   */\n      0x24\n        /* \"#utility.yul\":2672:2673   */\n      0x00\n        /* \"#utility.yul\":2665:2680   */\n      revert\n        /* \"#utility.yul\":2692:2973   */\n    tag_80:\n        /* \"#utility.yul\":2775:2802   */\n      tag_140\n        /* \"#utility.yul\":2797:2801   */\n      dup3\n        /* \"#utility.yul\":2775:2802   */\n      tag_75\n      jump\t// in\n    tag_140:\n        /* \"#utility.yul\":2767:2773   */\n      dup2\n        /* \"#utility.yul\":2763:2803   */\n      add\n        /* \"#utility.yul\":2905:2911   */\n      dup2\n        /* \"#utility.yul\":2893:2903   */\n      dup2\n        /* \"#utility.yul\":2890:2912   */\n      lt\n        /* \"#utility.yul\":2869:2887   */\n      0xffffffffffffffff\n        /* \"#utility.yul\":2857:2867   */\n      dup3\n        /* \"#utility.yul\":2854:2888   */\n      gt\n        /* \"#utility.yul\":2851:2913   */\n      or\n        /* \"#utility.yul\":2848:2936   */\n      iszero\n      tag_141\n      jumpi\n        /* \"#utility.yul\":2916:2934   */\n      tag_142\n      tag_79\n      jump\t// in\n    tag_142:\n        /* \"#utility.yul\":2848:2936   */\n    tag_141:\n        /* \"#utility.yul\":2956:2966   */\n      dup1\n        /* \"#utility.yul\":2952:2954   */\n      0x40\n        /* \"#utility.yul\":2945:2967   */\n      mstore\n        /* \"#utility.yul\":2735:2973   */\n      pop\n        /* \"#utility.yul\":2692:2973   */\n      pop\n      pop\n      jump\t// out\n        /* \"#utility.yul\":2979:3108   */\n    tag_81:\n        /* \"#utility.yul\":3013:3019   */\n      0x00\n        /* \"#utility.yul\":3040:3060   */\n      tag_144\n      tag_66\n      jump\t// in\n    tag_144:\n        /* \"#utility.yul\":3030:3060   */\n      swap1\n      pop\n        /* \"#utility.yul\":3069:3102   */\n      tag_145\n        /* \"#utility.yul\":3097:3101   */\n      dup3\n        /* \"#utility.yul\":3089:3095   */\n      dup3\n        /* \"#utility.yul\":3069:3102   */\n      tag_80\n      jump\t// in\n    tag_145:\n        /* \"#utility.yul\":2979:3108   */\n      swap2\n      swap1\n      pop\n      jump\t// out\n        /* \"#utility.yul\":3114:3422   */\n    tag_82:\n        /* \"#utility.yul\":3176:3180   */\n      0x00\n        /* \"#utility.yul\":3266:3284   */\n      0xffffffffffffffff\n        /* \"#utility.yul\":3258:3264   */\n      dup3\n        /* \"#utility.yul\":3255:3285   */\n      gt\n        /* \"#utility.yul\":3252:3308   */\n      iszero\n      tag_147\n      jumpi\n        /* \"#utility.yul\":3288:3306   */\n      tag_148\n      tag_79\n      jump\t// in\n    tag_148:\n        /* \"#utility.yul\":3252:3308   */\n    tag_147:\n        /* \"#utility.yul\":3326:3355   */\n      tag_149\n        /* \"#utility.yul\":3348:3354   */\n      dup3\n        /* \"#utility.yul\":3326:3355   */\n      tag_75\n      jump\t// in\n    tag_149:\n        /* \"#utility.yul\":3318:3355   */\n      swap1\n      pop\n        /* \"#utility.yul\":3410:3414   */\n      0x20\n        /* \"#utility.yul\":3404:3408   */\n      dup2\n        /* \"#utility.yul\":3400:3415   */\n      add\n        /* \"#utility.yul\":3392:3415   */\n      swap1\n      pop\n        /* \"#utility.yul\":3114:3422   */\n      swap2\n      swap1\n      pop\n      jump\t// out\n        /* \"#utility.yul\":3428:3576   */\n    tag_83:\n        /* \"#utility.yul\":3526:3532   */\n      dup3\n        /* \"#utility.yul\":3521:3524   */\n      dup2\n        /* \"#utility.yul\":3516:3519   */\n      dup4\n        /* \"#utility.yul\":3503:3533   */\n      calldatacopy\n        /* \"#utility.yul\":3567:3568   */\n      0x00\n        /* \"#utility.yul\":3558:3564   */\n      dup4\n        /* \"#utility.yul\":3553:3556   */\n      dup4\n        /* \"#utility.yul\":3549:3565   */\n      add\n        /* \"#utility.yul\":3542:3569   */\n      mstore\n        /* \"#utility.yul\":3428:3576   */\n      pop\n      pop\n      pop\n      jump\t// out\n        /* \"#utility.yul\":3582:4007   */\n    tag_84:\n        /* \"#utility.yul\":3660:3665   */\n      0x00\n        /* \"#utility.yul\":3685:3751   */\n      tag_152\n        /* \"#utility.yul\":3701:3750   */\n      tag_153\n        /* \"#utility.yul\":3743:3749   */\n      dup5\n        /* \"#utility.yul\":3701:3750   */\n      tag_82\n      jump\t// in\n    tag_153:\n        /* \"#utility.yul\":3685:3751   */\n      tag_81\n      jump\t// in\n    tag_152:\n        /* \"#utility.yul\":3676:3751   */\n      swap1\n      pop\n        /* \"#utility.yul\":3774:3780   */\n      dup3\n        /* \"#utility.yul\":3767:3772   */\n      dup2\n        /* \"#utility.yul\":3760:3781   */\n      mstore\n        /* \"#utility.yul\":3812:3816   */\n      0x20\n        /* \"#utility.yul\":3805:3810   */\n      dup2\n        /* \"#utility.yul\":3801:3817   */\n      add\n        /* \"#utility.yul\":3850:3853   */\n      dup5\n        /* \"#utility.yul\":3841:3847   */\n      dup5\n        /* \"#utility.yul\":3836:3839   */\n      dup5\n        /* \"#utility.yul\":3832:3848   */\n      add\n        /* \"#utility.yul\":3829:3854   */\n      gt\n        /* \"#utility.yul\":3826:3938   */\n      iszero\n      tag_154\n      jumpi\n        /* \"#utility.yul\":3857:3936   */\n      tag_155\n      tag_78\n      jump\t// in\n    tag_155:\n        /* \"#utility.yul\":3826:3938   */\n    tag_154:\n        /* \"#utility.yul\":3947:4001   */\n      tag_156\n        /* \"#utility.yul\":3994:4000   */\n      dup5\n        /* \"#utility.yul\":3989:3992   */\n      dup3\n        /* \"#utility.yul\":3984:3987   */\n      dup6\n        /* \"#utility.yul\":3947:4001   */\n      tag_83\n      jump\t// in\n    tag_156:\n        /* \"#utility.yul\":3666:4007   */\n      pop\n        /* \"#utility.yul\":3582:4007   */\n      swap4\n      swap3\n      pop\n      pop\n      pop\n      jump\t// out\n        /* \"#utility.yul\":4027:4367   */\n    tag_85:\n        /* \"#utility.yul\":4083:4088   */\n      0x00\n        /* \"#utility.yul\":4132:4135   */\n      dup3\n        /* \"#utility.yul\":4125:4129   */\n      0x1f\n        /* \"#utility.yul\":4117:4123   */\n      dup4\n        /* \"#utility.yul\":4113:4130   */\n      add\n        /* \"#utility.yul\":4109:4136   */\n      slt\n        /* \"#utility.yul\":4099:4221   */\n      tag_158\n      jumpi\n        /* \"#utility.yul\":4140:4219   */\n      tag_159\n      tag_77\n      jump\t// in\n    tag_159:\n        /* \"#utility.yul\":4099:4221   */\n    tag_158:\n        /* \"#utility.yul\":4257:4263   */\n      dup2\n        /* \"#utility.yul\":4244:4264   */\n      calldataload\n        /* \"#utility.yul\":4282:4361   */\n      tag_160\n        /* \"#utility.yul\":4357:4360   */\n      dup5\n        /* \"#utility.yul\":4349:4355   */\n      dup3\n        /* \"#utility.yul\":4342:4346   */\n      0x20\n        /* \"#utility.yul\":4334:4340   */\n      dup7\n        /* \"#utility.yul\":4330:4347   */\n      add\n        /* \"#utility.yul\":4282:4361   */\n      tag_84\n      jump\t// in\n    tag_160:\n        /* \"#utility.yul\":4273:4361   */\n      swap2\n      pop\n        /* \"#utility.yul\":4089:4367   */\n      pop\n        /* \"#utility.yul\":4027:4367   */\n      swap3\n      swap2\n      pop\n      pop\n      jump\t// out\n        /* \"#utility.yul\":4373:4882   */\n    tag_17:\n        /* \"#utility.yul\":4442:4448   */\n      0x00\n        /* \"#utility.yul\":4491:4493   */\n      0x20\n        /* \"#utility.yul\":4479:4488   */\n      dup3\n        /* \"#utility.yul\":4470:4477   */\n      dup5\n        /* \"#utility.yul\":4466:4489   */\n      sub\n        /* \"#utility.yul\":4462:4494   */\n      slt\n        /* \"#utility.yul\":4459:4578   */\n      iszero\n      tag_162\n      jumpi\n        /* \"#utility.yul\":4497:4576   */\n      tag_163\n      tag_67\n      jump\t// in\n    tag_163:\n        /* \"#utility.yul\":4459:4578   */\n    tag_162:\n        /* \"#utility.yul\":4645:4646   */\n      0x00\n        /* \"#utility.yul\":4634:4643   */\n      dup3\n        /* \"#utility.yul\":4630:4647   */\n      add\n        /* \"#utility.yul\":4617:4648   */\n      calldataload\n        /* \"#utility.yul\":4675:4693   */\n      0xffffffffffffffff\n        /* \"#utility.yul\":4667:4673   */\n      dup2\n        /* \"#utility.yul\":4664:4694   */\n      gt\n        /* \"#utility.yul\":4661:4778   */\n      iszero\n      tag_164\n      jumpi\n        /* \"#utility.yul\":4697:4776   */\n      tag_165\n      tag_68\n      jump\t// in\n    tag_165:\n        /* \"#utility.yul\":4661:4778   */\n    tag_164:\n        /* \"#utility.yul\":4802:4865   */\n      tag_166\n        /* \"#utility.yul\":4857:4864   */\n      dup5\n        /* \"#utility.yul\":4848:4854   */\n      dup3\n        /* \"#utility.yul\":4837:4846   */\n      dup6\n        /* \"#utility.yul\":4833:4855   */\n      add\n        /* \"#utility.yul\":4802:4865   */\n      tag_85\n      jump\t// in\n    tag_166:\n        /* \"#utility.yul\":4792:4865   */\n      swap2\n      pop\n        /* \"#utility.yul\":4588:4875   */\n      pop\n        /* \"#utility.yul\":4373:4882   */\n      swap3\n      swap2\n      pop\n      pop\n      jump\t// out\n        /* \"#utility.yul\":4888:5006   */\n    tag_86:\n        /* \"#utility.yul\":4975:4999   */\n      tag_168\n        /* \"#utility.yul\":4993:4998   */\n      dup2\n        /* \"#utility.yul\":4975:4999   */\n      tag_69\n      jump\t// in\n    tag_168:\n        /* \"#utility.yul\":4970:4973   */\n      dup3\n        /* \"#utility.yul\":4963:5000   */\n      mstore\n        /* \"#utility.yul\":4888:5006   */\n      pop\n      pop\n      jump\t// out\n        /* \"#utility.yul\":5012:5234   */\n    tag_23:\n        /* \"#utility.yul\":5105:5109   */\n      0x00\n        /* \"#utility.yul\":5143:5145   */\n      0x20\n        /* \"#utility.yul\":5132:5141   */\n      dup3\n        /* \"#utility.yul\":5128:5146   */\n      add\n        /* \"#utility.yul\":5120:5146   */\n      swap1\n      pop\n        /* \"#utility.yul\":5156:5227   */\n      tag_170\n        /* \"#utility.yul\":5224:5225   */\n      0x00\n        /* \"#utility.yul\":5213:5222   */\n      dup4\n        /* \"#utility.yul\":5209:5226   */\n      add\n        /* \"#utility.yul\":5200:5206   */\n      dup5\n        /* \"#utility.yul\":5156:5227   */\n      tag_86\n      jump\t// in\n    tag_170:\n        /* \"#utility.yul\":5012:5234   */\n      swap3\n      swap2\n      pop\n      pop\n      jump\t// out\n        /* \"#utility.yul\":5240:5364   */\n    tag_87:\n        /* \"#utility.yul\":5317:5323   */\n      0x00\n        /* \"#utility.yul\":5351:5356   */\n      dup2\n        /* \"#utility.yul\":5345:5357   */\n      mload\n        /* \"#utility.yul\":5335:5357   */\n      swap1\n      pop\n        /* \"#utility.yul\":5240:5364   */\n      swap2\n      swap1\n      pop\n      jump\t// out\n        /* \"#utility.yul\":5370:5564   */\n    tag_88:\n        /* \"#utility.yul\":5479:5490   */\n      0x00\n        /* \"#utility.yul\":5513:5519   */\n      dup3\n        /* \"#utility.yul\":5508:5511   */\n      dup3\n        /* \"#utility.yul\":5501:5520   */\n      mstore\n        /* \"#utility.yul\":5553:5557   */\n      0x20\n        /* \"#utility.yul\":5548:5551   */\n      dup3\n        /* \"#utility.yul\":5544:5558   */\n      add\n        /* \"#utility.yul\":5529:5558   */\n      swap1\n      pop\n        /* \"#utility.yul\":5370:5564   */\n      swap3\n      swap2\n      pop\n      pop\n      jump\t// out\n        /* \"#utility.yul\":5570:5712   */\n    tag_89:\n        /* \"#utility.yul\":5647:5651   */\n      0x00\n        /* \"#utility.yul\":5670:5673   */\n      dup2\n        /* \"#utility.yul\":5662:5673   */\n      swap1\n      pop\n        /* \"#utility.yul\":5700:5704   */\n      0x20\n        /* \"#utility.yul\":5695:5698   */\n      dup3\n        /* \"#utility.yul\":5691:5705   */\n      add\n        /* \"#utility.yul\":5683:5705   */\n      swap1\n      pop\n        /* \"#utility.yul\":5570:5712   */\n      swap2\n      swap1\n      pop\n      jump\t// out\n        /* \"#utility.yul\":5718:5877   */\n    tag_90:\n        /* \"#utility.yul\":5792:5803   */\n      0x00\n        /* \"#utility.yul\":5826:5832   */\n      dup3\n        /* \"#utility.yul\":5821:5824   */\n      dup3\n        /* \"#utility.yul\":5814:5833   */\n      mstore\n        /* \"#utility.yul\":5866:5870   */\n      0x20\n        /* \"#utility.yul\":5861:5864   */\n      dup3\n        /* \"#utility.yul\":5857:5871   */\n      add\n        /* \"#utility.yul\":5842:5871   */\n      swap1\n      pop\n        /* \"#utility.yul\":5718:5877   */\n      swap3\n      swap2\n      pop\n      pop\n      jump\t// out\n        /* \"#utility.yul\":5883:6240   */\n    tag_91:\n        /* \"#utility.yul\":5961:5964   */\n      0x00\n        /* \"#utility.yul\":5989:6028   */\n      tag_176\n        /* \"#utility.yul\":6022:6027   */\n      dup3\n        /* \"#utility.yul\":5989:6028   */\n      tag_72\n      jump\t// in\n    tag_176:\n        /* \"#utility.yul\":6044:6105   */\n      tag_177\n        /* \"#utility.yul\":6098:6104   */\n      dup2\n        /* \"#utility.yul\":6093:6096   */\n      dup6\n        /* \"#utility.yul\":6044:6105   */\n      tag_90\n      jump\t// in\n    tag_177:\n        /* \"#utility.yul\":6037:6105   */\n      swap4\n      pop\n        /* \"#utility.yul\":6114:6179   */\n      tag_178\n        /* \"#utility.yul\":6172:6178   */\n      dup2\n        /* \"#utility.yul\":6167:6170   */\n      dup6\n        /* \"#utility.yul\":6160:6164   */\n      0x20\n        /* \"#utility.yul\":6153:6158   */\n      dup7\n        /* \"#utility.yul\":6149:6165   */\n      add\n        /* \"#utility.yul\":6114:6179   */\n      tag_74\n      jump\t// in\n    tag_178:\n        /* \"#utility.yul\":6204:6233   */\n      tag_179\n        /* \"#utility.yul\":6226:6232   */\n      dup2\n        /* \"#utility.yul\":6204:6233   */\n      tag_75\n      jump\t// in\n    tag_179:\n        /* \"#utility.yul\":6199:6202   */\n      dup5\n        /* \"#utility.yul\":6195:6234   */\n      add\n        /* \"#utility.yul\":6188:6234   */\n      swap2\n      pop\n        /* \"#utility.yul\":5965:6240   */\n      pop\n        /* \"#utility.yul\":5883:6240   */\n      swap3\n      swap2\n      pop\n      pop\n      jump\t// out\n        /* \"#utility.yul\":6246:6442   */\n    tag_92:\n        /* \"#utility.yul\":6335:6345   */\n      0x00\n        /* \"#utility.yul\":6370:6436   */\n      tag_181\n        /* \"#utility.yul\":6432:6435   */\n      dup4\n        /* \"#utility.yul\":6424:6430   */\n      dup4\n        /* \"#utility.yul\":6370:6436   */\n      tag_91\n      jump\t// in\n    tag_181:\n        /* \"#utility.yul\":6356:6436   */\n      swap1\n      pop\n        /* \"#utility.yul\":6246:6442   */\n      swap3\n      swap2\n      pop\n      pop\n      jump\t// out\n        /* \"#utility.yul\":6448:6571   */\n    tag_93:\n        /* \"#utility.yul\":6528:6532   */\n      0x00\n        /* \"#utility.yul\":6560:6564   */\n      0x20\n        /* \"#utility.yul\":6555:6558   */\n      dup3\n        /* \"#utility.yul\":6551:6565   */\n      add\n        /* \"#utility.yul\":6543:6565   */\n      swap1\n      pop\n        /* \"#utility.yul\":6448:6571   */\n      swap2\n      swap1\n      pop\n      jump\t// out\n        /* \"#utility.yul\":6605:7596   */\n    tag_94:\n        /* \"#utility.yul\":6744:6747   */\n      0x00\n        /* \"#utility.yul\":6773:6837   */\n      tag_184\n        /* \"#utility.yul\":6831:6836   */\n      dup3\n        /* \"#utility.yul\":6773:6837   */\n      tag_87\n      jump\t// in\n    tag_184:\n        /* \"#utility.yul\":6853:6949   */\n      tag_185\n        /* \"#utility.yul\":6942:6948   */\n      dup2\n        /* \"#utility.yul\":6937:6940   */\n      dup6\n        /* \"#utility.yul\":6853:6949   */\n      tag_88\n      jump\t// in\n    tag_185:\n        /* \"#utility.yul\":6846:6949   */\n      swap4\n      pop\n        /* \"#utility.yul\":6975:6978   */\n      dup4\n        /* \"#utility.yul\":7020:7024   */\n      0x20\n        /* \"#utility.yul\":7012:7018   */\n      dup3\n        /* \"#utility.yul\":7008:7025   */\n      mul\n        /* \"#utility.yul\":7003:7006   */\n      dup6\n        /* \"#utility.yul\":6999:7026   */\n      add\n        /* \"#utility.yul\":7050:7116   */\n      tag_186\n        /* \"#utility.yul\":7110:7115   */\n      dup6\n        /* \"#utility.yul\":7050:7116   */\n      tag_89\n      jump\t// in\n    tag_186:\n        /* \"#utility.yul\":7139:7146   */\n      dup1\n        /* \"#utility.yul\":7170:7171   */\n      0x00\n        /* \"#utility.yul\":7155:7551   */\n    tag_187:\n        /* \"#utility.yul\":7180:7186   */\n      dup6\n        /* \"#utility.yul\":7177:7178   */\n      dup2\n        /* \"#utility.yul\":7174:7187   */\n      lt\n        /* \"#utility.yul\":7155:7551   */\n      iszero\n      tag_189\n      jumpi\n        /* \"#utility.yul\":7251:7260   */\n      dup5\n        /* \"#utility.yul\":7245:7249   */\n      dup5\n        /* \"#utility.yul\":7241:7261   */\n      sub\n        /* \"#utility.yul\":7236:7239   */\n      dup10\n        /* \"#utility.yul\":7229:7262   */\n      mstore\n        /* \"#utility.yul\":7302:7308   */\n      dup2\n        /* \"#utility.yul\":7296:7309   */\n      mload\n        /* \"#utility.yul\":7330:7414   */\n      tag_190\n        /* \"#utility.yul\":7409:7413   */\n      dup6\n        /* \"#utility.yul\":7394:7407   */\n      dup3\n        /* \"#utility.yul\":7330:7414   */\n      tag_92\n      jump\t// in\n    tag_190:\n        /* \"#utility.yul\":7322:7414   */\n      swap5\n      pop\n        /* \"#utility.yul\":7437:7507   */\n      tag_191\n        /* \"#utility.yul\":7500:7506   */\n      dup4\n        /* \"#utility.yul\":7437:7507   */\n      tag_93\n      jump\t// in\n    tag_191:\n        /* \"#utility.yul\":7427:7507   */\n      swap3\n      pop\n        /* \"#utility.yul\":7536:7540   */\n      0x20\n        /* \"#utility.yul\":7531:7534   */\n      dup11\n        /* \"#utility.yul\":7527:7541   */\n      add\n        /* \"#utility.yul\":7520:7541   */\n      swap10\n      pop\n        /* \"#utility.yul\":7215:7551   */\n      pop\n        /* \"#utility.yul\":7202:7203   */\n      0x01\n        /* \"#utility.yul\":7199:7200   */\n      dup2\n        /* \"#utility.yul\":7195:7204   */\n      add\n        /* \"#utility.yul\":7190:7204   */\n      swap1\n      pop\n        /* \"#utility.yul\":7155:7551   */\n      jump(tag_187)\n    tag_189:\n        /* \"#utility.yul\":7159:7173   */\n      pop\n        /* \"#utility.yul\":7567:7571   */\n      dup3\n        /* \"#utility.yul\":7560:7571   */\n      swap8\n      pop\n        /* \"#utility.yul\":7587:7590   */\n      dup8\n        /* \"#utility.yul\":7580:7590   */\n      swap6\n      pop\n        /* \"#utility.yul\":6749:7596   */\n      pop\n      pop\n      pop\n      pop\n      pop\n        /* \"#utility.yul\":6605:7596   */\n      swap3\n      swap2\n      pop\n      pop\n      jump\t// out\n        /* \"#utility.yul\":7602:8015   */\n    tag_31:\n        /* \"#utility.yul\":7765:7769   */\n      0x00\n        /* \"#utility.yul\":7803:7805   */\n      0x20\n        /* \"#utility.yul\":7792:7801   */\n      dup3\n        /* \"#utility.yul\":7788:7806   */\n      add\n        /* \"#utility.yul\":7780:7806   */\n      swap1\n      pop\n        /* \"#utility.yul\":7852:7861   */\n      dup2\n        /* \"#utility.yul\":7846:7850   */\n      dup2\n        /* \"#utility.yul\":7842:7862   */\n      sub\n        /* \"#utility.yul\":7838:7839   */\n      0x00\n        /* \"#utility.yul\":7827:7836   */\n      dup4\n        /* \"#utility.yul\":7823:7840   */\n      add\n        /* \"#utility.yul\":7816:7863   */\n      mstore\n        /* \"#utility.yul\":7880:8008   */\n      tag_193\n        /* \"#utility.yul\":8003:8007   */\n      dup2\n        /* \"#utility.yul\":7994:8000   */\n      dup5\n        /* \"#utility.yul\":7880:8008   */\n      tag_94\n      jump\t// in\n    tag_193:\n        /* \"#utility.yul\":7872:8008   */\n      swap1\n      pop\n        /* \"#utility.yul\":7602:8015   */\n      swap3\n      swap2\n      pop\n      pop\n      jump\t// out\n        /* \"#utility.yul\":8021:8201   */\n    tag_95:\n        /* \"#utility.yul\":8069:8146   */\n      0x4e487b7100000000000000000000000000000000000000000000000000000000\n        /* \"#utility.yul\":8066:8067   */\n      0x00\n        /* \"#utility.yul\":8059:8147   */\n      mstore\n        /* \"#utility.yul\":8166:8170   */\n      0x22\n        /* \"#utility.yul\":8163:8164   */\n      0x04\n        /* \"#utility.yul\":8156:8171   */\n      mstore\n        /* \"#utility.yul\":8190:8194   */\n      0x24\n        /* \"#utility.yul\":8187:8188   */\n      0x00\n        /* \"#utility.yul\":8180:8195   */\n      revert\n        /* \"#utility.yul\":8207:8527   */\n    tag_39:\n        /* \"#utility.yul\":8251:8257   */\n      0x00\n        /* \"#utility.yul\":8288:8289   */\n      0x02\n        /* \"#utility.yul\":8282:8286   */\n      dup3\n        /* \"#utility.yul\":8278:8290   */\n      div\n        /* \"#utility.yul\":8268:8290   */\n      swap1\n      pop\n        /* \"#utility.yul\":8335:8336   */\n      0x01\n        /* \"#utility.yul\":8329:8333   */\n      dup3\n        /* \"#utility.yul\":8325:8337   */\n      and\n        /* \"#utility.yul\":8356:8374   */\n      dup1\n        /* \"#utility.yul\":8346:8427   */\n      tag_196\n      jumpi\n        /* \"#utility.yul\":8412:8416   */\n      0x7f\n        /* \"#utility.yul\":8404:8410   */\n      dup3\n        /* \"#utility.yul\":8400:8417   */\n      and\n        /* \"#utility.yul\":8390:8417   */\n      swap2\n      pop\n        /* \"#utility.yul\":8346:8427   */\n    tag_196:\n        /* \"#utility.yul\":8474:8476   */\n      0x20\n        /* \"#utility.yul\":8466:8472   */\n      dup3\n        /* \"#utility.yul\":8463:8477   */\n      lt\n        /* \"#utility.yul\":8443:8461   */\n      dup2\n        /* \"#utility.yul\":8440:8478   */\n      sub\n        /* \"#utility.yul\":8437:8521   */\n      tag_197\n      jumpi\n        /* \"#utility.yul\":8493:8511   */\n      tag_198\n      tag_95\n      jump\t// in\n    tag_198:\n        /* \"#utility.yul\":8437:8521   */\n    tag_197:\n        /* \"#utility.yul\":8258:8527   */\n      pop\n        /* \"#utility.yul\":8207:8527   */\n      swap2\n      swap1\n      pop\n      jump\t// out\n        /* \"#utility.yul\":8533:8674   */\n    tag_96:\n        /* \"#utility.yul\":8582:8586   */\n      0x00\n        /* \"#utility.yul\":8605:8608   */\n      dup2\n        /* \"#utility.yul\":8597:8608   */\n      swap1\n      pop\n        /* \"#utility.yul\":8628:8631   */\n      dup2\n        /* \"#utility.yul\":8625:8626   */\n      0x00\n        /* \"#utility.yul\":8618:8632   */\n      mstore\n        /* \"#utility.yul\":8662:8666   */\n      0x20\n        /* \"#utility.yul\":8659:8660   */\n      0x00\n        /* \"#utility.yul\":8649:8667   */\n      keccak256\n        /* \"#utility.yul\":8641:8667   */\n      swap1\n      pop\n        /* \"#utility.yul\":8533:8674   */\n      swap2\n      swap1\n      pop\n      jump\t// out\n        /* \"#utility.yul\":8680:8773   */\n    tag_97:\n        /* \"#utility.yul\":8717:8723   */\n      0x00\n        /* \"#utility.yul\":8764:8766   */\n      0x20\n        /* \"#utility.yul\":8759:8761   */\n      0x1f\n        /* \"#utility.yul\":8752:8757   */\n      dup4\n        /* \"#utility.yul\":8748:8762   */\n      add\n        /* \"#utility.yul\":8744:8767   */\n      div\n        /* \"#utility.yul\":8734:8767   */\n      swap1\n      pop\n        /* \"#utility.yul\":8680:8773   */\n      swap2\n      swap1\n      pop\n      jump\t// out\n        /* \"#utility.yul\":8779:8886   */\n    tag_98:\n        /* \"#utility.yul\":8823:8831   */\n      0x00\n        /* \"#utility.yul\":8873:8878   */\n      dup3\n        /* \"#utility.yul\":8867:8871   */\n      dup3\n        /* \"#utility.yul\":8863:8879   */\n      shl\n        /* \"#utility.yul\":8842:8879   */\n      swap1\n      pop\n        /* \"#utility.yul\":8779:8886   */\n      swap3\n      swap2\n      pop\n      pop\n      jump\t// out\n        /* \"#utility.yul\":8892:9285   */\n    tag_99:\n        /* \"#utility.yul\":8961:8967   */\n      0x00\n        /* \"#utility.yul\":9011:9012   */\n      0x08\n        /* \"#utility.yul\":8999:9009   */\n      dup4\n        /* \"#utility.yul\":8995:9013   */\n      mul\n        /* \"#utility.yul\":9034:9131   */\n      tag_203\n        /* \"#utility.yul\":9064:9130   */\n      0xffffffffffffffffffffffffffffffffffffffffffffffffffffffffffffffff\n        /* \"#utility.yul\":9053:9062   */\n      dup3\n        /* \"#utility.yul\":9034:9131   */\n      tag_98\n      jump\t// in\n    tag_203:\n        /* \"#utility.yul\":9152:9191   */\n      tag_204\n        /* \"#utility.yul\":9182:9190   */\n      dup7\n        /* \"#utility.yul\":9171:9180   */\n      dup4\n        /* \"#utility.yul\":9152:9191   */\n      tag_98\n      jump\t// in\n    tag_204:\n        /* \"#utility.yul\":9140:9191   */\n      swap6\n      pop\n        /* \"#utility.yul\":9224:9228   */\n      dup1\n        /* \"#utility.yul\":9220:9229   */\n      not\n        /* \"#utility.yul\":9213:9218   */\n      dup5\n        /* \"#utility.yul\":9209:9230   */\n      and\n        /* \"#utility.yul\":9200:9230   */\n      swap4\n      pop\n        /* \"#utility.yul\":9273:9277   */\n      dup1\n        /* \"#utility.yul\":9263:9271   */\n      dup7\n        /* \"#utility.yul\":9259:9278   */\n      and\n        /* \"#utility.yul\":9252:9257   */\n      dup5\n        /* \"#utility.yul\":9249:9279   */\n      or\n        /* \"#utility.yul\":9239:9279   */\n      swap3\n      pop\n        /* \"#utility.yul\":8968:9285   */\n      pop\n      pop\n        /* \"#utility.yul\":8892:9285   */\n      swap4\n      swap3\n      pop\n      pop\n      pop\n      jump\t// out\n        /* \"#utility.yul\":9291:9351   */\n    tag_100:\n        /* \"#utility.yul\":9319:9322   */\n      0x00\n        /* \"#utility.yul\":9340:9345   */\n      dup2\n        /* \"#utility.yul\":9333:9345   */\n      swap1\n      pop\n        /* \"#utility.yul\":9291:9351   */\n      swap2\n      swap1\n      pop\n      jump\t// out\n        /* \"#utility.yul\":9357:9499   */\n    tag_101:\n        /* \"#utility.yul\":9407:9416   */\n      0x00\n        /* \"#utility.yul\":9440:9493   */\n      tag_207\n        /* \"#utility.yul\":9458:9492   */\n      tag_208\n        /* \"#utility.yul\":9467:9491   */\n      tag_209\n        /* \"#utility.yul\":9485:9490   */\n      dup5\n        /* \"#utility.yul\":9467:9491   */\n      tag_69\n      jump\t// in\n    tag_209:\n        /* \"#utility.yul\":9458:9492   */\n      tag_100\n      jump\t// in\n    tag_208:\n        /* \"#utility.yul\":9440:9493   */\n      tag_69\n      jump\t// in\n    tag_207:\n        /* \"#utility.yul\":9427:9493   */\n      swap1\n      pop\n        /* \"#utility.yul\":9357:9499   */\n      swap2\n      swap1\n      pop\n      jump\t// out\n        /* \"#utility.yul\":9505:9580   */\n    tag_102:\n        /* \"#utility.yul\":9548:9551   */\n      0x00\n        /* \"#utility.yul\":9569:9574   */\n      dup2\n        /* \"#utility.yul\":9562:9574   */\n      swap1\n      pop\n        /* \"#utility.yul\":9505:9580   */\n      swap2\n      swap1\n      pop\n      jump\t// out\n        /* \"#utility.yul\":9586:9855   */\n    tag_103:\n        /* \"#utility.yul\":9696:9735   */\n      tag_212\n        /* \"#utility.yul\":9727:9734   */\n      dup4\n        /* \"#utility.yul\":9696:9735   */\n      tag_101\n      jump\t// in\n    tag_212:\n        /* \"#utility.yul\":9757:9848   */\n      tag_213\n        /* \"#utility.yul\":9806:9847   */\n      tag_214\n        /* \"#utility.yul\":9830:9846   */\n      dup3\n        /* \"#utility.yul\":9806:9847   */\n      tag_102\n      jump\t// in\n    tag_214:\n        /* \"#utility.yul\":9798:9804   */\n      dup5\n        /* \"#utility.yul\":9791:9795   */\n      dup5\n        /* \"#utility.yul\":9785:9796   */\n      sload\n        /* \"#utility.yul\":9757:9848   */\n      tag_99\n      jump\t// in\n    tag_213:\n        /* \"#utility.yul\":9751:9755   */\n      dup3\n        /* \"#utility.yul\":9744:9849   */\n      sstore\n        /* \"#utility.yul\":9662:9855   */\n      pop\n        /* \"#utility.yul\":9586:9855   */\n      pop\n      pop\n      pop\n      jump\t// out\n        /* \"#utility.yul\":9861:9934   */\n    tag_104:\n        /* \"#utility.yul\":9906:9909   */\n      0x00\n        /* \"#utility.yul\":9861:9934   */\n      swap1\n      jump\t// out\n        /* \"#utility.yul\":9940:10129   */\n    tag_105:\n        /* \"#utility.yul\":10017:10049   */\n      tag_217\n      tag_104\n      jump\t// in\n    tag_217:\n        /* \"#utility.yul\":10058:10123   */\n      tag_218\n        /* \"#utility.yul\":10116:10122   */\n      dup2\n        /* \"#utility.yul\":10108:10114   */\n      dup5\n        /* \"#utility.yul\":10102:10106   */\n      dup5\n        /* \"#utility.yul\":10058:10123   */\n      tag_103\n      jump\t// in\n    tag_218:\n        /* \"#utility.yul\":9993:10129   */\n      pop\n        /* \"#utility.yul\":9940:10129   */\n      pop\n      pop\n      jump\t// out\n        /* \"#utility.yul\":10135:10321   */\n    tag_106:\n        /* \"#utility.yul\":10195:10315   */\n    tag_220:\n        /* \"#utility.yul\":10212:10215   */\n      dup2\n        /* \"#utility.yul\":10205:10210   */\n      dup2\n        /* \"#utility.yul\":10202:10216   */\n      lt\n        /* \"#utility.yul\":10195:10315   */\n      iszero\n      tag_222\n      jumpi\n        /* \"#utility.yul\":10266:10305   */\n      tag_223\n        /* \"#utility.yul\":10303:10304   */\n      0x00\n        /* \"#utility.yul\":10296:10301   */\n      dup3\n        /* \"#utility.yul\":10266:10305   */\n      tag_105\n      jump\t// in\n    tag_223:\n        /* \"#utility.yul\":10239:10240   */\n      0x01\n        /* \"#utility.yul\":10232:10237   */\n      dup2\n        /* \"#utility.yul\":10228:10241   */\n      add\n        /* \"#utility.yul\":10219:10241   */\n      swap1\n      pop\n        /* \"#utility.yul\":10195:10315   */\n      jump(tag_220)\n    tag_222:\n        /* \"#utility.yul\":10135:10321   */\n      pop\n      pop\n      jump\t// out\n        /* \"#utility.yul\":10327:10870   */\n    tag_107:\n        /* \"#utility.yul\":10428:10430   */\n      0x1f\n        /* \"#utility.yul\":10423:10426   */\n      dup3\n        /* \"#utility.yul\":10420:10431   */\n      gt\n        /* \"#utility.yul\":10417:10863   */\n      iszero\n      tag_225\n      jumpi\n        /* \"#utility.yul\":10462:10500   */\n      tag_226\n        /* \"#utility.yul\":10494:10499   */\n      dup2\n        /* \"#utility.yul\":10462:10500   */\n      tag_96\n      jump\t// in\n    tag_226:\n        /* \"#utility.yul\":10546:10575   */\n      tag_227\n        /* \"#utility.yul\":10564:10574   */\n      dup5\n        /* \"#utility.yul\":10546:10575   */\n      tag_97\n      jump\t// in\n    tag_227:\n        /* \"#utility.yul\":10536:10544   */\n      dup2\n        /* \"#utility.yul\":10532:10576   */\n      add\n        /* \"#utility.yul\":10729:10731   */\n      0x20\n        /* \"#utility.yul\":10717:10727   */\n      dup6\n        /* \"#utility.yul\":10714:10732   */\n      lt\n        /* \"#utility.yul\":10711:10760   */\n      iszero\n      tag_228\n      jumpi\n        /* \"#utility.yul\":10750:10758   */\n      dup2\n        /* \"#utility.yul\":10735:10758   */\n      swap1\n      pop\n        /* \"#utility.yul\":10711:10760   */\n    tag_228:\n        /* \"#utility.yul\":10773:10853   */\n      tag_229\n        /* \"#utility.yul\":10829:10851   */\n      tag_230\n        /* \"#utility.yul\":10847:10850   */\n      dup6\n        /* \"#utility.yul\":10829:10851   */\n      tag_97\n      jump\t// in\n    tag_230:\n        /* \"#utility.yul\":10819:10827   */\n      dup4\n        /* \"#utility.yul\":10815:10852   */\n      add\n        /* \"#utility.yul\":10802:10813   */\n      dup3\n        /* \"#utility.yul\":10773:10853   */\n      tag_106\n      jump\t// in\n    tag_229:\n        /* \"#utility.yul\":10432:10863   */\n      pop\n      pop\n        /* \"#utility.yul\":10417:10863   */\n    tag_225:\n        /* \"#utility.yul\":10327:10870   */\n      pop\n      pop\n      pop\n      jump\t// out\n        /* \"#utility.yul\":10876:10993   */\n    tag_108:\n        /* \"#utility.yul\":10930:10938   */\n      0x00\n        /* \"#utility.yul\":10980:10985   */\n      dup3\n        /* \"#utility.yul\":10974:10978   */\n      dup3\n        /* \"#utility.yul\":10970:10986   */\n      shr\n        /* \"#utility.yul\":10949:10986   */\n      swap1\n      pop\n        /* \"#utility.yul\":10876:10993   */\n      swap3\n      swap2\n      pop\n      pop\n      jump\t// out\n        /* \"#utility.yul\":10999:11168   */\n    tag_109:\n        /* \"#utility.yul\":11043:11049   */\n      0x00\n        /* \"#utility.yul\":11076:11127   */\n      tag_233\n        /* \"#utility.yul\":11124:11125   */\n      0x00\n        /* \"#utility.yul\":11120:11126   */\n      not\n        /* \"#utility.yul\":11112:11117   */\n      dup5\n        /* \"#utility.yul\":11109:11110   */\n      0x08\n        /* \"#utility.yul\":11105:11118   */\n      mul\n        /* \"#utility.yul\":11076:11127   */\n      tag_108\n      jump\t// in\n    tag_233:\n        /* \"#utility.yul\":11072:11128   */\n      not\n        /* \"#utility.yul\":11157:11161   */\n      dup1\n        /* \"#utility.yul\":11151:11155   */\n      dup4\n        /* \"#utility.yul\":11147:11162   */\n      and\n        /* \"#utility.yul\":11137:11162   */\n      swap2\n      pop\n        /* \"#utility.yul\":11050:11168   */\n      pop\n        /* \"#utility.yul\":10999:11168   */\n      swap3\n      swap2\n      pop\n      pop\n      jump\t// out\n        /* \"#utility.yul\":11173:11468   */\n    tag_110:\n        /* \"#utility.yul\":11249:11253   */\n      0x00\n        /* \"#utility.yul\":11395:11424   */\n      tag_235\n        /* \"#utility.yul\":11420:11423   */\n      dup4\n        /* \"#utility.yul\":11414:11418   */\n      dup4\n        /* \"#utility.yul\":11395:11424   */\n      tag_109\n      jump\t// in\n    tag_235:\n        /* \"#utility.yul\":11387:11424   */\n      swap2\n      pop\n        /* \"#utility.yul\":11457:11460   */\n      dup3\n        /* \"#utility.yul\":11454:11455   */\n      0x02\n        /* \"#utility.yul\":11450:11461   */\n      mul\n        /* \"#utility.yul\":11444:11448   */\n      dup3\n        /* \"#utility.yul\":11441:11462   */\n      or\n        /* \"#utility.yul\":11433:11462   */\n      swap1\n      pop\n        /* \"#utility.yul\":11173:11468   */\n      swap3\n      swap2\n      pop\n      pop\n      jump\t// out\n        /* \"#utility.yul\":11473:12868   */\n    tag_47:\n        /* \"#utility.yul\":11590:11627   */\n      tag_237\n        /* \"#utility.yul\":11623:11626   */\n      dup3\n        /* \"#utility.yul\":11590:11627   */\n      tag_72\n      jump\t// in\n    tag_237:\n        /* \"#utility.yul\":11692:11710   */\n      0xffffffffffffffff\n        /* \"#utility.yul\":11684:11690   */\n      dup2\n        /* \"#utility.yul\":11681:11711   */\n      gt\n        /* \"#utility.yul\":11678:11734   */\n      iszero\n      tag_238\n      jumpi\n        /* \"#utility.yul\":11714:11732   */\n      tag_239\n      tag_79\n      jump\t// in\n    tag_239:\n        /* \"#utility.yul\":11678:11734   */\n    tag_238:\n        /* \"#utility.yul\":11758:11796   */\n      tag_240\n        /* \"#utility.yul\":11790:11794   */\n      dup3\n        /* \"#utility.yul\":11784:11795   */\n      sload\n        /* \"#utility.yul\":11758:11796   */\n      tag_39\n      jump\t// in\n    tag_240:\n        /* \"#utility.yul\":11843:11910   */\n      tag_241\n        /* \"#utility.yul\":11903:11909   */\n      dup3\n        /* \"#utility.yul\":11895:11901   */\n      dup3\n        /* \"#utility.yul\":11889:11893   */\n      dup6\n        /* \"#utility.yul\":11843:11910   */\n      tag_107\n      jump\t// in\n    tag_241:\n        /* \"#utility.yul\":11937:11938   */\n      0x00\n        /* \"#utility.yul\":11961:11965   */\n      0x20\n        /* \"#utility.yul\":11948:11965   */\n      swap1\n      pop\n        /* \"#utility.yul\":11993:11995   */\n      0x1f\n        /* \"#utility.yul\":11985:11991   */\n      dup4\n        /* \"#utility.yul\":11982:11996   */\n      gt\n        /* \"#utility.yul\":12010:12011   */\n      0x01\n        /* \"#utility.yul\":12005:12623   */\n      dup2\n      eq\n      tag_243\n      jumpi\n        /* \"#utility.yul\":12667:12668   */\n      0x00\n        /* \"#utility.yul\":12684:12690   */\n      dup5\n        /* \"#utility.yul\":12681:12758   */\n      iszero\n      tag_244\n      jumpi\n        /* \"#utility.yul\":12733:12742   */\n      dup3\n        /* \"#utility.yul\":12728:12731   */\n      dup8\n        /* \"#utility.yul\":12724:12743   */\n      add\n        /* \"#utility.yul\":12718:12744   */\n      mload\n        /* \"#utility.yul\":12709:12744   */\n      swap1\n      pop\n        /* \"#utility.yul\":12681:12758   */\n    tag_244:\n        /* \"#utility.yul\":12784:12851   */\n      tag_245\n        /* \"#utility.yul\":12844:12850   */\n      dup6\n        /* \"#utility.yul\":12837:12842   */\n      dup3\n        /* \"#utility.yul\":12784:12851   */\n      tag_110\n      jump\t// in\n    tag_245:\n        /* \"#utility.yul\":12778:12782   */\n      dup7\n        /* \"#utility.yul\":12771:12852   */\n      sstore\n        /* \"#utility.yul\":12640:12862   */\n      pop\n        /* \"#utility.yul\":11975:12862   */\n      jump(tag_242)\n        /* \"#utility.yul\":12005:12623   */\n    tag_243:\n        /* \"#utility.yul\":12057:12061   */\n      0x1f\n        /* \"#utility.yul\":12053:12062   */\n      not\n        /* \"#utility.yul\":12045:12051   */\n      dup5\n        /* \"#utility.yul\":12041:12063   */\n      and\n        /* \"#utility.yul\":12091:12128   */\n      tag_246\n        /* \"#utility.yul\":12123:12127   */\n      dup7\n        /* \"#utility.yul\":12091:12128   */\n      tag_96\n      jump\t// in\n    tag_246:\n        /* \"#utility.yul\":12150:12151   */\n      0x00\n        /* \"#utility.yul\":12164:12372   */\n    tag_247:\n        /* \"#utility.yul\":12178:12185   */\n      dup3\n        /* \"#utility.yul\":12175:12176   */\n      dup2\n        /* \"#utility.yul\":12172:12186   */\n      lt\n        /* \"#utility.yul\":12164:12372   */\n      iszero\n      tag_249\n      jumpi\n        /* \"#utility.yul\":12257:12266   */\n      dup5\n        /* \"#utility.yul\":12252:12255   */\n      dup10\n        /* \"#utility.yul\":12248:12267   */\n      add\n        /* \"#utility.yul\":12242:12268   */\n      mload\n        /* \"#utility.yul\":12234:12240   */\n      dup3\n        /* \"#utility.yul\":12227:12269   */\n      sstore\n        /* \"#utility.yul\":12308:12309   */\n      0x01\n        /* \"#utility.yul\":12300:12306   */\n      dup3\n        /* \"#utility.yul\":12296:12310   */\n      add\n        /* \"#utility.yul\":12286:12310   */\n      swap2\n      pop\n        /* \"#utility.yul\":12355:12357   */\n      0x20\n        /* \"#utility.yul\":12344:12353   */\n      dup6\n        /* \"#utility.yul\":12340:12358   */\n      add\n        /* \"#utility.yul\":12327:12358   */\n      swap5\n      pop\n        /* \"#utility.yul\":12201:12205   */\n      0x20\n        /* \"#utility.yul\":12198:12199   */\n      dup2\n        /* \"#utility.yul\":12194:12206   */\n      add\n        /* \"#utility.yul\":12189:12206   */\n      swap1\n      pop\n        /* \"#utility.yul\":12164:12372   */\n      jump(tag_247)\n    tag_249:\n        /* \"#utility.yul\":12400:12406   */\n      dup7\n        /* \"#utility.yul\":12391:12398   */\n      dup4\n        /* \"#utility.yul\":12388:12407   */\n      lt\n        /* \"#utility.yul\":12385:12564   */\n      iszero\n      tag_250\n      jumpi\n        /* \"#utility.yul\":12458:12467   */\n      dup5\n        /* \"#utility.yul\":12453:12456   */\n      dup10\n        /* \"#utility.yul\":12449:12468   */\n      add\n        /* \"#utility.yul\":12443:12469   */\n      mload\n        /* \"#utility.yul\":12501:12549   */\n      tag_251\n        /* \"#utility.yul\":12543:12547   */\n      0x1f\n        /* \"#utility.yul\":12535:12541   */\n      dup10\n        /* \"#utility.yul\":12531:12548   */\n      and\n        /* \"#utility.yul\":12520:12529   */\n      dup3\n        /* \"#utility.yul\":12501:12549   */\n      tag_109\n      jump\t// in\n    tag_251:\n        /* \"#utility.yul\":12493:12499   */\n      dup4\n        /* \"#utility.yul\":12486:12550   */\n      sstore\n        /* \"#utility.yul\":12408:12564   */\n      pop\n        /* \"#utility.yul\":12385:12564   */\n    tag_250:\n        /* \"#utility.yul\":12610:12611   */\n      0x01\n        /* \"#utility.yul\":12606:12607   */\n      0x02\n        /* \"#utility.yul\":12598:12604   */\n      dup9\n        /* \"#utility.yul\":12594:12608   */\n      mul\n        /* \"#utility.yul\":12590:12612   */\n      add\n        /* \"#utility.yul\":12584:12588   */\n      dup9\n        /* \"#utility.yul\":12577:12613   */\n      sstore\n        /* \"#utility.yul\":12012:12623   */\n      pop\n      pop\n      pop\n        /* \"#utility.yul\":11975:12862   */\n    tag_242:\n      pop\n        /* \"#utility.yul\":11565:12868   */\n      pop\n      pop\n      pop\n        /* \"#utility.yul\":11473:12868   */\n      pop\n      pop\n      jump\t// out\n        /* \"#utility.yul\":12874:13054   */\n    tag_51:\n        /* \"#utility.yul\":12922:12999   */\n      0x4e487b7100000000000000000000000000000000000000000000000000000000\n        /* \"#utility.yul\":12919:12920   */\n      0x00\n        /* \"#utility.yul\":12912:13000   */\n      mstore\n        /* \"#utility.yul\":13019:13023   */\n      0x32\n        /* \"#utility.yul\":13016:13017   */\n      0x04\n        /* \"#utility.yul\":13009:13024   */\n      mstore\n        /* \"#utility.yul\":13043:13047   */\n      0x24\n        /* \"#utility.yul\":13040:13041   */\n      0x00\n        /* \"#utility.yul\":13033:13048   */\n      revert\n\n    auxdata: 0xa2646970667358221220f2dfd06530de89e96b5b07b9c0c89207e05f7ca1222f1598e6bee853e9f972c564736f6c634300081a0033\n}\n",
				"bytecode": {
					"linkReferences": {},
					"object": "60806040526040518060600160405280600160ff168152602001600260ff168152602001600360ff168152505f90600361003a9291906100dc565b5060405180604001604052806040518060400160405280600381526020017f626f62000000000000000000000000000000000000000000000000000000000081525081526020016040518060400160405280600581526020017f616c69636500000000000000000000000000000000000000000000000000000081525081525060019060026100ca92919061012c565b503480156100d6575f80fd5b50610507565b828054828255905f5260205f2090810192821561011b579160200282015b8281111561011a578251829060ff169055916020019190600101906100fa565b5b5090506101289190610183565b5090565b828054828255905f5260205f20908101928215610172579160200282015b828111156101715782518290816101619190610438565b509160200191906001019061014a565b5b50905061017f919061019e565b5090565b5b8082111561019a575f815f905550600101610184565b5090565b5b808211156101bd575f81816101b491906101c1565b5060010161019f565b5090565b5080546101cd90610262565b5f825580601f106101de57506101fb565b601f0160209004905f5260205f20908101906101fa9190610183565b5b50565b5f81519050919050565b7f4e487b71000000000000000000000000000000000000000000000000000000005f52604160045260245ffd5b7f4e487b71000000000000000000000000000000000000000000000000000000005f52602260045260245ffd5b5f600282049050600182168061027957607f821691505b60208210810361028c5761028b610235565b5b50919050565b5f819050815f5260205f209050919050565b5f6020601f8301049050919050565b5f82821b905092915050565b5f600883026102ee7fffffffffffffffffffffffffffffffffffffffffffffffffffffffffffffffff826102b3565b6102f886836102b3565b95508019841693508086168417925050509392505050565b5f819050919050565b5f819050919050565b5f61033c61033761033284610310565b610319565b610310565b9050919050565b5f819050919050565b61035583610322565b61036961036182610343565b8484546102bf565b825550505050565b5f90565b61037d610371565b61038881848461034c565b505050565b5b818110156103ab576103a05f82610375565b60018101905061038e565b5050565b601f8211156103f0576103c181610292565b6103ca846102a4565b810160208510156103d9578190505b6103ed6103e5856102a4565b83018261038d565b50505b505050565b5f82821c905092915050565b5f6104105f19846008026103f5565b1980831691505092915050565b5f6104288383610401565b9150826002028217905092915050565b610441826101fe565b67ffffffffffffffff81111561045a57610459610208565b5b6104648254610262565b61046f8282856103af565b5f60209050601f8311600181146104a0575f841561048e578287015190505b610498858261041d565b8655506104ff565b601f1984166104ae86610292565b5f5b828110156104d5578489015182556001820191506020850194506020810190506104b0565b868310156104f257848901516104ee601f891682610401565b8355505b6001600288020188555050505b505050505050565b610a52806105145f395ff3fe608060405234801561000f575f80fd5b5060043610610060575f3560e01c80634622ab03146100645780634ed3885e146100945780639507d39a146100b0578063cc3e57d9146100e0578063cd838f0f14610110578063d39fa2331461012e575b5f80fd5b61007e600480360381019061007991906103ad565b61015e565b60405161008b9190610448565b60405180910390f35b6100ae60048036038101906100a99190610594565b610204565b005b6100ca60048036038101906100c591906103ad565b610239565b6040516100d791906105ea565b60405180910390f35b6100fa60048036038101906100f591906103ad565b61025d565b60405161010791906105ea565b60405180910390f35b610118610276565b6040516101259190610706565b60405180910390f35b610148600480360381019061014391906103ad565b61034a565b60405161015591906105ea565b60405180910390f35b6001818154811061016d575f80fd5b905f5260205f20015f91509050805461018590610753565b80601f01602080910402602001604051908101604052809291908181526020018280546101b190610753565b80156101fc5780601f106101d3576101008083540402835291602001916101fc565b820191905f5260205f20905b8154815290600101906020018083116101df57829003601f168201915b505050505081565b600181908060018154018082558091505060019003905f5260205f20015f9091909190915090816102359190610920565b5050565b5f80828154811061024d5761024c6109ef565b5b905f5260205f2001549050919050565b6002816005811061026c575f80fd5b015f915090505481565b60606001805480602002602001604051908101604052809291908181526020015f905b82821015610341578382905f5260205f200180546102b690610753565b80601f01602080910402602001604051908101604052809291908181526020018280546102e290610753565b801561032d5780601f106103045761010080835404028352916020019161032d565b820191905f5260205f20905b81548152906001019060200180831161031057829003601f168201915b505050505081526020019060010190610299565b50505050905090565b5f8181548110610358575f80fd5b905f5260205f20015f915090505481565b5f604051905090565b5f80fd5b5f80fd5b5f819050919050565b61038c8161037a565b8114610396575f80fd5b50565b5f813590506103a781610383565b92915050565b5f602082840312156103c2576103c1610372565b5b5f6103cf84828501610399565b91505092915050565b5f81519050919050565b5f82825260208201905092915050565b8281835e5f83830152505050565b5f601f19601f8301169050919050565b5f61041a826103d8565b61042481856103e2565b93506104348185602086016103f2565b61043d81610400565b840191505092915050565b5f6020820190508181035f8301526104608184610410565b905092915050565b5f80fd5b5f80fd5b7f4e487b71000000000000000000000000000000000000000000000000000000005f52604160045260245ffd5b6104a682610400565b810181811067ffffffffffffffff821117156104c5576104c4610470565b5b80604052505050565b5f6104d7610369565b90506104e3828261049d565b919050565b5f67ffffffffffffffff82111561050257610501610470565b5b61050b82610400565b9050602081019050919050565b828183375f83830152505050565b5f610538610533846104e8565b6104ce565b9050828152602081018484840111156105545761055361046c565b5b61055f848285610518565b509392505050565b5f82601f83011261057b5761057a610468565b5b813561058b848260208601610526565b91505092915050565b5f602082840312156105a9576105a8610372565b5b5f82013567ffffffffffffffff8111156105c6576105c5610376565b5b6105d284828501610567565b91505092915050565b6105e48161037a565b82525050565b5f6020820190506105fd5f8301846105db565b92915050565b5f81519050919050565b5f82825260208201905092915050565b5f819050602082019050919050565b5f82825260208201905092915050565b5f610646826103d8565b610650818561062c565b93506106608185602086016103f2565b61066981610400565b840191505092915050565b5f61067f838361063c565b905092915050565b5f602082019050919050565b5f61069d82610603565b6106a7818561060d565b9350836020820285016106b98561061d565b805f5b858110156106f457848403895281516106d58582610674565b94506106e083610687565b925060208a019950506001810190506106bc565b50829750879550505050505092915050565b5f6020820190508181035f83015261071e8184610693565b905092915050565b7f4e487b71000000000000000000000000000000000000000000000000000000005f52602260045260245ffd5b5f600282049050600182168061076a57607f821691505b60208210810361077d5761077c610726565b5b50919050565b5f819050815f5260205f209050919050565b5f6020601f8301049050919050565b5f82821b905092915050565b5f600883026107df7fffffffffffffffffffffffffffffffffffffffffffffffffffffffffffffffff826107a4565b6107e986836107a4565b95508019841693508086168417925050509392505050565b5f819050919050565b5f61082461081f61081a8461037a565b610801565b61037a565b9050919050565b5f819050919050565b61083d8361080a565b6108516108498261082b565b8484546107b0565b825550505050565b5f90565b610865610859565b610870818484610834565b505050565b5b81811015610893576108885f8261085d565b600181019050610876565b5050565b601f8211156108d8576108a981610783565b6108b284610795565b810160208510156108c1578190505b6108d56108cd85610795565b830182610875565b50505b505050565b5f82821c905092915050565b5f6108f85f19846008026108dd565b1980831691505092915050565b5f61091083836108e9565b9150826002028217905092915050565b610929826103d8565b67ffffffffffffffff81111561094257610941610470565b5b61094c8254610753565b610957828285610897565b5f60209050601f831160018114610988575f8415610976578287015190505b6109808582610905565b8655506109e7565b601f19841661099686610783565b5f5b828110156109bd57848901518255600182019150602085019450602081019050610998565b868310156109da57848901516109d6601f8916826108e9565b8355505b6001600288020188555050505b505050505050565b7f4e487b71000000000000000000000000000000000000000000000000000000005f52603260045260245ffdfea2646970667358221220f2dfd06530de89e96b5b07b9c0c89207e05f7ca1222f1598e6bee853e9f972c564736f6c634300081a0033",
					"opcodes": "PUSH1 0x80 PUSH1 0x40 MSTORE PUSH1 0x40 MLOAD DUP1 PUSH1 0x60 ADD PUSH1 0x40 MSTORE DUP1 PUSH1 0x1 PUSH1 0xFF AND DUP2 MSTORE PUSH1 0x20 ADD PUSH1 0x2 PUSH1 0xFF AND DUP2 MSTORE PUSH1 0x20 ADD PUSH1 0x3 PUSH1 0xFF AND DUP2 MSTORE POP PUSH0 SWAP1 PUSH1 0x3 PUSH2 0x3A SWAP3 SWAP2 SWAP1 PUSH2 0xDC JUMP JUMPDEST POP PUSH1 0x40 MLOAD DUP1 PUSH1 0x40 ADD PUSH1 0x40 MSTORE DUP1 PUSH1 0x40 MLOAD DUP1 PUSH1 0x40 ADD PUSH1 0x40 MSTORE DUP1 PUSH1 0x3 DUP2 MSTORE PUSH1 0x20 ADD PUSH32 0x626F620000000000000000000000000000000000000000000000000000000000 DUP2 MSTORE POP DUP2 MSTORE PUSH1 0x20 ADD PUSH1 0x40 MLOAD DUP1 PUSH1 0x40 ADD PUSH1 0x40 MSTORE DUP1 PUSH1 0x5 DUP2 MSTORE PUSH1 0x20 ADD PUSH32 0x616C696365000000000000000000000000000000000000000000000000000000 DUP2 MSTORE POP DUP2 MSTORE POP PUSH1 0x1 SWAP1 PUSH1 0x2 PUSH2 0xCA SWAP3 SWAP2 SWAP1 PUSH2 0x12C JUMP JUMPDEST POP CALLVALUE DUP1 ISZERO PUSH2 0xD6 JUMPI PUSH0 DUP1 REVERT JUMPDEST POP PUSH2 0x507 JUMP JUMPDEST DUP3 DUP1 SLOAD DUP3 DUP3 SSTORE SWAP1 PUSH0 MSTORE PUSH1 0x20 PUSH0 KECCAK256 SWAP1 DUP2 ADD SWAP3 DUP3 ISZERO PUSH2 0x11B JUMPI SWAP2 PUSH1 0x20 MUL DUP3 ADD JUMPDEST DUP3 DUP2 GT ISZERO PUSH2 0x11A JUMPI DUP3 MLOAD DUP3 SWAP1 PUSH1 0xFF AND SWAP1 SSTORE SWAP2 PUSH1 0x20 ADD SWAP2 SWAP1 PUSH1 0x1 ADD SWAP1 PUSH2 0xFA JUMP JUMPDEST JUMPDEST POP SWAP1 POP PUSH2 0x128 SWAP2 SWAP1 PUSH2 0x183 JUMP JUMPDEST POP SWAP1 JUMP JUMPDEST DUP3 DUP1 SLOAD DUP3 DUP3 SSTORE SWAP1 PUSH0 MSTORE PUSH1 0x20 PUSH0 KECCAK256 SWAP1 DUP2 ADD SWAP3 DUP3 ISZERO PUSH2 0x172 JUMPI SWAP2 PUSH1 0x20 MUL DUP3 ADD JUMPDEST DUP3 DUP2 GT ISZERO PUSH2 0x171 JUMPI DUP3 MLOAD DUP3 SWAP1 DUP2 PUSH2 0x161 SWAP2 SWAP1 PUSH2 0x438 JUMP JUMPDEST POP SWAP2 PUSH1 0x20 ADD SWAP2 SWAP1 PUSH1 0x1 ADD SWAP1 PUSH2 0x14A JUMP JUMPDEST JUMPDEST POP SWAP1 POP PUSH2 0x17F SWAP2 SWAP1 PUSH2 0x19E JUMP JUMPDEST POP SWAP1 JUMP JUMPDEST JUMPDEST DUP1 DUP3 GT ISZERO PUSH2 0x19A JUMPI PUSH0 DUP2 PUSH0 SWAP1 SSTORE POP PUSH1 0x1 ADD PUSH2 0x184 JUMP JUMPDEST POP SWAP1 JUMP JUMPDEST JUMPDEST DUP1 DUP3 GT ISZERO PUSH2 0x1BD JUMPI PUSH0 DUP2 DUP2 PUSH2 0x1B4 SWAP2 SWAP1 PUSH2 0x1C1 JUMP JUMPDEST POP PUSH1 0x1 ADD PUSH2 0x19F JUMP JUMPDEST POP SWAP1 JUMP JUMPDEST POP DUP1 SLOAD PUSH2 0x1CD SWAP1 PUSH2 0x262 JUMP JUMPDEST PUSH0 DUP3 SSTORE DUP1 PUSH1 0x1F LT PUSH2 0x1DE JUMPI POP PUSH2 0x1FB JUMP JUMPDEST PUSH1 0x1F ADD PUSH1 0x20 SWAP1 DIV SWAP1 PUSH0 MSTORE PUSH1 0x20 PUSH0 KECCAK256 SWAP1 DUP2 ADD SWAP1 PUSH2 0x1FA SWAP2 SWAP1 PUSH2 0x183 JUMP JUMPDEST JUMPDEST POP JUMP JUMPDEST PUSH0 DUP2 MLOAD SWAP1 POP SWAP2 SWAP1 POP JUMP JUMPDEST PUSH32 0x4E487B7100000000000000000000000000000000000000000000000000000000 PUSH0 MSTORE PUSH1 0x41 PUSH1 0x4 MSTORE PUSH1 0x24 PUSH0 REVERT JUMPDEST PUSH32 0x4E487B7100000000000000000000000000000000000000000000000000000000 PUSH0 MSTORE PUSH1 0x22 PUSH1 0x4 MSTORE PUSH1 0x24 PUSH0 REVERT JUMPDEST PUSH0 PUSH1 0x2 DUP3 DIV SWAP1 POP PUSH1 0x1 DUP3 AND DUP1 PUSH2 0x279 JUMPI PUSH1 0x7F DUP3 AND SWAP2 POP JUMPDEST PUSH1 0x20 DUP3 LT DUP2 SUB PUSH2 0x28C JUMPI PUSH2 0x28B PUSH2 0x235 JUMP JUMPDEST JUMPDEST POP SWAP2 SWAP1 POP JUMP JUMPDEST PUSH0 DUP2 SWAP1 POP DUP2 PUSH0 MSTORE PUSH1 0x20 PUSH0 KECCAK256 SWAP1 POP SWAP2 SWAP1 POP JUMP JUMPDEST PUSH0 PUSH1 0x20 PUSH1 0x1F DUP4 ADD DIV SWAP1 POP SWAP2 SWAP1 POP JUMP JUMPDEST PUSH0 DUP3 DUP3 SHL SWAP1 POP SWAP3 SWAP2 POP POP JUMP JUMPDEST PUSH0 PUSH1 0x8 DUP4 MUL PUSH2 0x2EE PUSH32 0xFFFFFFFFFFFFFFFFFFFFFFFFFFFFFFFFFFFFFFFFFFFFFFFFFFFFFFFFFFFFFFFF DUP3 PUSH2 0x2B3 JUMP JUMPDEST PUSH2 0x2F8 DUP7 DUP4 PUSH2 0x2B3 JUMP JUMPDEST SWAP6 POP DUP1 NOT DUP5 AND SWAP4 POP DUP1 DUP7 AND DUP5 OR SWAP3 POP POP POP SWAP4 SWAP3 POP POP POP JUMP JUMPDEST PUSH0 DUP2 SWAP1 POP SWAP2 SWAP1 POP JUMP JUMPDEST PUSH0 DUP2 SWAP1 POP SWAP2 SWAP1 POP JUMP JUMPDEST PUSH0 PUSH2 0x33C PUSH2 0x337 PUSH2 0x332 DUP5 PUSH2 0x310 JUMP JUMPDEST PUSH2 0x319 JUMP JUMPDEST PUSH2 0x310 JUMP JUMPDEST SWAP1 POP SWAP2 SWAP1 POP JUMP JUMPDEST PUSH0 DUP2 SWAP1 POP SWAP2 SWAP1 POP JUMP JUMPDEST PUSH2 0x355 DUP4 PUSH2 0x322 JUMP JUMPDEST PUSH2 0x369 PUSH2 0x361 DUP3 PUSH2 0x343 JUMP JUMPDEST DUP5 DUP5 SLOAD PUSH2 0x2BF JUMP JUMPDEST DUP3 SSTORE POP POP POP POP JUMP JUMPDEST PUSH0 SWAP1 JUMP JUMPDEST PUSH2 0x37D PUSH2 0x371 JUMP JUMPDEST PUSH2 0x388 DUP2 DUP5 DUP5 PUSH2 0x34C JUMP JUMPDEST POP POP POP JUMP JUMPDEST JUMPDEST DUP2 DUP2 LT ISZERO PUSH2 0x3AB JUMPI PUSH2 0x3A0 PUSH0 DUP3 PUSH2 0x375 JUMP JUMPDEST PUSH1 0x1 DUP2 ADD SWAP1 POP PUSH2 0x38E JUMP JUMPDEST POP POP JUMP JUMPDEST PUSH1 0x1F DUP3 GT ISZERO PUSH2 0x3F0 JUMPI PUSH2 0x3C1 DUP2 PUSH2 0x292 JUMP JUMPDEST PUSH2 0x3CA DUP5 PUSH2 0x2A4 JUMP JUMPDEST DUP2 ADD PUSH1 0x20 DUP6 LT ISZERO PUSH2 0x3D9 JUMPI DUP2 SWAP1 POP JUMPDEST PUSH2 0x3ED PUSH2 0x3E5 DUP6 PUSH2 0x2A4 JUMP JUMPDEST DUP4 ADD DUP3 PUSH2 0x38D JUMP JUMPDEST POP POP JUMPDEST POP POP POP JUMP JUMPDEST PUSH0 DUP3 DUP3 SHR SWAP1 POP SWAP3 SWAP2 POP POP JUMP JUMPDEST PUSH0 PUSH2 0x410 PUSH0 NOT DUP5 PUSH1 0x8 MUL PUSH2 0x3F5 JUMP JUMPDEST NOT DUP1 DUP4 AND SWAP2 POP POP SWAP3 SWAP2 POP POP JUMP JUMPDEST PUSH0 PUSH2 0x428 DUP4 DUP4 PUSH2 0x401 JUMP JUMPDEST SWAP2 POP DUP3 PUSH1 0x2 MUL DUP3 OR SWAP1 POP SWAP3 SWAP2 POP POP JUMP JUMPDEST PUSH2 0x441 DUP3 PUSH2 0x1FE JUMP JUMPDEST PUSH8 0xFFFFFFFFFFFFFFFF DUP2 GT ISZERO PUSH2 0x45A JUMPI PUSH2 0x459 PUSH2 0x208 JUMP JUMPDEST JUMPDEST PUSH2 0x464 DUP3 SLOAD PUSH2 0x262 JUMP JUMPDEST PUSH2 0x46F DUP3 DUP3 DUP6 PUSH2 0x3AF JUMP JUMPDEST PUSH0 PUSH1 0x20 SWAP1 POP PUSH1 0x1F DUP4 GT PUSH1 0x1 DUP2 EQ PUSH2 0x4A0 JUMPI PUSH0 DUP5 ISZERO PUSH2 0x48E JUMPI DUP3 DUP8 ADD MLOAD SWAP1 POP JUMPDEST PUSH2 0x498 DUP6 DUP3 PUSH2 0x41D JUMP JUMPDEST DUP7 SSTORE POP PUSH2 0x4FF JUMP JUMPDEST PUSH1 0x1F NOT DUP5 AND PUSH2 0x4AE DUP7 PUSH2 0x292 JUMP JUMPDEST PUSH0 JUMPDEST DUP3 DUP2 LT ISZERO PUSH2 0x4D5 JUMPI DUP5 DUP10 ADD MLOAD DUP3 SSTORE PUSH1 0x1 DUP3 ADD SWAP2 POP PUSH1 0x20 DUP6 ADD SWAP5 POP PUSH1 0x20 DUP2 ADD SWAP1 POP PUSH2 0x4B0 JUMP JUMPDEST DUP7 DUP4 LT ISZERO PUSH2 0x4F2 JUMPI DUP5 DUP10 ADD MLOAD PUSH2 0x4EE PUSH1 0x1F DUP10 AND DUP3 PUSH2 0x401 JUMP JUMPDEST DUP4 SSTORE POP JUMPDEST PUSH1 0x1 PUSH1 0x2 DUP9 MUL ADD DUP9 SSTORE POP POP POP JUMPDEST POP POP POP POP POP POP JUMP JUMPDEST PUSH2 0xA52 DUP1 PUSH2 0x514 PUSH0 CODECOPY PUSH0 RETURN INVALID PUSH1 0x80 PUSH1 0x40 MSTORE CALLVALUE DUP1 ISZERO PUSH2 0xF JUMPI PUSH0 DUP1 REVERT JUMPDEST POP PUSH1 0x4 CALLDATASIZE LT PUSH2 0x60 JUMPI PUSH0 CALLDATALOAD PUSH1 0xE0 SHR DUP1 PUSH4 0x4622AB03 EQ PUSH2 0x64 JUMPI DUP1 PUSH4 0x4ED3885E EQ PUSH2 0x94 JUMPI DUP1 PUSH4 0x9507D39A EQ PUSH2 0xB0 JUMPI DUP1 PUSH4 0xCC3E57D9 EQ PUSH2 0xE0 JUMPI DUP1 PUSH4 0xCD838F0F EQ PUSH2 0x110 JUMPI DUP1 PUSH4 0xD39FA233 EQ PUSH2 0x12E JUMPI JUMPDEST PUSH0 DUP1 REVERT JUMPDEST PUSH2 0x7E PUSH1 0x4 DUP1 CALLDATASIZE SUB DUP2 ADD SWAP1 PUSH2 0x79 SWAP2 SWAP1 PUSH2 0x3AD JUMP JUMPDEST PUSH2 0x15E JUMP JUMPDEST PUSH1 0x40 MLOAD PUSH2 0x8B SWAP2 SWAP1 PUSH2 0x448 JUMP JUMPDEST PUSH1 0x40 MLOAD DUP1 SWAP2 SUB SWAP1 RETURN JUMPDEST PUSH2 0xAE PUSH1 0x4 DUP1 CALLDATASIZE SUB DUP2 ADD SWAP1 PUSH2 0xA9 SWAP2 SWAP1 PUSH2 0x594 JUMP JUMPDEST PUSH2 0x204 JUMP JUMPDEST STOP JUMPDEST PUSH2 0xCA PUSH1 0x4 DUP1 CALLDATASIZE SUB DUP2 ADD SWAP1 PUSH2 0xC5 SWAP2 SWAP1 PUSH2 0x3AD JUMP JUMPDEST PUSH2 0x239 JUMP JUMPDEST PUSH1 0x40 MLOAD PUSH2 0xD7 SWAP2 SWAP1 PUSH2 0x5EA JUMP JUMPDEST PUSH1 0x40 MLOAD DUP1 SWAP2 SUB SWAP1 RETURN JUMPDEST PUSH2 0xFA PUSH1 0x4 DUP1 CALLDATASIZE SUB DUP2 ADD SWAP1 PUSH2 0xF5 SWAP2 SWAP1 PUSH2 0x3AD JUMP JUMPDEST PUSH2 0x25D JUMP JUMPDEST PUSH1 0x40 MLOAD PUSH2 0x107 SWAP2 SWAP1 PUSH2 0x5EA JUMP JUMPDEST PUSH1 0x40 MLOAD DUP1 SWAP2 SUB SWAP1 RETURN JUMPDEST PUSH2 0x118 PUSH2 0x276 JUMP JUMPDEST PUSH1 0x40 MLOAD PUSH2 0x125 SWAP2 SWAP1 PUSH2 0x706 JUMP JUMPDEST PUSH1 0x40 MLOAD DUP1 SWAP2 SUB SWAP1 RETURN JUMPDEST PUSH2 0x148 PUSH1 0x4 DUP1 CALLDATASIZE SUB DUP2 ADD SWAP1 PUSH2 0x143 SWAP2 SWAP1 PUSH2 0x3AD JUMP JUMPDEST PUSH2 0x34A JUMP JUMPDEST PUSH1 0x40 MLOAD PUSH2 0x155 SWAP2 SWAP1 PUSH2 0x5EA JUMP JUMPDEST PUSH1 0x40 MLOAD DUP1 SWAP2 SUB SWAP1 RETURN JUMPDEST PUSH1 0x1 DUP2 DUP2 SLOAD DUP2 LT PUSH2 0x16D JUMPI PUSH0 DUP1 REVERT JUMPDEST SWAP1 PUSH0 MSTORE PUSH1 0x20 PUSH0 KECCAK256 ADD PUSH0 SWAP2 POP SWAP1 POP DUP1 SLOAD PUSH2 0x185 SWAP1 PUSH2 0x753 JUMP JUMPDEST DUP1 PUSH1 0x1F ADD PUSH1 0x20 DUP1 SWAP2 DIV MUL PUSH1 0x20 ADD PUSH1 0x40 MLOAD SWAP1 DUP2 ADD PUSH1 0x40 MSTORE DUP1 SWAP3 SWAP2 SWAP1 DUP2 DUP2 MSTORE PUSH1 0x20 ADD DUP3 DUP1 SLOAD PUSH2 0x1B1 SWAP1 PUSH2 0x753 JUMP JUMPDEST DUP1 ISZERO PUSH2 0x1FC JUMPI DUP1 PUSH1 0x1F LT PUSH2 0x1D3 JUMPI PUSH2 0x100 DUP1 DUP4 SLOAD DIV MUL DUP4 MSTORE SWAP2 PUSH1 0x20 ADD SWAP2 PUSH2 0x1FC JUMP JUMPDEST DUP3 ADD SWAP2 SWAP1 PUSH0 MSTORE PUSH1 0x20 PUSH0 KECCAK256 SWAP1 JUMPDEST DUP2 SLOAD DUP2 MSTORE SWAP1 PUSH1 0x1 ADD SWAP1 PUSH1 0x20 ADD DUP1 DUP4 GT PUSH2 0x1DF JUMPI DUP3 SWAP1 SUB PUSH1 0x1F AND DUP3 ADD SWAP2 JUMPDEST POP POP POP POP POP DUP2 JUMP JUMPDEST PUSH1 0x1 DUP2 SWAP1 DUP1 PUSH1 0x1 DUP2 SLOAD ADD DUP1 DUP3 SSTORE DUP1 SWAP2 POP POP PUSH1 0x1 SWAP1 SUB SWAP1 PUSH0 MSTORE PUSH1 0x20 PUSH0 KECCAK256 ADD PUSH0 SWAP1 SWAP2 SWAP1 SWAP2 SWAP1 SWAP2 POP SWAP1 DUP2 PUSH2 0x235 SWAP2 SWAP1 PUSH2 0x920 JUMP JUMPDEST POP POP JUMP JUMPDEST PUSH0 DUP1 DUP3 DUP2 SLOAD DUP2 LT PUSH2 0x24D JUMPI PUSH2 0x24C PUSH2 0x9EF JUMP JUMPDEST JUMPDEST SWAP1 PUSH0 MSTORE PUSH1 0x20 PUSH0 KECCAK256 ADD SLOAD SWAP1 POP SWAP2 SWAP1 POP JUMP JUMPDEST PUSH1 0x2 DUP2 PUSH1 0x5 DUP2 LT PUSH2 0x26C JUMPI PUSH0 DUP1 REVERT JUMPDEST ADD PUSH0 SWAP2 POP SWAP1 POP SLOAD DUP2 JUMP JUMPDEST PUSH1 0x60 PUSH1 0x1 DUP1 SLOAD DUP1 PUSH1 0x20 MUL PUSH1 0x20 ADD PUSH1 0x40 MLOAD SWAP1 DUP2 ADD PUSH1 0x40 MSTORE DUP1 SWAP3 SWAP2 SWAP1 DUP2 DUP2 MSTORE PUSH1 0x20 ADD PUSH0 SWAP1 JUMPDEST DUP3 DUP3 LT ISZERO PUSH2 0x341 JUMPI DUP4 DUP3 SWAP1 PUSH0 MSTORE PUSH1 0x20 PUSH0 KECCAK256 ADD DUP1 SLOAD PUSH2 0x2B6 SWAP1 PUSH2 0x753 JUMP JUMPDEST DUP1 PUSH1 0x1F ADD PUSH1 0x20 DUP1 SWAP2 DIV MUL PUSH1 0x20 ADD PUSH1 0x40 MLOAD SWAP1 DUP2 ADD PUSH1 0x40 MSTORE DUP1 SWAP3 SWAP2 SWAP1 DUP2 DUP2 MSTORE PUSH1 0x20 ADD DUP3 DUP1 SLOAD PUSH2 0x2E2 SWAP1 PUSH2 0x753 JUMP JUMPDEST DUP1 ISZERO PUSH2 0x32D JUMPI DUP1 PUSH1 0x1F LT PUSH2 0x304 JUMPI PUSH2 0x100 DUP1 DUP4 SLOAD DIV MUL DUP4 MSTORE SWAP2 PUSH1 0x20 ADD SWAP2 PUSH2 0x32D JUMP JUMPDEST DUP3 ADD SWAP2 SWAP1 PUSH0 MSTORE PUSH1 0x20 PUSH0 KECCAK256 SWAP1 JUMPDEST DUP2 SLOAD DUP2 MSTORE SWAP1 PUSH1 0x1 ADD SWAP1 PUSH1 0x20 ADD DUP1 DUP4 GT PUSH2 0x310 JUMPI DUP3 SWAP1 SUB PUSH1 0x1F AND DUP3 ADD SWAP2 JUMPDEST POP POP POP POP POP DUP2 MSTORE PUSH1 0x20 ADD SWAP1 PUSH1 0x1 ADD SWAP1 PUSH2 0x299 JUMP JUMPDEST POP POP POP POP SWAP1 POP SWAP1 JUMP JUMPDEST PUSH0 DUP2 DUP2 SLOAD DUP2 LT PUSH2 0x358 JUMPI PUSH0 DUP1 REVERT JUMPDEST SWAP1 PUSH0 MSTORE PUSH1 0x20 PUSH0 KECCAK256 ADD PUSH0 SWAP2 POP SWAP1 POP SLOAD DUP2 JUMP JUMPDEST PUSH0 PUSH1 0x40 MLOAD SWAP1 POP SWAP1 JUMP JUMPDEST PUSH0 DUP1 REVERT JUMPDEST PUSH0 DUP1 REVERT JUMPDEST PUSH0 DUP2 SWAP1 POP SWAP2 SWAP1 POP JUMP JUMPDEST PUSH2 0x38C DUP2 PUSH2 0x37A JUMP JUMPDEST DUP2 EQ PUSH2 0x396 JUMPI PUSH0 DUP1 REVERT JUMPDEST POP JUMP JUMPDEST PUSH0 DUP2 CALLDATALOAD SWAP1 POP PUSH2 0x3A7 DUP2 PUSH2 0x383 JUMP JUMPDEST SWAP3 SWAP2 POP POP JUMP JUMPDEST PUSH0 PUSH1 0x20 DUP3 DUP5 SUB SLT ISZERO PUSH2 0x3C2 JUMPI PUSH2 0x3C1 PUSH2 0x372 JUMP JUMPDEST JUMPDEST PUSH0 PUSH2 0x3CF DUP5 DUP3 DUP6 ADD PUSH2 0x399 JUMP JUMPDEST SWAP2 POP POP SWAP3 SWAP2 POP POP JUMP JUMPDEST PUSH0 DUP2 MLOAD SWAP1 POP SWAP2 SWAP1 POP JUMP JUMPDEST PUSH0 DUP3 DUP3 MSTORE PUSH1 0x20 DUP3 ADD SWAP1 POP SWAP3 SWAP2 POP POP JUMP JUMPDEST DUP3 DUP2 DUP4 MCOPY PUSH0 DUP4 DUP4 ADD MSTORE POP POP POP JUMP JUMPDEST PUSH0 PUSH1 0x1F NOT PUSH1 0x1F DUP4 ADD AND SWAP1 POP SWAP2 SWAP1 POP JUMP JUMPDEST PUSH0 PUSH2 0x41A DUP3 PUSH2 0x3D8 JUMP JUMPDEST PUSH2 0x424 DUP2 DUP6 PUSH2 0x3E2 JUMP JUMPDEST SWAP4 POP PUSH2 0x434 DUP2 DUP6 PUSH1 0x20 DUP7 ADD PUSH2 0x3F2 JUMP JUMPDEST PUSH2 0x43D DUP2 PUSH2 0x400 JUMP JUMPDEST DUP5 ADD SWAP2 POP POP SWAP3 SWAP2 POP POP JUMP JUMPDEST PUSH0 PUSH1 0x20 DUP3 ADD SWAP1 POP DUP2 DUP2 SUB PUSH0 DUP4 ADD MSTORE PUSH2 0x460 DUP2 DUP5 PUSH2 0x410 JUMP JUMPDEST SWAP1 POP SWAP3 SWAP2 POP POP JUMP JUMPDEST PUSH0 DUP1 REVERT JUMPDEST PUSH0 DUP1 REVERT JUMPDEST PUSH32 0x4E487B7100000000000000000000000000000000000000000000000000000000 PUSH0 MSTORE PUSH1 0x41 PUSH1 0x4 MSTORE PUSH1 0x24 PUSH0 REVERT JUMPDEST PUSH2 0x4A6 DUP3 PUSH2 0x400 JUMP JUMPDEST DUP2 ADD DUP2 DUP2 LT PUSH8 0xFFFFFFFFFFFFFFFF DUP3 GT OR ISZERO PUSH2 0x4C5 JUMPI PUSH2 0x4C4 PUSH2 0x470 JUMP JUMPDEST JUMPDEST DUP1 PUSH1 0x40 MSTORE POP POP POP JUMP JUMPDEST PUSH0 PUSH2 0x4D7 PUSH2 0x369 JUMP JUMPDEST SWAP1 POP PUSH2 0x4E3 DUP3 DUP3 PUSH2 0x49D JUMP JUMPDEST SWAP2 SWAP1 POP JUMP JUMPDEST PUSH0 PUSH8 0xFFFFFFFFFFFFFFFF DUP3 GT ISZERO PUSH2 0x502 JUMPI PUSH2 0x501 PUSH2 0x470 JUMP JUMPDEST JUMPDEST PUSH2 0x50B DUP3 PUSH2 0x400 JUMP JUMPDEST SWAP1 POP PUSH1 0x20 DUP2 ADD SWAP1 POP SWAP2 SWAP1 POP JUMP JUMPDEST DUP3 DUP2 DUP4 CALLDATACOPY PUSH0 DUP4 DUP4 ADD MSTORE POP POP POP JUMP JUMPDEST PUSH0 PUSH2 0x538 PUSH2 0x533 DUP5 PUSH2 0x4E8 JUMP JUMPDEST PUSH2 0x4CE JUMP JUMPDEST SWAP1 POP DUP3 DUP2 MSTORE PUSH1 0x20 DUP2 ADD DUP5 DUP5 DUP5 ADD GT ISZERO PUSH2 0x554 JUMPI PUSH2 0x553 PUSH2 0x46C JUMP JUMPDEST JUMPDEST PUSH2 0x55F DUP5 DUP3 DUP6 PUSH2 0x518 JUMP JUMPDEST POP SWAP4 SWAP3 POP POP POP JUMP JUMPDEST PUSH0 DUP3 PUSH1 0x1F DUP4 ADD SLT PUSH2 0x57B JUMPI PUSH2 0x57A PUSH2 0x468 JUMP JUMPDEST JUMPDEST DUP2 CALLDATALOAD PUSH2 0x58B DUP5 DUP3 PUSH1 0x20 DUP7 ADD PUSH2 0x526 JUMP JUMPDEST SWAP2 POP POP SWAP3 SWAP2 POP POP JUMP JUMPDEST PUSH0 PUSH1 0x20 DUP3 DUP5 SUB SLT ISZERO PUSH2 0x5A9 JUMPI PUSH2 0x5A8 PUSH2 0x372 JUMP JUMPDEST JUMPDEST PUSH0 DUP3 ADD CALLDATALOAD PUSH8 0xFFFFFFFFFFFFFFFF DUP2 GT ISZERO PUSH2 0x5C6 JUMPI PUSH2 0x5C5 PUSH2 0x376 JUMP JUMPDEST JUMPDEST PUSH2 0x5D2 DUP5 DUP3 DUP6 ADD PUSH2 0x567 JUMP JUMPDEST SWAP2 POP POP SWAP3 SWAP2 POP POP JUMP JUMPDEST PUSH2 0x5E4 DUP2 PUSH2 0x37A JUMP JUMPDEST DUP3 MSTORE POP POP JUMP JUMPDEST PUSH0 PUSH1 0x20 DUP3 ADD SWAP1 POP PUSH2 0x5FD PUSH0 DUP4 ADD DUP5 PUSH2 0x5DB JUMP JUMPDEST SWAP3 SWAP2 POP POP JUMP JUMPDEST PUSH0 DUP2 MLOAD SWAP1 POP SWAP2 SWAP1 POP JUMP JUMPDEST PUSH0 DUP3 DUP3 MSTORE PUSH1 0x20 DUP3 ADD SWAP1 POP SWAP3 SWAP2 POP POP JUMP JUMPDEST PUSH0 DUP2 SWAP1 POP PUSH1 0x20 DUP3 ADD SWAP1 POP SWAP2 SWAP1 POP JUMP JUMPDEST PUSH0 DUP3 DUP3 MSTORE PUSH1 0x20 DUP3 ADD SWAP1 POP SWAP3 SWAP2 POP POP JUMP JUMPDEST PUSH0 PUSH2 0x646 DUP3 PUSH2 0x3D8 JUMP JUMPDEST PUSH2 0x650 DUP2 DUP6 PUSH2 0x62C JUMP JUMPDEST SWAP4 POP PUSH2 0x660 DUP2 DUP6 PUSH1 0x20 DUP7 ADD PUSH2 0x3F2 JUMP JUMPDEST PUSH2 0x669 DUP2 PUSH2 0x400 JUMP JUMPDEST DUP5 ADD SWAP2 POP POP SWAP3 SWAP2 POP POP JUMP JUMPDEST PUSH0 PUSH2 0x67F DUP4 DUP4 PUSH2 0x63C JUMP JUMPDEST SWAP1 POP SWAP3 SWAP2 POP POP JUMP JUMPDEST PUSH0 PUSH1 0x20 DUP3 ADD SWAP1 POP SWAP2 SWAP1 POP JUMP JUMPDEST PUSH0 PUSH2 0x69D DUP3 PUSH2 0x603 JUMP JUMPDEST PUSH2 0x6A7 DUP2 DUP6 PUSH2 0x60D JUMP JUMPDEST SWAP4 POP DUP4 PUSH1 0x20 DUP3 MUL DUP6 ADD PUSH2 0x6B9 DUP6 PUSH2 0x61D JUMP JUMPDEST DUP1 PUSH0 JUMPDEST DUP6 DUP2 LT ISZERO PUSH2 0x6F4 JUMPI DUP5 DUP5 SUB DUP10 MSTORE DUP2 MLOAD PUSH2 0x6D5 DUP6 DUP3 PUSH2 0x674 JUMP JUMPDEST SWAP5 POP PUSH2 0x6E0 DUP4 PUSH2 0x687 JUMP JUMPDEST SWAP3 POP PUSH1 0x20 DUP11 ADD SWAP10 POP POP PUSH1 0x1 DUP2 ADD SWAP1 POP PUSH2 0x6BC JUMP JUMPDEST POP DUP3 SWAP8 POP DUP8 SWAP6 POP POP POP POP POP POP SWAP3 SWAP2 POP POP JUMP JUMPDEST PUSH0 PUSH1 0x20 DUP3 ADD SWAP1 POP DUP2 DUP2 SUB PUSH0 DUP4 ADD MSTORE PUSH2 0x71E DUP2 DUP5 PUSH2 0x693 JUMP JUMPDEST SWAP1 POP SWAP3 SWAP2 POP POP JUMP JUMPDEST PUSH32 0x4E487B7100000000000000000000000000000000000000000000000000000000 PUSH0 MSTORE PUSH1 0x22 PUSH1 0x4 MSTORE PUSH1 0x24 PUSH0 REVERT JUMPDEST PUSH0 PUSH1 0x2 DUP3 DIV SWAP1 POP PUSH1 0x1 DUP3 AND DUP1 PUSH2 0x76A JUMPI PUSH1 0x7F DUP3 AND SWAP2 POP JUMPDEST PUSH1 0x20 DUP3 LT DUP2 SUB PUSH2 0x77D JUMPI PUSH2 0x77C PUSH2 0x726 JUMP JUMPDEST JUMPDEST POP SWAP2 SWAP1 POP JUMP JUMPDEST PUSH0 DUP2 SWAP1 POP DUP2 PUSH0 MSTORE PUSH1 0x20 PUSH0 KECCAK256 SWAP1 POP SWAP2 SWAP1 POP JUMP JUMPDEST PUSH0 PUSH1 0x20 PUSH1 0x1F DUP4 ADD DIV SWAP1 POP SWAP2 SWAP1 POP JUMP JUMPDEST PUSH0 DUP3 DUP3 SHL SWAP1 POP SWAP3 SWAP2 POP POP JUMP JUMPDEST PUSH0 PUSH1 0x8 DUP4 MUL PUSH2 0x7DF PUSH32 0xFFFFFFFFFFFFFFFFFFFFFFFFFFFFFFFFFFFFFFFFFFFFFFFFFFFFFFFFFFFFFFFF DUP3 PUSH2 0x7A4 JUMP JUMPDEST PUSH2 0x7E9 DUP7 DUP4 PUSH2 0x7A4 JUMP JUMPDEST SWAP6 POP DUP1 NOT DUP5 AND SWAP4 POP DUP1 DUP7 AND DUP5 OR SWAP3 POP POP POP SWAP4 SWAP3 POP POP POP JUMP JUMPDEST PUSH0 DUP2 SWAP1 POP SWAP2 SWAP1 POP JUMP JUMPDEST PUSH0 PUSH2 0x824 PUSH2 0x81F PUSH2 0x81A DUP5 PUSH2 0x37A JUMP JUMPDEST PUSH2 0x801 JUMP JUMPDEST PUSH2 0x37A JUMP JUMPDEST SWAP1 POP SWAP2 SWAP1 POP JUMP JUMPDEST PUSH0 DUP2 SWAP1 POP SWAP2 SWAP1 POP JUMP JUMPDEST PUSH2 0x83D DUP4 PUSH2 0x80A JUMP JUMPDEST PUSH2 0x851 PUSH2 0x849 DUP3 PUSH2 0x82B JUMP JUMPDEST DUP5 DUP5 SLOAD PUSH2 0x7B0 JUMP JUMPDEST DUP3 SSTORE POP POP POP POP JUMP JUMPDEST PUSH0 SWAP1 JUMP JUMPDEST PUSH2 0x865 PUSH2 0x859 JUMP JUMPDEST PUSH2 0x870 DUP2 DUP5 DUP5 PUSH2 0x834 JUMP JUMPDEST POP POP POP JUMP JUMPDEST JUMPDEST DUP2 DUP2 LT ISZERO PUSH2 0x893 JUMPI PUSH2 0x888 PUSH0 DUP3 PUSH2 0x85D JUMP JUMPDEST PUSH1 0x1 DUP2 ADD SWAP1 POP PUSH2 0x876 JUMP JUMPDEST POP POP JUMP JUMPDEST PUSH1 0x1F DUP3 GT ISZERO PUSH2 0x8D8 JUMPI PUSH2 0x8A9 DUP2 PUSH2 0x783 JUMP JUMPDEST PUSH2 0x8B2 DUP5 PUSH2 0x795 JUMP JUMPDEST DUP2 ADD PUSH1 0x20 DUP6 LT ISZERO PUSH2 0x8C1 JUMPI DUP2 SWAP1 POP JUMPDEST PUSH2 0x8D5 PUSH2 0x8CD DUP6 PUSH2 0x795 JUMP JUMPDEST DUP4 ADD DUP3 PUSH2 0x875 JUMP JUMPDEST POP POP JUMPDEST POP POP POP JUMP JUMPDEST PUSH0 DUP3 DUP3 SHR SWAP1 POP SWAP3 SWAP2 POP POP JUMP JUMPDEST PUSH0 PUSH2 0x8F8 PUSH0 NOT DUP5 PUSH1 0x8 MUL PUSH2 0x8DD JUMP JUMPDEST NOT DUP1 DUP4 AND SWAP2 POP POP SWAP3 SWAP2 POP POP JUMP JUMPDEST PUSH0 PUSH2 0x910 DUP4 DUP4 PUSH2 0x8E9 JUMP JUMPDEST SWAP2 POP DUP3 PUSH1 0x2 MUL DUP3 OR SWAP1 POP SWAP3 SWAP2 POP POP JUMP JUMPDEST PUSH2 0x929 DUP3 PUSH2 0x3D8 JUMP JUMPDEST PUSH8 0xFFFFFFFFFFFFFFFF DUP2 GT ISZERO PUSH2 0x942 JUMPI PUSH2 0x941 PUSH2 0x470 JUMP JUMPDEST JUMPDEST PUSH2 0x94C DUP3 SLOAD PUSH2 0x753 JUMP JUMPDEST PUSH2 0x957 DUP3 DUP3 DUP6 PUSH2 0x897 JUMP JUMPDEST PUSH0 PUSH1 0x20 SWAP1 POP PUSH1 0x1F DUP4 GT PUSH1 0x1 DUP2 EQ PUSH2 0x988 JUMPI PUSH0 DUP5 ISZERO PUSH2 0x976 JUMPI DUP3 DUP8 ADD MLOAD SWAP1 POP JUMPDEST PUSH2 0x980 DUP6 DUP3 PUSH2 0x905 JUMP JUMPDEST DUP7 SSTORE POP PUSH2 0x9E7 JUMP JUMPDEST PUSH1 0x1F NOT DUP5 AND PUSH2 0x996 DUP7 PUSH2 0x783 JUMP JUMPDEST PUSH0 JUMPDEST DUP3 DUP2 LT ISZERO PUSH2 0x9BD JUMPI DUP5 DUP10 ADD MLOAD DUP3 SSTORE PUSH1 0x1 DUP3 ADD SWAP2 POP PUSH1 0x20 DUP6 ADD SWAP5 POP PUSH1 0x20 DUP2 ADD SWAP1 POP PUSH2 0x998 JUMP JUMPDEST DUP7 DUP4 LT ISZERO PUSH2 0x9DA JUMPI DUP5 DUP10 ADD MLOAD PUSH2 0x9D6 PUSH1 0x1F DUP10 AND DUP3 PUSH2 0x8E9 JUMP JUMPDEST DUP4 SSTORE POP JUMPDEST PUSH1 0x1 PUSH1 0x2 DUP9 MUL ADD DUP9 SSTORE POP POP POP JUMPDEST POP POP POP POP POP POP JUMP JUMPDEST PUSH32 0x4E487B7100000000000000000000000000000000000000000000000000000000 PUSH0 MSTORE PUSH1 0x32 PUSH1 0x4 MSTORE PUSH1 0x24 PUSH0 REVERT INVALID LOG2 PUSH5 0x6970667358 0x22 SLT KECCAK256 CALLCODE 0xDF 0xD0 PUSH6 0x30DE89E96B5B SMOD 0xB9 0xC0 0xC8 SWAP3 SMOD 0xE0 PUSH0 PUSH29 0xA1222F1598E6BEE853E9F972C564736F6C634300081A00330000000000 "
				},
				"gasEstimates": {
					"creation": {
						"codeDepositCost": "528400",
						"executionCost": "infinite",
						"totalCost": "infinite"
					},
					"external": {
						"get(uint256)": "infinite",
						"getNames()": "infinite",
						"myArray(uint256)": "infinite",
						"names(uint256)": "infinite",
						"numbers(uint256)": "infinite",
						"set(string)": "infinite"
					}
				},
				"methodIdentifiers": {
					"get(uint256)": "9507d39a",
					"getNames()": "cd838f0f",
					"myArray(uint256)": "cc3e57d9",
					"names(uint256)": "4622ab03",
					"numbers(uint256)": "d39fa233",
					"set(string)": "4ed3885e"
				}
			},
			"storageLayout": {
				"storage": [
					{
						"astId": 8,
						"contract": "contracts/Array.sol:ArrayExample",
						"label": "numbers",
						"offset": 0,
						"slot": "0",
						"type": "t_array(t_uint256)dyn_storage"
					},
					{
						"astId": 14,
						"contract": "contracts/Array.sol:ArrayExample",
						"label": "names",
						"offset": 0,
						"slot": "1",
						"type": "t_array(t_string_storage)dyn_storage"
					},
					{
						"astId": 18,
						"contract": "contracts/Array.sol:ArrayExample",
						"label": "myArray",
						"offset": 0,
						"slot": "2",
						"type": "t_array(t_uint256)5_storage"
					}
				],
				"types": {
					"t_array(t_string_storage)dyn_storage": {
						"base": "t_string_storage",
						"encoding": "dynamic_array",
						"label": "string[]",
						"numberOfBytes": "32"
					},
					"t_array(t_uint256)5_storage": {
						"base": "t_uint256",
						"encoding": "inplace",
						"label": "uint256[5]",
						"numberOfBytes": "160"
					},
					"t_array(t_uint256)dyn_storage": {
						"base": "t_uint256",
						"encoding": "dynamic_array",
						"label": "uint256[]",
						"numberOfBytes": "32"
					},
					"t_string_storage": {
						"encoding": "bytes",
						"label": "string",
						"numberOfBytes": "32"
					},
					"t_uint256": {
						"encoding": "inplace",
						"label": "uint256",
						"numberOfBytes": "32"
					}
				}
			},
			"userdoc": {
				"kind": "user",
				"methods": {},
				"version": 1
			}
		}
	}
}