{
	"contracts/Twitter.sol": {
		"Twitter": {
			"abi": [
				{
					"inputs": [],
					"stateMutability": "nonpayable",
					"type": "constructor"
				},
				{
					"anonymous": false,
					"inputs": [
						{
							"indexed": false,
							"internalType": "uint256",
							"name": "id",
							"type": "uint256"
						},
						{
							"indexed": true,
							"internalType": "address",
							"name": "author",
							"type": "address"
						},
						{
							"indexed": false,
							"internalType": "string",
							"name": "content",
							"type": "string"
						},
						{
							"indexed": false,
							"internalType": "uint256",
							"name": "timestamp",
							"type": "uint256"
						}
					],
					"name": "TweetCreated",
					"type": "event"
				},
				{
					"anonymous": false,
					"inputs": [
						{
							"indexed": false,
							"internalType": "address",
							"name": "liker",
							"type": "address"
						},
						{
							"indexed": true,
							"internalType": "address",
							"name": "tweetAuthor",
							"type": "address"
						},
						{
							"indexed": false,
							"internalType": "uint256",
							"name": "tweetId",
							"type": "uint256"
						},
						{
							"indexed": false,
							"internalType": "uint256",
							"name": "newLikeCount",
							"type": "uint256"
						}
					],
					"name": "TweetLiked",
					"type": "event"
				},
				{
					"anonymous": false,
					"inputs": [
						{
							"indexed": false,
							"internalType": "address",
							"name": "liker",
							"type": "address"
						},
						{
							"indexed": true,
							"internalType": "address",
							"name": "tweetAuthor",
							"type": "address"
						},
						{
							"indexed": false,
							"internalType": "uint256",
							"name": "tweetId",
							"type": "uint256"
						},
						{
							"indexed": false,
							"internalType": "uint256",
							"name": "newLikeCount",
							"type": "uint256"
						}
					],
					"name": "TweetUnliked",
					"type": "event"
				},
				{
					"inputs": [],
					"name": "MAX_TWEET_LENGTH",
					"outputs": [
						{
							"internalType": "uint16",
							"name": "",
							"type": "uint16"
						}
					],
					"stateMutability": "view",
					"type": "function"
				},
				{
					"inputs": [
						{
							"internalType": "uint16",
							"name": "newLength",
							"type": "uint16"
						}
					],
					"name": "changeTweetLength",
					"outputs": [],
					"stateMutability": "nonpayable",
					"type": "function"
				},
				{
					"inputs": [
						{
							"internalType": "string",
							"name": "_tweet",
							"type": "string"
						}
					],
					"name": "createTweet",
					"outputs": [],
					"stateMutability": "nonpayable",
					"type": "function"
				},
				{
					"inputs": [
						{
							"internalType": "address",
							"name": "_owner",
							"type": "address"
						}
					],
					"name": "getAllTweets",
					"outputs": [
						{
							"components": [
								{
									"internalType": "uint256",
									"name": "id",
									"type": "uint256"
								},
								{
									"internalType": "address",
									"name": "author",
									"type": "address"
								},
								{
									"internalType": "string",
									"name": "content",
									"type": "string"
								},
								{
									"internalType": "uint256",
									"name": "createdAt",
									"type": "uint256"
								},
								{
									"internalType": "uint256",
									"name": "likes",
									"type": "uint256"
								}
							],
							"internalType": "struct Twitter.Tweet[]",
							"name": "",
							"type": "tuple[]"
						}
					],
					"stateMutability": "view",
					"type": "function"
				},
				{
					"inputs": [
						{
							"internalType": "uint256",
							"name": "_i",
							"type": "uint256"
						}
					],
					"name": "getTweet",
					"outputs": [
						{
							"components": [
								{
									"internalType": "uint256",
									"name": "id",
									"type": "uint256"
								},
								{
									"internalType": "address",
									"name": "author",
									"type": "address"
								},
								{
									"internalType": "string",
									"name": "content",
									"type": "string"
								},
								{
									"internalType": "uint256",
									"name": "createdAt",
									"type": "uint256"
								},
								{
									"internalType": "uint256",
									"name": "likes",
									"type": "uint256"
								}
							],
							"internalType": "struct Twitter.Tweet",
							"name": "",
							"type": "tuple"
						}
					],
					"stateMutability": "view",
					"type": "function"
				},
				{
					"inputs": [
						{
							"internalType": "address",
							"name": "author",
							"type": "address"
						},
						{
							"internalType": "uint256",
							"name": "id",
							"type": "uint256"
						}
					],
					"name": "likeTweet",
					"outputs": [],
					"stateMutability": "nonpayable",
					"type": "function"
				},
				{
					"inputs": [],
					"name": "owner",
					"outputs": [
						{
							"internalType": "address",
							"name": "",
							"type": "address"
						}
					],
					"stateMutability": "view",
					"type": "function"
				},
				{
					"inputs": [
						{
							"internalType": "address",
							"name": "",
							"type": "address"
						},
						{
							"internalType": "uint256",
							"name": "",
							"type": "uint256"
						}
					],
					"name": "tweets",
					"outputs": [
						{
							"internalType": "uint256",
							"name": "id",
							"type": "uint256"
						},
						{
							"internalType": "address",
							"name": "author",
							"type": "address"
						},
						{
							"internalType": "string",
							"name": "content",
							"type": "string"
						},
						{
							"internalType": "uint256",
							"name": "createdAt",
							"type": "uint256"
						},
						{
							"internalType": "uint256",
							"name": "likes",
							"type": "uint256"
						}
					],
					"stateMutability": "view",
					"type": "function"
				},
				{
					"inputs": [
						{
							"internalType": "address",
							"name": "author",
							"type": "address"
						},
						{
							"internalType": "uint256",
							"name": "id",
							"type": "uint256"
						}
					],
					"name": "unlikeTweet",
					"outputs": [],
					"stateMutability": "nonpayable",
					"type": "function"
				}
			],
			"devdoc": {
				"kind": "dev",
				"methods": {},
				"version": 1
			},
			"evm": {
				"assembly": "    /* \"contracts/Twitter.sol\":67:2476  contract  Twitter{ ... */\n  mstore(0x40, 0x80)\n    /* \"contracts/Twitter.sol\":254:257  280 */\n  0x0118\n    /* \"contracts/Twitter.sol\":221:257  uint16 public MAX_TWEET_LENGTH = 280 */\n  0x00\n  exp(0x0100, 0x14)\n  dup2\n  sload\n  dup2\n  0xffff\n  mul\n  not\n  and\n  swap1\n  dup4\n  0xffff\n  and\n  mul\n  or\n  swap1\n  sstore\n  pop\n    /* \"contracts/Twitter.sol\":140:190  constructor(){... */\n  callvalue\n  dup1\n  iszero\n  tag_1\n  jumpi\n  0x00\n  dup1\n  revert\ntag_1:\n  pop\n    /* \"contracts/Twitter.sol\":172:182  msg.sender */\n  caller\n    /* \"contracts/Twitter.sol\":164:169  owner */\n  0x00\n  dup1\n    /* \"contracts/Twitter.sol\":164:182  owner = msg.sender */\n  0x0100\n  exp\n  dup2\n  sload\n  dup2\n  0xffffffffffffffffffffffffffffffffffffffff\n  mul\n  not\n  and\n  swap1\n  dup4\n  0xffffffffffffffffffffffffffffffffffffffff\n  and\n  mul\n  or\n  swap1\n  sstore\n  pop\n    /* \"contracts/Twitter.sol\":67:2476  contract  Twitter{ ... */\n  dataSize(sub_0)\n  dup1\n  dataOffset(sub_0)\n  0x00\n  codecopy\n  0x00\n  return\nstop\n\nsub_0: assembly {\n        /* \"contracts/Twitter.sol\":67:2476  contract  Twitter{ ... */\n      mstore(0x40, 0x80)\n      callvalue\n      dup1\n      iszero\n      tag_1\n      jumpi\n      0x00\n      dup1\n      revert\n    tag_1:\n      pop\n      jumpi(tag_2, lt(calldatasize, 0x04))\n      shr(0xe0, calldataload(0x00))\n      dup1\n      0x63378216\n      gt\n      tag_12\n      jumpi\n      dup1\n      0x63378216\n      eq\n      tag_7\n      jumpi\n      dup1\n      0x6eb10797\n      eq\n      tag_8\n      jumpi\n      dup1\n      0x7c9cd2bc\n      eq\n      tag_9\n      jumpi\n      dup1\n      0x8da5cb5b\n      eq\n      tag_10\n      jumpi\n      dup1\n      0xc3ad5ecb\n      eq\n      tag_11\n      jumpi\n      jump(tag_2)\n    tag_12:\n      dup1\n      0x05a1b4a9\n      eq\n      tag_3\n      jumpi\n      dup1\n      0x12e7ee1c\n      eq\n      tag_4\n      jumpi\n      dup1\n      0x3d9b569f\n      eq\n      tag_5\n      jumpi\n      dup1\n      0x58bfa4ab\n      eq\n      tag_6\n      jumpi\n    tag_2:\n      0x00\n      dup1\n      revert\n        /* \"contracts/Twitter.sol\":798:842  mapping (address => Tweet[]) public   tweets */\n    tag_3:\n      tag_13\n      0x04\n      dup1\n      calldatasize\n      sub\n      dup2\n      add\n      swap1\n      tag_14\n      swap2\n      swap1\n      tag_15\n      jump\t// in\n    tag_14:\n      tag_16\n      jump\t// in\n    tag_13:\n      mload(0x40)\n      tag_17\n      swap6\n      swap5\n      swap4\n      swap3\n      swap2\n      swap1\n      tag_18\n      jump\t// in\n    tag_17:\n      mload(0x40)\n      dup1\n      swap2\n      sub\n      swap1\n      return\n        /* \"contracts/Twitter.sol\":2356:2473  function getAllTweets(address _owner) public view returns  (Tweet[] memory) {... */\n    tag_4:\n      tag_19\n      0x04\n      dup1\n      calldatasize\n      sub\n      dup2\n      add\n      swap1\n      tag_20\n      swap2\n      swap1\n      tag_21\n      jump\t// in\n    tag_20:\n      tag_22\n      jump\t// in\n    tag_19:\n      mload(0x40)\n      tag_23\n      swap2\n      swap1\n      tag_24\n      jump\t// in\n    tag_23:\n      mload(0x40)\n      dup1\n      swap2\n      sub\n      swap1\n      return\n        /* \"contracts/Twitter.sol\":1341:1663  function unlikeTweet(address author, uint256 id) external  {... */\n    tag_5:\n      tag_25\n      0x04\n      dup1\n      calldatasize\n      sub\n      dup2\n      add\n      swap1\n      tag_26\n      swap2\n      swap1\n      tag_15\n      jump\t// in\n    tag_26:\n      tag_27\n      jump\t// in\n    tag_25:\n      stop\n        /* \"contracts/Twitter.sol\":966:1076  function changeTweetLength (uint16 newLength) public onlyOwner {... */\n    tag_6:\n      tag_28\n      0x04\n      dup1\n      calldatasize\n      sub\n      dup2\n      add\n      swap1\n      tag_29\n      swap2\n      swap1\n      tag_30\n      jump\t// in\n    tag_29:\n      tag_31\n      jump\t// in\n    tag_28:\n      stop\n        /* \"contracts/Twitter.sol\":1084:1333  function likeTweet(address author, uint256 id) external  {... */\n    tag_7:\n      tag_32\n      0x04\n      dup1\n      calldatasize\n      sub\n      dup2\n      add\n      swap1\n      tag_33\n      swap2\n      swap1\n      tag_15\n      jump\t// in\n    tag_33:\n      tag_34\n      jump\t// in\n    tag_32:\n      stop\n        /* \"contracts/Twitter.sol\":221:257  uint16 public MAX_TWEET_LENGTH = 280 */\n    tag_8:\n      tag_35\n      tag_36\n      jump\t// in\n    tag_35:\n      mload(0x40)\n      tag_37\n      swap2\n      swap1\n      tag_38\n      jump\t// in\n    tag_37:\n      mload(0x40)\n      dup1\n      swap2\n      sub\n      swap1\n      return\n        /* \"contracts/Twitter.sol\":1671:2231  function createTweet(string memory _tweet )public {... */\n    tag_9:\n      tag_39\n      0x04\n      dup1\n      calldatasize\n      sub\n      dup2\n      add\n      swap1\n      tag_40\n      swap2\n      swap1\n      tag_41\n      jump\t// in\n    tag_40:\n      tag_42\n      jump\t// in\n    tag_39:\n      stop\n        /* \"contracts/Twitter.sol\":92:112  address public owner */\n    tag_10:\n      tag_43\n      tag_44\n      jump\t// in\n    tag_43:\n      mload(0x40)\n      tag_45\n      swap2\n      swap1\n      tag_46\n      jump\t// in\n    tag_45:\n      mload(0x40)\n      dup1\n      swap2\n      sub\n      swap1\n      return\n        /* \"contracts/Twitter.sol\":2239:2348  function getTweet(uint _i) public view returns (Tweet memory){... */\n    tag_11:\n      tag_47\n      0x04\n      dup1\n      calldatasize\n      sub\n      dup2\n      add\n      swap1\n      tag_48\n      swap2\n      swap1\n      tag_49\n      jump\t// in\n    tag_48:\n      tag_50\n      jump\t// in\n    tag_47:\n      mload(0x40)\n      tag_51\n      swap2\n      swap1\n      tag_52\n      jump\t// in\n    tag_51:\n      mload(0x40)\n      dup1\n      swap2\n      sub\n      swap1\n      return\n        /* \"contracts/Twitter.sol\":798:842  mapping (address => Tweet[]) public   tweets */\n    tag_16:\n      mstore(0x20, 0x01)\n      dup2\n      0x00\n      mstore\n      keccak256(0x00, 0x40)\n      dup2\n      dup2\n      sload\n      dup2\n      lt\n      tag_53\n      jumpi\n      0x00\n      dup1\n      revert\n    tag_53:\n      swap1\n      0x00\n      mstore\n      keccak256(0x00, 0x20)\n      swap1\n      0x05\n      mul\n      add\n      0x00\n      swap2\n      pop\n      swap2\n      pop\n      pop\n      dup1\n      0x00\n      add\n      sload\n      swap1\n      dup1\n      0x01\n      add\n      0x00\n      swap1\n      sload\n      swap1\n      0x0100\n      exp\n      swap1\n      div\n      0xffffffffffffffffffffffffffffffffffffffff\n      and\n      swap1\n      dup1\n      0x02\n      add\n      dup1\n      sload\n      tag_55\n      swap1\n      tag_56\n      jump\t// in\n    tag_55:\n      dup1\n      0x1f\n      add\n      0x20\n      dup1\n      swap2\n      div\n      mul\n      0x20\n      add\n      mload(0x40)\n      swap1\n      dup2\n      add\n      0x40\n      mstore\n      dup1\n      swap3\n      swap2\n      swap1\n      dup2\n      dup2\n      mstore\n      0x20\n      add\n      dup3\n      dup1\n      sload\n      tag_57\n      swap1\n      tag_56\n      jump\t// in\n    tag_57:\n      dup1\n      iszero\n      tag_58\n      jumpi\n      dup1\n      0x1f\n      lt\n      tag_59\n      jumpi\n      0x0100\n      dup1\n      dup4\n      sload\n      div\n      mul\n      dup4\n      mstore\n      swap2\n      0x20\n      add\n      swap2\n      jump(tag_58)\n    tag_59:\n      dup3\n      add\n      swap2\n      swap1\n      0x00\n      mstore\n      keccak256(0x00, 0x20)\n      swap1\n    tag_60:\n      dup2\n      sload\n      dup2\n      mstore\n      swap1\n      0x01\n      add\n      swap1\n      0x20\n      add\n      dup1\n      dup4\n      gt\n      tag_60\n      jumpi\n      dup3\n      swap1\n      sub\n      0x1f\n      and\n      dup3\n      add\n      swap2\n    tag_58:\n      pop\n      pop\n      pop\n      pop\n      pop\n      swap1\n      dup1\n      0x03\n      add\n      sload\n      swap1\n      dup1\n      0x04\n      add\n      sload\n      swap1\n      pop\n      dup6\n      jump\t// out\n        /* \"contracts/Twitter.sol\":2356:2473  function getAllTweets(address _owner) public view returns  (Tweet[] memory) {... */\n    tag_22:\n        /* \"contracts/Twitter.sol\":2416:2430  Tweet[] memory */\n      0x60\n        /* \"contracts/Twitter.sol\":2451:2457  tweets */\n      0x01\n        /* \"contracts/Twitter.sol\":2451:2465  tweets[_owner] */\n      0x00\n        /* \"contracts/Twitter.sol\":2458:2464  _owner */\n      dup4\n        /* \"contracts/Twitter.sol\":2451:2465  tweets[_owner] */\n      0xffffffffffffffffffffffffffffffffffffffff\n      and\n      0xffffffffffffffffffffffffffffffffffffffff\n      and\n      dup2\n      mstore\n      0x20\n      add\n      swap1\n      dup2\n      mstore\n      0x20\n      add\n      0x00\n      keccak256\n        /* \"contracts/Twitter.sol\":2443:2465  return  tweets[_owner] */\n      dup1\n      sload\n      dup1\n      0x20\n      mul\n      0x20\n      add\n      mload(0x40)\n      swap1\n      dup2\n      add\n      0x40\n      mstore\n      dup1\n      swap3\n      swap2\n      swap1\n      dup2\n      dup2\n      mstore\n      0x20\n      add\n      0x00\n      swap1\n    tag_62:\n      dup3\n      dup3\n      lt\n      iszero\n      tag_63\n      jumpi\n      dup4\n      dup3\n      swap1\n      0x00\n      mstore\n      keccak256(0x00, 0x20)\n      swap1\n      0x05\n      mul\n      add\n      mload(0x40)\n      dup1\n      0xa0\n      add\n      0x40\n      mstore\n      swap1\n      dup2\n      0x00\n      dup3\n      add\n      sload\n      dup2\n      mstore\n      0x20\n      add\n      0x01\n      dup3\n      add\n      0x00\n      swap1\n      sload\n      swap1\n      0x0100\n      exp\n      swap1\n      div\n      0xffffffffffffffffffffffffffffffffffffffff\n      and\n      0xffffffffffffffffffffffffffffffffffffffff\n      and\n      0xffffffffffffffffffffffffffffffffffffffff\n      and\n      dup2\n      mstore\n      0x20\n      add\n      0x02\n      dup3\n      add\n      dup1\n      sload\n      tag_65\n      swap1\n      tag_56\n      jump\t// in\n    tag_65:\n      dup1\n      0x1f\n      add\n      0x20\n      dup1\n      swap2\n      div\n      mul\n      0x20\n      add\n      mload(0x40)\n      swap1\n      dup2\n      add\n      0x40\n      mstore\n      dup1\n      swap3\n      swap2\n      swap1\n      dup2\n      dup2\n      mstore\n      0x20\n      add\n      dup3\n      dup1\n      sload\n      tag_66\n      swap1\n      tag_56\n      jump\t// in\n    tag_66:\n      dup1\n      iszero\n      tag_67\n      jumpi\n      dup1\n      0x1f\n      lt\n      tag_68\n      jumpi\n      0x0100\n      dup1\n      dup4\n      sload\n      div\n      mul\n      dup4\n      mstore\n      swap2\n      0x20\n      add\n      swap2\n      jump(tag_67)\n    tag_68:\n      dup3\n      add\n      swap2\n      swap1\n      0x00\n      mstore\n      keccak256(0x00, 0x20)\n      swap1\n    tag_69:\n      dup2\n      sload\n      dup2\n      mstore\n      swap1\n      0x01\n      add\n      swap1\n      0x20\n      add\n      dup1\n      dup4\n      gt\n      tag_69\n      jumpi\n      dup3\n      swap1\n      sub\n      0x1f\n      and\n      dup3\n      add\n      swap2\n    tag_67:\n      pop\n      pop\n      pop\n      pop\n      pop\n      dup2\n      mstore\n      0x20\n      add\n      0x03\n      dup3\n      add\n      sload\n      dup2\n      mstore\n      0x20\n      add\n      0x04\n      dup3\n      add\n      sload\n      dup2\n      mstore\n      pop\n      pop\n      dup2\n      mstore\n      0x20\n      add\n      swap1\n      0x01\n      add\n      swap1\n      jump(tag_62)\n    tag_63:\n      pop\n      pop\n      pop\n      pop\n      swap1\n      pop\n        /* \"contracts/Twitter.sol\":2356:2473  function getAllTweets(address _owner) public view returns  (Tweet[] memory) {... */\n      swap2\n      swap1\n      pop\n      jump\t// out\n        /* \"contracts/Twitter.sol\":1341:1663  function unlikeTweet(address author, uint256 id) external  {... */\n    tag_27:\n        /* \"contracts/Twitter.sol\":1444:1446  id */\n      dup1\n        /* \"contracts/Twitter.sol\":1419:1425  tweets */\n      0x01\n        /* \"contracts/Twitter.sol\":1419:1433  tweets[author] */\n      0x00\n        /* \"contracts/Twitter.sol\":1426:1432  author */\n      dup5\n        /* \"contracts/Twitter.sol\":1419:1433  tweets[author] */\n      0xffffffffffffffffffffffffffffffffffffffff\n      and\n      0xffffffffffffffffffffffffffffffffffffffff\n      and\n      dup2\n      mstore\n      0x20\n      add\n      swap1\n      dup2\n      mstore\n      0x20\n      add\n      0x00\n      keccak256\n        /* \"contracts/Twitter.sol\":1434:1436  id */\n      dup3\n        /* \"contracts/Twitter.sol\":1419:1437  tweets[author][id] */\n      dup2\n      sload\n      dup2\n      lt\n      tag_71\n      jumpi\n      tag_72\n      tag_73\n      jump\t// in\n    tag_72:\n    tag_71:\n      swap1\n      0x00\n      mstore\n      keccak256(0x00, 0x20)\n      swap1\n      0x05\n      mul\n      add\n        /* \"contracts/Twitter.sol\":1419:1440  tweets[author][id].id */\n      0x00\n      add\n      sload\n        /* \"contracts/Twitter.sol\":1419:1446  tweets[author][id].id == id */\n      eq\n        /* \"contracts/Twitter.sol\":1411:1471  require(tweets[author][id].id == id,\"TWEET DOES NOT EXIST!\") */\n      tag_75\n      jumpi\n      mload(0x40)\n      0x08c379a000000000000000000000000000000000000000000000000000000000\n      dup2\n      mstore\n      0x04\n      add\n      tag_76\n      swap1\n      tag_77\n      jump\t// in\n    tag_76:\n      mload(0x40)\n      dup1\n      swap2\n      sub\n      swap1\n      revert\n    tag_75:\n        /* \"contracts/Twitter.sol\":1517:1518  0 */\n      0x00\n        /* \"contracts/Twitter.sol\":1490:1496  tweets */\n      0x01\n        /* \"contracts/Twitter.sol\":1490:1504  tweets[author] */\n      0x00\n        /* \"contracts/Twitter.sol\":1497:1503  author */\n      dup5\n        /* \"contracts/Twitter.sol\":1490:1504  tweets[author] */\n      0xffffffffffffffffffffffffffffffffffffffff\n      and\n      0xffffffffffffffffffffffffffffffffffffffff\n      and\n      dup2\n      mstore\n      0x20\n      add\n      swap1\n      dup2\n      mstore\n      0x20\n      add\n      0x00\n      keccak256\n        /* \"contracts/Twitter.sol\":1505:1507  id */\n      dup3\n        /* \"contracts/Twitter.sol\":1490:1508  tweets[author][id] */\n      dup2\n      sload\n      dup2\n      lt\n      tag_78\n      jumpi\n      tag_79\n      tag_73\n      jump\t// in\n    tag_79:\n    tag_78:\n      swap1\n      0x00\n      mstore\n      keccak256(0x00, 0x20)\n      swap1\n      0x05\n      mul\n      add\n        /* \"contracts/Twitter.sol\":1490:1514  tweets[author][id].likes */\n      0x04\n      add\n      sload\n        /* \"contracts/Twitter.sol\":1490:1518  tweets[author][id].likes > 0 */\n      gt\n        /* \"contracts/Twitter.sol\":1482:1540  require(tweets[author][id].likes > 0,\"TWEET HAS NO LIKES\") */\n      tag_81\n      jumpi\n      mload(0x40)\n      0x08c379a000000000000000000000000000000000000000000000000000000000\n      dup2\n      mstore\n      0x04\n      add\n      tag_82\n      swap1\n      tag_83\n      jump\t// in\n    tag_82:\n      mload(0x40)\n      dup1\n      swap2\n      sub\n      swap1\n      revert\n    tag_81:\n        /* \"contracts/Twitter.sol\":1551:1557  tweets */\n      0x01\n        /* \"contracts/Twitter.sol\":1551:1565  tweets[author] */\n      0x00\n        /* \"contracts/Twitter.sol\":1558:1564  author */\n      dup4\n        /* \"contracts/Twitter.sol\":1551:1565  tweets[author] */\n      0xffffffffffffffffffffffffffffffffffffffff\n      and\n      0xffffffffffffffffffffffffffffffffffffffff\n      and\n      dup2\n      mstore\n      0x20\n      add\n      swap1\n      dup2\n      mstore\n      0x20\n      add\n      0x00\n      keccak256\n        /* \"contracts/Twitter.sol\":1566:1568  id */\n      dup2\n        /* \"contracts/Twitter.sol\":1551:1569  tweets[author][id] */\n      dup2\n      sload\n      dup2\n      lt\n      tag_84\n      jumpi\n      tag_85\n      tag_73\n      jump\t// in\n    tag_85:\n    tag_84:\n      swap1\n      0x00\n      mstore\n      keccak256(0x00, 0x20)\n      swap1\n      0x05\n      mul\n      add\n        /* \"contracts/Twitter.sol\":1551:1575  tweets[author][id].likes */\n      0x04\n      add\n      0x00\n        /* \"contracts/Twitter.sol\":1551:1577  tweets[author][id].likes-- */\n      dup2\n      sload\n      dup1\n      swap3\n      swap2\n      swap1\n      tag_87\n      swap1\n      tag_88\n      jump\t// in\n    tag_87:\n      swap2\n      swap1\n      pop\n      sstore\n      pop\n        /* \"contracts/Twitter.sol\":1618:1624  author */\n      dup2\n        /* \"contracts/Twitter.sol\":1593:1655  TweetUnliked(msg.sender, author, id, tweets[author][id].likes) */\n      0xffffffffffffffffffffffffffffffffffffffff\n      and\n      0x762c2616349603ac16eba0de8e6141b79129a07ab63bd99e0a80b3a471716943\n        /* \"contracts/Twitter.sol\":1606:1616  msg.sender */\n      caller\n        /* \"contracts/Twitter.sol\":1626:1628  id */\n      dup4\n        /* \"contracts/Twitter.sol\":1630:1636  tweets */\n      0x01\n        /* \"contracts/Twitter.sol\":1630:1644  tweets[author] */\n      0x00\n        /* \"contracts/Twitter.sol\":1637:1643  author */\n      dup8\n        /* \"contracts/Twitter.sol\":1630:1644  tweets[author] */\n      0xffffffffffffffffffffffffffffffffffffffff\n      and\n      0xffffffffffffffffffffffffffffffffffffffff\n      and\n      dup2\n      mstore\n      0x20\n      add\n      swap1\n      dup2\n      mstore\n      0x20\n      add\n      0x00\n      keccak256\n        /* \"contracts/Twitter.sol\":1645:1647  id */\n      dup6\n        /* \"contracts/Twitter.sol\":1630:1648  tweets[author][id] */\n      dup2\n      sload\n      dup2\n      lt\n      tag_89\n      jumpi\n      tag_90\n      tag_73\n      jump\t// in\n    tag_90:\n    tag_89:\n      swap1\n      0x00\n      mstore\n      keccak256(0x00, 0x20)\n      swap1\n      0x05\n      mul\n      add\n        /* \"contracts/Twitter.sol\":1630:1654  tweets[author][id].likes */\n      0x04\n      add\n      sload\n        /* \"contracts/Twitter.sol\":1593:1655  TweetUnliked(msg.sender, author, id, tweets[author][id].likes) */\n      mload(0x40)\n      tag_92\n      swap4\n      swap3\n      swap2\n      swap1\n      tag_93\n      jump\t// in\n    tag_92:\n      mload(0x40)\n      dup1\n      swap2\n      sub\n      swap1\n      log2\n        /* \"contracts/Twitter.sol\":1341:1663  function unlikeTweet(address author, uint256 id) external  {... */\n      pop\n      pop\n      jump\t// out\n        /* \"contracts/Twitter.sol\":966:1076  function changeTweetLength (uint16 newLength) public onlyOwner {... */\n    tag_31:\n        /* \"contracts/Twitter.sol\":906:911  owner */\n      0x00\n      dup1\n      sload\n      swap1\n      0x0100\n      exp\n      swap1\n      div\n      0xffffffffffffffffffffffffffffffffffffffff\n      and\n        /* \"contracts/Twitter.sol\":892:911  msg.sender == owner */\n      0xffffffffffffffffffffffffffffffffffffffff\n      and\n        /* \"contracts/Twitter.sol\":892:902  msg.sender */\n      caller\n        /* \"contracts/Twitter.sol\":892:911  msg.sender == owner */\n      0xffffffffffffffffffffffffffffffffffffffff\n      and\n      eq\n        /* \"contracts/Twitter.sol\":884:938  require(msg.sender == owner, \"You Are Not The Owner!\") */\n      tag_95\n      jumpi\n      mload(0x40)\n      0x08c379a000000000000000000000000000000000000000000000000000000000\n      dup2\n      mstore\n      0x04\n      add\n      tag_96\n      swap1\n      tag_97\n      jump\t// in\n    tag_96:\n      mload(0x40)\n      dup1\n      swap2\n      sub\n      swap1\n      revert\n    tag_95:\n        /* \"contracts/Twitter.sol\":1059:1068  newLength */\n      dup1\n        /* \"contracts/Twitter.sol\":1040:1056  MAX_TWEET_LENGTH */\n      0x00\n      0x14\n        /* \"contracts/Twitter.sol\":1040:1068  MAX_TWEET_LENGTH = newLength */\n      0x0100\n      exp\n      dup2\n      sload\n      dup2\n      0xffff\n      mul\n      not\n      and\n      swap1\n      dup4\n      0xffff\n      and\n      mul\n      or\n      swap1\n      sstore\n      pop\n        /* \"contracts/Twitter.sol\":966:1076  function changeTweetLength (uint16 newLength) public onlyOwner {... */\n      pop\n      jump\t// out\n        /* \"contracts/Twitter.sol\":1084:1333  function likeTweet(address author, uint256 id) external  {... */\n    tag_34:\n        /* \"contracts/Twitter.sol\":1185:1187  id */\n      dup1\n        /* \"contracts/Twitter.sol\":1160:1166  tweets */\n      0x01\n        /* \"contracts/Twitter.sol\":1160:1174  tweets[author] */\n      0x00\n        /* \"contracts/Twitter.sol\":1167:1173  author */\n      dup5\n        /* \"contracts/Twitter.sol\":1160:1174  tweets[author] */\n      0xffffffffffffffffffffffffffffffffffffffff\n      and\n      0xffffffffffffffffffffffffffffffffffffffff\n      and\n      dup2\n      mstore\n      0x20\n      add\n      swap1\n      dup2\n      mstore\n      0x20\n      add\n      0x00\n      keccak256\n        /* \"contracts/Twitter.sol\":1175:1177  id */\n      dup3\n        /* \"contracts/Twitter.sol\":1160:1178  tweets[author][id] */\n      dup2\n      sload\n      dup2\n      lt\n      tag_100\n      jumpi\n      tag_101\n      tag_73\n      jump\t// in\n    tag_101:\n    tag_100:\n      swap1\n      0x00\n      mstore\n      keccak256(0x00, 0x20)\n      swap1\n      0x05\n      mul\n      add\n        /* \"contracts/Twitter.sol\":1160:1181  tweets[author][id].id */\n      0x00\n      add\n      sload\n        /* \"contracts/Twitter.sol\":1160:1187  tweets[author][id].id == id */\n      eq\n        /* \"contracts/Twitter.sol\":1152:1212  require(tweets[author][id].id == id, \"TWEET DOES NOT EXIST\") */\n      tag_103\n      jumpi\n      mload(0x40)\n      0x08c379a000000000000000000000000000000000000000000000000000000000\n      dup2\n      mstore\n      0x04\n      add\n      tag_104\n      swap1\n      tag_105\n      jump\t// in\n    tag_104:\n      mload(0x40)\n      dup1\n      swap2\n      sub\n      swap1\n      revert\n    tag_103:\n        /* \"contracts/Twitter.sol\":1223:1229  tweets */\n      0x01\n        /* \"contracts/Twitter.sol\":1223:1237  tweets[author] */\n      0x00\n        /* \"contracts/Twitter.sol\":1230:1236  author */\n      dup4\n        /* \"contracts/Twitter.sol\":1223:1237  tweets[author] */\n      0xffffffffffffffffffffffffffffffffffffffff\n      and\n      0xffffffffffffffffffffffffffffffffffffffff\n      and\n      dup2\n      mstore\n      0x20\n      add\n      swap1\n      dup2\n      mstore\n      0x20\n      add\n      0x00\n      keccak256\n        /* \"contracts/Twitter.sol\":1238:1240  id */\n      dup2\n        /* \"contracts/Twitter.sol\":1223:1241  tweets[author][id] */\n      dup2\n      sload\n      dup2\n      lt\n      tag_106\n      jumpi\n      tag_107\n      tag_73\n      jump\t// in\n    tag_107:\n    tag_106:\n      swap1\n      0x00\n      mstore\n      keccak256(0x00, 0x20)\n      swap1\n      0x05\n      mul\n      add\n        /* \"contracts/Twitter.sol\":1223:1247  tweets[author][id].likes */\n      0x04\n      add\n      0x00\n        /* \"contracts/Twitter.sol\":1223:1249  tweets[author][id].likes++ */\n      dup2\n      sload\n      dup1\n      swap3\n      swap2\n      swap1\n      tag_109\n      swap1\n      tag_110\n      jump\t// in\n    tag_109:\n      swap2\n      swap1\n      pop\n      sstore\n      pop\n        /* \"contracts/Twitter.sol\":1288:1294  author */\n      dup2\n        /* \"contracts/Twitter.sol\":1265:1325  TweetLiked(msg.sender, author, id, tweets[author][id].likes) */\n      0xffffffffffffffffffffffffffffffffffffffff\n      and\n      0xe8a76fc0f16d11a00d1e93b689b63d76cf60af914dd3d915375dc41d01a0c3c8\n        /* \"contracts/Twitter.sol\":1276:1286  msg.sender */\n      caller\n        /* \"contracts/Twitter.sol\":1296:1298  id */\n      dup4\n        /* \"contracts/Twitter.sol\":1300:1306  tweets */\n      0x01\n        /* \"contracts/Twitter.sol\":1300:1314  tweets[author] */\n      0x00\n        /* \"contracts/Twitter.sol\":1307:1313  author */\n      dup8\n        /* \"contracts/Twitter.sol\":1300:1314  tweets[author] */\n      0xffffffffffffffffffffffffffffffffffffffff\n      and\n      0xffffffffffffffffffffffffffffffffffffffff\n      and\n      dup2\n      mstore\n      0x20\n      add\n      swap1\n      dup2\n      mstore\n      0x20\n      add\n      0x00\n      keccak256\n        /* \"contracts/Twitter.sol\":1315:1317  id */\n      dup6\n        /* \"contracts/Twitter.sol\":1300:1318  tweets[author][id] */\n      dup2\n      sload\n      dup2\n      lt\n      tag_111\n      jumpi\n      tag_112\n      tag_73\n      jump\t// in\n    tag_112:\n    tag_111:\n      swap1\n      0x00\n      mstore\n      keccak256(0x00, 0x20)\n      swap1\n      0x05\n      mul\n      add\n        /* \"contracts/Twitter.sol\":1300:1324  tweets[author][id].likes */\n      0x04\n      add\n      sload\n        /* \"contracts/Twitter.sol\":1265:1325  TweetLiked(msg.sender, author, id, tweets[author][id].likes) */\n      mload(0x40)\n      tag_114\n      swap4\n      swap3\n      swap2\n      swap1\n      tag_93\n      jump\t// in\n    tag_114:\n      mload(0x40)\n      dup1\n      swap2\n      sub\n      swap1\n      log2\n        /* \"contracts/Twitter.sol\":1084:1333  function likeTweet(address author, uint256 id) external  {... */\n      pop\n      pop\n      jump\t// out\n        /* \"contracts/Twitter.sol\":221:257  uint16 public MAX_TWEET_LENGTH = 280 */\n    tag_36:\n      0x00\n      0x14\n      swap1\n      sload\n      swap1\n      0x0100\n      exp\n      swap1\n      div\n      0xffff\n      and\n      dup2\n      jump\t// out\n        /* \"contracts/Twitter.sol\":1671:2231  function createTweet(string memory _tweet )public {... */\n    tag_42:\n        /* \"contracts/Twitter.sol\":1764:1780  MAX_TWEET_LENGTH */\n      0x00\n      0x14\n      swap1\n      sload\n      swap1\n      0x0100\n      exp\n      swap1\n      div\n      0xffff\n      and\n        /* \"contracts/Twitter.sol\":1740:1780  bytes(_tweet).length <= MAX_TWEET_LENGTH */\n      0xffff\n      and\n        /* \"contracts/Twitter.sol\":1746:1752  _tweet */\n      dup2\n        /* \"contracts/Twitter.sol\":1740:1760  bytes(_tweet).length */\n      mload\n        /* \"contracts/Twitter.sol\":1740:1780  bytes(_tweet).length <= MAX_TWEET_LENGTH */\n      gt\n      iszero\n        /* \"contracts/Twitter.sol\":1732:1805  require(bytes(_tweet).length <= MAX_TWEET_LENGTH, \"Invalid tweet length\") */\n      tag_116\n      jumpi\n      mload(0x40)\n      0x08c379a000000000000000000000000000000000000000000000000000000000\n      dup2\n      mstore\n      0x04\n      add\n      tag_117\n      swap1\n      tag_118\n      jump\t// in\n    tag_117:\n      mload(0x40)\n      dup1\n      swap2\n      sub\n      swap1\n      revert\n    tag_116:\n        /* \"contracts/Twitter.sol\":1818:1840  Tweet  memory newTweet */\n      0x00\n        /* \"contracts/Twitter.sol\":1843:2082  Tweet(... */\n      mload(0x40)\n      dup1\n      0xa0\n      add\n      0x40\n      mstore\n      dup1\n        /* \"contracts/Twitter.sol\":1886:1892  tweets */\n      0x01\n        /* \"contracts/Twitter.sol\":1886:1904  tweets[msg.sender] */\n      0x00\n        /* \"contracts/Twitter.sol\":1893:1903  msg.sender */\n      caller\n        /* \"contracts/Twitter.sol\":1886:1904  tweets[msg.sender] */\n      0xffffffffffffffffffffffffffffffffffffffff\n      and\n      0xffffffffffffffffffffffffffffffffffffffff\n      and\n      dup2\n      mstore\n      0x20\n      add\n      swap1\n      dup2\n      mstore\n      0x20\n      add\n      0x00\n      keccak256\n        /* \"contracts/Twitter.sol\":1886:1911  tweets[msg.sender].length */\n      dup1\n      sload\n      swap1\n      pop\n        /* \"contracts/Twitter.sol\":1843:2082  Tweet(... */\n      dup2\n      mstore\n      0x20\n      add\n        /* \"contracts/Twitter.sol\":1938:1948  msg.sender */\n      caller\n        /* \"contracts/Twitter.sol\":1843:2082  Tweet(... */\n      0xffffffffffffffffffffffffffffffffffffffff\n      and\n      dup2\n      mstore\n      0x20\n      add\n        /* \"contracts/Twitter.sol\":1977:1983  _tweet */\n      dup4\n        /* \"contracts/Twitter.sol\":1843:2082  Tweet(... */\n      dup2\n      mstore\n      0x20\n      add\n        /* \"contracts/Twitter.sol\":2013:2028  block.timestamp */\n      timestamp\n        /* \"contracts/Twitter.sol\":1843:2082  Tweet(... */\n      dup2\n      mstore\n      0x20\n      add\n        /* \"contracts/Twitter.sol\":2055:2056  0 */\n      0x00\n        /* \"contracts/Twitter.sol\":1843:2082  Tweet(... */\n      dup2\n      mstore\n      pop\n        /* \"contracts/Twitter.sol\":1818:2082  Tweet  memory newTweet = Tweet(... */\n      swap1\n      pop\n        /* \"contracts/Twitter.sol\":2093:2099  tweets */\n      0x01\n        /* \"contracts/Twitter.sol\":2093:2111  tweets[msg.sender] */\n      0x00\n        /* \"contracts/Twitter.sol\":2100:2110  msg.sender */\n      caller\n        /* \"contracts/Twitter.sol\":2093:2111  tweets[msg.sender] */\n      0xffffffffffffffffffffffffffffffffffffffff\n      and\n      0xffffffffffffffffffffffffffffffffffffffff\n      and\n      dup2\n      mstore\n      0x20\n      add\n      swap1\n      dup2\n      mstore\n      0x20\n      add\n      0x00\n      keccak256\n        /* \"contracts/Twitter.sol\":2118:2126  newTweet */\n      dup2\n        /* \"contracts/Twitter.sol\":2093:2127  tweets[msg.sender] .push(newTweet) */\n      swap1\n      dup1\n      0x01\n      dup2\n      sload\n      add\n      dup1\n      dup3\n      sstore\n      dup1\n      swap2\n      pop\n      pop\n      0x01\n      swap1\n      sub\n      swap1\n      0x00\n      mstore\n      keccak256(0x00, 0x20)\n      swap1\n      0x05\n      mul\n      add\n      0x00\n      swap1\n      swap2\n      swap1\n      swap2\n      swap1\n      swap2\n      pop\n      0x00\n      dup3\n      add\n      mload\n      dup2\n      0x00\n      add\n      sstore\n      0x20\n      dup3\n      add\n      mload\n      dup2\n      0x01\n      add\n      exp(0x0100, 0x00)\n      dup2\n      sload\n      dup2\n      0xffffffffffffffffffffffffffffffffffffffff\n      mul\n      not\n      and\n      swap1\n      dup4\n      0xffffffffffffffffffffffffffffffffffffffff\n      and\n      mul\n      or\n      swap1\n      sstore\n      pop\n      0x40\n      dup3\n      add\n      mload\n      dup2\n      0x02\n      add\n      swap1\n      dup2\n      tag_120\n      swap2\n      swap1\n      tag_121\n      jump\t// in\n    tag_120:\n      pop\n      0x60\n      dup3\n      add\n      mload\n      dup2\n      0x03\n      add\n      sstore\n      0x80\n      dup3\n      add\n      mload\n      dup2\n      0x04\n      add\n      sstore\n      pop\n      pop\n        /* \"contracts/Twitter.sol\":2169:2177  newTweet */\n      dup1\n        /* \"contracts/Twitter.sol\":2169:2184  newTweet.author */\n      0x20\n      add\n      mload\n        /* \"contracts/Twitter.sol\":2143:2223  TweetCreated(newTweet.id, newTweet.author, newTweet.content, newTweet.createdAt) */\n      0xffffffffffffffffffffffffffffffffffffffff\n      and\n      0x16fd3c13e9d46923e0a8bce11c7b473ec508a72e6c96cd2404b29ce972afc29e\n        /* \"contracts/Twitter.sol\":2156:2164  newTweet */\n      dup3\n        /* \"contracts/Twitter.sol\":2156:2167  newTweet.id */\n      0x00\n      add\n      mload\n        /* \"contracts/Twitter.sol\":2186:2194  newTweet */\n      dup4\n        /* \"contracts/Twitter.sol\":2186:2202  newTweet.content */\n      0x40\n      add\n      mload\n        /* \"contracts/Twitter.sol\":2204:2212  newTweet */\n      dup5\n        /* \"contracts/Twitter.sol\":2204:2222  newTweet.createdAt */\n      0x60\n      add\n      mload\n        /* \"contracts/Twitter.sol\":2143:2223  TweetCreated(newTweet.id, newTweet.author, newTweet.content, newTweet.createdAt) */\n      mload(0x40)\n      tag_122\n      swap4\n      swap3\n      swap2\n      swap1\n      tag_123\n      jump\t// in\n    tag_122:\n      mload(0x40)\n      dup1\n      swap2\n      sub\n      swap1\n      log2\n        /* \"contracts/Twitter.sol\":1721:2231  {... */\n      pop\n        /* \"contracts/Twitter.sol\":1671:2231  function createTweet(string memory _tweet )public {... */\n      pop\n      jump\t// out\n        /* \"contracts/Twitter.sol\":92:112  address public owner */\n    tag_44:\n      0x00\n      dup1\n      sload\n      swap1\n      0x0100\n      exp\n      swap1\n      div\n      0xffffffffffffffffffffffffffffffffffffffff\n      and\n      dup2\n      jump\t// out\n        /* \"contracts/Twitter.sol\":2239:2348  function getTweet(uint _i) public view returns (Tweet memory){... */\n    tag_50:\n        /* \"contracts/Twitter.sol\":2287:2299  Tweet memory */\n      tag_124\n      tag_125\n      jump\t// in\n    tag_124:\n        /* \"contracts/Twitter.sol\":2318:2324  tweets */\n      0x01\n        /* \"contracts/Twitter.sol\":2318:2336  tweets[msg.sender] */\n      0x00\n        /* \"contracts/Twitter.sol\":2325:2335  msg.sender */\n      caller\n        /* \"contracts/Twitter.sol\":2318:2336  tweets[msg.sender] */\n      0xffffffffffffffffffffffffffffffffffffffff\n      and\n      0xffffffffffffffffffffffffffffffffffffffff\n      and\n      dup2\n      mstore\n      0x20\n      add\n      swap1\n      dup2\n      mstore\n      0x20\n      add\n      0x00\n      keccak256\n        /* \"contracts/Twitter.sol\":2337:2339  _i */\n      dup3\n        /* \"contracts/Twitter.sol\":2318:2340  tweets[msg.sender][_i] */\n      dup2\n      sload\n      dup2\n      lt\n      tag_127\n      jumpi\n      tag_128\n      tag_73\n      jump\t// in\n    tag_128:\n    tag_127:\n      swap1\n      0x00\n      mstore\n      keccak256(0x00, 0x20)\n      swap1\n      0x05\n      mul\n      add\n        /* \"contracts/Twitter.sol\":2311:2340  return tweets[msg.sender][_i] */\n      mload(0x40)\n      dup1\n      0xa0\n      add\n      0x40\n      mstore\n      swap1\n      dup2\n      0x00\n      dup3\n      add\n      sload\n      dup2\n      mstore\n      0x20\n      add\n      0x01\n      dup3\n      add\n      0x00\n      swap1\n      sload\n      swap1\n      0x0100\n      exp\n      swap1\n      div\n      0xffffffffffffffffffffffffffffffffffffffff\n      and\n      0xffffffffffffffffffffffffffffffffffffffff\n      and\n      0xffffffffffffffffffffffffffffffffffffffff\n      and\n      dup2\n      mstore\n      0x20\n      add\n      0x02\n      dup3\n      add\n      dup1\n      sload\n      tag_130\n      swap1\n      tag_56\n      jump\t// in\n    tag_130:\n      dup1\n      0x1f\n      add\n      0x20\n      dup1\n      swap2\n      div\n      mul\n      0x20\n      add\n      mload(0x40)\n      swap1\n      dup2\n      add\n      0x40\n      mstore\n      dup1\n      swap3\n      swap2\n      swap1\n      dup2\n      dup2\n      mstore\n      0x20\n      add\n      dup3\n      dup1\n      sload\n      tag_131\n      swap1\n      tag_56\n      jump\t// in\n    tag_131:\n      dup1\n      iszero\n      tag_132\n      jumpi\n      dup1\n      0x1f\n      lt\n      tag_133\n      jumpi\n      0x0100\n      dup1\n      dup4\n      sload\n      div\n      mul\n      dup4\n      mstore\n      swap2\n      0x20\n      add\n      swap2\n      jump(tag_132)\n    tag_133:\n      dup3\n      add\n      swap2\n      swap1\n      0x00\n      mstore\n      keccak256(0x00, 0x20)\n      swap1\n    tag_134:\n      dup2\n      sload\n      dup2\n      mstore\n      swap1\n      0x01\n      add\n      swap1\n      0x20\n      add\n      dup1\n      dup4\n      gt\n      tag_134\n      jumpi\n      dup3\n      swap1\n      sub\n      0x1f\n      and\n      dup3\n      add\n      swap2\n    tag_132:\n      pop\n      pop\n      pop\n      pop\n      pop\n      dup2\n      mstore\n      0x20\n      add\n      0x03\n      dup3\n      add\n      sload\n      dup2\n      mstore\n      0x20\n      add\n      0x04\n      dup3\n      add\n      sload\n      dup2\n      mstore\n      pop\n      pop\n      swap1\n      pop\n        /* \"contracts/Twitter.sol\":2239:2348  function getTweet(uint _i) public view returns (Tweet memory){... */\n      swap2\n      swap1\n      pop\n      jump\t// out\n    tag_125:\n      mload(0x40)\n      dup1\n      0xa0\n      add\n      0x40\n      mstore\n      dup1\n      0x00\n      dup2\n      mstore\n      0x20\n      add\n      and(0xffffffffffffffffffffffffffffffffffffffff, 0x00)\n      dup2\n      mstore\n      0x20\n      add\n      0x60\n      dup2\n      mstore\n      0x20\n      add\n      0x00\n      dup2\n      mstore\n      0x20\n      add\n      0x00\n      dup2\n      mstore\n      pop\n      swap1\n      jump\t// out\n        /* \"#utility.yul\":7:82   */\n    tag_135:\n        /* \"#utility.yul\":40:46   */\n      0x00\n        /* \"#utility.yul\":73:75   */\n      0x40\n        /* \"#utility.yul\":67:76   */\n      mload\n        /* \"#utility.yul\":57:76   */\n      swap1\n      pop\n        /* \"#utility.yul\":7:82   */\n      swap1\n      jump\t// out\n        /* \"#utility.yul\":88:205   */\n    tag_136:\n        /* \"#utility.yul\":197:198   */\n      0x00\n        /* \"#utility.yul\":194:195   */\n      dup1\n        /* \"#utility.yul\":187:199   */\n      revert\n        /* \"#utility.yul\":211:328   */\n    tag_137:\n        /* \"#utility.yul\":320:321   */\n      0x00\n        /* \"#utility.yul\":317:318   */\n      dup1\n        /* \"#utility.yul\":310:322   */\n      revert\n        /* \"#utility.yul\":334:460   */\n    tag_138:\n        /* \"#utility.yul\":371:378   */\n      0x00\n        /* \"#utility.yul\":411:453   */\n      0xffffffffffffffffffffffffffffffffffffffff\n        /* \"#utility.yul\":404:409   */\n      dup3\n        /* \"#utility.yul\":400:454   */\n      and\n        /* \"#utility.yul\":389:454   */\n      swap1\n      pop\n        /* \"#utility.yul\":334:460   */\n      swap2\n      swap1\n      pop\n      jump\t// out\n        /* \"#utility.yul\":466:562   */\n    tag_139:\n        /* \"#utility.yul\":503:510   */\n      0x00\n        /* \"#utility.yul\":532:556   */\n      tag_210\n        /* \"#utility.yul\":550:555   */\n      dup3\n        /* \"#utility.yul\":532:556   */\n      tag_138\n      jump\t// in\n    tag_210:\n        /* \"#utility.yul\":521:556   */\n      swap1\n      pop\n        /* \"#utility.yul\":466:562   */\n      swap2\n      swap1\n      pop\n      jump\t// out\n        /* \"#utility.yul\":568:690   */\n    tag_140:\n        /* \"#utility.yul\":641:665   */\n      tag_212\n        /* \"#utility.yul\":659:664   */\n      dup2\n        /* \"#utility.yul\":641:665   */\n      tag_139\n      jump\t// in\n    tag_212:\n        /* \"#utility.yul\":634:639   */\n      dup2\n        /* \"#utility.yul\":631:666   */\n      eq\n        /* \"#utility.yul\":621:684   */\n      tag_213\n      jumpi\n        /* \"#utility.yul\":680:681   */\n      0x00\n        /* \"#utility.yul\":677:678   */\n      dup1\n        /* \"#utility.yul\":670:682   */\n      revert\n        /* \"#utility.yul\":621:684   */\n    tag_213:\n        /* \"#utility.yul\":568:690   */\n      pop\n      jump\t// out\n        /* \"#utility.yul\":696:835   */\n    tag_141:\n        /* \"#utility.yul\":742:747   */\n      0x00\n        /* \"#utility.yul\":780:786   */\n      dup2\n        /* \"#utility.yul\":767:787   */\n      calldataload\n        /* \"#utility.yul\":758:787   */\n      swap1\n      pop\n        /* \"#utility.yul\":796:829   */\n      tag_215\n        /* \"#utility.yul\":823:828   */\n      dup2\n        /* \"#utility.yul\":796:829   */\n      tag_140\n      jump\t// in\n    tag_215:\n        /* \"#utility.yul\":696:835   */\n      swap3\n      swap2\n      pop\n      pop\n      jump\t// out\n        /* \"#utility.yul\":841:918   */\n    tag_142:\n        /* \"#utility.yul\":878:885   */\n      0x00\n        /* \"#utility.yul\":907:912   */\n      dup2\n        /* \"#utility.yul\":896:912   */\n      swap1\n      pop\n        /* \"#utility.yul\":841:918   */\n      swap2\n      swap1\n      pop\n      jump\t// out\n        /* \"#utility.yul\":924:1046   */\n    tag_143:\n        /* \"#utility.yul\":997:1021   */\n      tag_218\n        /* \"#utility.yul\":1015:1020   */\n      dup2\n        /* \"#utility.yul\":997:1021   */\n      tag_142\n      jump\t// in\n    tag_218:\n        /* \"#utility.yul\":990:995   */\n      dup2\n        /* \"#utility.yul\":987:1022   */\n      eq\n        /* \"#utility.yul\":977:1040   */\n      tag_219\n      jumpi\n        /* \"#utility.yul\":1036:1037   */\n      0x00\n        /* \"#utility.yul\":1033:1034   */\n      dup1\n        /* \"#utility.yul\":1026:1038   */\n      revert\n        /* \"#utility.yul\":977:1040   */\n    tag_219:\n        /* \"#utility.yul\":924:1046   */\n      pop\n      jump\t// out\n        /* \"#utility.yul\":1052:1191   */\n    tag_144:\n        /* \"#utility.yul\":1098:1103   */\n      0x00\n        /* \"#utility.yul\":1136:1142   */\n      dup2\n        /* \"#utility.yul\":1123:1143   */\n      calldataload\n        /* \"#utility.yul\":1114:1143   */\n      swap1\n      pop\n        /* \"#utility.yul\":1152:1185   */\n      tag_221\n        /* \"#utility.yul\":1179:1184   */\n      dup2\n        /* \"#utility.yul\":1152:1185   */\n      tag_143\n      jump\t// in\n    tag_221:\n        /* \"#utility.yul\":1052:1191   */\n      swap3\n      swap2\n      pop\n      pop\n      jump\t// out\n        /* \"#utility.yul\":1197:1671   */\n    tag_15:\n        /* \"#utility.yul\":1265:1271   */\n      0x00\n        /* \"#utility.yul\":1273:1279   */\n      dup1\n        /* \"#utility.yul\":1322:1324   */\n      0x40\n        /* \"#utility.yul\":1310:1319   */\n      dup4\n        /* \"#utility.yul\":1301:1308   */\n      dup6\n        /* \"#utility.yul\":1297:1320   */\n      sub\n        /* \"#utility.yul\":1293:1325   */\n      slt\n        /* \"#utility.yul\":1290:1409   */\n      iszero\n      tag_223\n      jumpi\n        /* \"#utility.yul\":1328:1407   */\n      tag_224\n      tag_136\n      jump\t// in\n    tag_224:\n        /* \"#utility.yul\":1290:1409   */\n    tag_223:\n        /* \"#utility.yul\":1448:1449   */\n      0x00\n        /* \"#utility.yul\":1473:1526   */\n      tag_225\n        /* \"#utility.yul\":1518:1525   */\n      dup6\n        /* \"#utility.yul\":1509:1515   */\n      dup3\n        /* \"#utility.yul\":1498:1507   */\n      dup7\n        /* \"#utility.yul\":1494:1516   */\n      add\n        /* \"#utility.yul\":1473:1526   */\n      tag_141\n      jump\t// in\n    tag_225:\n        /* \"#utility.yul\":1463:1526   */\n      swap3\n      pop\n        /* \"#utility.yul\":1419:1536   */\n      pop\n        /* \"#utility.yul\":1575:1577   */\n      0x20\n        /* \"#utility.yul\":1601:1654   */\n      tag_226\n        /* \"#utility.yul\":1646:1653   */\n      dup6\n        /* \"#utility.yul\":1637:1643   */\n      dup3\n        /* \"#utility.yul\":1626:1635   */\n      dup7\n        /* \"#utility.yul\":1622:1644   */\n      add\n        /* \"#utility.yul\":1601:1654   */\n      tag_144\n      jump\t// in\n    tag_226:\n        /* \"#utility.yul\":1591:1654   */\n      swap2\n      pop\n        /* \"#utility.yul\":1546:1664   */\n      pop\n        /* \"#utility.yul\":1197:1671   */\n      swap3\n      pop\n      swap3\n      swap1\n      pop\n      jump\t// out\n        /* \"#utility.yul\":1677:1795   */\n    tag_145:\n        /* \"#utility.yul\":1764:1788   */\n      tag_228\n        /* \"#utility.yul\":1782:1787   */\n      dup2\n        /* \"#utility.yul\":1764:1788   */\n      tag_142\n      jump\t// in\n    tag_228:\n        /* \"#utility.yul\":1759:1762   */\n      dup3\n        /* \"#utility.yul\":1752:1789   */\n      mstore\n        /* \"#utility.yul\":1677:1795   */\n      pop\n      pop\n      jump\t// out\n        /* \"#utility.yul\":1801:1919   */\n    tag_146:\n        /* \"#utility.yul\":1888:1912   */\n      tag_230\n        /* \"#utility.yul\":1906:1911   */\n      dup2\n        /* \"#utility.yul\":1888:1912   */\n      tag_139\n      jump\t// in\n    tag_230:\n        /* \"#utility.yul\":1883:1886   */\n      dup3\n        /* \"#utility.yul\":1876:1913   */\n      mstore\n        /* \"#utility.yul\":1801:1919   */\n      pop\n      pop\n      jump\t// out\n        /* \"#utility.yul\":1925:2024   */\n    tag_147:\n        /* \"#utility.yul\":1977:1983   */\n      0x00\n        /* \"#utility.yul\":2011:2016   */\n      dup2\n        /* \"#utility.yul\":2005:2017   */\n      mload\n        /* \"#utility.yul\":1995:2017   */\n      swap1\n      pop\n        /* \"#utility.yul\":1925:2024   */\n      swap2\n      swap1\n      pop\n      jump\t// out\n        /* \"#utility.yul\":2030:2199   */\n    tag_148:\n        /* \"#utility.yul\":2114:2125   */\n      0x00\n        /* \"#utility.yul\":2148:2154   */\n      dup3\n        /* \"#utility.yul\":2143:2146   */\n      dup3\n        /* \"#utility.yul\":2136:2155   */\n      mstore\n        /* \"#utility.yul\":2188:2192   */\n      0x20\n        /* \"#utility.yul\":2183:2186   */\n      dup3\n        /* \"#utility.yul\":2179:2193   */\n      add\n        /* \"#utility.yul\":2164:2193   */\n      swap1\n      pop\n        /* \"#utility.yul\":2030:2199   */\n      swap3\n      swap2\n      pop\n      pop\n      jump\t// out\n        /* \"#utility.yul\":2205:2344   */\n    tag_149:\n        /* \"#utility.yul\":2294:2300   */\n      dup3\n        /* \"#utility.yul\":2289:2292   */\n      dup2\n        /* \"#utility.yul\":2284:2287   */\n      dup4\n        /* \"#utility.yul\":2278:2301   */\n      mcopy\n        /* \"#utility.yul\":2335:2336   */\n      0x00\n        /* \"#utility.yul\":2326:2332   */\n      dup4\n        /* \"#utility.yul\":2321:2324   */\n      dup4\n        /* \"#utility.yul\":2317:2333   */\n      add\n        /* \"#utility.yul\":2310:2337   */\n      mstore\n        /* \"#utility.yul\":2205:2344   */\n      pop\n      pop\n      pop\n      jump\t// out\n        /* \"#utility.yul\":2350:2452   */\n    tag_150:\n        /* \"#utility.yul\":2391:2397   */\n      0x00\n        /* \"#utility.yul\":2442:2444   */\n      0x1f\n        /* \"#utility.yul\":2438:2445   */\n      not\n        /* \"#utility.yul\":2433:2435   */\n      0x1f\n        /* \"#utility.yul\":2426:2431   */\n      dup4\n        /* \"#utility.yul\":2422:2436   */\n      add\n        /* \"#utility.yul\":2418:2446   */\n      and\n        /* \"#utility.yul\":2408:2446   */\n      swap1\n      pop\n        /* \"#utility.yul\":2350:2452   */\n      swap2\n      swap1\n      pop\n      jump\t// out\n        /* \"#utility.yul\":2458:2835   */\n    tag_151:\n        /* \"#utility.yul\":2546:2549   */\n      0x00\n        /* \"#utility.yul\":2574:2613   */\n      tag_236\n        /* \"#utility.yul\":2607:2612   */\n      dup3\n        /* \"#utility.yul\":2574:2613   */\n      tag_147\n      jump\t// in\n    tag_236:\n        /* \"#utility.yul\":2629:2700   */\n      tag_237\n        /* \"#utility.yul\":2693:2699   */\n      dup2\n        /* \"#utility.yul\":2688:2691   */\n      dup6\n        /* \"#utility.yul\":2629:2700   */\n      tag_148\n      jump\t// in\n    tag_237:\n        /* \"#utility.yul\":2622:2700   */\n      swap4\n      pop\n        /* \"#utility.yul\":2709:2774   */\n      tag_238\n        /* \"#utility.yul\":2767:2773   */\n      dup2\n        /* \"#utility.yul\":2762:2765   */\n      dup6\n        /* \"#utility.yul\":2755:2759   */\n      0x20\n        /* \"#utility.yul\":2748:2753   */\n      dup7\n        /* \"#utility.yul\":2744:2760   */\n      add\n        /* \"#utility.yul\":2709:2774   */\n      tag_149\n      jump\t// in\n    tag_238:\n        /* \"#utility.yul\":2799:2828   */\n      tag_239\n        /* \"#utility.yul\":2821:2827   */\n      dup2\n        /* \"#utility.yul\":2799:2828   */\n      tag_150\n      jump\t// in\n    tag_239:\n        /* \"#utility.yul\":2794:2797   */\n      dup5\n        /* \"#utility.yul\":2790:2829   */\n      add\n        /* \"#utility.yul\":2783:2829   */\n      swap2\n      pop\n        /* \"#utility.yul\":2550:2835   */\n      pop\n        /* \"#utility.yul\":2458:2835   */\n      swap3\n      swap2\n      pop\n      pop\n      jump\t// out\n        /* \"#utility.yul\":2841:3596   */\n    tag_18:\n        /* \"#utility.yul\":3066:3070   */\n      0x00\n        /* \"#utility.yul\":3104:3107   */\n      0xa0\n        /* \"#utility.yul\":3093:3102   */\n      dup3\n        /* \"#utility.yul\":3089:3108   */\n      add\n        /* \"#utility.yul\":3081:3108   */\n      swap1\n      pop\n        /* \"#utility.yul\":3118:3189   */\n      tag_241\n        /* \"#utility.yul\":3186:3187   */\n      0x00\n        /* \"#utility.yul\":3175:3184   */\n      dup4\n        /* \"#utility.yul\":3171:3188   */\n      add\n        /* \"#utility.yul\":3162:3168   */\n      dup9\n        /* \"#utility.yul\":3118:3189   */\n      tag_145\n      jump\t// in\n    tag_241:\n        /* \"#utility.yul\":3199:3271   */\n      tag_242\n        /* \"#utility.yul\":3267:3269   */\n      0x20\n        /* \"#utility.yul\":3256:3265   */\n      dup4\n        /* \"#utility.yul\":3252:3270   */\n      add\n        /* \"#utility.yul\":3243:3249   */\n      dup8\n        /* \"#utility.yul\":3199:3271   */\n      tag_146\n      jump\t// in\n    tag_242:\n        /* \"#utility.yul\":3318:3327   */\n      dup2\n        /* \"#utility.yul\":3312:3316   */\n      dup2\n        /* \"#utility.yul\":3308:3328   */\n      sub\n        /* \"#utility.yul\":3303:3305   */\n      0x40\n        /* \"#utility.yul\":3292:3301   */\n      dup4\n        /* \"#utility.yul\":3288:3306   */\n      add\n        /* \"#utility.yul\":3281:3329   */\n      mstore\n        /* \"#utility.yul\":3346:3424   */\n      tag_243\n        /* \"#utility.yul\":3419:3423   */\n      dup2\n        /* \"#utility.yul\":3410:3416   */\n      dup7\n        /* \"#utility.yul\":3346:3424   */\n      tag_151\n      jump\t// in\n    tag_243:\n        /* \"#utility.yul\":3338:3424   */\n      swap1\n      pop\n        /* \"#utility.yul\":3434:3506   */\n      tag_244\n        /* \"#utility.yul\":3502:3504   */\n      0x60\n        /* \"#utility.yul\":3491:3500   */\n      dup4\n        /* \"#utility.yul\":3487:3505   */\n      add\n        /* \"#utility.yul\":3478:3484   */\n      dup6\n        /* \"#utility.yul\":3434:3506   */\n      tag_145\n      jump\t// in\n    tag_244:\n        /* \"#utility.yul\":3516:3589   */\n      tag_245\n        /* \"#utility.yul\":3584:3587   */\n      0x80\n        /* \"#utility.yul\":3573:3582   */\n      dup4\n        /* \"#utility.yul\":3569:3588   */\n      add\n        /* \"#utility.yul\":3560:3566   */\n      dup5\n        /* \"#utility.yul\":3516:3589   */\n      tag_145\n      jump\t// in\n    tag_245:\n        /* \"#utility.yul\":2841:3596   */\n      swap7\n      swap6\n      pop\n      pop\n      pop\n      pop\n      pop\n      pop\n      jump\t// out\n        /* \"#utility.yul\":3602:3931   */\n    tag_21:\n        /* \"#utility.yul\":3661:3667   */\n      0x00\n        /* \"#utility.yul\":3710:3712   */\n      0x20\n        /* \"#utility.yul\":3698:3707   */\n      dup3\n        /* \"#utility.yul\":3689:3696   */\n      dup5\n        /* \"#utility.yul\":3685:3708   */\n      sub\n        /* \"#utility.yul\":3681:3713   */\n      slt\n        /* \"#utility.yul\":3678:3797   */\n      iszero\n      tag_247\n      jumpi\n        /* \"#utility.yul\":3716:3795   */\n      tag_248\n      tag_136\n      jump\t// in\n    tag_248:\n        /* \"#utility.yul\":3678:3797   */\n    tag_247:\n        /* \"#utility.yul\":3836:3837   */\n      0x00\n        /* \"#utility.yul\":3861:3914   */\n      tag_249\n        /* \"#utility.yul\":3906:3913   */\n      dup5\n        /* \"#utility.yul\":3897:3903   */\n      dup3\n        /* \"#utility.yul\":3886:3895   */\n      dup6\n        /* \"#utility.yul\":3882:3904   */\n      add\n        /* \"#utility.yul\":3861:3914   */\n      tag_141\n      jump\t// in\n    tag_249:\n        /* \"#utility.yul\":3851:3914   */\n      swap2\n      pop\n        /* \"#utility.yul\":3807:3924   */\n      pop\n        /* \"#utility.yul\":3602:3931   */\n      swap3\n      swap2\n      pop\n      pop\n      jump\t// out\n        /* \"#utility.yul\":3937:4072   */\n    tag_152:\n        /* \"#utility.yul\":4025:4031   */\n      0x00\n        /* \"#utility.yul\":4059:4064   */\n      dup2\n        /* \"#utility.yul\":4053:4065   */\n      mload\n        /* \"#utility.yul\":4043:4065   */\n      swap1\n      pop\n        /* \"#utility.yul\":3937:4072   */\n      swap2\n      swap1\n      pop\n      jump\t// out\n        /* \"#utility.yul\":4078:4283   */\n    tag_153:\n        /* \"#utility.yul\":4198:4209   */\n      0x00\n        /* \"#utility.yul\":4232:4238   */\n      dup3\n        /* \"#utility.yul\":4227:4230   */\n      dup3\n        /* \"#utility.yul\":4220:4239   */\n      mstore\n        /* \"#utility.yul\":4272:4276   */\n      0x20\n        /* \"#utility.yul\":4267:4270   */\n      dup3\n        /* \"#utility.yul\":4263:4277   */\n      add\n        /* \"#utility.yul\":4248:4277   */\n      swap1\n      pop\n        /* \"#utility.yul\":4078:4283   */\n      swap3\n      swap2\n      pop\n      pop\n      jump\t// out\n        /* \"#utility.yul\":4289:4442   */\n    tag_154:\n        /* \"#utility.yul\":4377:4381   */\n      0x00\n        /* \"#utility.yul\":4400:4403   */\n      dup2\n        /* \"#utility.yul\":4392:4403   */\n      swap1\n      pop\n        /* \"#utility.yul\":4430:4434   */\n      0x20\n        /* \"#utility.yul\":4425:4428   */\n      dup3\n        /* \"#utility.yul\":4421:4435   */\n      add\n        /* \"#utility.yul\":4413:4435   */\n      swap1\n      pop\n        /* \"#utility.yul\":4289:4442   */\n      swap2\n      swap1\n      pop\n      jump\t// out\n        /* \"#utility.yul\":4448:4556   */\n    tag_155:\n        /* \"#utility.yul\":4525:4549   */\n      tag_254\n        /* \"#utility.yul\":4543:4548   */\n      dup2\n        /* \"#utility.yul\":4525:4549   */\n      tag_142\n      jump\t// in\n    tag_254:\n        /* \"#utility.yul\":4520:4523   */\n      dup3\n        /* \"#utility.yul\":4513:4550   */\n      mstore\n        /* \"#utility.yul\":4448:4556   */\n      pop\n      pop\n      jump\t// out\n        /* \"#utility.yul\":4562:4670   */\n    tag_156:\n        /* \"#utility.yul\":4639:4663   */\n      tag_256\n        /* \"#utility.yul\":4657:4662   */\n      dup2\n        /* \"#utility.yul\":4639:4663   */\n      tag_139\n      jump\t// in\n    tag_256:\n        /* \"#utility.yul\":4634:4637   */\n      dup3\n        /* \"#utility.yul\":4627:4664   */\n      mstore\n        /* \"#utility.yul\":4562:4670   */\n      pop\n      pop\n      jump\t// out\n        /* \"#utility.yul\":4676:4835   */\n    tag_157:\n        /* \"#utility.yul\":4750:4761   */\n      0x00\n        /* \"#utility.yul\":4784:4790   */\n      dup3\n        /* \"#utility.yul\":4779:4782   */\n      dup3\n        /* \"#utility.yul\":4772:4791   */\n      mstore\n        /* \"#utility.yul\":4824:4828   */\n      0x20\n        /* \"#utility.yul\":4819:4822   */\n      dup3\n        /* \"#utility.yul\":4815:4829   */\n      add\n        /* \"#utility.yul\":4800:4829   */\n      swap1\n      pop\n        /* \"#utility.yul\":4676:4835   */\n      swap3\n      swap2\n      pop\n      pop\n      jump\t// out\n        /* \"#utility.yul\":4841:5198   */\n    tag_158:\n        /* \"#utility.yul\":4919:4922   */\n      0x00\n        /* \"#utility.yul\":4947:4986   */\n      tag_259\n        /* \"#utility.yul\":4980:4985   */\n      dup3\n        /* \"#utility.yul\":4947:4986   */\n      tag_147\n      jump\t// in\n    tag_259:\n        /* \"#utility.yul\":5002:5063   */\n      tag_260\n        /* \"#utility.yul\":5056:5062   */\n      dup2\n        /* \"#utility.yul\":5051:5054   */\n      dup6\n        /* \"#utility.yul\":5002:5063   */\n      tag_157\n      jump\t// in\n    tag_260:\n        /* \"#utility.yul\":4995:5063   */\n      swap4\n      pop\n        /* \"#utility.yul\":5072:5137   */\n      tag_261\n        /* \"#utility.yul\":5130:5136   */\n      dup2\n        /* \"#utility.yul\":5125:5128   */\n      dup6\n        /* \"#utility.yul\":5118:5122   */\n      0x20\n        /* \"#utility.yul\":5111:5116   */\n      dup7\n        /* \"#utility.yul\":5107:5123   */\n      add\n        /* \"#utility.yul\":5072:5137   */\n      tag_149\n      jump\t// in\n    tag_261:\n        /* \"#utility.yul\":5162:5191   */\n      tag_262\n        /* \"#utility.yul\":5184:5190   */\n      dup2\n        /* \"#utility.yul\":5162:5191   */\n      tag_150\n      jump\t// in\n    tag_262:\n        /* \"#utility.yul\":5157:5160   */\n      dup5\n        /* \"#utility.yul\":5153:5192   */\n      add\n        /* \"#utility.yul\":5146:5192   */\n      swap2\n      pop\n        /* \"#utility.yul\":4923:5198   */\n      pop\n        /* \"#utility.yul\":4841:5198   */\n      swap3\n      swap2\n      pop\n      pop\n      jump\t// out\n        /* \"#utility.yul\":5256:6375   */\n    tag_159:\n        /* \"#utility.yul\":5357:5360   */\n      0x00\n        /* \"#utility.yul\":5393:5397   */\n      0xa0\n        /* \"#utility.yul\":5388:5391   */\n      dup4\n        /* \"#utility.yul\":5384:5398   */\n      add\n        /* \"#utility.yul\":5478:5482   */\n      0x00\n        /* \"#utility.yul\":5471:5476   */\n      dup4\n        /* \"#utility.yul\":5467:5483   */\n      add\n        /* \"#utility.yul\":5461:5484   */\n      mload\n        /* \"#utility.yul\":5497:5560   */\n      tag_264\n        /* \"#utility.yul\":5554:5558   */\n      0x00\n        /* \"#utility.yul\":5549:5552   */\n      dup7\n        /* \"#utility.yul\":5545:5559   */\n      add\n        /* \"#utility.yul\":5531:5543   */\n      dup3\n        /* \"#utility.yul\":5497:5560   */\n      tag_155\n      jump\t// in\n    tag_264:\n        /* \"#utility.yul\":5408:5570   */\n      pop\n        /* \"#utility.yul\":5654:5658   */\n      0x20\n        /* \"#utility.yul\":5647:5652   */\n      dup4\n        /* \"#utility.yul\":5643:5659   */\n      add\n        /* \"#utility.yul\":5637:5660   */\n      mload\n        /* \"#utility.yul\":5673:5736   */\n      tag_265\n        /* \"#utility.yul\":5730:5734   */\n      0x20\n        /* \"#utility.yul\":5725:5728   */\n      dup7\n        /* \"#utility.yul\":5721:5735   */\n      add\n        /* \"#utility.yul\":5707:5719   */\n      dup3\n        /* \"#utility.yul\":5673:5736   */\n      tag_156\n      jump\t// in\n    tag_265:\n        /* \"#utility.yul\":5580:5746   */\n      pop\n        /* \"#utility.yul\":5831:5835   */\n      0x40\n        /* \"#utility.yul\":5824:5829   */\n      dup4\n        /* \"#utility.yul\":5820:5836   */\n      add\n        /* \"#utility.yul\":5814:5837   */\n      mload\n        /* \"#utility.yul\":5884:5887   */\n      dup5\n        /* \"#utility.yul\":5878:5882   */\n      dup3\n        /* \"#utility.yul\":5874:5888   */\n      sub\n        /* \"#utility.yul\":5867:5871   */\n      0x40\n        /* \"#utility.yul\":5862:5865   */\n      dup7\n        /* \"#utility.yul\":5858:5872   */\n      add\n        /* \"#utility.yul\":5851:5889   */\n      mstore\n        /* \"#utility.yul\":5910:5983   */\n      tag_266\n        /* \"#utility.yul\":5978:5982   */\n      dup3\n        /* \"#utility.yul\":5964:5976   */\n      dup3\n        /* \"#utility.yul\":5910:5983   */\n      tag_158\n      jump\t// in\n    tag_266:\n        /* \"#utility.yul\":5902:5983   */\n      swap2\n      pop\n        /* \"#utility.yul\":5756:5994   */\n      pop\n        /* \"#utility.yul\":6081:6085   */\n      0x60\n        /* \"#utility.yul\":6074:6079   */\n      dup4\n        /* \"#utility.yul\":6070:6086   */\n      add\n        /* \"#utility.yul\":6064:6087   */\n      mload\n        /* \"#utility.yul\":6100:6163   */\n      tag_267\n        /* \"#utility.yul\":6157:6161   */\n      0x60\n        /* \"#utility.yul\":6152:6155   */\n      dup7\n        /* \"#utility.yul\":6148:6162   */\n      add\n        /* \"#utility.yul\":6134:6146   */\n      dup3\n        /* \"#utility.yul\":6100:6163   */\n      tag_155\n      jump\t// in\n    tag_267:\n        /* \"#utility.yul\":6004:6173   */\n      pop\n        /* \"#utility.yul\":6256:6260   */\n      0x80\n        /* \"#utility.yul\":6249:6254   */\n      dup4\n        /* \"#utility.yul\":6245:6261   */\n      add\n        /* \"#utility.yul\":6239:6262   */\n      mload\n        /* \"#utility.yul\":6275:6338   */\n      tag_268\n        /* \"#utility.yul\":6332:6336   */\n      0x80\n        /* \"#utility.yul\":6327:6330   */\n      dup7\n        /* \"#utility.yul\":6323:6337   */\n      add\n        /* \"#utility.yul\":6309:6321   */\n      dup3\n        /* \"#utility.yul\":6275:6338   */\n      tag_155\n      jump\t// in\n    tag_268:\n        /* \"#utility.yul\":6183:6348   */\n      pop\n        /* \"#utility.yul\":6365:6369   */\n      dup1\n        /* \"#utility.yul\":6358:6369   */\n      swap2\n      pop\n        /* \"#utility.yul\":5362:6375   */\n      pop\n        /* \"#utility.yul\":5256:6375   */\n      swap3\n      swap2\n      pop\n      pop\n      jump\t// out\n        /* \"#utility.yul\":6381:6621   */\n    tag_160:\n        /* \"#utility.yul\":6492:6502   */\n      0x00\n        /* \"#utility.yul\":6527:6615   */\n      tag_270\n        /* \"#utility.yul\":6611:6614   */\n      dup4\n        /* \"#utility.yul\":6603:6609   */\n      dup4\n        /* \"#utility.yul\":6527:6615   */\n      tag_159\n      jump\t// in\n    tag_270:\n        /* \"#utility.yul\":6513:6615   */\n      swap1\n      pop\n        /* \"#utility.yul\":6381:6621   */\n      swap3\n      swap2\n      pop\n      pop\n      jump\t// out\n        /* \"#utility.yul\":6627:6761   */\n    tag_161:\n        /* \"#utility.yul\":6718:6722   */\n      0x00\n        /* \"#utility.yul\":6750:6754   */\n      0x20\n        /* \"#utility.yul\":6745:6748   */\n      dup3\n        /* \"#utility.yul\":6741:6755   */\n      add\n        /* \"#utility.yul\":6733:6755   */\n      swap1\n      pop\n        /* \"#utility.yul\":6627:6761   */\n      swap2\n      swap1\n      pop\n      jump\t// out\n        /* \"#utility.yul\":6823:7902   */\n    tag_162:\n        /* \"#utility.yul\":6984:6987   */\n      0x00\n        /* \"#utility.yul\":7013:7088   */\n      tag_273\n        /* \"#utility.yul\":7082:7087   */\n      dup3\n        /* \"#utility.yul\":7013:7088   */\n      tag_152\n      jump\t// in\n    tag_273:\n        /* \"#utility.yul\":7104:7211   */\n      tag_274\n        /* \"#utility.yul\":7204:7210   */\n      dup2\n        /* \"#utility.yul\":7199:7202   */\n      dup6\n        /* \"#utility.yul\":7104:7211   */\n      tag_153\n      jump\t// in\n    tag_274:\n        /* \"#utility.yul\":7097:7211   */\n      swap4\n      pop\n        /* \"#utility.yul\":7237:7240   */\n      dup4\n        /* \"#utility.yul\":7282:7286   */\n      0x20\n        /* \"#utility.yul\":7274:7280   */\n      dup3\n        /* \"#utility.yul\":7270:7287   */\n      mul\n        /* \"#utility.yul\":7265:7268   */\n      dup6\n        /* \"#utility.yul\":7261:7288   */\n      add\n        /* \"#utility.yul\":7312:7389   */\n      tag_275\n        /* \"#utility.yul\":7383:7388   */\n      dup6\n        /* \"#utility.yul\":7312:7389   */\n      tag_154\n      jump\t// in\n    tag_275:\n        /* \"#utility.yul\":7412:7419   */\n      dup1\n        /* \"#utility.yul\":7443:7444   */\n      0x00\n        /* \"#utility.yul\":7428:7857   */\n    tag_276:\n        /* \"#utility.yul\":7453:7459   */\n      dup6\n        /* \"#utility.yul\":7450:7451   */\n      dup2\n        /* \"#utility.yul\":7447:7460   */\n      lt\n        /* \"#utility.yul\":7428:7857   */\n      iszero\n      tag_278\n      jumpi\n        /* \"#utility.yul\":7524:7533   */\n      dup5\n        /* \"#utility.yul\":7518:7522   */\n      dup5\n        /* \"#utility.yul\":7514:7534   */\n      sub\n        /* \"#utility.yul\":7509:7512   */\n      dup10\n        /* \"#utility.yul\":7502:7535   */\n      mstore\n        /* \"#utility.yul\":7575:7581   */\n      dup2\n        /* \"#utility.yul\":7569:7582   */\n      mload\n        /* \"#utility.yul\":7603:7709   */\n      tag_279\n        /* \"#utility.yul\":7704:7708   */\n      dup6\n        /* \"#utility.yul\":7689:7702   */\n      dup3\n        /* \"#utility.yul\":7603:7709   */\n      tag_160\n      jump\t// in\n    tag_279:\n        /* \"#utility.yul\":7595:7709   */\n      swap5\n      pop\n        /* \"#utility.yul\":7732:7813   */\n      tag_280\n        /* \"#utility.yul\":7806:7812   */\n      dup4\n        /* \"#utility.yul\":7732:7813   */\n      tag_161\n      jump\t// in\n    tag_280:\n        /* \"#utility.yul\":7722:7813   */\n      swap3\n      pop\n        /* \"#utility.yul\":7842:7846   */\n      0x20\n        /* \"#utility.yul\":7837:7840   */\n      dup11\n        /* \"#utility.yul\":7833:7847   */\n      add\n        /* \"#utility.yul\":7826:7847   */\n      swap10\n      pop\n        /* \"#utility.yul\":7488:7857   */\n      pop\n        /* \"#utility.yul\":7475:7476   */\n      0x01\n        /* \"#utility.yul\":7472:7473   */\n      dup2\n        /* \"#utility.yul\":7468:7477   */\n      add\n        /* \"#utility.yul\":7463:7477   */\n      swap1\n      pop\n        /* \"#utility.yul\":7428:7857   */\n      jump(tag_276)\n    tag_278:\n        /* \"#utility.yul\":7432:7446   */\n      pop\n        /* \"#utility.yul\":7873:7877   */\n      dup3\n        /* \"#utility.yul\":7866:7877   */\n      swap8\n      pop\n        /* \"#utility.yul\":7893:7896   */\n      dup8\n        /* \"#utility.yul\":7886:7896   */\n      swap6\n      pop\n        /* \"#utility.yul\":6989:7902   */\n      pop\n      pop\n      pop\n      pop\n      pop\n        /* \"#utility.yul\":6823:7902   */\n      swap3\n      swap2\n      pop\n      pop\n      jump\t// out\n        /* \"#utility.yul\":7908:8365   */\n    tag_24:\n        /* \"#utility.yul\":8093:8097   */\n      0x00\n        /* \"#utility.yul\":8131:8133   */\n      0x20\n        /* \"#utility.yul\":8120:8129   */\n      dup3\n        /* \"#utility.yul\":8116:8134   */\n      add\n        /* \"#utility.yul\":8108:8134   */\n      swap1\n      pop\n        /* \"#utility.yul\":8180:8189   */\n      dup2\n        /* \"#utility.yul\":8174:8178   */\n      dup2\n        /* \"#utility.yul\":8170:8190   */\n      sub\n        /* \"#utility.yul\":8166:8167   */\n      0x00\n        /* \"#utility.yul\":8155:8164   */\n      dup4\n        /* \"#utility.yul\":8151:8168   */\n      add\n        /* \"#utility.yul\":8144:8191   */\n      mstore\n        /* \"#utility.yul\":8208:8358   */\n      tag_282\n        /* \"#utility.yul\":8353:8357   */\n      dup2\n        /* \"#utility.yul\":8344:8350   */\n      dup5\n        /* \"#utility.yul\":8208:8358   */\n      tag_162\n      jump\t// in\n    tag_282:\n        /* \"#utility.yul\":8200:8358   */\n      swap1\n      pop\n        /* \"#utility.yul\":7908:8365   */\n      swap3\n      swap2\n      pop\n      pop\n      jump\t// out\n        /* \"#utility.yul\":8371:8460   */\n    tag_163:\n        /* \"#utility.yul\":8407:8414   */\n      0x00\n        /* \"#utility.yul\":8447:8453   */\n      0xffff\n        /* \"#utility.yul\":8440:8445   */\n      dup3\n        /* \"#utility.yul\":8436:8454   */\n      and\n        /* \"#utility.yul\":8425:8454   */\n      swap1\n      pop\n        /* \"#utility.yul\":8371:8460   */\n      swap2\n      swap1\n      pop\n      jump\t// out\n        /* \"#utility.yul\":8466:8586   */\n    tag_164:\n        /* \"#utility.yul\":8538:8561   */\n      tag_285\n        /* \"#utility.yul\":8555:8560   */\n      dup2\n        /* \"#utility.yul\":8538:8561   */\n      tag_163\n      jump\t// in\n    tag_285:\n        /* \"#utility.yul\":8531:8536   */\n      dup2\n        /* \"#utility.yul\":8528:8562   */\n      eq\n        /* \"#utility.yul\":8518:8580   */\n      tag_286\n      jumpi\n        /* \"#utility.yul\":8576:8577   */\n      0x00\n        /* \"#utility.yul\":8573:8574   */\n      dup1\n        /* \"#utility.yul\":8566:8578   */\n      revert\n        /* \"#utility.yul\":8518:8580   */\n    tag_286:\n        /* \"#utility.yul\":8466:8586   */\n      pop\n      jump\t// out\n        /* \"#utility.yul\":8592:8729   */\n    tag_165:\n        /* \"#utility.yul\":8637:8642   */\n      0x00\n        /* \"#utility.yul\":8675:8681   */\n      dup2\n        /* \"#utility.yul\":8662:8682   */\n      calldataload\n        /* \"#utility.yul\":8653:8682   */\n      swap1\n      pop\n        /* \"#utility.yul\":8691:8723   */\n      tag_288\n        /* \"#utility.yul\":8717:8722   */\n      dup2\n        /* \"#utility.yul\":8691:8723   */\n      tag_164\n      jump\t// in\n    tag_288:\n        /* \"#utility.yul\":8592:8729   */\n      swap3\n      swap2\n      pop\n      pop\n      jump\t// out\n        /* \"#utility.yul\":8735:9062   */\n    tag_30:\n        /* \"#utility.yul\":8793:8799   */\n      0x00\n        /* \"#utility.yul\":8842:8844   */\n      0x20\n        /* \"#utility.yul\":8830:8839   */\n      dup3\n        /* \"#utility.yul\":8821:8828   */\n      dup5\n        /* \"#utility.yul\":8817:8840   */\n      sub\n        /* \"#utility.yul\":8813:8845   */\n      slt\n        /* \"#utility.yul\":8810:8929   */\n      iszero\n      tag_290\n      jumpi\n        /* \"#utility.yul\":8848:8927   */\n      tag_291\n      tag_136\n      jump\t// in\n    tag_291:\n        /* \"#utility.yul\":8810:8929   */\n    tag_290:\n        /* \"#utility.yul\":8968:8969   */\n      0x00\n        /* \"#utility.yul\":8993:9045   */\n      tag_292\n        /* \"#utility.yul\":9037:9044   */\n      dup5\n        /* \"#utility.yul\":9028:9034   */\n      dup3\n        /* \"#utility.yul\":9017:9026   */\n      dup6\n        /* \"#utility.yul\":9013:9035   */\n      add\n        /* \"#utility.yul\":8993:9045   */\n      tag_165\n      jump\t// in\n    tag_292:\n        /* \"#utility.yul\":8983:9045   */\n      swap2\n      pop\n        /* \"#utility.yul\":8939:9055   */\n      pop\n        /* \"#utility.yul\":8735:9062   */\n      swap3\n      swap2\n      pop\n      pop\n      jump\t// out\n        /* \"#utility.yul\":9068:9183   */\n    tag_166:\n        /* \"#utility.yul\":9153:9176   */\n      tag_294\n        /* \"#utility.yul\":9170:9175   */\n      dup2\n        /* \"#utility.yul\":9153:9176   */\n      tag_163\n      jump\t// in\n    tag_294:\n        /* \"#utility.yul\":9148:9151   */\n      dup3\n        /* \"#utility.yul\":9141:9177   */\n      mstore\n        /* \"#utility.yul\":9068:9183   */\n      pop\n      pop\n      jump\t// out\n        /* \"#utility.yul\":9189:9407   */\n    tag_38:\n        /* \"#utility.yul\":9280:9284   */\n      0x00\n        /* \"#utility.yul\":9318:9320   */\n      0x20\n        /* \"#utility.yul\":9307:9316   */\n      dup3\n        /* \"#utility.yul\":9303:9321   */\n      add\n        /* \"#utility.yul\":9295:9321   */\n      swap1\n      pop\n        /* \"#utility.yul\":9331:9400   */\n      tag_296\n        /* \"#utility.yul\":9397:9398   */\n      0x00\n        /* \"#utility.yul\":9386:9395   */\n      dup4\n        /* \"#utility.yul\":9382:9399   */\n      add\n        /* \"#utility.yul\":9373:9379   */\n      dup5\n        /* \"#utility.yul\":9331:9400   */\n      tag_166\n      jump\t// in\n    tag_296:\n        /* \"#utility.yul\":9189:9407   */\n      swap3\n      swap2\n      pop\n      pop\n      jump\t// out\n        /* \"#utility.yul\":9413:9530   */\n    tag_167:\n        /* \"#utility.yul\":9522:9523   */\n      0x00\n        /* \"#utility.yul\":9519:9520   */\n      dup1\n        /* \"#utility.yul\":9512:9524   */\n      revert\n        /* \"#utility.yul\":9536:9653   */\n    tag_168:\n        /* \"#utility.yul\":9645:9646   */\n      0x00\n        /* \"#utility.yul\":9642:9643   */\n      dup1\n        /* \"#utility.yul\":9635:9647   */\n      revert\n        /* \"#utility.yul\":9659:9839   */\n    tag_169:\n        /* \"#utility.yul\":9707:9784   */\n      0x4e487b7100000000000000000000000000000000000000000000000000000000\n        /* \"#utility.yul\":9704:9705   */\n      0x00\n        /* \"#utility.yul\":9697:9785   */\n      mstore\n        /* \"#utility.yul\":9804:9808   */\n      0x41\n        /* \"#utility.yul\":9801:9802   */\n      0x04\n        /* \"#utility.yul\":9794:9809   */\n      mstore\n        /* \"#utility.yul\":9828:9832   */\n      0x24\n        /* \"#utility.yul\":9825:9826   */\n      0x00\n        /* \"#utility.yul\":9818:9833   */\n      revert\n        /* \"#utility.yul\":9845:10126   */\n    tag_170:\n        /* \"#utility.yul\":9928:9955   */\n      tag_301\n        /* \"#utility.yul\":9950:9954   */\n      dup3\n        /* \"#utility.yul\":9928:9955   */\n      tag_150\n      jump\t// in\n    tag_301:\n        /* \"#utility.yul\":9920:9926   */\n      dup2\n        /* \"#utility.yul\":9916:9956   */\n      add\n        /* \"#utility.yul\":10058:10064   */\n      dup2\n        /* \"#utility.yul\":10046:10056   */\n      dup2\n        /* \"#utility.yul\":10043:10065   */\n      lt\n        /* \"#utility.yul\":10022:10040   */\n      0xffffffffffffffff\n        /* \"#utility.yul\":10010:10020   */\n      dup3\n        /* \"#utility.yul\":10007:10041   */\n      gt\n        /* \"#utility.yul\":10004:10066   */\n      or\n        /* \"#utility.yul\":10001:10089   */\n      iszero\n      tag_302\n      jumpi\n        /* \"#utility.yul\":10069:10087   */\n      tag_303\n      tag_169\n      jump\t// in\n    tag_303:\n        /* \"#utility.yul\":10001:10089   */\n    tag_302:\n        /* \"#utility.yul\":10109:10119   */\n      dup1\n        /* \"#utility.yul\":10105:10107   */\n      0x40\n        /* \"#utility.yul\":10098:10120   */\n      mstore\n        /* \"#utility.yul\":9888:10126   */\n      pop\n        /* \"#utility.yul\":9845:10126   */\n      pop\n      pop\n      jump\t// out\n        /* \"#utility.yul\":10132:10261   */\n    tag_171:\n        /* \"#utility.yul\":10166:10172   */\n      0x00\n        /* \"#utility.yul\":10193:10213   */\n      tag_305\n      tag_135\n      jump\t// in\n    tag_305:\n        /* \"#utility.yul\":10183:10213   */\n      swap1\n      pop\n        /* \"#utility.yul\":10222:10255   */\n      tag_306\n        /* \"#utility.yul\":10250:10254   */\n      dup3\n        /* \"#utility.yul\":10242:10248   */\n      dup3\n        /* \"#utility.yul\":10222:10255   */\n      tag_170\n      jump\t// in\n    tag_306:\n        /* \"#utility.yul\":10132:10261   */\n      swap2\n      swap1\n      pop\n      jump\t// out\n        /* \"#utility.yul\":10267:10575   */\n    tag_172:\n        /* \"#utility.yul\":10329:10333   */\n      0x00\n        /* \"#utility.yul\":10419:10437   */\n      0xffffffffffffffff\n        /* \"#utility.yul\":10411:10417   */\n      dup3\n        /* \"#utility.yul\":10408:10438   */\n      gt\n        /* \"#utility.yul\":10405:10461   */\n      iszero\n      tag_308\n      jumpi\n        /* \"#utility.yul\":10441:10459   */\n      tag_309\n      tag_169\n      jump\t// in\n    tag_309:\n        /* \"#utility.yul\":10405:10461   */\n    tag_308:\n        /* \"#utility.yul\":10479:10508   */\n      tag_310\n        /* \"#utility.yul\":10501:10507   */\n      dup3\n        /* \"#utility.yul\":10479:10508   */\n      tag_150\n      jump\t// in\n    tag_310:\n        /* \"#utility.yul\":10471:10508   */\n      swap1\n      pop\n        /* \"#utility.yul\":10563:10567   */\n      0x20\n        /* \"#utility.yul\":10557:10561   */\n      dup2\n        /* \"#utility.yul\":10553:10568   */\n      add\n        /* \"#utility.yul\":10545:10568   */\n      swap1\n      pop\n        /* \"#utility.yul\":10267:10575   */\n      swap2\n      swap1\n      pop\n      jump\t// out\n        /* \"#utility.yul\":10581:10729   */\n    tag_173:\n        /* \"#utility.yul\":10679:10685   */\n      dup3\n        /* \"#utility.yul\":10674:10677   */\n      dup2\n        /* \"#utility.yul\":10669:10672   */\n      dup4\n        /* \"#utility.yul\":10656:10686   */\n      calldatacopy\n        /* \"#utility.yul\":10720:10721   */\n      0x00\n        /* \"#utility.yul\":10711:10717   */\n      dup4\n        /* \"#utility.yul\":10706:10709   */\n      dup4\n        /* \"#utility.yul\":10702:10718   */\n      add\n        /* \"#utility.yul\":10695:10722   */\n      mstore\n        /* \"#utility.yul\":10581:10729   */\n      pop\n      pop\n      pop\n      jump\t// out\n        /* \"#utility.yul\":10735:11160   */\n    tag_174:\n        /* \"#utility.yul\":10813:10818   */\n      0x00\n        /* \"#utility.yul\":10838:10904   */\n      tag_313\n        /* \"#utility.yul\":10854:10903   */\n      tag_314\n        /* \"#utility.yul\":10896:10902   */\n      dup5\n        /* \"#utility.yul\":10854:10903   */\n      tag_172\n      jump\t// in\n    tag_314:\n        /* \"#utility.yul\":10838:10904   */\n      tag_171\n      jump\t// in\n    tag_313:\n        /* \"#utility.yul\":10829:10904   */\n      swap1\n      pop\n        /* \"#utility.yul\":10927:10933   */\n      dup3\n        /* \"#utility.yul\":10920:10925   */\n      dup2\n        /* \"#utility.yul\":10913:10934   */\n      mstore\n        /* \"#utility.yul\":10965:10969   */\n      0x20\n        /* \"#utility.yul\":10958:10963   */\n      dup2\n        /* \"#utility.yul\":10954:10970   */\n      add\n        /* \"#utility.yul\":11003:11006   */\n      dup5\n        /* \"#utility.yul\":10994:11000   */\n      dup5\n        /* \"#utility.yul\":10989:10992   */\n      dup5\n        /* \"#utility.yul\":10985:11001   */\n      add\n        /* \"#utility.yul\":10982:11007   */\n      gt\n        /* \"#utility.yul\":10979:11091   */\n      iszero\n      tag_315\n      jumpi\n        /* \"#utility.yul\":11010:11089   */\n      tag_316\n      tag_168\n      jump\t// in\n    tag_316:\n        /* \"#utility.yul\":10979:11091   */\n    tag_315:\n        /* \"#utility.yul\":11100:11154   */\n      tag_317\n        /* \"#utility.yul\":11147:11153   */\n      dup5\n        /* \"#utility.yul\":11142:11145   */\n      dup3\n        /* \"#utility.yul\":11137:11140   */\n      dup6\n        /* \"#utility.yul\":11100:11154   */\n      tag_173\n      jump\t// in\n    tag_317:\n        /* \"#utility.yul\":10819:11160   */\n      pop\n        /* \"#utility.yul\":10735:11160   */\n      swap4\n      swap3\n      pop\n      pop\n      pop\n      jump\t// out\n        /* \"#utility.yul\":11180:11520   */\n    tag_175:\n        /* \"#utility.yul\":11236:11241   */\n      0x00\n        /* \"#utility.yul\":11285:11288   */\n      dup3\n        /* \"#utility.yul\":11278:11282   */\n      0x1f\n        /* \"#utility.yul\":11270:11276   */\n      dup4\n        /* \"#utility.yul\":11266:11283   */\n      add\n        /* \"#utility.yul\":11262:11289   */\n      slt\n        /* \"#utility.yul\":11252:11374   */\n      tag_319\n      jumpi\n        /* \"#utility.yul\":11293:11372   */\n      tag_320\n      tag_167\n      jump\t// in\n    tag_320:\n        /* \"#utility.yul\":11252:11374   */\n    tag_319:\n        /* \"#utility.yul\":11410:11416   */\n      dup2\n        /* \"#utility.yul\":11397:11417   */\n      calldataload\n        /* \"#utility.yul\":11435:11514   */\n      tag_321\n        /* \"#utility.yul\":11510:11513   */\n      dup5\n        /* \"#utility.yul\":11502:11508   */\n      dup3\n        /* \"#utility.yul\":11495:11499   */\n      0x20\n        /* \"#utility.yul\":11487:11493   */\n      dup7\n        /* \"#utility.yul\":11483:11500   */\n      add\n        /* \"#utility.yul\":11435:11514   */\n      tag_174\n      jump\t// in\n    tag_321:\n        /* \"#utility.yul\":11426:11514   */\n      swap2\n      pop\n        /* \"#utility.yul\":11242:11520   */\n      pop\n        /* \"#utility.yul\":11180:11520   */\n      swap3\n      swap2\n      pop\n      pop\n      jump\t// out\n        /* \"#utility.yul\":11526:12035   */\n    tag_41:\n        /* \"#utility.yul\":11595:11601   */\n      0x00\n        /* \"#utility.yul\":11644:11646   */\n      0x20\n        /* \"#utility.yul\":11632:11641   */\n      dup3\n        /* \"#utility.yul\":11623:11630   */\n      dup5\n        /* \"#utility.yul\":11619:11642   */\n      sub\n        /* \"#utility.yul\":11615:11647   */\n      slt\n        /* \"#utility.yul\":11612:11731   */\n      iszero\n      tag_323\n      jumpi\n        /* \"#utility.yul\":11650:11729   */\n      tag_324\n      tag_136\n      jump\t// in\n    tag_324:\n        /* \"#utility.yul\":11612:11731   */\n    tag_323:\n        /* \"#utility.yul\":11798:11799   */\n      0x00\n        /* \"#utility.yul\":11787:11796   */\n      dup3\n        /* \"#utility.yul\":11783:11800   */\n      add\n        /* \"#utility.yul\":11770:11801   */\n      calldataload\n        /* \"#utility.yul\":11828:11846   */\n      0xffffffffffffffff\n        /* \"#utility.yul\":11820:11826   */\n      dup2\n        /* \"#utility.yul\":11817:11847   */\n      gt\n        /* \"#utility.yul\":11814:11931   */\n      iszero\n      tag_325\n      jumpi\n        /* \"#utility.yul\":11850:11929   */\n      tag_326\n      tag_137\n      jump\t// in\n    tag_326:\n        /* \"#utility.yul\":11814:11931   */\n    tag_325:\n        /* \"#utility.yul\":11955:12018   */\n      tag_327\n        /* \"#utility.yul\":12010:12017   */\n      dup5\n        /* \"#utility.yul\":12001:12007   */\n      dup3\n        /* \"#utility.yul\":11990:11999   */\n      dup6\n        /* \"#utility.yul\":11986:12008   */\n      add\n        /* \"#utility.yul\":11955:12018   */\n      tag_175\n      jump\t// in\n    tag_327:\n        /* \"#utility.yul\":11945:12018   */\n      swap2\n      pop\n        /* \"#utility.yul\":11741:12028   */\n      pop\n        /* \"#utility.yul\":11526:12035   */\n      swap3\n      swap2\n      pop\n      pop\n      jump\t// out\n        /* \"#utility.yul\":12041:12263   */\n    tag_46:\n        /* \"#utility.yul\":12134:12138   */\n      0x00\n        /* \"#utility.yul\":12172:12174   */\n      0x20\n        /* \"#utility.yul\":12161:12170   */\n      dup3\n        /* \"#utility.yul\":12157:12175   */\n      add\n        /* \"#utility.yul\":12149:12175   */\n      swap1\n      pop\n        /* \"#utility.yul\":12185:12256   */\n      tag_329\n        /* \"#utility.yul\":12253:12254   */\n      0x00\n        /* \"#utility.yul\":12242:12251   */\n      dup4\n        /* \"#utility.yul\":12238:12255   */\n      add\n        /* \"#utility.yul\":12229:12235   */\n      dup5\n        /* \"#utility.yul\":12185:12256   */\n      tag_146\n      jump\t// in\n    tag_329:\n        /* \"#utility.yul\":12041:12263   */\n      swap3\n      swap2\n      pop\n      pop\n      jump\t// out\n        /* \"#utility.yul\":12269:12598   */\n    tag_49:\n        /* \"#utility.yul\":12328:12334   */\n      0x00\n        /* \"#utility.yul\":12377:12379   */\n      0x20\n        /* \"#utility.yul\":12365:12374   */\n      dup3\n        /* \"#utility.yul\":12356:12363   */\n      dup5\n        /* \"#utility.yul\":12352:12375   */\n      sub\n        /* \"#utility.yul\":12348:12380   */\n      slt\n        /* \"#utility.yul\":12345:12464   */\n      iszero\n      tag_331\n      jumpi\n        /* \"#utility.yul\":12383:12462   */\n      tag_332\n      tag_136\n      jump\t// in\n    tag_332:\n        /* \"#utility.yul\":12345:12464   */\n    tag_331:\n        /* \"#utility.yul\":12503:12504   */\n      0x00\n        /* \"#utility.yul\":12528:12581   */\n      tag_333\n        /* \"#utility.yul\":12573:12580   */\n      dup5\n        /* \"#utility.yul\":12564:12570   */\n      dup3\n        /* \"#utility.yul\":12553:12562   */\n      dup6\n        /* \"#utility.yul\":12549:12571   */\n      add\n        /* \"#utility.yul\":12528:12581   */\n      tag_144\n      jump\t// in\n    tag_333:\n        /* \"#utility.yul\":12518:12581   */\n      swap2\n      pop\n        /* \"#utility.yul\":12474:12591   */\n      pop\n        /* \"#utility.yul\":12269:12598   */\n      swap3\n      swap2\n      pop\n      pop\n      jump\t// out\n        /* \"#utility.yul\":12656:13785   */\n    tag_176:\n        /* \"#utility.yul\":12767:12770   */\n      0x00\n        /* \"#utility.yul\":12803:12807   */\n      0xa0\n        /* \"#utility.yul\":12798:12801   */\n      dup4\n        /* \"#utility.yul\":12794:12808   */\n      add\n        /* \"#utility.yul\":12888:12892   */\n      0x00\n        /* \"#utility.yul\":12881:12886   */\n      dup4\n        /* \"#utility.yul\":12877:12893   */\n      add\n        /* \"#utility.yul\":12871:12894   */\n      mload\n        /* \"#utility.yul\":12907:12970   */\n      tag_335\n        /* \"#utility.yul\":12964:12968   */\n      0x00\n        /* \"#utility.yul\":12959:12962   */\n      dup7\n        /* \"#utility.yul\":12955:12969   */\n      add\n        /* \"#utility.yul\":12941:12953   */\n      dup3\n        /* \"#utility.yul\":12907:12970   */\n      tag_155\n      jump\t// in\n    tag_335:\n        /* \"#utility.yul\":12818:12980   */\n      pop\n        /* \"#utility.yul\":13064:13068   */\n      0x20\n        /* \"#utility.yul\":13057:13062   */\n      dup4\n        /* \"#utility.yul\":13053:13069   */\n      add\n        /* \"#utility.yul\":13047:13070   */\n      mload\n        /* \"#utility.yul\":13083:13146   */\n      tag_336\n        /* \"#utility.yul\":13140:13144   */\n      0x20\n        /* \"#utility.yul\":13135:13138   */\n      dup7\n        /* \"#utility.yul\":13131:13145   */\n      add\n        /* \"#utility.yul\":13117:13129   */\n      dup3\n        /* \"#utility.yul\":13083:13146   */\n      tag_156\n      jump\t// in\n    tag_336:\n        /* \"#utility.yul\":12990:13156   */\n      pop\n        /* \"#utility.yul\":13241:13245   */\n      0x40\n        /* \"#utility.yul\":13234:13239   */\n      dup4\n        /* \"#utility.yul\":13230:13246   */\n      add\n        /* \"#utility.yul\":13224:13247   */\n      mload\n        /* \"#utility.yul\":13294:13297   */\n      dup5\n        /* \"#utility.yul\":13288:13292   */\n      dup3\n        /* \"#utility.yul\":13284:13298   */\n      sub\n        /* \"#utility.yul\":13277:13281   */\n      0x40\n        /* \"#utility.yul\":13272:13275   */\n      dup7\n        /* \"#utility.yul\":13268:13282   */\n      add\n        /* \"#utility.yul\":13261:13299   */\n      mstore\n        /* \"#utility.yul\":13320:13393   */\n      tag_337\n        /* \"#utility.yul\":13388:13392   */\n      dup3\n        /* \"#utility.yul\":13374:13386   */\n      dup3\n        /* \"#utility.yul\":13320:13393   */\n      tag_158\n      jump\t// in\n    tag_337:\n        /* \"#utility.yul\":13312:13393   */\n      swap2\n      pop\n        /* \"#utility.yul\":13166:13404   */\n      pop\n        /* \"#utility.yul\":13491:13495   */\n      0x60\n        /* \"#utility.yul\":13484:13489   */\n      dup4\n        /* \"#utility.yul\":13480:13496   */\n      add\n        /* \"#utility.yul\":13474:13497   */\n      mload\n        /* \"#utility.yul\":13510:13573   */\n      tag_338\n        /* \"#utility.yul\":13567:13571   */\n      0x60\n        /* \"#utility.yul\":13562:13565   */\n      dup7\n        /* \"#utility.yul\":13558:13572   */\n      add\n        /* \"#utility.yul\":13544:13556   */\n      dup3\n        /* \"#utility.yul\":13510:13573   */\n      tag_155\n      jump\t// in\n    tag_338:\n        /* \"#utility.yul\":13414:13583   */\n      pop\n        /* \"#utility.yul\":13666:13670   */\n      0x80\n        /* \"#utility.yul\":13659:13664   */\n      dup4\n        /* \"#utility.yul\":13655:13671   */\n      add\n        /* \"#utility.yul\":13649:13672   */\n      mload\n        /* \"#utility.yul\":13685:13748   */\n      tag_339\n        /* \"#utility.yul\":13742:13746   */\n      0x80\n        /* \"#utility.yul\":13737:13740   */\n      dup7\n        /* \"#utility.yul\":13733:13747   */\n      add\n        /* \"#utility.yul\":13719:13731   */\n      dup3\n        /* \"#utility.yul\":13685:13748   */\n      tag_155\n      jump\t// in\n    tag_339:\n        /* \"#utility.yul\":13593:13758   */\n      pop\n        /* \"#utility.yul\":13775:13779   */\n      dup1\n        /* \"#utility.yul\":13768:13779   */\n      swap2\n      pop\n        /* \"#utility.yul\":12772:13785   */\n      pop\n        /* \"#utility.yul\":12656:13785   */\n      swap3\n      swap2\n      pop\n      pop\n      jump\t// out\n        /* \"#utility.yul\":13791:14148   */\n    tag_52:\n        /* \"#utility.yul\":13926:13930   */\n      0x00\n        /* \"#utility.yul\":13964:13966   */\n      0x20\n        /* \"#utility.yul\":13953:13962   */\n      dup3\n        /* \"#utility.yul\":13949:13967   */\n      add\n        /* \"#utility.yul\":13941:13967   */\n      swap1\n      pop\n        /* \"#utility.yul\":14013:14022   */\n      dup2\n        /* \"#utility.yul\":14007:14011   */\n      dup2\n        /* \"#utility.yul\":14003:14023   */\n      sub\n        /* \"#utility.yul\":13999:14000   */\n      0x00\n        /* \"#utility.yul\":13988:13997   */\n      dup4\n        /* \"#utility.yul\":13984:14001   */\n      add\n        /* \"#utility.yul\":13977:14024   */\n      mstore\n        /* \"#utility.yul\":14041:14141   */\n      tag_341\n        /* \"#utility.yul\":14136:14140   */\n      dup2\n        /* \"#utility.yul\":14127:14133   */\n      dup5\n        /* \"#utility.yul\":14041:14141   */\n      tag_176\n      jump\t// in\n    tag_341:\n        /* \"#utility.yul\":14033:14141   */\n      swap1\n      pop\n        /* \"#utility.yul\":13791:14148   */\n      swap3\n      swap2\n      pop\n      pop\n      jump\t// out\n        /* \"#utility.yul\":14154:14334   */\n    tag_177:\n        /* \"#utility.yul\":14202:14279   */\n      0x4e487b7100000000000000000000000000000000000000000000000000000000\n        /* \"#utility.yul\":14199:14200   */\n      0x00\n        /* \"#utility.yul\":14192:14280   */\n      mstore\n        /* \"#utility.yul\":14299:14303   */\n      0x22\n        /* \"#utility.yul\":14296:14297   */\n      0x04\n        /* \"#utility.yul\":14289:14304   */\n      mstore\n        /* \"#utility.yul\":14323:14327   */\n      0x24\n        /* \"#utility.yul\":14320:14321   */\n      0x00\n        /* \"#utility.yul\":14313:14328   */\n      revert\n        /* \"#utility.yul\":14340:14660   */\n    tag_56:\n        /* \"#utility.yul\":14384:14390   */\n      0x00\n        /* \"#utility.yul\":14421:14422   */\n      0x02\n        /* \"#utility.yul\":14415:14419   */\n      dup3\n        /* \"#utility.yul\":14411:14423   */\n      div\n        /* \"#utility.yul\":14401:14423   */\n      swap1\n      pop\n        /* \"#utility.yul\":14468:14469   */\n      0x01\n        /* \"#utility.yul\":14462:14466   */\n      dup3\n        /* \"#utility.yul\":14458:14470   */\n      and\n        /* \"#utility.yul\":14489:14507   */\n      dup1\n        /* \"#utility.yul\":14479:14560   */\n      tag_344\n      jumpi\n        /* \"#utility.yul\":14545:14549   */\n      0x7f\n        /* \"#utility.yul\":14537:14543   */\n      dup3\n        /* \"#utility.yul\":14533:14550   */\n      and\n        /* \"#utility.yul\":14523:14550   */\n      swap2\n      pop\n        /* \"#utility.yul\":14479:14560   */\n    tag_344:\n        /* \"#utility.yul\":14607:14609   */\n      0x20\n        /* \"#utility.yul\":14599:14605   */\n      dup3\n        /* \"#utility.yul\":14596:14610   */\n      lt\n        /* \"#utility.yul\":14576:14594   */\n      dup2\n        /* \"#utility.yul\":14573:14611   */\n      sub\n        /* \"#utility.yul\":14570:14654   */\n      tag_345\n      jumpi\n        /* \"#utility.yul\":14626:14644   */\n      tag_346\n      tag_177\n      jump\t// in\n    tag_346:\n        /* \"#utility.yul\":14570:14654   */\n    tag_345:\n        /* \"#utility.yul\":14391:14660   */\n      pop\n        /* \"#utility.yul\":14340:14660   */\n      swap2\n      swap1\n      pop\n      jump\t// out\n        /* \"#utility.yul\":14666:14846   */\n    tag_73:\n        /* \"#utility.yul\":14714:14791   */\n      0x4e487b7100000000000000000000000000000000000000000000000000000000\n        /* \"#utility.yul\":14711:14712   */\n      0x00\n        /* \"#utility.yul\":14704:14792   */\n      mstore\n        /* \"#utility.yul\":14811:14815   */\n      0x32\n        /* \"#utility.yul\":14808:14809   */\n      0x04\n        /* \"#utility.yul\":14801:14816   */\n      mstore\n        /* \"#utility.yul\":14835:14839   */\n      0x24\n        /* \"#utility.yul\":14832:14833   */\n      0x00\n        /* \"#utility.yul\":14825:14840   */\n      revert\n        /* \"#utility.yul\":14852:15023   */\n    tag_178:\n        /* \"#utility.yul\":14992:15015   */\n      0x545745455420444f4553204e4f54204558495354210000000000000000000000\n        /* \"#utility.yul\":14988:14989   */\n      0x00\n        /* \"#utility.yul\":14980:14986   */\n      dup3\n        /* \"#utility.yul\":14976:14990   */\n      add\n        /* \"#utility.yul\":14969:15016   */\n      mstore\n        /* \"#utility.yul\":14852:15023   */\n      pop\n      jump\t// out\n        /* \"#utility.yul\":15029:15395   */\n    tag_179:\n        /* \"#utility.yul\":15171:15174   */\n      0x00\n        /* \"#utility.yul\":15192:15259   */\n      tag_350\n        /* \"#utility.yul\":15256:15258   */\n      0x15\n        /* \"#utility.yul\":15251:15254   */\n      dup4\n        /* \"#utility.yul\":15192:15259   */\n      tag_148\n      jump\t// in\n    tag_350:\n        /* \"#utility.yul\":15185:15259   */\n      swap2\n      pop\n        /* \"#utility.yul\":15268:15361   */\n      tag_351\n        /* \"#utility.yul\":15357:15360   */\n      dup3\n        /* \"#utility.yul\":15268:15361   */\n      tag_178\n      jump\t// in\n    tag_351:\n        /* \"#utility.yul\":15386:15388   */\n      0x20\n        /* \"#utility.yul\":15381:15384   */\n      dup3\n        /* \"#utility.yul\":15377:15389   */\n      add\n        /* \"#utility.yul\":15370:15389   */\n      swap1\n      pop\n        /* \"#utility.yul\":15029:15395   */\n      swap2\n      swap1\n      pop\n      jump\t// out\n        /* \"#utility.yul\":15401:15820   */\n    tag_77:\n        /* \"#utility.yul\":15567:15571   */\n      0x00\n        /* \"#utility.yul\":15605:15607   */\n      0x20\n        /* \"#utility.yul\":15594:15603   */\n      dup3\n        /* \"#utility.yul\":15590:15608   */\n      add\n        /* \"#utility.yul\":15582:15608   */\n      swap1\n      pop\n        /* \"#utility.yul\":15654:15663   */\n      dup2\n        /* \"#utility.yul\":15648:15652   */\n      dup2\n        /* \"#utility.yul\":15644:15664   */\n      sub\n        /* \"#utility.yul\":15640:15641   */\n      0x00\n        /* \"#utility.yul\":15629:15638   */\n      dup4\n        /* \"#utility.yul\":15625:15642   */\n      add\n        /* \"#utility.yul\":15618:15665   */\n      mstore\n        /* \"#utility.yul\":15682:15813   */\n      tag_353\n        /* \"#utility.yul\":15808:15812   */\n      dup2\n        /* \"#utility.yul\":15682:15813   */\n      tag_179\n      jump\t// in\n    tag_353:\n        /* \"#utility.yul\":15674:15813   */\n      swap1\n      pop\n        /* \"#utility.yul\":15401:15820   */\n      swap2\n      swap1\n      pop\n      jump\t// out\n        /* \"#utility.yul\":15826:15994   */\n    tag_180:\n        /* \"#utility.yul\":15966:15986   */\n      0x545745455420484153204e4f204c494b45530000000000000000000000000000\n        /* \"#utility.yul\":15962:15963   */\n      0x00\n        /* \"#utility.yul\":15954:15960   */\n      dup3\n        /* \"#utility.yul\":15950:15964   */\n      add\n        /* \"#utility.yul\":15943:15987   */\n      mstore\n        /* \"#utility.yul\":15826:15994   */\n      pop\n      jump\t// out\n        /* \"#utility.yul\":16000:16366   */\n    tag_181:\n        /* \"#utility.yul\":16142:16145   */\n      0x00\n        /* \"#utility.yul\":16163:16230   */\n      tag_356\n        /* \"#utility.yul\":16227:16229   */\n      0x12\n        /* \"#utility.yul\":16222:16225   */\n      dup4\n        /* \"#utility.yul\":16163:16230   */\n      tag_148\n      jump\t// in\n    tag_356:\n        /* \"#utility.yul\":16156:16230   */\n      swap2\n      pop\n        /* \"#utility.yul\":16239:16332   */\n      tag_357\n        /* \"#utility.yul\":16328:16331   */\n      dup3\n        /* \"#utility.yul\":16239:16332   */\n      tag_180\n      jump\t// in\n    tag_357:\n        /* \"#utility.yul\":16357:16359   */\n      0x20\n        /* \"#utility.yul\":16352:16355   */\n      dup3\n        /* \"#utility.yul\":16348:16360   */\n      add\n        /* \"#utility.yul\":16341:16360   */\n      swap1\n      pop\n        /* \"#utility.yul\":16000:16366   */\n      swap2\n      swap1\n      pop\n      jump\t// out\n        /* \"#utility.yul\":16372:16791   */\n    tag_83:\n        /* \"#utility.yul\":16538:16542   */\n      0x00\n        /* \"#utility.yul\":16576:16578   */\n      0x20\n        /* \"#utility.yul\":16565:16574   */\n      dup3\n        /* \"#utility.yul\":16561:16579   */\n      add\n        /* \"#utility.yul\":16553:16579   */\n      swap1\n      pop\n        /* \"#utility.yul\":16625:16634   */\n      dup2\n        /* \"#utility.yul\":16619:16623   */\n      dup2\n        /* \"#utility.yul\":16615:16635   */\n      sub\n        /* \"#utility.yul\":16611:16612   */\n      0x00\n        /* \"#utility.yul\":16600:16609   */\n      dup4\n        /* \"#utility.yul\":16596:16613   */\n      add\n        /* \"#utility.yul\":16589:16636   */\n      mstore\n        /* \"#utility.yul\":16653:16784   */\n      tag_359\n        /* \"#utility.yul\":16779:16783   */\n      dup2\n        /* \"#utility.yul\":16653:16784   */\n      tag_181\n      jump\t// in\n    tag_359:\n        /* \"#utility.yul\":16645:16784   */\n      swap1\n      pop\n        /* \"#utility.yul\":16372:16791   */\n      swap2\n      swap1\n      pop\n      jump\t// out\n        /* \"#utility.yul\":16797:16977   */\n    tag_182:\n        /* \"#utility.yul\":16845:16922   */\n      0x4e487b7100000000000000000000000000000000000000000000000000000000\n        /* \"#utility.yul\":16842:16843   */\n      0x00\n        /* \"#utility.yul\":16835:16923   */\n      mstore\n        /* \"#utility.yul\":16942:16946   */\n      0x11\n        /* \"#utility.yul\":16939:16940   */\n      0x04\n        /* \"#utility.yul\":16932:16947   */\n      mstore\n        /* \"#utility.yul\":16966:16970   */\n      0x24\n        /* \"#utility.yul\":16963:16964   */\n      0x00\n        /* \"#utility.yul\":16956:16971   */\n      revert\n        /* \"#utility.yul\":16983:17154   */\n    tag_88:\n        /* \"#utility.yul\":17022:17025   */\n      0x00\n        /* \"#utility.yul\":17045:17069   */\n      tag_362\n        /* \"#utility.yul\":17063:17068   */\n      dup3\n        /* \"#utility.yul\":17045:17069   */\n      tag_142\n      jump\t// in\n    tag_362:\n        /* \"#utility.yul\":17036:17069   */\n      swap2\n      pop\n        /* \"#utility.yul\":17091:17095   */\n      0x00\n        /* \"#utility.yul\":17084:17089   */\n      dup3\n        /* \"#utility.yul\":17081:17096   */\n      sub\n        /* \"#utility.yul\":17078:17119   */\n      tag_363\n      jumpi\n        /* \"#utility.yul\":17099:17117   */\n      tag_364\n      tag_182\n      jump\t// in\n    tag_364:\n        /* \"#utility.yul\":17078:17119   */\n    tag_363:\n        /* \"#utility.yul\":17146:17147   */\n      0x01\n        /* \"#utility.yul\":17139:17144   */\n      dup3\n        /* \"#utility.yul\":17135:17148   */\n      sub\n        /* \"#utility.yul\":17128:17148   */\n      swap1\n      pop\n        /* \"#utility.yul\":16983:17154   */\n      swap2\n      swap1\n      pop\n      jump\t// out\n        /* \"#utility.yul\":17160:17602   */\n    tag_93:\n        /* \"#utility.yul\":17309:17313   */\n      0x00\n        /* \"#utility.yul\":17347:17349   */\n      0x60\n        /* \"#utility.yul\":17336:17345   */\n      dup3\n        /* \"#utility.yul\":17332:17350   */\n      add\n        /* \"#utility.yul\":17324:17350   */\n      swap1\n      pop\n        /* \"#utility.yul\":17360:17431   */\n      tag_366\n        /* \"#utility.yul\":17428:17429   */\n      0x00\n        /* \"#utility.yul\":17417:17426   */\n      dup4\n        /* \"#utility.yul\":17413:17430   */\n      add\n        /* \"#utility.yul\":17404:17410   */\n      dup7\n        /* \"#utility.yul\":17360:17431   */\n      tag_146\n      jump\t// in\n    tag_366:\n        /* \"#utility.yul\":17441:17513   */\n      tag_367\n        /* \"#utility.yul\":17509:17511   */\n      0x20\n        /* \"#utility.yul\":17498:17507   */\n      dup4\n        /* \"#utility.yul\":17494:17512   */\n      add\n        /* \"#utility.yul\":17485:17491   */\n      dup6\n        /* \"#utility.yul\":17441:17513   */\n      tag_145\n      jump\t// in\n    tag_367:\n        /* \"#utility.yul\":17523:17595   */\n      tag_368\n        /* \"#utility.yul\":17591:17593   */\n      0x40\n        /* \"#utility.yul\":17580:17589   */\n      dup4\n        /* \"#utility.yul\":17576:17594   */\n      add\n        /* \"#utility.yul\":17567:17573   */\n      dup5\n        /* \"#utility.yul\":17523:17595   */\n      tag_145\n      jump\t// in\n    tag_368:\n        /* \"#utility.yul\":17160:17602   */\n      swap5\n      swap4\n      pop\n      pop\n      pop\n      pop\n      jump\t// out\n        /* \"#utility.yul\":17608:17780   */\n    tag_183:\n        /* \"#utility.yul\":17748:17772   */\n      0x596f7520417265204e6f7420546865204f776e65722100000000000000000000\n        /* \"#utility.yul\":17744:17745   */\n      0x00\n        /* \"#utility.yul\":17736:17742   */\n      dup3\n        /* \"#utility.yul\":17732:17746   */\n      add\n        /* \"#utility.yul\":17725:17773   */\n      mstore\n        /* \"#utility.yul\":17608:17780   */\n      pop\n      jump\t// out\n        /* \"#utility.yul\":17786:18152   */\n    tag_184:\n        /* \"#utility.yul\":17928:17931   */\n      0x00\n        /* \"#utility.yul\":17949:18016   */\n      tag_371\n        /* \"#utility.yul\":18013:18015   */\n      0x16\n        /* \"#utility.yul\":18008:18011   */\n      dup4\n        /* \"#utility.yul\":17949:18016   */\n      tag_148\n      jump\t// in\n    tag_371:\n        /* \"#utility.yul\":17942:18016   */\n      swap2\n      pop\n        /* \"#utility.yul\":18025:18118   */\n      tag_372\n        /* \"#utility.yul\":18114:18117   */\n      dup3\n        /* \"#utility.yul\":18025:18118   */\n      tag_183\n      jump\t// in\n    tag_372:\n        /* \"#utility.yul\":18143:18145   */\n      0x20\n        /* \"#utility.yul\":18138:18141   */\n      dup3\n        /* \"#utility.yul\":18134:18146   */\n      add\n        /* \"#utility.yul\":18127:18146   */\n      swap1\n      pop\n        /* \"#utility.yul\":17786:18152   */\n      swap2\n      swap1\n      pop\n      jump\t// out\n        /* \"#utility.yul\":18158:18577   */\n    tag_97:\n        /* \"#utility.yul\":18324:18328   */\n      0x00\n        /* \"#utility.yul\":18362:18364   */\n      0x20\n        /* \"#utility.yul\":18351:18360   */\n      dup3\n        /* \"#utility.yul\":18347:18365   */\n      add\n        /* \"#utility.yul\":18339:18365   */\n      swap1\n      pop\n        /* \"#utility.yul\":18411:18420   */\n      dup2\n        /* \"#utility.yul\":18405:18409   */\n      dup2\n        /* \"#utility.yul\":18401:18421   */\n      sub\n        /* \"#utility.yul\":18397:18398   */\n      0x00\n        /* \"#utility.yul\":18386:18395   */\n      dup4\n        /* \"#utility.yul\":18382:18399   */\n      add\n        /* \"#utility.yul\":18375:18422   */\n      mstore\n        /* \"#utility.yul\":18439:18570   */\n      tag_374\n        /* \"#utility.yul\":18565:18569   */\n      dup2\n        /* \"#utility.yul\":18439:18570   */\n      tag_184\n      jump\t// in\n    tag_374:\n        /* \"#utility.yul\":18431:18570   */\n      swap1\n      pop\n        /* \"#utility.yul\":18158:18577   */\n      swap2\n      swap1\n      pop\n      jump\t// out\n        /* \"#utility.yul\":18583:18753   */\n    tag_185:\n        /* \"#utility.yul\":18723:18745   */\n      0x545745455420444f4553204e4f54204558495354000000000000000000000000\n        /* \"#utility.yul\":18719:18720   */\n      0x00\n        /* \"#utility.yul\":18711:18717   */\n      dup3\n        /* \"#utility.yul\":18707:18721   */\n      add\n        /* \"#utility.yul\":18700:18746   */\n      mstore\n        /* \"#utility.yul\":18583:18753   */\n      pop\n      jump\t// out\n        /* \"#utility.yul\":18759:19125   */\n    tag_186:\n        /* \"#utility.yul\":18901:18904   */\n      0x00\n        /* \"#utility.yul\":18922:18989   */\n      tag_377\n        /* \"#utility.yul\":18986:18988   */\n      0x14\n        /* \"#utility.yul\":18981:18984   */\n      dup4\n        /* \"#utility.yul\":18922:18989   */\n      tag_148\n      jump\t// in\n    tag_377:\n        /* \"#utility.yul\":18915:18989   */\n      swap2\n      pop\n        /* \"#utility.yul\":18998:19091   */\n      tag_378\n        /* \"#utility.yul\":19087:19090   */\n      dup3\n        /* \"#utility.yul\":18998:19091   */\n      tag_185\n      jump\t// in\n    tag_378:\n        /* \"#utility.yul\":19116:19118   */\n      0x20\n        /* \"#utility.yul\":19111:19114   */\n      dup3\n        /* \"#utility.yul\":19107:19119   */\n      add\n        /* \"#utility.yul\":19100:19119   */\n      swap1\n      pop\n        /* \"#utility.yul\":18759:19125   */\n      swap2\n      swap1\n      pop\n      jump\t// out\n        /* \"#utility.yul\":19131:19550   */\n    tag_105:\n        /* \"#utility.yul\":19297:19301   */\n      0x00\n        /* \"#utility.yul\":19335:19337   */\n      0x20\n        /* \"#utility.yul\":19324:19333   */\n      dup3\n        /* \"#utility.yul\":19320:19338   */\n      add\n        /* \"#utility.yul\":19312:19338   */\n      swap1\n      pop\n        /* \"#utility.yul\":19384:19393   */\n      dup2\n        /* \"#utility.yul\":19378:19382   */\n      dup2\n        /* \"#utility.yul\":19374:19394   */\n      sub\n        /* \"#utility.yul\":19370:19371   */\n      0x00\n        /* \"#utility.yul\":19359:19368   */\n      dup4\n        /* \"#utility.yul\":19355:19372   */\n      add\n        /* \"#utility.yul\":19348:19395   */\n      mstore\n        /* \"#utility.yul\":19412:19543   */\n      tag_380\n        /* \"#utility.yul\":19538:19542   */\n      dup2\n        /* \"#utility.yul\":19412:19543   */\n      tag_186\n      jump\t// in\n    tag_380:\n        /* \"#utility.yul\":19404:19543   */\n      swap1\n      pop\n        /* \"#utility.yul\":19131:19550   */\n      swap2\n      swap1\n      pop\n      jump\t// out\n        /* \"#utility.yul\":19556:19789   */\n    tag_110:\n        /* \"#utility.yul\":19595:19598   */\n      0x00\n        /* \"#utility.yul\":19618:19642   */\n      tag_382\n        /* \"#utility.yul\":19636:19641   */\n      dup3\n        /* \"#utility.yul\":19618:19642   */\n      tag_142\n      jump\t// in\n    tag_382:\n        /* \"#utility.yul\":19609:19642   */\n      swap2\n      pop\n        /* \"#utility.yul\":19664:19730   */\n      0xffffffffffffffffffffffffffffffffffffffffffffffffffffffffffffffff\n        /* \"#utility.yul\":19657:19662   */\n      dup3\n        /* \"#utility.yul\":19654:19731   */\n      sub\n        /* \"#utility.yul\":19651:19754   */\n      tag_383\n      jumpi\n        /* \"#utility.yul\":19734:19752   */\n      tag_384\n      tag_182\n      jump\t// in\n    tag_384:\n        /* \"#utility.yul\":19651:19754   */\n    tag_383:\n        /* \"#utility.yul\":19781:19782   */\n      0x01\n        /* \"#utility.yul\":19774:19779   */\n      dup3\n        /* \"#utility.yul\":19770:19783   */\n      add\n        /* \"#utility.yul\":19763:19783   */\n      swap1\n      pop\n        /* \"#utility.yul\":19556:19789   */\n      swap2\n      swap1\n      pop\n      jump\t// out\n        /* \"#utility.yul\":19795:19965   */\n    tag_187:\n        /* \"#utility.yul\":19935:19957   */\n      0x496e76616c6964207477656574206c656e677468000000000000000000000000\n        /* \"#utility.yul\":19931:19932   */\n      0x00\n        /* \"#utility.yul\":19923:19929   */\n      dup3\n        /* \"#utility.yul\":19919:19933   */\n      add\n        /* \"#utility.yul\":19912:19958   */\n      mstore\n        /* \"#utility.yul\":19795:19965   */\n      pop\n      jump\t// out\n        /* \"#utility.yul\":19971:20337   */\n    tag_188:\n        /* \"#utility.yul\":20113:20116   */\n      0x00\n        /* \"#utility.yul\":20134:20201   */\n      tag_387\n        /* \"#utility.yul\":20198:20200   */\n      0x14\n        /* \"#utility.yul\":20193:20196   */\n      dup4\n        /* \"#utility.yul\":20134:20201   */\n      tag_148\n      jump\t// in\n    tag_387:\n        /* \"#utility.yul\":20127:20201   */\n      swap2\n      pop\n        /* \"#utility.yul\":20210:20303   */\n      tag_388\n        /* \"#utility.yul\":20299:20302   */\n      dup3\n        /* \"#utility.yul\":20210:20303   */\n      tag_187\n      jump\t// in\n    tag_388:\n        /* \"#utility.yul\":20328:20330   */\n      0x20\n        /* \"#utility.yul\":20323:20326   */\n      dup3\n        /* \"#utility.yul\":20319:20331   */\n      add\n        /* \"#utility.yul\":20312:20331   */\n      swap1\n      pop\n        /* \"#utility.yul\":19971:20337   */\n      swap2\n      swap1\n      pop\n      jump\t// out\n        /* \"#utility.yul\":20343:20762   */\n    tag_118:\n        /* \"#utility.yul\":20509:20513   */\n      0x00\n        /* \"#utility.yul\":20547:20549   */\n      0x20\n        /* \"#utility.yul\":20536:20545   */\n      dup3\n        /* \"#utility.yul\":20532:20550   */\n      add\n        /* \"#utility.yul\":20524:20550   */\n      swap1\n      pop\n        /* \"#utility.yul\":20596:20605   */\n      dup2\n        /* \"#utility.yul\":20590:20594   */\n      dup2\n        /* \"#utility.yul\":20586:20606   */\n      sub\n        /* \"#utility.yul\":20582:20583   */\n      0x00\n        /* \"#utility.yul\":20571:20580   */\n      dup4\n        /* \"#utility.yul\":20567:20584   */\n      add\n        /* \"#utility.yul\":20560:20607   */\n      mstore\n        /* \"#utility.yul\":20624:20755   */\n      tag_390\n        /* \"#utility.yul\":20750:20754   */\n      dup2\n        /* \"#utility.yul\":20624:20755   */\n      tag_188\n      jump\t// in\n    tag_390:\n        /* \"#utility.yul\":20616:20755   */\n      swap1\n      pop\n        /* \"#utility.yul\":20343:20762   */\n      swap2\n      swap1\n      pop\n      jump\t// out\n        /* \"#utility.yul\":20768:20909   */\n    tag_189:\n        /* \"#utility.yul\":20817:20821   */\n      0x00\n        /* \"#utility.yul\":20840:20843   */\n      dup2\n        /* \"#utility.yul\":20832:20843   */\n      swap1\n      pop\n        /* \"#utility.yul\":20863:20866   */\n      dup2\n        /* \"#utility.yul\":20860:20861   */\n      0x00\n        /* \"#utility.yul\":20853:20867   */\n      mstore\n        /* \"#utility.yul\":20897:20901   */\n      0x20\n        /* \"#utility.yul\":20894:20895   */\n      0x00\n        /* \"#utility.yul\":20884:20902   */\n      keccak256\n        /* \"#utility.yul\":20876:20902   */\n      swap1\n      pop\n        /* \"#utility.yul\":20768:20909   */\n      swap2\n      swap1\n      pop\n      jump\t// out\n        /* \"#utility.yul\":20915:21008   */\n    tag_190:\n        /* \"#utility.yul\":20952:20958   */\n      0x00\n        /* \"#utility.yul\":20999:21001   */\n      0x20\n        /* \"#utility.yul\":20994:20996   */\n      0x1f\n        /* \"#utility.yul\":20987:20992   */\n      dup4\n        /* \"#utility.yul\":20983:20997   */\n      add\n        /* \"#utility.yul\":20979:21002   */\n      div\n        /* \"#utility.yul\":20969:21002   */\n      swap1\n      pop\n        /* \"#utility.yul\":20915:21008   */\n      swap2\n      swap1\n      pop\n      jump\t// out\n        /* \"#utility.yul\":21014:21121   */\n    tag_191:\n        /* \"#utility.yul\":21058:21066   */\n      0x00\n        /* \"#utility.yul\":21108:21113   */\n      dup3\n        /* \"#utility.yul\":21102:21106   */\n      dup3\n        /* \"#utility.yul\":21098:21114   */\n      shl\n        /* \"#utility.yul\":21077:21114   */\n      swap1\n      pop\n        /* \"#utility.yul\":21014:21121   */\n      swap3\n      swap2\n      pop\n      pop\n      jump\t// out\n        /* \"#utility.yul\":21127:21520   */\n    tag_192:\n        /* \"#utility.yul\":21196:21202   */\n      0x00\n        /* \"#utility.yul\":21246:21247   */\n      0x08\n        /* \"#utility.yul\":21234:21244   */\n      dup4\n        /* \"#utility.yul\":21230:21248   */\n      mul\n        /* \"#utility.yul\":21269:21366   */\n      tag_395\n        /* \"#utility.yul\":21299:21365   */\n      0xffffffffffffffffffffffffffffffffffffffffffffffffffffffffffffffff\n        /* \"#utility.yul\":21288:21297   */\n      dup3\n        /* \"#utility.yul\":21269:21366   */\n      tag_191\n      jump\t// in\n    tag_395:\n        /* \"#utility.yul\":21387:21426   */\n      tag_396\n        /* \"#utility.yul\":21417:21425   */\n      dup7\n        /* \"#utility.yul\":21406:21415   */\n      dup4\n        /* \"#utility.yul\":21387:21426   */\n      tag_191\n      jump\t// in\n    tag_396:\n        /* \"#utility.yul\":21375:21426   */\n      swap6\n      pop\n        /* \"#utility.yul\":21459:21463   */\n      dup1\n        /* \"#utility.yul\":21455:21464   */\n      not\n        /* \"#utility.yul\":21448:21453   */\n      dup5\n        /* \"#utility.yul\":21444:21465   */\n      and\n        /* \"#utility.yul\":21435:21465   */\n      swap4\n      pop\n        /* \"#utility.yul\":21508:21512   */\n      dup1\n        /* \"#utility.yul\":21498:21506   */\n      dup7\n        /* \"#utility.yul\":21494:21513   */\n      and\n        /* \"#utility.yul\":21487:21492   */\n      dup5\n        /* \"#utility.yul\":21484:21514   */\n      or\n        /* \"#utility.yul\":21474:21514   */\n      swap3\n      pop\n        /* \"#utility.yul\":21203:21520   */\n      pop\n      pop\n        /* \"#utility.yul\":21127:21520   */\n      swap4\n      swap3\n      pop\n      pop\n      pop\n      jump\t// out\n        /* \"#utility.yul\":21526:21586   */\n    tag_193:\n        /* \"#utility.yul\":21554:21557   */\n      0x00\n        /* \"#utility.yul\":21575:21580   */\n      dup2\n        /* \"#utility.yul\":21568:21580   */\n      swap1\n      pop\n        /* \"#utility.yul\":21526:21586   */\n      swap2\n      swap1\n      pop\n      jump\t// out\n        /* \"#utility.yul\":21592:21734   */\n    tag_194:\n        /* \"#utility.yul\":21642:21651   */\n      0x00\n        /* \"#utility.yul\":21675:21728   */\n      tag_399\n        /* \"#utility.yul\":21693:21727   */\n      tag_400\n        /* \"#utility.yul\":21702:21726   */\n      tag_401\n        /* \"#utility.yul\":21720:21725   */\n      dup5\n        /* \"#utility.yul\":21702:21726   */\n      tag_142\n      jump\t// in\n    tag_401:\n        /* \"#utility.yul\":21693:21727   */\n      tag_193\n      jump\t// in\n    tag_400:\n        /* \"#utility.yul\":21675:21728   */\n      tag_142\n      jump\t// in\n    tag_399:\n        /* \"#utility.yul\":21662:21728   */\n      swap1\n      pop\n        /* \"#utility.yul\":21592:21734   */\n      swap2\n      swap1\n      pop\n      jump\t// out\n        /* \"#utility.yul\":21740:21815   */\n    tag_195:\n        /* \"#utility.yul\":21783:21786   */\n      0x00\n        /* \"#utility.yul\":21804:21809   */\n      dup2\n        /* \"#utility.yul\":21797:21809   */\n      swap1\n      pop\n        /* \"#utility.yul\":21740:21815   */\n      swap2\n      swap1\n      pop\n      jump\t// out\n        /* \"#utility.yul\":21821:22090   */\n    tag_196:\n        /* \"#utility.yul\":21931:21970   */\n      tag_404\n        /* \"#utility.yul\":21962:21969   */\n      dup4\n        /* \"#utility.yul\":21931:21970   */\n      tag_194\n      jump\t// in\n    tag_404:\n        /* \"#utility.yul\":21992:22083   */\n      tag_405\n        /* \"#utility.yul\":22041:22082   */\n      tag_406\n        /* \"#utility.yul\":22065:22081   */\n      dup3\n        /* \"#utility.yul\":22041:22082   */\n      tag_195\n      jump\t// in\n    tag_406:\n        /* \"#utility.yul\":22033:22039   */\n      dup5\n        /* \"#utility.yul\":22026:22030   */\n      dup5\n        /* \"#utility.yul\":22020:22031   */\n      sload\n        /* \"#utility.yul\":21992:22083   */\n      tag_192\n      jump\t// in\n    tag_405:\n        /* \"#utility.yul\":21986:21990   */\n      dup3\n        /* \"#utility.yul\":21979:22084   */\n      sstore\n        /* \"#utility.yul\":21897:22090   */\n      pop\n        /* \"#utility.yul\":21821:22090   */\n      pop\n      pop\n      pop\n      jump\t// out\n        /* \"#utility.yul\":22096:22169   */\n    tag_197:\n        /* \"#utility.yul\":22141:22144   */\n      0x00\n        /* \"#utility.yul\":22096:22169   */\n      swap1\n      jump\t// out\n        /* \"#utility.yul\":22175:22364   */\n    tag_198:\n        /* \"#utility.yul\":22252:22284   */\n      tag_409\n      tag_197\n      jump\t// in\n    tag_409:\n        /* \"#utility.yul\":22293:22358   */\n      tag_410\n        /* \"#utility.yul\":22351:22357   */\n      dup2\n        /* \"#utility.yul\":22343:22349   */\n      dup5\n        /* \"#utility.yul\":22337:22341   */\n      dup5\n        /* \"#utility.yul\":22293:22358   */\n      tag_196\n      jump\t// in\n    tag_410:\n        /* \"#utility.yul\":22228:22364   */\n      pop\n        /* \"#utility.yul\":22175:22364   */\n      pop\n      pop\n      jump\t// out\n        /* \"#utility.yul\":22370:22556   */\n    tag_199:\n        /* \"#utility.yul\":22430:22550   */\n    tag_412:\n        /* \"#utility.yul\":22447:22450   */\n      dup2\n        /* \"#utility.yul\":22440:22445   */\n      dup2\n        /* \"#utility.yul\":22437:22451   */\n      lt\n        /* \"#utility.yul\":22430:22550   */\n      iszero\n      tag_414\n      jumpi\n        /* \"#utility.yul\":22501:22540   */\n      tag_415\n        /* \"#utility.yul\":22538:22539   */\n      0x00\n        /* \"#utility.yul\":22531:22536   */\n      dup3\n        /* \"#utility.yul\":22501:22540   */\n      tag_198\n      jump\t// in\n    tag_415:\n        /* \"#utility.yul\":22474:22475   */\n      0x01\n        /* \"#utility.yul\":22467:22472   */\n      dup2\n        /* \"#utility.yul\":22463:22476   */\n      add\n        /* \"#utility.yul\":22454:22476   */\n      swap1\n      pop\n        /* \"#utility.yul\":22430:22550   */\n      jump(tag_412)\n    tag_414:\n        /* \"#utility.yul\":22370:22556   */\n      pop\n      pop\n      jump\t// out\n        /* \"#utility.yul\":22562:23105   */\n    tag_200:\n        /* \"#utility.yul\":22663:22665   */\n      0x1f\n        /* \"#utility.yul\":22658:22661   */\n      dup3\n        /* \"#utility.yul\":22655:22666   */\n      gt\n        /* \"#utility.yul\":22652:23098   */\n      iszero\n      tag_417\n      jumpi\n        /* \"#utility.yul\":22697:22735   */\n      tag_418\n        /* \"#utility.yul\":22729:22734   */\n      dup2\n        /* \"#utility.yul\":22697:22735   */\n      tag_189\n      jump\t// in\n    tag_418:\n        /* \"#utility.yul\":22781:22810   */\n      tag_419\n        /* \"#utility.yul\":22799:22809   */\n      dup5\n        /* \"#utility.yul\":22781:22810   */\n      tag_190\n      jump\t// in\n    tag_419:\n        /* \"#utility.yul\":22771:22779   */\n      dup2\n        /* \"#utility.yul\":22767:22811   */\n      add\n        /* \"#utility.yul\":22964:22966   */\n      0x20\n        /* \"#utility.yul\":22952:22962   */\n      dup6\n        /* \"#utility.yul\":22949:22967   */\n      lt\n        /* \"#utility.yul\":22946:22995   */\n      iszero\n      tag_420\n      jumpi\n        /* \"#utility.yul\":22985:22993   */\n      dup2\n        /* \"#utility.yul\":22970:22993   */\n      swap1\n      pop\n        /* \"#utility.yul\":22946:22995   */\n    tag_420:\n        /* \"#utility.yul\":23008:23088   */\n      tag_421\n        /* \"#utility.yul\":23064:23086   */\n      tag_422\n        /* \"#utility.yul\":23082:23085   */\n      dup6\n        /* \"#utility.yul\":23064:23086   */\n      tag_190\n      jump\t// in\n    tag_422:\n        /* \"#utility.yul\":23054:23062   */\n      dup4\n        /* \"#utility.yul\":23050:23087   */\n      add\n        /* \"#utility.yul\":23037:23048   */\n      dup3\n        /* \"#utility.yul\":23008:23088   */\n      tag_199\n      jump\t// in\n    tag_421:\n        /* \"#utility.yul\":22667:23098   */\n      pop\n      pop\n        /* \"#utility.yul\":22652:23098   */\n    tag_417:\n        /* \"#utility.yul\":22562:23105   */\n      pop\n      pop\n      pop\n      jump\t// out\n        /* \"#utility.yul\":23111:23228   */\n    tag_201:\n        /* \"#utility.yul\":23165:23173   */\n      0x00\n        /* \"#utility.yul\":23215:23220   */\n      dup3\n        /* \"#utility.yul\":23209:23213   */\n      dup3\n        /* \"#utility.yul\":23205:23221   */\n      shr\n        /* \"#utility.yul\":23184:23221   */\n      swap1\n      pop\n        /* \"#utility.yul\":23111:23228   */\n      swap3\n      swap2\n      pop\n      pop\n      jump\t// out\n        /* \"#utility.yul\":23234:23403   */\n    tag_202:\n        /* \"#utility.yul\":23278:23284   */\n      0x00\n        /* \"#utility.yul\":23311:23362   */\n      tag_425\n        /* \"#utility.yul\":23359:23360   */\n      0x00\n        /* \"#utility.yul\":23355:23361   */\n      not\n        /* \"#utility.yul\":23347:23352   */\n      dup5\n        /* \"#utility.yul\":23344:23345   */\n      0x08\n        /* \"#utility.yul\":23340:23353   */\n      mul\n        /* \"#utility.yul\":23311:23362   */\n      tag_201\n      jump\t// in\n    tag_425:\n        /* \"#utility.yul\":23307:23363   */\n      not\n        /* \"#utility.yul\":23392:23396   */\n      dup1\n        /* \"#utility.yul\":23386:23390   */\n      dup4\n        /* \"#utility.yul\":23382:23397   */\n      and\n        /* \"#utility.yul\":23372:23397   */\n      swap2\n      pop\n        /* \"#utility.yul\":23285:23403   */\n      pop\n        /* \"#utility.yul\":23234:23403   */\n      swap3\n      swap2\n      pop\n      pop\n      jump\t// out\n        /* \"#utility.yul\":23408:23703   */\n    tag_203:\n        /* \"#utility.yul\":23484:23488   */\n      0x00\n        /* \"#utility.yul\":23630:23659   */\n      tag_427\n        /* \"#utility.yul\":23655:23658   */\n      dup4\n        /* \"#utility.yul\":23649:23653   */\n      dup4\n        /* \"#utility.yul\":23630:23659   */\n      tag_202\n      jump\t// in\n    tag_427:\n        /* \"#utility.yul\":23622:23659   */\n      swap2\n      pop\n        /* \"#utility.yul\":23692:23695   */\n      dup3\n        /* \"#utility.yul\":23689:23690   */\n      0x02\n        /* \"#utility.yul\":23685:23696   */\n      mul\n        /* \"#utility.yul\":23679:23683   */\n      dup3\n        /* \"#utility.yul\":23676:23697   */\n      or\n        /* \"#utility.yul\":23668:23697   */\n      swap1\n      pop\n        /* \"#utility.yul\":23408:23703   */\n      swap3\n      swap2\n      pop\n      pop\n      jump\t// out\n        /* \"#utility.yul\":23708:25103   */\n    tag_121:\n        /* \"#utility.yul\":23825:23862   */\n      tag_429\n        /* \"#utility.yul\":23858:23861   */\n      dup3\n        /* \"#utility.yul\":23825:23862   */\n      tag_147\n      jump\t// in\n    tag_429:\n        /* \"#utility.yul\":23927:23945   */\n      0xffffffffffffffff\n        /* \"#utility.yul\":23919:23925   */\n      dup2\n        /* \"#utility.yul\":23916:23946   */\n      gt\n        /* \"#utility.yul\":23913:23969   */\n      iszero\n      tag_430\n      jumpi\n        /* \"#utility.yul\":23949:23967   */\n      tag_431\n      tag_169\n      jump\t// in\n    tag_431:\n        /* \"#utility.yul\":23913:23969   */\n    tag_430:\n        /* \"#utility.yul\":23993:24031   */\n      tag_432\n        /* \"#utility.yul\":24025:24029   */\n      dup3\n        /* \"#utility.yul\":24019:24030   */\n      sload\n        /* \"#utility.yul\":23993:24031   */\n      tag_56\n      jump\t// in\n    tag_432:\n        /* \"#utility.yul\":24078:24145   */\n      tag_433\n        /* \"#utility.yul\":24138:24144   */\n      dup3\n        /* \"#utility.yul\":24130:24136   */\n      dup3\n        /* \"#utility.yul\":24124:24128   */\n      dup6\n        /* \"#utility.yul\":24078:24145   */\n      tag_200\n      jump\t// in\n    tag_433:\n        /* \"#utility.yul\":24172:24173   */\n      0x00\n        /* \"#utility.yul\":24196:24200   */\n      0x20\n        /* \"#utility.yul\":24183:24200   */\n      swap1\n      pop\n        /* \"#utility.yul\":24228:24230   */\n      0x1f\n        /* \"#utility.yul\":24220:24226   */\n      dup4\n        /* \"#utility.yul\":24217:24231   */\n      gt\n        /* \"#utility.yul\":24245:24246   */\n      0x01\n        /* \"#utility.yul\":24240:24858   */\n      dup2\n      eq\n      tag_435\n      jumpi\n        /* \"#utility.yul\":24902:24903   */\n      0x00\n        /* \"#utility.yul\":24919:24925   */\n      dup5\n        /* \"#utility.yul\":24916:24993   */\n      iszero\n      tag_436\n      jumpi\n        /* \"#utility.yul\":24968:24977   */\n      dup3\n        /* \"#utility.yul\":24963:24966   */\n      dup8\n        /* \"#utility.yul\":24959:24978   */\n      add\n        /* \"#utility.yul\":24953:24979   */\n      mload\n        /* \"#utility.yul\":24944:24979   */\n      swap1\n      pop\n        /* \"#utility.yul\":24916:24993   */\n    tag_436:\n        /* \"#utility.yul\":25019:25086   */\n      tag_437\n        /* \"#utility.yul\":25079:25085   */\n      dup6\n        /* \"#utility.yul\":25072:25077   */\n      dup3\n        /* \"#utility.yul\":25019:25086   */\n      tag_203\n      jump\t// in\n    tag_437:\n        /* \"#utility.yul\":25013:25017   */\n      dup7\n        /* \"#utility.yul\":25006:25087   */\n      sstore\n        /* \"#utility.yul\":24875:25097   */\n      pop\n        /* \"#utility.yul\":24210:25097   */\n      jump(tag_434)\n        /* \"#utility.yul\":24240:24858   */\n    tag_435:\n        /* \"#utility.yul\":24292:24296   */\n      0x1f\n        /* \"#utility.yul\":24288:24297   */\n      not\n        /* \"#utility.yul\":24280:24286   */\n      dup5\n        /* \"#utility.yul\":24276:24298   */\n      and\n        /* \"#utility.yul\":24326:24363   */\n      tag_438\n        /* \"#utility.yul\":24358:24362   */\n      dup7\n        /* \"#utility.yul\":24326:24363   */\n      tag_189\n      jump\t// in\n    tag_438:\n        /* \"#utility.yul\":24385:24386   */\n      0x00\n        /* \"#utility.yul\":24399:24607   */\n    tag_439:\n        /* \"#utility.yul\":24413:24420   */\n      dup3\n        /* \"#utility.yul\":24410:24411   */\n      dup2\n        /* \"#utility.yul\":24407:24421   */\n      lt\n        /* \"#utility.yul\":24399:24607   */\n      iszero\n      tag_441\n      jumpi\n        /* \"#utility.yul\":24492:24501   */\n      dup5\n        /* \"#utility.yul\":24487:24490   */\n      dup10\n        /* \"#utility.yul\":24483:24502   */\n      add\n        /* \"#utility.yul\":24477:24503   */\n      mload\n        /* \"#utility.yul\":24469:24475   */\n      dup3\n        /* \"#utility.yul\":24462:24504   */\n      sstore\n        /* \"#utility.yul\":24543:24544   */\n      0x01\n        /* \"#utility.yul\":24535:24541   */\n      dup3\n        /* \"#utility.yul\":24531:24545   */\n      add\n        /* \"#utility.yul\":24521:24545   */\n      swap2\n      pop\n        /* \"#utility.yul\":24590:24592   */\n      0x20\n        /* \"#utility.yul\":24579:24588   */\n      dup6\n        /* \"#utility.yul\":24575:24593   */\n      add\n        /* \"#utility.yul\":24562:24593   */\n      swap5\n      pop\n        /* \"#utility.yul\":24436:24440   */\n      0x20\n        /* \"#utility.yul\":24433:24434   */\n      dup2\n        /* \"#utility.yul\":24429:24441   */\n      add\n        /* \"#utility.yul\":24424:24441   */\n      swap1\n      pop\n        /* \"#utility.yul\":24399:24607   */\n      jump(tag_439)\n    tag_441:\n        /* \"#utility.yul\":24635:24641   */\n      dup7\n        /* \"#utility.yul\":24626:24633   */\n      dup4\n        /* \"#utility.yul\":24623:24642   */\n      lt\n        /* \"#utility.yul\":24620:24799   */\n      iszero\n      tag_442\n      jumpi\n        /* \"#utility.yul\":24693:24702   */\n      dup5\n        /* \"#utility.yul\":24688:24691   */\n      dup10\n        /* \"#utility.yul\":24684:24703   */\n      add\n        /* \"#utility.yul\":24678:24704   */\n      mload\n        /* \"#utility.yul\":24736:24784   */\n      tag_443\n        /* \"#utility.yul\":24778:24782   */\n      0x1f\n        /* \"#utility.yul\":24770:24776   */\n      dup10\n        /* \"#utility.yul\":24766:24783   */\n      and\n        /* \"#utility.yul\":24755:24764   */\n      dup3\n        /* \"#utility.yul\":24736:24784   */\n      tag_202\n      jump\t// in\n    tag_443:\n        /* \"#utility.yul\":24728:24734   */\n      dup4\n        /* \"#utility.yul\":24721:24785   */\n      sstore\n        /* \"#utility.yul\":24643:24799   */\n      pop\n        /* \"#utility.yul\":24620:24799   */\n    tag_442:\n        /* \"#utility.yul\":24845:24846   */\n      0x01\n        /* \"#utility.yul\":24841:24842   */\n      0x02\n        /* \"#utility.yul\":24833:24839   */\n      dup9\n        /* \"#utility.yul\":24829:24843   */\n      mul\n        /* \"#utility.yul\":24825:24847   */\n      add\n        /* \"#utility.yul\":24819:24823   */\n      dup9\n        /* \"#utility.yul\":24812:24848   */\n      sstore\n        /* \"#utility.yul\":24247:24858   */\n      pop\n      pop\n      pop\n        /* \"#utility.yul\":24210:25097   */\n    tag_434:\n      pop\n        /* \"#utility.yul\":23800:25103   */\n      pop\n      pop\n      pop\n        /* \"#utility.yul\":23708:25103   */\n      pop\n      pop\n      jump\t// out\n        /* \"#utility.yul\":25109:25642   */\n    tag_123:\n        /* \"#utility.yul\":25278:25282   */\n      0x00\n        /* \"#utility.yul\":25316:25318   */\n      0x60\n        /* \"#utility.yul\":25305:25314   */\n      dup3\n        /* \"#utility.yul\":25301:25319   */\n      add\n        /* \"#utility.yul\":25293:25319   */\n      swap1\n      pop\n        /* \"#utility.yul\":25329:25400   */\n      tag_445\n        /* \"#utility.yul\":25397:25398   */\n      0x00\n        /* \"#utility.yul\":25386:25395   */\n      dup4\n        /* \"#utility.yul\":25382:25399   */\n      add\n        /* \"#utility.yul\":25373:25379   */\n      dup7\n        /* \"#utility.yul\":25329:25400   */\n      tag_145\n      jump\t// in\n    tag_445:\n        /* \"#utility.yul\":25447:25456   */\n      dup2\n        /* \"#utility.yul\":25441:25445   */\n      dup2\n        /* \"#utility.yul\":25437:25457   */\n      sub\n        /* \"#utility.yul\":25432:25434   */\n      0x20\n        /* \"#utility.yul\":25421:25430   */\n      dup4\n        /* \"#utility.yul\":25417:25435   */\n      add\n        /* \"#utility.yul\":25410:25458   */\n      mstore\n        /* \"#utility.yul\":25475:25553   */\n      tag_446\n        /* \"#utility.yul\":25548:25552   */\n      dup2\n        /* \"#utility.yul\":25539:25545   */\n      dup6\n        /* \"#utility.yul\":25475:25553   */\n      tag_151\n      jump\t// in\n    tag_446:\n        /* \"#utility.yul\":25467:25553   */\n      swap1\n      pop\n        /* \"#utility.yul\":25563:25635   */\n      tag_447\n        /* \"#utility.yul\":25631:25633   */\n      0x40\n        /* \"#utility.yul\":25620:25629   */\n      dup4\n        /* \"#utility.yul\":25616:25634   */\n      add\n        /* \"#utility.yul\":25607:25613   */\n      dup5\n        /* \"#utility.yul\":25563:25635   */\n      tag_145\n      jump\t// in\n    tag_447:\n        /* \"#utility.yul\":25109:25642   */\n      swap5\n      swap4\n      pop\n      pop\n      pop\n      pop\n      jump\t// out\n\n    auxdata: 0xa2646970667358221220104b90693d0bbb264f8591f15bcbd857b9762b9c835f6b1278f96a0f7ee86bac64736f6c634300081a0033\n}\n",
				"bytecode": {
					"linkReferences": {},
					"object": "60806040526101185f60146101000a81548161ffff021916908361ffff160217905550348015602c575f80fd5b50335f806101000a81548173ffffffffffffffffffffffffffffffffffffffff021916908373ffffffffffffffffffffffffffffffffffffffff1602179055506119f6806100795f395ff3fe608060405234801561000f575f80fd5b5060043610610091575f3560e01c8063633782161161006457806363378216146101315780636eb107971461014d5780637c9cd2bc1461016b5780638da5cb5b14610187578063c3ad5ecb146101a557610091565b806305a1b4a91461009557806312e7ee1c146100c95780633d9b569f146100f957806358bfa4ab14610115575b5f80fd5b6100af60048036038101906100aa9190610ddf565b6101d5565b6040516100c0959493929190610eab565b60405180910390f35b6100e360048036038101906100de9190610f03565b6102c6565b6040516100f091906110c2565b60405180910390f35b610113600480360381019061010e9190610ddf565b610461565b005b61012f600480360381019061012a9190611119565b6106c7565b005b61014b60048036038101906101469190610ddf565b610773565b005b610155610939565b6040516101629190611153565b60405180910390f35b61018560048036038101906101809190611298565b61094c565b005b61018f610b66565b60405161019c91906112df565b60405180910390f35b6101bf60048036038101906101ba91906112f8565b610b89565b6040516101cc9190611396565b60405180910390f35b6001602052815f5260405f2081815481106101ee575f80fd5b905f5260205f2090600502015f9150915050805f015490806001015f9054906101000a900473ffffffffffffffffffffffffffffffffffffffff1690806002018054610239906113e3565b80601f0160208091040260200160405190810160405280929190818152602001828054610265906113e3565b80156102b05780601f10610287576101008083540402835291602001916102b0565b820191905f5260205f20905b81548152906001019060200180831161029357829003601f168201915b5050505050908060030154908060040154905085565b606060015f8373ffffffffffffffffffffffffffffffffffffffff1673ffffffffffffffffffffffffffffffffffffffff1681526020019081526020015f20805480602002602001604051908101604052809291908181526020015f905b82821015610456578382905f5260205f2090600502016040518060a00160405290815f8201548152602001600182015f9054906101000a900473ffffffffffffffffffffffffffffffffffffffff1673ffffffffffffffffffffffffffffffffffffffff1673ffffffffffffffffffffffffffffffffffffffff1681526020016002820180546103b3906113e3565b80601f01602080910402602001604051908101604052809291908181526020018280546103df906113e3565b801561042a5780601f106104015761010080835404028352916020019161042a565b820191905f5260205f20905b81548152906001019060200180831161040d57829003601f168201915b505050505081526020016003820154815260200160048201548152505081526020019060010190610324565b505050509050919050565b8060015f8473ffffffffffffffffffffffffffffffffffffffff1673ffffffffffffffffffffffffffffffffffffffff1681526020019081526020015f2082815481106104b1576104b0611413565b5b905f5260205f2090600502015f015414610500576040517f08c379a00000000000000000000000000000000000000000000000000000000081526004016104f79061148a565b60405180910390fd5b5f60015f8473ffffffffffffffffffffffffffffffffffffffff1673ffffffffffffffffffffffffffffffffffffffff1681526020019081526020015f2082815481106105505761054f611413565b5b905f5260205f20906005020160040154116105a0576040517f08c379a0000000000000000000000000000000000000000000000000000000008152600401610597906114f2565b60405180910390fd5b60015f8373ffffffffffffffffffffffffffffffffffffffff1673ffffffffffffffffffffffffffffffffffffffff1681526020019081526020015f2081815481106105ef576105ee611413565b5b905f5260205f2090600502016004015f81548092919061060e9061153d565b91905055508173ffffffffffffffffffffffffffffffffffffffff167f762c2616349603ac16eba0de8e6141b79129a07ab63bd99e0a80b3a471716943338360015f8773ffffffffffffffffffffffffffffffffffffffff1673ffffffffffffffffffffffffffffffffffffffff1681526020019081526020015f20858154811061069c5761069b611413565b5b905f5260205f209060050201600401546040516106bb93929190611564565b60405180910390a25050565b5f8054906101000a900473ffffffffffffffffffffffffffffffffffffffff1673ffffffffffffffffffffffffffffffffffffffff163373ffffffffffffffffffffffffffffffffffffffff1614610754576040517f08c379a000000000000000000000000000000000000000000000000000000000815260040161074b906115e3565b60405180910390fd5b805f60146101000a81548161ffff021916908361ffff16021790555050565b8060015f8473ffffffffffffffffffffffffffffffffffffffff1673ffffffffffffffffffffffffffffffffffffffff1681526020019081526020015f2082815481106107c3576107c2611413565b5b905f5260205f2090600502015f015414610812576040517f08c379a00000000000000000000000000000000000000000000000000000000081526004016108099061164b565b60405180910390fd5b60015f8373ffffffffffffffffffffffffffffffffffffffff1673ffffffffffffffffffffffffffffffffffffffff1681526020019081526020015f20818154811061086157610860611413565b5b905f5260205f2090600502016004015f81548092919061088090611669565b91905055508173ffffffffffffffffffffffffffffffffffffffff167fe8a76fc0f16d11a00d1e93b689b63d76cf60af914dd3d915375dc41d01a0c3c8338360015f8773ffffffffffffffffffffffffffffffffffffffff1673ffffffffffffffffffffffffffffffffffffffff1681526020019081526020015f20858154811061090e5761090d611413565b5b905f5260205f2090600502016004015460405161092d93929190611564565b60405180910390a25050565b5f60149054906101000a900461ffff1681565b5f60149054906101000a900461ffff1661ffff16815111156109a3576040517f08c379a000000000000000000000000000000000000000000000000000000000815260040161099a906116fa565b60405180910390fd5b5f6040518060a0016040528060015f3373ffffffffffffffffffffffffffffffffffffffff1673ffffffffffffffffffffffffffffffffffffffff1681526020019081526020015f208054905081526020013373ffffffffffffffffffffffffffffffffffffffff1681526020018381526020014281526020015f815250905060015f3373ffffffffffffffffffffffffffffffffffffffff1673ffffffffffffffffffffffffffffffffffffffff1681526020019081526020015f2081908060018154018082558091505060019003905f5260205f2090600502015f909190919091505f820151815f01556020820151816001015f6101000a81548173ffffffffffffffffffffffffffffffffffffffff021916908373ffffffffffffffffffffffffffffffffffffffff1602179055506040820151816002019081610aea91906118b5565b5060608201518160030155608082015181600401555050806020015173ffffffffffffffffffffffffffffffffffffffff167f16fd3c13e9d46923e0a8bce11c7b473ec508a72e6c96cd2404b29ce972afc29e825f015183604001518460600151604051610b5a93929190611984565b60405180910390a25050565b5f8054906101000a900473ffffffffffffffffffffffffffffffffffffffff1681565b610b91610d00565b60015f3373ffffffffffffffffffffffffffffffffffffffff1673ffffffffffffffffffffffffffffffffffffffff1681526020019081526020015f208281548110610be057610bdf611413565b5b905f5260205f2090600502016040518060a00160405290815f8201548152602001600182015f9054906101000a900473ffffffffffffffffffffffffffffffffffffffff1673ffffffffffffffffffffffffffffffffffffffff1673ffffffffffffffffffffffffffffffffffffffff168152602001600282018054610c65906113e3565b80601f0160208091040260200160405190810160405280929190818152602001828054610c91906113e3565b8015610cdc5780601f10610cb357610100808354040283529160200191610cdc565b820191905f5260205f20905b815481529060010190602001808311610cbf57829003601f168201915b50505050508152602001600382015481526020016004820154815250509050919050565b6040518060a001604052805f81526020015f73ffffffffffffffffffffffffffffffffffffffff168152602001606081526020015f81526020015f81525090565b5f604051905090565b5f80fd5b5f80fd5b5f73ffffffffffffffffffffffffffffffffffffffff82169050919050565b5f610d7b82610d52565b9050919050565b610d8b81610d71565b8114610d95575f80fd5b50565b5f81359050610da681610d82565b92915050565b5f819050919050565b610dbe81610dac565b8114610dc8575f80fd5b50565b5f81359050610dd981610db5565b92915050565b5f8060408385031215610df557610df4610d4a565b5b5f610e0285828601610d98565b9250506020610e1385828601610dcb565b9150509250929050565b610e2681610dac565b82525050565b610e3581610d71565b82525050565b5f81519050919050565b5f82825260208201905092915050565b8281835e5f83830152505050565b5f601f19601f8301169050919050565b5f610e7d82610e3b565b610e878185610e45565b9350610e97818560208601610e55565b610ea081610e63565b840191505092915050565b5f60a082019050610ebe5f830188610e1d565b610ecb6020830187610e2c565b8181036040830152610edd8186610e73565b9050610eec6060830185610e1d565b610ef96080830184610e1d565b9695505050505050565b5f60208284031215610f1857610f17610d4a565b5b5f610f2584828501610d98565b91505092915050565b5f81519050919050565b5f82825260208201905092915050565b5f819050602082019050919050565b610f6081610dac565b82525050565b610f6f81610d71565b82525050565b5f82825260208201905092915050565b5f610f8f82610e3b565b610f998185610f75565b9350610fa9818560208601610e55565b610fb281610e63565b840191505092915050565b5f60a083015f830151610fd25f860182610f57565b506020830151610fe56020860182610f66565b5060408301518482036040860152610ffd8282610f85565b91505060608301516110126060860182610f57565b5060808301516110256080860182610f57565b508091505092915050565b5f61103b8383610fbd565b905092915050565b5f602082019050919050565b5f61105982610f2e565b6110638185610f38565b93508360208202850161107585610f48565b805f5b858110156110b057848403895281516110918582611030565b945061109c83611043565b925060208a01995050600181019050611078565b50829750879550505050505092915050565b5f6020820190508181035f8301526110da818461104f565b905092915050565b5f61ffff82169050919050565b6110f8816110e2565b8114611102575f80fd5b50565b5f81359050611113816110ef565b92915050565b5f6020828403121561112e5761112d610d4a565b5b5f61113b84828501611105565b91505092915050565b61114d816110e2565b82525050565b5f6020820190506111665f830184611144565b92915050565b5f80fd5b5f80fd5b7f4e487b71000000000000000000000000000000000000000000000000000000005f52604160045260245ffd5b6111aa82610e63565b810181811067ffffffffffffffff821117156111c9576111c8611174565b5b80604052505050565b5f6111db610d41565b90506111e782826111a1565b919050565b5f67ffffffffffffffff82111561120657611205611174565b5b61120f82610e63565b9050602081019050919050565b828183375f83830152505050565b5f61123c611237846111ec565b6111d2565b90508281526020810184848401111561125857611257611170565b5b61126384828561121c565b509392505050565b5f82601f83011261127f5761127e61116c565b5b813561128f84826020860161122a565b91505092915050565b5f602082840312156112ad576112ac610d4a565b5b5f82013567ffffffffffffffff8111156112ca576112c9610d4e565b5b6112d68482850161126b565b91505092915050565b5f6020820190506112f25f830184610e2c565b92915050565b5f6020828403121561130d5761130c610d4a565b5b5f61131a84828501610dcb565b91505092915050565b5f60a083015f8301516113385f860182610f57565b50602083015161134b6020860182610f66565b50604083015184820360408601526113638282610f85565b91505060608301516113786060860182610f57565b50608083015161138b6080860182610f57565b508091505092915050565b5f6020820190508181035f8301526113ae8184611323565b905092915050565b7f4e487b71000000000000000000000000000000000000000000000000000000005f52602260045260245ffd5b5f60028204905060018216806113fa57607f821691505b60208210810361140d5761140c6113b6565b5b50919050565b7f4e487b71000000000000000000000000000000000000000000000000000000005f52603260045260245ffd5b7f545745455420444f4553204e4f542045584953542100000000000000000000005f82015250565b5f611474601583610e45565b915061147f82611440565b602082019050919050565b5f6020820190508181035f8301526114a181611468565b9050919050565b7f545745455420484153204e4f204c494b455300000000000000000000000000005f82015250565b5f6114dc601283610e45565b91506114e7826114a8565b602082019050919050565b5f6020820190508181035f830152611509816114d0565b9050919050565b7f4e487b71000000000000000000000000000000000000000000000000000000005f52601160045260245ffd5b5f61154782610dac565b91505f820361155957611558611510565b5b600182039050919050565b5f6060820190506115775f830186610e2c565b6115846020830185610e1d565b6115916040830184610e1d565b949350505050565b7f596f7520417265204e6f7420546865204f776e657221000000000000000000005f82015250565b5f6115cd601683610e45565b91506115d882611599565b602082019050919050565b5f6020820190508181035f8301526115fa816115c1565b9050919050565b7f545745455420444f4553204e4f542045584953540000000000000000000000005f82015250565b5f611635601483610e45565b915061164082611601565b602082019050919050565b5f6020820190508181035f83015261166281611629565b9050919050565b5f61167382610dac565b91507fffffffffffffffffffffffffffffffffffffffffffffffffffffffffffffffff82036116a5576116a4611510565b5b600182019050919050565b7f496e76616c6964207477656574206c656e6774680000000000000000000000005f82015250565b5f6116e4601483610e45565b91506116ef826116b0565b602082019050919050565b5f6020820190508181035f830152611711816116d8565b9050919050565b5f819050815f5260205f209050919050565b5f6020601f8301049050919050565b5f82821b905092915050565b5f600883026117747fffffffffffffffffffffffffffffffffffffffffffffffffffffffffffffffff82611739565b61177e8683611739565b95508019841693508086168417925050509392505050565b5f819050919050565b5f6117b96117b46117af84610dac565b611796565b610dac565b9050919050565b5f819050919050565b6117d28361179f565b6117e66117de826117c0565b848454611745565b825550505050565b5f90565b6117fa6117ee565b6118058184846117c9565b505050565b5b818110156118285761181d5f826117f2565b60018101905061180b565b5050565b601f82111561186d5761183e81611718565b6118478461172a565b81016020851015611856578190505b61186a6118628561172a565b83018261180a565b50505b505050565b5f82821c905092915050565b5f61188d5f1984600802611872565b1980831691505092915050565b5f6118a5838361187e565b9150826002028217905092915050565b6118be82610e3b565b67ffffffffffffffff8111156118d7576118d6611174565b5b6118e182546113e3565b6118ec82828561182c565b5f60209050601f83116001811461191d575f841561190b578287015190505b611915858261189a565b86555061197c565b601f19841661192b86611718565b5f5b828110156119525784890151825560018201915060208501945060208101905061192d565b8683101561196f578489015161196b601f89168261187e565b8355505b6001600288020188555050505b505050505050565b5f6060820190506119975f830186610e1d565b81810360208301526119a98185610e73565b90506119b86040830184610e1d565b94935050505056fea2646970667358221220104b90693d0bbb264f8591f15bcbd857b9762b9c835f6b1278f96a0f7ee86bac64736f6c634300081a0033",
					"opcodes": "PUSH1 0x80 PUSH1 0x40 MSTORE PUSH2 0x118 PUSH0 PUSH1 0x14 PUSH2 0x100 EXP DUP2 SLOAD DUP2 PUSH2 0xFFFF MUL NOT AND SWAP1 DUP4 PUSH2 0xFFFF AND MUL OR SWAP1 SSTORE POP CALLVALUE DUP1 ISZERO PUSH1 0x2C JUMPI PUSH0 DUP1 REVERT JUMPDEST POP CALLER PUSH0 DUP1 PUSH2 0x100 EXP DUP2 SLOAD DUP2 PUSH20 0xFFFFFFFFFFFFFFFFFFFFFFFFFFFFFFFFFFFFFFFF MUL NOT AND SWAP1 DUP4 PUSH20 0xFFFFFFFFFFFFFFFFFFFFFFFFFFFFFFFFFFFFFFFF AND MUL OR SWAP1 SSTORE POP PUSH2 0x19F6 DUP1 PUSH2 0x79 PUSH0 CODECOPY PUSH0 RETURN INVALID PUSH1 0x80 PUSH1 0x40 MSTORE CALLVALUE DUP1 ISZERO PUSH2 0xF JUMPI PUSH0 DUP1 REVERT JUMPDEST POP PUSH1 0x4 CALLDATASIZE LT PUSH2 0x91 JUMPI PUSH0 CALLDATALOAD PUSH1 0xE0 SHR DUP1 PUSH4 0x63378216 GT PUSH2 0x64 JUMPI DUP1 PUSH4 0x63378216 EQ PUSH2 0x131 JUMPI DUP1 PUSH4 0x6EB10797 EQ PUSH2 0x14D JUMPI DUP1 PUSH4 0x7C9CD2BC EQ PUSH2 0x16B JUMPI DUP1 PUSH4 0x8DA5CB5B EQ PUSH2 0x187 JUMPI DUP1 PUSH4 0xC3AD5ECB EQ PUSH2 0x1A5 JUMPI PUSH2 0x91 JUMP JUMPDEST DUP1 PUSH4 0x5A1B4A9 EQ PUSH2 0x95 JUMPI DUP1 PUSH4 0x12E7EE1C EQ PUSH2 0xC9 JUMPI DUP1 PUSH4 0x3D9B569F EQ PUSH2 0xF9 JUMPI DUP1 PUSH4 0x58BFA4AB EQ PUSH2 0x115 JUMPI JUMPDEST PUSH0 DUP1 REVERT JUMPDEST PUSH2 0xAF PUSH1 0x4 DUP1 CALLDATASIZE SUB DUP2 ADD SWAP1 PUSH2 0xAA SWAP2 SWAP1 PUSH2 0xDDF JUMP JUMPDEST PUSH2 0x1D5 JUMP JUMPDEST PUSH1 0x40 MLOAD PUSH2 0xC0 SWAP6 SWAP5 SWAP4 SWAP3 SWAP2 SWAP1 PUSH2 0xEAB JUMP JUMPDEST PUSH1 0x40 MLOAD DUP1 SWAP2 SUB SWAP1 RETURN JUMPDEST PUSH2 0xE3 PUSH1 0x4 DUP1 CALLDATASIZE SUB DUP2 ADD SWAP1 PUSH2 0xDE SWAP2 SWAP1 PUSH2 0xF03 JUMP JUMPDEST PUSH2 0x2C6 JUMP JUMPDEST PUSH1 0x40 MLOAD PUSH2 0xF0 SWAP2 SWAP1 PUSH2 0x10C2 JUMP JUMPDEST PUSH1 0x40 MLOAD DUP1 SWAP2 SUB SWAP1 RETURN JUMPDEST PUSH2 0x113 PUSH1 0x4 DUP1 CALLDATASIZE SUB DUP2 ADD SWAP1 PUSH2 0x10E SWAP2 SWAP1 PUSH2 0xDDF JUMP JUMPDEST PUSH2 0x461 JUMP JUMPDEST STOP JUMPDEST PUSH2 0x12F PUSH1 0x4 DUP1 CALLDATASIZE SUB DUP2 ADD SWAP1 PUSH2 0x12A SWAP2 SWAP1 PUSH2 0x1119 JUMP JUMPDEST PUSH2 0x6C7 JUMP JUMPDEST STOP JUMPDEST PUSH2 0x14B PUSH1 0x4 DUP1 CALLDATASIZE SUB DUP2 ADD SWAP1 PUSH2 0x146 SWAP2 SWAP1 PUSH2 0xDDF JUMP JUMPDEST PUSH2 0x773 JUMP JUMPDEST STOP JUMPDEST PUSH2 0x155 PUSH2 0x939 JUMP JUMPDEST PUSH1 0x40 MLOAD PUSH2 0x162 SWAP2 SWAP1 PUSH2 0x1153 JUMP JUMPDEST PUSH1 0x40 MLOAD DUP1 SWAP2 SUB SWAP1 RETURN JUMPDEST PUSH2 0x185 PUSH1 0x4 DUP1 CALLDATASIZE SUB DUP2 ADD SWAP1 PUSH2 0x180 SWAP2 SWAP1 PUSH2 0x1298 JUMP JUMPDEST PUSH2 0x94C JUMP JUMPDEST STOP JUMPDEST PUSH2 0x18F PUSH2 0xB66 JUMP JUMPDEST PUSH1 0x40 MLOAD PUSH2 0x19C SWAP2 SWAP1 PUSH2 0x12DF JUMP JUMPDEST PUSH1 0x40 MLOAD DUP1 SWAP2 SUB SWAP1 RETURN JUMPDEST PUSH2 0x1BF PUSH1 0x4 DUP1 CALLDATASIZE SUB DUP2 ADD SWAP1 PUSH2 0x1BA SWAP2 SWAP1 PUSH2 0x12F8 JUMP JUMPDEST PUSH2 0xB89 JUMP JUMPDEST PUSH1 0x40 MLOAD PUSH2 0x1CC SWAP2 SWAP1 PUSH2 0x1396 JUMP JUMPDEST PUSH1 0x40 MLOAD DUP1 SWAP2 SUB SWAP1 RETURN JUMPDEST PUSH1 0x1 PUSH1 0x20 MSTORE DUP2 PUSH0 MSTORE PUSH1 0x40 PUSH0 KECCAK256 DUP2 DUP2 SLOAD DUP2 LT PUSH2 0x1EE JUMPI PUSH0 DUP1 REVERT JUMPDEST SWAP1 PUSH0 MSTORE PUSH1 0x20 PUSH0 KECCAK256 SWAP1 PUSH1 0x5 MUL ADD PUSH0 SWAP2 POP SWAP2 POP POP DUP1 PUSH0 ADD SLOAD SWAP1 DUP1 PUSH1 0x1 ADD PUSH0 SWAP1 SLOAD SWAP1 PUSH2 0x100 EXP SWAP1 DIV PUSH20 0xFFFFFFFFFFFFFFFFFFFFFFFFFFFFFFFFFFFFFFFF AND SWAP1 DUP1 PUSH1 0x2 ADD DUP1 SLOAD PUSH2 0x239 SWAP1 PUSH2 0x13E3 JUMP JUMPDEST DUP1 PUSH1 0x1F ADD PUSH1 0x20 DUP1 SWAP2 DIV MUL PUSH1 0x20 ADD PUSH1 0x40 MLOAD SWAP1 DUP2 ADD PUSH1 0x40 MSTORE DUP1 SWAP3 SWAP2 SWAP1 DUP2 DUP2 MSTORE PUSH1 0x20 ADD DUP3 DUP1 SLOAD PUSH2 0x265 SWAP1 PUSH2 0x13E3 JUMP JUMPDEST DUP1 ISZERO PUSH2 0x2B0 JUMPI DUP1 PUSH1 0x1F LT PUSH2 0x287 JUMPI PUSH2 0x100 DUP1 DUP4 SLOAD DIV MUL DUP4 MSTORE SWAP2 PUSH1 0x20 ADD SWAP2 PUSH2 0x2B0 JUMP JUMPDEST DUP3 ADD SWAP2 SWAP1 PUSH0 MSTORE PUSH1 0x20 PUSH0 KECCAK256 SWAP1 JUMPDEST DUP2 SLOAD DUP2 MSTORE SWAP1 PUSH1 0x1 ADD SWAP1 PUSH1 0x20 ADD DUP1 DUP4 GT PUSH2 0x293 JUMPI DUP3 SWAP1 SUB PUSH1 0x1F AND DUP3 ADD SWAP2 JUMPDEST POP POP POP POP POP SWAP1 DUP1 PUSH1 0x3 ADD SLOAD SWAP1 DUP1 PUSH1 0x4 ADD SLOAD SWAP1 POP DUP6 JUMP JUMPDEST PUSH1 0x60 PUSH1 0x1 PUSH0 DUP4 PUSH20 0xFFFFFFFFFFFFFFFFFFFFFFFFFFFFFFFFFFFFFFFF AND PUSH20 0xFFFFFFFFFFFFFFFFFFFFFFFFFFFFFFFFFFFFFFFF AND DUP2 MSTORE PUSH1 0x20 ADD SWAP1 DUP2 MSTORE PUSH1 0x20 ADD PUSH0 KECCAK256 DUP1 SLOAD DUP1 PUSH1 0x20 MUL PUSH1 0x20 ADD PUSH1 0x40 MLOAD SWAP1 DUP2 ADD PUSH1 0x40 MSTORE DUP1 SWAP3 SWAP2 SWAP1 DUP2 DUP2 MSTORE PUSH1 0x20 ADD PUSH0 SWAP1 JUMPDEST DUP3 DUP3 LT ISZERO PUSH2 0x456 JUMPI DUP4 DUP3 SWAP1 PUSH0 MSTORE PUSH1 0x20 PUSH0 KECCAK256 SWAP1 PUSH1 0x5 MUL ADD PUSH1 0x40 MLOAD DUP1 PUSH1 0xA0 ADD PUSH1 0x40 MSTORE SWAP1 DUP2 PUSH0 DUP3 ADD SLOAD DUP2 MSTORE PUSH1 0x20 ADD PUSH1 0x1 DUP3 ADD PUSH0 SWAP1 SLOAD SWAP1 PUSH2 0x100 EXP SWAP1 DIV PUSH20 0xFFFFFFFFFFFFFFFFFFFFFFFFFFFFFFFFFFFFFFFF AND PUSH20 0xFFFFFFFFFFFFFFFFFFFFFFFFFFFFFFFFFFFFFFFF AND PUSH20 0xFFFFFFFFFFFFFFFFFFFFFFFFFFFFFFFFFFFFFFFF AND DUP2 MSTORE PUSH1 0x20 ADD PUSH1 0x2 DUP3 ADD DUP1 SLOAD PUSH2 0x3B3 SWAP1 PUSH2 0x13E3 JUMP JUMPDEST DUP1 PUSH1 0x1F ADD PUSH1 0x20 DUP1 SWAP2 DIV MUL PUSH1 0x20 ADD PUSH1 0x40 MLOAD SWAP1 DUP2 ADD PUSH1 0x40 MSTORE DUP1 SWAP3 SWAP2 SWAP1 DUP2 DUP2 MSTORE PUSH1 0x20 ADD DUP3 DUP1 SLOAD PUSH2 0x3DF SWAP1 PUSH2 0x13E3 JUMP JUMPDEST DUP1 ISZERO PUSH2 0x42A JUMPI DUP1 PUSH1 0x1F LT PUSH2 0x401 JUMPI PUSH2 0x100 DUP1 DUP4 SLOAD DIV MUL DUP4 MSTORE SWAP2 PUSH1 0x20 ADD SWAP2 PUSH2 0x42A JUMP JUMPDEST DUP3 ADD SWAP2 SWAP1 PUSH0 MSTORE PUSH1 0x20 PUSH0 KECCAK256 SWAP1 JUMPDEST DUP2 SLOAD DUP2 MSTORE SWAP1 PUSH1 0x1 ADD SWAP1 PUSH1 0x20 ADD DUP1 DUP4 GT PUSH2 0x40D JUMPI DUP3 SWAP1 SUB PUSH1 0x1F AND DUP3 ADD SWAP2 JUMPDEST POP POP POP POP POP DUP2 MSTORE PUSH1 0x20 ADD PUSH1 0x3 DUP3 ADD SLOAD DUP2 MSTORE PUSH1 0x20 ADD PUSH1 0x4 DUP3 ADD SLOAD DUP2 MSTORE POP POP DUP2 MSTORE PUSH1 0x20 ADD SWAP1 PUSH1 0x1 ADD SWAP1 PUSH2 0x324 JUMP JUMPDEST POP POP POP POP SWAP1 POP SWAP2 SWAP1 POP JUMP JUMPDEST DUP1 PUSH1 0x1 PUSH0 DUP5 PUSH20 0xFFFFFFFFFFFFFFFFFFFFFFFFFFFFFFFFFFFFFFFF AND PUSH20 0xFFFFFFFFFFFFFFFFFFFFFFFFFFFFFFFFFFFFFFFF AND DUP2 MSTORE PUSH1 0x20 ADD SWAP1 DUP2 MSTORE PUSH1 0x20 ADD PUSH0 KECCAK256 DUP3 DUP2 SLOAD DUP2 LT PUSH2 0x4B1 JUMPI PUSH2 0x4B0 PUSH2 0x1413 JUMP JUMPDEST JUMPDEST SWAP1 PUSH0 MSTORE PUSH1 0x20 PUSH0 KECCAK256 SWAP1 PUSH1 0x5 MUL ADD PUSH0 ADD SLOAD EQ PUSH2 0x500 JUMPI PUSH1 0x40 MLOAD PUSH32 0x8C379A000000000000000000000000000000000000000000000000000000000 DUP2 MSTORE PUSH1 0x4 ADD PUSH2 0x4F7 SWAP1 PUSH2 0x148A JUMP JUMPDEST PUSH1 0x40 MLOAD DUP1 SWAP2 SUB SWAP1 REVERT JUMPDEST PUSH0 PUSH1 0x1 PUSH0 DUP5 PUSH20 0xFFFFFFFFFFFFFFFFFFFFFFFFFFFFFFFFFFFFFFFF AND PUSH20 0xFFFFFFFFFFFFFFFFFFFFFFFFFFFFFFFFFFFFFFFF AND DUP2 MSTORE PUSH1 0x20 ADD SWAP1 DUP2 MSTORE PUSH1 0x20 ADD PUSH0 KECCAK256 DUP3 DUP2 SLOAD DUP2 LT PUSH2 0x550 JUMPI PUSH2 0x54F PUSH2 0x1413 JUMP JUMPDEST JUMPDEST SWAP1 PUSH0 MSTORE PUSH1 0x20 PUSH0 KECCAK256 SWAP1 PUSH1 0x5 MUL ADD PUSH1 0x4 ADD SLOAD GT PUSH2 0x5A0 JUMPI PUSH1 0x40 MLOAD PUSH32 0x8C379A000000000000000000000000000000000000000000000000000000000 DUP2 MSTORE PUSH1 0x4 ADD PUSH2 0x597 SWAP1 PUSH2 0x14F2 JUMP JUMPDEST PUSH1 0x40 MLOAD DUP1 SWAP2 SUB SWAP1 REVERT JUMPDEST PUSH1 0x1 PUSH0 DUP4 PUSH20 0xFFFFFFFFFFFFFFFFFFFFFFFFFFFFFFFFFFFFFFFF AND PUSH20 0xFFFFFFFFFFFFFFFFFFFFFFFFFFFFFFFFFFFFFFFF AND DUP2 MSTORE PUSH1 0x20 ADD SWAP1 DUP2 MSTORE PUSH1 0x20 ADD PUSH0 KECCAK256 DUP2 DUP2 SLOAD DUP2 LT PUSH2 0x5EF JUMPI PUSH2 0x5EE PUSH2 0x1413 JUMP JUMPDEST JUMPDEST SWAP1 PUSH0 MSTORE PUSH1 0x20 PUSH0 KECCAK256 SWAP1 PUSH1 0x5 MUL ADD PUSH1 0x4 ADD PUSH0 DUP2 SLOAD DUP1 SWAP3 SWAP2 SWAP1 PUSH2 0x60E SWAP1 PUSH2 0x153D JUMP JUMPDEST SWAP2 SWAP1 POP SSTORE POP DUP2 PUSH20 0xFFFFFFFFFFFFFFFFFFFFFFFFFFFFFFFFFFFFFFFF AND PUSH32 0x762C2616349603AC16EBA0DE8E6141B79129A07AB63BD99E0A80B3A471716943 CALLER DUP4 PUSH1 0x1 PUSH0 DUP8 PUSH20 0xFFFFFFFFFFFFFFFFFFFFFFFFFFFFFFFFFFFFFFFF AND PUSH20 0xFFFFFFFFFFFFFFFFFFFFFFFFFFFFFFFFFFFFFFFF AND DUP2 MSTORE PUSH1 0x20 ADD SWAP1 DUP2 MSTORE PUSH1 0x20 ADD PUSH0 KECCAK256 DUP6 DUP2 SLOAD DUP2 LT PUSH2 0x69C JUMPI PUSH2 0x69B PUSH2 0x1413 JUMP JUMPDEST JUMPDEST SWAP1 PUSH0 MSTORE PUSH1 0x20 PUSH0 KECCAK256 SWAP1 PUSH1 0x5 MUL ADD PUSH1 0x4 ADD SLOAD PUSH1 0x40 MLOAD PUSH2 0x6BB SWAP4 SWAP3 SWAP2 SWAP1 PUSH2 0x1564 JUMP JUMPDEST PUSH1 0x40 MLOAD DUP1 SWAP2 SUB SWAP1 LOG2 POP POP JUMP JUMPDEST PUSH0 DUP1 SLOAD SWAP1 PUSH2 0x100 EXP SWAP1 DIV PUSH20 0xFFFFFFFFFFFFFFFFFFFFFFFFFFFFFFFFFFFFFFFF AND PUSH20 0xFFFFFFFFFFFFFFFFFFFFFFFFFFFFFFFFFFFFFFFF AND CALLER PUSH20 0xFFFFFFFFFFFFFFFFFFFFFFFFFFFFFFFFFFFFFFFF AND EQ PUSH2 0x754 JUMPI PUSH1 0x40 MLOAD PUSH32 0x8C379A000000000000000000000000000000000000000000000000000000000 DUP2 MSTORE PUSH1 0x4 ADD PUSH2 0x74B SWAP1 PUSH2 0x15E3 JUMP JUMPDEST PUSH1 0x40 MLOAD DUP1 SWAP2 SUB SWAP1 REVERT JUMPDEST DUP1 PUSH0 PUSH1 0x14 PUSH2 0x100 EXP DUP2 SLOAD DUP2 PUSH2 0xFFFF MUL NOT AND SWAP1 DUP4 PUSH2 0xFFFF AND MUL OR SWAP1 SSTORE POP POP JUMP JUMPDEST DUP1 PUSH1 0x1 PUSH0 DUP5 PUSH20 0xFFFFFFFFFFFFFFFFFFFFFFFFFFFFFFFFFFFFFFFF AND PUSH20 0xFFFFFFFFFFFFFFFFFFFFFFFFFFFFFFFFFFFFFFFF AND DUP2 MSTORE PUSH1 0x20 ADD SWAP1 DUP2 MSTORE PUSH1 0x20 ADD PUSH0 KECCAK256 DUP3 DUP2 SLOAD DUP2 LT PUSH2 0x7C3 JUMPI PUSH2 0x7C2 PUSH2 0x1413 JUMP JUMPDEST JUMPDEST SWAP1 PUSH0 MSTORE PUSH1 0x20 PUSH0 KECCAK256 SWAP1 PUSH1 0x5 MUL ADD PUSH0 ADD SLOAD EQ PUSH2 0x812 JUMPI PUSH1 0x40 MLOAD PUSH32 0x8C379A000000000000000000000000000000000000000000000000000000000 DUP2 MSTORE PUSH1 0x4 ADD PUSH2 0x809 SWAP1 PUSH2 0x164B JUMP JUMPDEST PUSH1 0x40 MLOAD DUP1 SWAP2 SUB SWAP1 REVERT JUMPDEST PUSH1 0x1 PUSH0 DUP4 PUSH20 0xFFFFFFFFFFFFFFFFFFFFFFFFFFFFFFFFFFFFFFFF AND PUSH20 0xFFFFFFFFFFFFFFFFFFFFFFFFFFFFFFFFFFFFFFFF AND DUP2 MSTORE PUSH1 0x20 ADD SWAP1 DUP2 MSTORE PUSH1 0x20 ADD PUSH0 KECCAK256 DUP2 DUP2 SLOAD DUP2 LT PUSH2 0x861 JUMPI PUSH2 0x860 PUSH2 0x1413 JUMP JUMPDEST JUMPDEST SWAP1 PUSH0 MSTORE PUSH1 0x20 PUSH0 KECCAK256 SWAP1 PUSH1 0x5 MUL ADD PUSH1 0x4 ADD PUSH0 DUP2 SLOAD DUP1 SWAP3 SWAP2 SWAP1 PUSH2 0x880 SWAP1 PUSH2 0x1669 JUMP JUMPDEST SWAP2 SWAP1 POP SSTORE POP DUP2 PUSH20 0xFFFFFFFFFFFFFFFFFFFFFFFFFFFFFFFFFFFFFFFF AND PUSH32 0xE8A76FC0F16D11A00D1E93B689B63D76CF60AF914DD3D915375DC41D01A0C3C8 CALLER DUP4 PUSH1 0x1 PUSH0 DUP8 PUSH20 0xFFFFFFFFFFFFFFFFFFFFFFFFFFFFFFFFFFFFFFFF AND PUSH20 0xFFFFFFFFFFFFFFFFFFFFFFFFFFFFFFFFFFFFFFFF AND DUP2 MSTORE PUSH1 0x20 ADD SWAP1 DUP2 MSTORE PUSH1 0x20 ADD PUSH0 KECCAK256 DUP6 DUP2 SLOAD DUP2 LT PUSH2 0x90E JUMPI PUSH2 0x90D PUSH2 0x1413 JUMP JUMPDEST JUMPDEST SWAP1 PUSH0 MSTORE PUSH1 0x20 PUSH0 KECCAK256 SWAP1 PUSH1 0x5 MUL ADD PUSH1 0x4 ADD SLOAD PUSH1 0x40 MLOAD PUSH2 0x92D SWAP4 SWAP3 SWAP2 SWAP1 PUSH2 0x1564 JUMP JUMPDEST PUSH1 0x40 MLOAD DUP1 SWAP2 SUB SWAP1 LOG2 POP POP JUMP JUMPDEST PUSH0 PUSH1 0x14 SWAP1 SLOAD SWAP1 PUSH2 0x100 EXP SWAP1 DIV PUSH2 0xFFFF AND DUP2 JUMP JUMPDEST PUSH0 PUSH1 0x14 SWAP1 SLOAD SWAP1 PUSH2 0x100 EXP SWAP1 DIV PUSH2 0xFFFF AND PUSH2 0xFFFF AND DUP2 MLOAD GT ISZERO PUSH2 0x9A3 JUMPI PUSH1 0x40 MLOAD PUSH32 0x8C379A000000000000000000000000000000000000000000000000000000000 DUP2 MSTORE PUSH1 0x4 ADD PUSH2 0x99A SWAP1 PUSH2 0x16FA JUMP JUMPDEST PUSH1 0x40 MLOAD DUP1 SWAP2 SUB SWAP1 REVERT JUMPDEST PUSH0 PUSH1 0x40 MLOAD DUP1 PUSH1 0xA0 ADD PUSH1 0x40 MSTORE DUP1 PUSH1 0x1 PUSH0 CALLER PUSH20 0xFFFFFFFFFFFFFFFFFFFFFFFFFFFFFFFFFFFFFFFF AND PUSH20 0xFFFFFFFFFFFFFFFFFFFFFFFFFFFFFFFFFFFFFFFF AND DUP2 MSTORE PUSH1 0x20 ADD SWAP1 DUP2 MSTORE PUSH1 0x20 ADD PUSH0 KECCAK256 DUP1 SLOAD SWAP1 POP DUP2 MSTORE PUSH1 0x20 ADD CALLER PUSH20 0xFFFFFFFFFFFFFFFFFFFFFFFFFFFFFFFFFFFFFFFF AND DUP2 MSTORE PUSH1 0x20 ADD DUP4 DUP2 MSTORE PUSH1 0x20 ADD TIMESTAMP DUP2 MSTORE PUSH1 0x20 ADD PUSH0 DUP2 MSTORE POP SWAP1 POP PUSH1 0x1 PUSH0 CALLER PUSH20 0xFFFFFFFFFFFFFFFFFFFFFFFFFFFFFFFFFFFFFFFF AND PUSH20 0xFFFFFFFFFFFFFFFFFFFFFFFFFFFFFFFFFFFFFFFF AND DUP2 MSTORE PUSH1 0x20 ADD SWAP1 DUP2 MSTORE PUSH1 0x20 ADD PUSH0 KECCAK256 DUP2 SWAP1 DUP1 PUSH1 0x1 DUP2 SLOAD ADD DUP1 DUP3 SSTORE DUP1 SWAP2 POP POP PUSH1 0x1 SWAP1 SUB SWAP1 PUSH0 MSTORE PUSH1 0x20 PUSH0 KECCAK256 SWAP1 PUSH1 0x5 MUL ADD PUSH0 SWAP1 SWAP2 SWAP1 SWAP2 SWAP1 SWAP2 POP PUSH0 DUP3 ADD MLOAD DUP2 PUSH0 ADD SSTORE PUSH1 0x20 DUP3 ADD MLOAD DUP2 PUSH1 0x1 ADD PUSH0 PUSH2 0x100 EXP DUP2 SLOAD DUP2 PUSH20 0xFFFFFFFFFFFFFFFFFFFFFFFFFFFFFFFFFFFFFFFF MUL NOT AND SWAP1 DUP4 PUSH20 0xFFFFFFFFFFFFFFFFFFFFFFFFFFFFFFFFFFFFFFFF AND MUL OR SWAP1 SSTORE POP PUSH1 0x40 DUP3 ADD MLOAD DUP2 PUSH1 0x2 ADD SWAP1 DUP2 PUSH2 0xAEA SWAP2 SWAP1 PUSH2 0x18B5 JUMP JUMPDEST POP PUSH1 0x60 DUP3 ADD MLOAD DUP2 PUSH1 0x3 ADD SSTORE PUSH1 0x80 DUP3 ADD MLOAD DUP2 PUSH1 0x4 ADD SSTORE POP POP DUP1 PUSH1 0x20 ADD MLOAD PUSH20 0xFFFFFFFFFFFFFFFFFFFFFFFFFFFFFFFFFFFFFFFF AND PUSH32 0x16FD3C13E9D46923E0A8BCE11C7B473EC508A72E6C96CD2404B29CE972AFC29E DUP3 PUSH0 ADD MLOAD DUP4 PUSH1 0x40 ADD MLOAD DUP5 PUSH1 0x60 ADD MLOAD PUSH1 0x40 MLOAD PUSH2 0xB5A SWAP4 SWAP3 SWAP2 SWAP1 PUSH2 0x1984 JUMP JUMPDEST PUSH1 0x40 MLOAD DUP1 SWAP2 SUB SWAP1 LOG2 POP POP JUMP JUMPDEST PUSH0 DUP1 SLOAD SWAP1 PUSH2 0x100 EXP SWAP1 DIV PUSH20 0xFFFFFFFFFFFFFFFFFFFFFFFFFFFFFFFFFFFFFFFF AND DUP2 JUMP JUMPDEST PUSH2 0xB91 PUSH2 0xD00 JUMP JUMPDEST PUSH1 0x1 PUSH0 CALLER PUSH20 0xFFFFFFFFFFFFFFFFFFFFFFFFFFFFFFFFFFFFFFFF AND PUSH20 0xFFFFFFFFFFFFFFFFFFFFFFFFFFFFFFFFFFFFFFFF AND DUP2 MSTORE PUSH1 0x20 ADD SWAP1 DUP2 MSTORE PUSH1 0x20 ADD PUSH0 KECCAK256 DUP3 DUP2 SLOAD DUP2 LT PUSH2 0xBE0 JUMPI PUSH2 0xBDF PUSH2 0x1413 JUMP JUMPDEST JUMPDEST SWAP1 PUSH0 MSTORE PUSH1 0x20 PUSH0 KECCAK256 SWAP1 PUSH1 0x5 MUL ADD PUSH1 0x40 MLOAD DUP1 PUSH1 0xA0 ADD PUSH1 0x40 MSTORE SWAP1 DUP2 PUSH0 DUP3 ADD SLOAD DUP2 MSTORE PUSH1 0x20 ADD PUSH1 0x1 DUP3 ADD PUSH0 SWAP1 SLOAD SWAP1 PUSH2 0x100 EXP SWAP1 DIV PUSH20 0xFFFFFFFFFFFFFFFFFFFFFFFFFFFFFFFFFFFFFFFF AND PUSH20 0xFFFFFFFFFFFFFFFFFFFFFFFFFFFFFFFFFFFFFFFF AND PUSH20 0xFFFFFFFFFFFFFFFFFFFFFFFFFFFFFFFFFFFFFFFF AND DUP2 MSTORE PUSH1 0x20 ADD PUSH1 0x2 DUP3 ADD DUP1 SLOAD PUSH2 0xC65 SWAP1 PUSH2 0x13E3 JUMP JUMPDEST DUP1 PUSH1 0x1F ADD PUSH1 0x20 DUP1 SWAP2 DIV MUL PUSH1 0x20 ADD PUSH1 0x40 MLOAD SWAP1 DUP2 ADD PUSH1 0x40 MSTORE DUP1 SWAP3 SWAP2 SWAP1 DUP2 DUP2 MSTORE PUSH1 0x20 ADD DUP3 DUP1 SLOAD PUSH2 0xC91 SWAP1 PUSH2 0x13E3 JUMP JUMPDEST DUP1 ISZERO PUSH2 0xCDC JUMPI DUP1 PUSH1 0x1F LT PUSH2 0xCB3 JUMPI PUSH2 0x100 DUP1 DUP4 SLOAD DIV MUL DUP4 MSTORE SWAP2 PUSH1 0x20 ADD SWAP2 PUSH2 0xCDC JUMP JUMPDEST DUP3 ADD SWAP2 SWAP1 PUSH0 MSTORE PUSH1 0x20 PUSH0 KECCAK256 SWAP1 JUMPDEST DUP2 SLOAD DUP2 MSTORE SWAP1 PUSH1 0x1 ADD SWAP1 PUSH1 0x20 ADD DUP1 DUP4 GT PUSH2 0xCBF JUMPI DUP3 SWAP1 SUB PUSH1 0x1F AND DUP3 ADD SWAP2 JUMPDEST POP POP POP POP POP DUP2 MSTORE PUSH1 0x20 ADD PUSH1 0x3 DUP3 ADD SLOAD DUP2 MSTORE PUSH1 0x20 ADD PUSH1 0x4 DUP3 ADD SLOAD DUP2 MSTORE POP POP SWAP1 POP SWAP2 SWAP1 POP JUMP JUMPDEST PUSH1 0x40 MLOAD DUP1 PUSH1 0xA0 ADD PUSH1 0x40 MSTORE DUP1 PUSH0 DUP2 MSTORE PUSH1 0x20 ADD PUSH0 PUSH20 0xFFFFFFFFFFFFFFFFFFFFFFFFFFFFFFFFFFFFFFFF AND DUP2 MSTORE PUSH1 0x20 ADD PUSH1 0x60 DUP2 MSTORE PUSH1 0x20 ADD PUSH0 DUP2 MSTORE PUSH1 0x20 ADD PUSH0 DUP2 MSTORE POP SWAP1 JUMP JUMPDEST PUSH0 PUSH1 0x40 MLOAD SWAP1 POP SWAP1 JUMP JUMPDEST PUSH0 DUP1 REVERT JUMPDEST PUSH0 DUP1 REVERT JUMPDEST PUSH0 PUSH20 0xFFFFFFFFFFFFFFFFFFFFFFFFFFFFFFFFFFFFFFFF DUP3 AND SWAP1 POP SWAP2 SWAP1 POP JUMP JUMPDEST PUSH0 PUSH2 0xD7B DUP3 PUSH2 0xD52 JUMP JUMPDEST SWAP1 POP SWAP2 SWAP1 POP JUMP JUMPDEST PUSH2 0xD8B DUP2 PUSH2 0xD71 JUMP JUMPDEST DUP2 EQ PUSH2 0xD95 JUMPI PUSH0 DUP1 REVERT JUMPDEST POP JUMP JUMPDEST PUSH0 DUP2 CALLDATALOAD SWAP1 POP PUSH2 0xDA6 DUP2 PUSH2 0xD82 JUMP JUMPDEST SWAP3 SWAP2 POP POP JUMP JUMPDEST PUSH0 DUP2 SWAP1 POP SWAP2 SWAP1 POP JUMP JUMPDEST PUSH2 0xDBE DUP2 PUSH2 0xDAC JUMP JUMPDEST DUP2 EQ PUSH2 0xDC8 JUMPI PUSH0 DUP1 REVERT JUMPDEST POP JUMP JUMPDEST PUSH0 DUP2 CALLDATALOAD SWAP1 POP PUSH2 0xDD9 DUP2 PUSH2 0xDB5 JUMP JUMPDEST SWAP3 SWAP2 POP POP JUMP JUMPDEST PUSH0 DUP1 PUSH1 0x40 DUP4 DUP6 SUB SLT ISZERO PUSH2 0xDF5 JUMPI PUSH2 0xDF4 PUSH2 0xD4A JUMP JUMPDEST JUMPDEST PUSH0 PUSH2 0xE02 DUP6 DUP3 DUP7 ADD PUSH2 0xD98 JUMP JUMPDEST SWAP3 POP POP PUSH1 0x20 PUSH2 0xE13 DUP6 DUP3 DUP7 ADD PUSH2 0xDCB JUMP JUMPDEST SWAP2 POP POP SWAP3 POP SWAP3 SWAP1 POP JUMP JUMPDEST PUSH2 0xE26 DUP2 PUSH2 0xDAC JUMP JUMPDEST DUP3 MSTORE POP POP JUMP JUMPDEST PUSH2 0xE35 DUP2 PUSH2 0xD71 JUMP JUMPDEST DUP3 MSTORE POP POP JUMP JUMPDEST PUSH0 DUP2 MLOAD SWAP1 POP SWAP2 SWAP1 POP JUMP JUMPDEST PUSH0 DUP3 DUP3 MSTORE PUSH1 0x20 DUP3 ADD SWAP1 POP SWAP3 SWAP2 POP POP JUMP JUMPDEST DUP3 DUP2 DUP4 MCOPY PUSH0 DUP4 DUP4 ADD MSTORE POP POP POP JUMP JUMPDEST PUSH0 PUSH1 0x1F NOT PUSH1 0x1F DUP4 ADD AND SWAP1 POP SWAP2 SWAP1 POP JUMP JUMPDEST PUSH0 PUSH2 0xE7D DUP3 PUSH2 0xE3B JUMP JUMPDEST PUSH2 0xE87 DUP2 DUP6 PUSH2 0xE45 JUMP JUMPDEST SWAP4 POP PUSH2 0xE97 DUP2 DUP6 PUSH1 0x20 DUP7 ADD PUSH2 0xE55 JUMP JUMPDEST PUSH2 0xEA0 DUP2 PUSH2 0xE63 JUMP JUMPDEST DUP5 ADD SWAP2 POP POP SWAP3 SWAP2 POP POP JUMP JUMPDEST PUSH0 PUSH1 0xA0 DUP3 ADD SWAP1 POP PUSH2 0xEBE PUSH0 DUP4 ADD DUP9 PUSH2 0xE1D JUMP JUMPDEST PUSH2 0xECB PUSH1 0x20 DUP4 ADD DUP8 PUSH2 0xE2C JUMP JUMPDEST DUP2 DUP2 SUB PUSH1 0x40 DUP4 ADD MSTORE PUSH2 0xEDD DUP2 DUP7 PUSH2 0xE73 JUMP JUMPDEST SWAP1 POP PUSH2 0xEEC PUSH1 0x60 DUP4 ADD DUP6 PUSH2 0xE1D JUMP JUMPDEST PUSH2 0xEF9 PUSH1 0x80 DUP4 ADD DUP5 PUSH2 0xE1D JUMP JUMPDEST SWAP7 SWAP6 POP POP POP POP POP POP JUMP JUMPDEST PUSH0 PUSH1 0x20 DUP3 DUP5 SUB SLT ISZERO PUSH2 0xF18 JUMPI PUSH2 0xF17 PUSH2 0xD4A JUMP JUMPDEST JUMPDEST PUSH0 PUSH2 0xF25 DUP5 DUP3 DUP6 ADD PUSH2 0xD98 JUMP JUMPDEST SWAP2 POP POP SWAP3 SWAP2 POP POP JUMP JUMPDEST PUSH0 DUP2 MLOAD SWAP1 POP SWAP2 SWAP1 POP JUMP JUMPDEST PUSH0 DUP3 DUP3 MSTORE PUSH1 0x20 DUP3 ADD SWAP1 POP SWAP3 SWAP2 POP POP JUMP JUMPDEST PUSH0 DUP2 SWAP1 POP PUSH1 0x20 DUP3 ADD SWAP1 POP SWAP2 SWAP1 POP JUMP JUMPDEST PUSH2 0xF60 DUP2 PUSH2 0xDAC JUMP JUMPDEST DUP3 MSTORE POP POP JUMP JUMPDEST PUSH2 0xF6F DUP2 PUSH2 0xD71 JUMP JUMPDEST DUP3 MSTORE POP POP JUMP JUMPDEST PUSH0 DUP3 DUP3 MSTORE PUSH1 0x20 DUP3 ADD SWAP1 POP SWAP3 SWAP2 POP POP JUMP JUMPDEST PUSH0 PUSH2 0xF8F DUP3 PUSH2 0xE3B JUMP JUMPDEST PUSH2 0xF99 DUP2 DUP6 PUSH2 0xF75 JUMP JUMPDEST SWAP4 POP PUSH2 0xFA9 DUP2 DUP6 PUSH1 0x20 DUP7 ADD PUSH2 0xE55 JUMP JUMPDEST PUSH2 0xFB2 DUP2 PUSH2 0xE63 JUMP JUMPDEST DUP5 ADD SWAP2 POP POP SWAP3 SWAP2 POP POP JUMP JUMPDEST PUSH0 PUSH1 0xA0 DUP4 ADD PUSH0 DUP4 ADD MLOAD PUSH2 0xFD2 PUSH0 DUP7 ADD DUP3 PUSH2 0xF57 JUMP JUMPDEST POP PUSH1 0x20 DUP4 ADD MLOAD PUSH2 0xFE5 PUSH1 0x20 DUP7 ADD DUP3 PUSH2 0xF66 JUMP JUMPDEST POP PUSH1 0x40 DUP4 ADD MLOAD DUP5 DUP3 SUB PUSH1 0x40 DUP7 ADD MSTORE PUSH2 0xFFD DUP3 DUP3 PUSH2 0xF85 JUMP JUMPDEST SWAP2 POP POP PUSH1 0x60 DUP4 ADD MLOAD PUSH2 0x1012 PUSH1 0x60 DUP7 ADD DUP3 PUSH2 0xF57 JUMP JUMPDEST POP PUSH1 0x80 DUP4 ADD MLOAD PUSH2 0x1025 PUSH1 0x80 DUP7 ADD DUP3 PUSH2 0xF57 JUMP JUMPDEST POP DUP1 SWAP2 POP POP SWAP3 SWAP2 POP POP JUMP JUMPDEST PUSH0 PUSH2 0x103B DUP4 DUP4 PUSH2 0xFBD JUMP JUMPDEST SWAP1 POP SWAP3 SWAP2 POP POP JUMP JUMPDEST PUSH0 PUSH1 0x20 DUP3 ADD SWAP1 POP SWAP2 SWAP1 POP JUMP JUMPDEST PUSH0 PUSH2 0x1059 DUP3 PUSH2 0xF2E JUMP JUMPDEST PUSH2 0x1063 DUP2 DUP6 PUSH2 0xF38 JUMP JUMPDEST SWAP4 POP DUP4 PUSH1 0x20 DUP3 MUL DUP6 ADD PUSH2 0x1075 DUP6 PUSH2 0xF48 JUMP JUMPDEST DUP1 PUSH0 JUMPDEST DUP6 DUP2 LT ISZERO PUSH2 0x10B0 JUMPI DUP5 DUP5 SUB DUP10 MSTORE DUP2 MLOAD PUSH2 0x1091 DUP6 DUP3 PUSH2 0x1030 JUMP JUMPDEST SWAP5 POP PUSH2 0x109C DUP4 PUSH2 0x1043 JUMP JUMPDEST SWAP3 POP PUSH1 0x20 DUP11 ADD SWAP10 POP POP PUSH1 0x1 DUP2 ADD SWAP1 POP PUSH2 0x1078 JUMP JUMPDEST POP DUP3 SWAP8 POP DUP8 SWAP6 POP POP POP POP POP POP SWAP3 SWAP2 POP POP JUMP JUMPDEST PUSH0 PUSH1 0x20 DUP3 ADD SWAP1 POP DUP2 DUP2 SUB PUSH0 DUP4 ADD MSTORE PUSH2 0x10DA DUP2 DUP5 PUSH2 0x104F JUMP JUMPDEST SWAP1 POP SWAP3 SWAP2 POP POP JUMP JUMPDEST PUSH0 PUSH2 0xFFFF DUP3 AND SWAP1 POP SWAP2 SWAP1 POP JUMP JUMPDEST PUSH2 0x10F8 DUP2 PUSH2 0x10E2 JUMP JUMPDEST DUP2 EQ PUSH2 0x1102 JUMPI PUSH0 DUP1 REVERT JUMPDEST POP JUMP JUMPDEST PUSH0 DUP2 CALLDATALOAD SWAP1 POP PUSH2 0x1113 DUP2 PUSH2 0x10EF JUMP JUMPDEST SWAP3 SWAP2 POP POP JUMP JUMPDEST PUSH0 PUSH1 0x20 DUP3 DUP5 SUB SLT ISZERO PUSH2 0x112E JUMPI PUSH2 0x112D PUSH2 0xD4A JUMP JUMPDEST JUMPDEST PUSH0 PUSH2 0x113B DUP5 DUP3 DUP6 ADD PUSH2 0x1105 JUMP JUMPDEST SWAP2 POP POP SWAP3 SWAP2 POP POP JUMP JUMPDEST PUSH2 0x114D DUP2 PUSH2 0x10E2 JUMP JUMPDEST DUP3 MSTORE POP POP JUMP JUMPDEST PUSH0 PUSH1 0x20 DUP3 ADD SWAP1 POP PUSH2 0x1166 PUSH0 DUP4 ADD DUP5 PUSH2 0x1144 JUMP JUMPDEST SWAP3 SWAP2 POP POP JUMP JUMPDEST PUSH0 DUP1 REVERT JUMPDEST PUSH0 DUP1 REVERT JUMPDEST PUSH32 0x4E487B7100000000000000000000000000000000000000000000000000000000 PUSH0 MSTORE PUSH1 0x41 PUSH1 0x4 MSTORE PUSH1 0x24 PUSH0 REVERT JUMPDEST PUSH2 0x11AA DUP3 PUSH2 0xE63 JUMP JUMPDEST DUP2 ADD DUP2 DUP2 LT PUSH8 0xFFFFFFFFFFFFFFFF DUP3 GT OR ISZERO PUSH2 0x11C9 JUMPI PUSH2 0x11C8 PUSH2 0x1174 JUMP JUMPDEST JUMPDEST DUP1 PUSH1 0x40 MSTORE POP POP POP JUMP JUMPDEST PUSH0 PUSH2 0x11DB PUSH2 0xD41 JUMP JUMPDEST SWAP1 POP PUSH2 0x11E7 DUP3 DUP3 PUSH2 0x11A1 JUMP JUMPDEST SWAP2 SWAP1 POP JUMP JUMPDEST PUSH0 PUSH8 0xFFFFFFFFFFFFFFFF DUP3 GT ISZERO PUSH2 0x1206 JUMPI PUSH2 0x1205 PUSH2 0x1174 JUMP JUMPDEST JUMPDEST PUSH2 0x120F DUP3 PUSH2 0xE63 JUMP JUMPDEST SWAP1 POP PUSH1 0x20 DUP2 ADD SWAP1 POP SWAP2 SWAP1 POP JUMP JUMPDEST DUP3 DUP2 DUP4 CALLDATACOPY PUSH0 DUP4 DUP4 ADD MSTORE POP POP POP JUMP JUMPDEST PUSH0 PUSH2 0x123C PUSH2 0x1237 DUP5 PUSH2 0x11EC JUMP JUMPDEST PUSH2 0x11D2 JUMP JUMPDEST SWAP1 POP DUP3 DUP2 MSTORE PUSH1 0x20 DUP2 ADD DUP5 DUP5 DUP5 ADD GT ISZERO PUSH2 0x1258 JUMPI PUSH2 0x1257 PUSH2 0x1170 JUMP JUMPDEST JUMPDEST PUSH2 0x1263 DUP5 DUP3 DUP6 PUSH2 0x121C JUMP JUMPDEST POP SWAP4 SWAP3 POP POP POP JUMP JUMPDEST PUSH0 DUP3 PUSH1 0x1F DUP4 ADD SLT PUSH2 0x127F JUMPI PUSH2 0x127E PUSH2 0x116C JUMP JUMPDEST JUMPDEST DUP2 CALLDATALOAD PUSH2 0x128F DUP5 DUP3 PUSH1 0x20 DUP7 ADD PUSH2 0x122A JUMP JUMPDEST SWAP2 POP POP SWAP3 SWAP2 POP POP JUMP JUMPDEST PUSH0 PUSH1 0x20 DUP3 DUP5 SUB SLT ISZERO PUSH2 0x12AD JUMPI PUSH2 0x12AC PUSH2 0xD4A JUMP JUMPDEST JUMPDEST PUSH0 DUP3 ADD CALLDATALOAD PUSH8 0xFFFFFFFFFFFFFFFF DUP2 GT ISZERO PUSH2 0x12CA JUMPI PUSH2 0x12C9 PUSH2 0xD4E JUMP JUMPDEST JUMPDEST PUSH2 0x12D6 DUP5 DUP3 DUP6 ADD PUSH2 0x126B JUMP JUMPDEST SWAP2 POP POP SWAP3 SWAP2 POP POP JUMP JUMPDEST PUSH0 PUSH1 0x20 DUP3 ADD SWAP1 POP PUSH2 0x12F2 PUSH0 DUP4 ADD DUP5 PUSH2 0xE2C JUMP JUMPDEST SWAP3 SWAP2 POP POP JUMP JUMPDEST PUSH0 PUSH1 0x20 DUP3 DUP5 SUB SLT ISZERO PUSH2 0x130D JUMPI PUSH2 0x130C PUSH2 0xD4A JUMP JUMPDEST JUMPDEST PUSH0 PUSH2 0x131A DUP5 DUP3 DUP6 ADD PUSH2 0xDCB JUMP JUMPDEST SWAP2 POP POP SWAP3 SWAP2 POP POP JUMP JUMPDEST PUSH0 PUSH1 0xA0 DUP4 ADD PUSH0 DUP4 ADD MLOAD PUSH2 0x1338 PUSH0 DUP7 ADD DUP3 PUSH2 0xF57 JUMP JUMPDEST POP PUSH1 0x20 DUP4 ADD MLOAD PUSH2 0x134B PUSH1 0x20 DUP7 ADD DUP3 PUSH2 0xF66 JUMP JUMPDEST POP PUSH1 0x40 DUP4 ADD MLOAD DUP5 DUP3 SUB PUSH1 0x40 DUP7 ADD MSTORE PUSH2 0x1363 DUP3 DUP3 PUSH2 0xF85 JUMP JUMPDEST SWAP2 POP POP PUSH1 0x60 DUP4 ADD MLOAD PUSH2 0x1378 PUSH1 0x60 DUP7 ADD DUP3 PUSH2 0xF57 JUMP JUMPDEST POP PUSH1 0x80 DUP4 ADD MLOAD PUSH2 0x138B PUSH1 0x80 DUP7 ADD DUP3 PUSH2 0xF57 JUMP JUMPDEST POP DUP1 SWAP2 POP POP SWAP3 SWAP2 POP POP JUMP JUMPDEST PUSH0 PUSH1 0x20 DUP3 ADD SWAP1 POP DUP2 DUP2 SUB PUSH0 DUP4 ADD MSTORE PUSH2 0x13AE DUP2 DUP5 PUSH2 0x1323 JUMP JUMPDEST SWAP1 POP SWAP3 SWAP2 POP POP JUMP JUMPDEST PUSH32 0x4E487B7100000000000000000000000000000000000000000000000000000000 PUSH0 MSTORE PUSH1 0x22 PUSH1 0x4 MSTORE PUSH1 0x24 PUSH0 REVERT JUMPDEST PUSH0 PUSH1 0x2 DUP3 DIV SWAP1 POP PUSH1 0x1 DUP3 AND DUP1 PUSH2 0x13FA JUMPI PUSH1 0x7F DUP3 AND SWAP2 POP JUMPDEST PUSH1 0x20 DUP3 LT DUP2 SUB PUSH2 0x140D JUMPI PUSH2 0x140C PUSH2 0x13B6 JUMP JUMPDEST JUMPDEST POP SWAP2 SWAP1 POP JUMP JUMPDEST PUSH32 0x4E487B7100000000000000000000000000000000000000000000000000000000 PUSH0 MSTORE PUSH1 0x32 PUSH1 0x4 MSTORE PUSH1 0x24 PUSH0 REVERT JUMPDEST PUSH32 0x545745455420444F4553204E4F54204558495354210000000000000000000000 PUSH0 DUP3 ADD MSTORE POP JUMP JUMPDEST PUSH0 PUSH2 0x1474 PUSH1 0x15 DUP4 PUSH2 0xE45 JUMP JUMPDEST SWAP2 POP PUSH2 0x147F DUP3 PUSH2 0x1440 JUMP JUMPDEST PUSH1 0x20 DUP3 ADD SWAP1 POP SWAP2 SWAP1 POP JUMP JUMPDEST PUSH0 PUSH1 0x20 DUP3 ADD SWAP1 POP DUP2 DUP2 SUB PUSH0 DUP4 ADD MSTORE PUSH2 0x14A1 DUP2 PUSH2 0x1468 JUMP JUMPDEST SWAP1 POP SWAP2 SWAP1 POP JUMP JUMPDEST PUSH32 0x545745455420484153204E4F204C494B45530000000000000000000000000000 PUSH0 DUP3 ADD MSTORE POP JUMP JUMPDEST PUSH0 PUSH2 0x14DC PUSH1 0x12 DUP4 PUSH2 0xE45 JUMP JUMPDEST SWAP2 POP PUSH2 0x14E7 DUP3 PUSH2 0x14A8 JUMP JUMPDEST PUSH1 0x20 DUP3 ADD SWAP1 POP SWAP2 SWAP1 POP JUMP JUMPDEST PUSH0 PUSH1 0x20 DUP3 ADD SWAP1 POP DUP2 DUP2 SUB PUSH0 DUP4 ADD MSTORE PUSH2 0x1509 DUP2 PUSH2 0x14D0 JUMP JUMPDEST SWAP1 POP SWAP2 SWAP1 POP JUMP JUMPDEST PUSH32 0x4E487B7100000000000000000000000000000000000000000000000000000000 PUSH0 MSTORE PUSH1 0x11 PUSH1 0x4 MSTORE PUSH1 0x24 PUSH0 REVERT JUMPDEST PUSH0 PUSH2 0x1547 DUP3 PUSH2 0xDAC JUMP JUMPDEST SWAP2 POP PUSH0 DUP3 SUB PUSH2 0x1559 JUMPI PUSH2 0x1558 PUSH2 0x1510 JUMP JUMPDEST JUMPDEST PUSH1 0x1 DUP3 SUB SWAP1 POP SWAP2 SWAP1 POP JUMP JUMPDEST PUSH0 PUSH1 0x60 DUP3 ADD SWAP1 POP PUSH2 0x1577 PUSH0 DUP4 ADD DUP7 PUSH2 0xE2C JUMP JUMPDEST PUSH2 0x1584 PUSH1 0x20 DUP4 ADD DUP6 PUSH2 0xE1D JUMP JUMPDEST PUSH2 0x1591 PUSH1 0x40 DUP4 ADD DUP5 PUSH2 0xE1D JUMP JUMPDEST SWAP5 SWAP4 POP POP POP POP JUMP JUMPDEST PUSH32 0x596F7520417265204E6F7420546865204F776E65722100000000000000000000 PUSH0 DUP3 ADD MSTORE POP JUMP JUMPDEST PUSH0 PUSH2 0x15CD PUSH1 0x16 DUP4 PUSH2 0xE45 JUMP JUMPDEST SWAP2 POP PUSH2 0x15D8 DUP3 PUSH2 0x1599 JUMP JUMPDEST PUSH1 0x20 DUP3 ADD SWAP1 POP SWAP2 SWAP1 POP JUMP JUMPDEST PUSH0 PUSH1 0x20 DUP3 ADD SWAP1 POP DUP2 DUP2 SUB PUSH0 DUP4 ADD MSTORE PUSH2 0x15FA DUP2 PUSH2 0x15C1 JUMP JUMPDEST SWAP1 POP SWAP2 SWAP1 POP JUMP JUMPDEST PUSH32 0x545745455420444F4553204E4F54204558495354000000000000000000000000 PUSH0 DUP3 ADD MSTORE POP JUMP JUMPDEST PUSH0 PUSH2 0x1635 PUSH1 0x14 DUP4 PUSH2 0xE45 JUMP JUMPDEST SWAP2 POP PUSH2 0x1640 DUP3 PUSH2 0x1601 JUMP JUMPDEST PUSH1 0x20 DUP3 ADD SWAP1 POP SWAP2 SWAP1 POP JUMP JUMPDEST PUSH0 PUSH1 0x20 DUP3 ADD SWAP1 POP DUP2 DUP2 SUB PUSH0 DUP4 ADD MSTORE PUSH2 0x1662 DUP2 PUSH2 0x1629 JUMP JUMPDEST SWAP1 POP SWAP2 SWAP1 POP JUMP JUMPDEST PUSH0 PUSH2 0x1673 DUP3 PUSH2 0xDAC JUMP JUMPDEST SWAP2 POP PUSH32 0xFFFFFFFFFFFFFFFFFFFFFFFFFFFFFFFFFFFFFFFFFFFFFFFFFFFFFFFFFFFFFFFF DUP3 SUB PUSH2 0x16A5 JUMPI PUSH2 0x16A4 PUSH2 0x1510 JUMP JUMPDEST JUMPDEST PUSH1 0x1 DUP3 ADD SWAP1 POP SWAP2 SWAP1 POP JUMP JUMPDEST PUSH32 0x496E76616C6964207477656574206C656E677468000000000000000000000000 PUSH0 DUP3 ADD MSTORE POP JUMP JUMPDEST PUSH0 PUSH2 0x16E4 PUSH1 0x14 DUP4 PUSH2 0xE45 JUMP JUMPDEST SWAP2 POP PUSH2 0x16EF DUP3 PUSH2 0x16B0 JUMP JUMPDEST PUSH1 0x20 DUP3 ADD SWAP1 POP SWAP2 SWAP1 POP JUMP JUMPDEST PUSH0 PUSH1 0x20 DUP3 ADD SWAP1 POP DUP2 DUP2 SUB PUSH0 DUP4 ADD MSTORE PUSH2 0x1711 DUP2 PUSH2 0x16D8 JUMP JUMPDEST SWAP1 POP SWAP2 SWAP1 POP JUMP JUMPDEST PUSH0 DUP2 SWAP1 POP DUP2 PUSH0 MSTORE PUSH1 0x20 PUSH0 KECCAK256 SWAP1 POP SWAP2 SWAP1 POP JUMP JUMPDEST PUSH0 PUSH1 0x20 PUSH1 0x1F DUP4 ADD DIV SWAP1 POP SWAP2 SWAP1 POP JUMP JUMPDEST PUSH0 DUP3 DUP3 SHL SWAP1 POP SWAP3 SWAP2 POP POP JUMP JUMPDEST PUSH0 PUSH1 0x8 DUP4 MUL PUSH2 0x1774 PUSH32 0xFFFFFFFFFFFFFFFFFFFFFFFFFFFFFFFFFFFFFFFFFFFFFFFFFFFFFFFFFFFFFFFF DUP3 PUSH2 0x1739 JUMP JUMPDEST PUSH2 0x177E DUP7 DUP4 PUSH2 0x1739 JUMP JUMPDEST SWAP6 POP DUP1 NOT DUP5 AND SWAP4 POP DUP1 DUP7 AND DUP5 OR SWAP3 POP POP POP SWAP4 SWAP3 POP POP POP JUMP JUMPDEST PUSH0 DUP2 SWAP1 POP SWAP2 SWAP1 POP JUMP JUMPDEST PUSH0 PUSH2 0x17B9 PUSH2 0x17B4 PUSH2 0x17AF DUP5 PUSH2 0xDAC JUMP JUMPDEST PUSH2 0x1796 JUMP JUMPDEST PUSH2 0xDAC JUMP JUMPDEST SWAP1 POP SWAP2 SWAP1 POP JUMP JUMPDEST PUSH0 DUP2 SWAP1 POP SWAP2 SWAP1 POP JUMP JUMPDEST PUSH2 0x17D2 DUP4 PUSH2 0x179F JUMP JUMPDEST PUSH2 0x17E6 PUSH2 0x17DE DUP3 PUSH2 0x17C0 JUMP JUMPDEST DUP5 DUP5 SLOAD PUSH2 0x1745 JUMP JUMPDEST DUP3 SSTORE POP POP POP POP JUMP JUMPDEST PUSH0 SWAP1 JUMP JUMPDEST PUSH2 0x17FA PUSH2 0x17EE JUMP JUMPDEST PUSH2 0x1805 DUP2 DUP5 DUP5 PUSH2 0x17C9 JUMP JUMPDEST POP POP POP JUMP JUMPDEST JUMPDEST DUP2 DUP2 LT ISZERO PUSH2 0x1828 JUMPI PUSH2 0x181D PUSH0 DUP3 PUSH2 0x17F2 JUMP JUMPDEST PUSH1 0x1 DUP2 ADD SWAP1 POP PUSH2 0x180B JUMP JUMPDEST POP POP JUMP JUMPDEST PUSH1 0x1F DUP3 GT ISZERO PUSH2 0x186D JUMPI PUSH2 0x183E DUP2 PUSH2 0x1718 JUMP JUMPDEST PUSH2 0x1847 DUP5 PUSH2 0x172A JUMP JUMPDEST DUP2 ADD PUSH1 0x20 DUP6 LT ISZERO PUSH2 0x1856 JUMPI DUP2 SWAP1 POP JUMPDEST PUSH2 0x186A PUSH2 0x1862 DUP6 PUSH2 0x172A JUMP JUMPDEST DUP4 ADD DUP3 PUSH2 0x180A JUMP JUMPDEST POP POP JUMPDEST POP POP POP JUMP JUMPDEST PUSH0 DUP3 DUP3 SHR SWAP1 POP SWAP3 SWAP2 POP POP JUMP JUMPDEST PUSH0 PUSH2 0x188D PUSH0 NOT DUP5 PUSH1 0x8 MUL PUSH2 0x1872 JUMP JUMPDEST NOT DUP1 DUP4 AND SWAP2 POP POP SWAP3 SWAP2 POP POP JUMP JUMPDEST PUSH0 PUSH2 0x18A5 DUP4 DUP4 PUSH2 0x187E JUMP JUMPDEST SWAP2 POP DUP3 PUSH1 0x2 MUL DUP3 OR SWAP1 POP SWAP3 SWAP2 POP POP JUMP JUMPDEST PUSH2 0x18BE DUP3 PUSH2 0xE3B JUMP JUMPDEST PUSH8 0xFFFFFFFFFFFFFFFF DUP2 GT ISZERO PUSH2 0x18D7 JUMPI PUSH2 0x18D6 PUSH2 0x1174 JUMP JUMPDEST JUMPDEST PUSH2 0x18E1 DUP3 SLOAD PUSH2 0x13E3 JUMP JUMPDEST PUSH2 0x18EC DUP3 DUP3 DUP6 PUSH2 0x182C JUMP JUMPDEST PUSH0 PUSH1 0x20 SWAP1 POP PUSH1 0x1F DUP4 GT PUSH1 0x1 DUP2 EQ PUSH2 0x191D JUMPI PUSH0 DUP5 ISZERO PUSH2 0x190B JUMPI DUP3 DUP8 ADD MLOAD SWAP1 POP JUMPDEST PUSH2 0x1915 DUP6 DUP3 PUSH2 0x189A JUMP JUMPDEST DUP7 SSTORE POP PUSH2 0x197C JUMP JUMPDEST PUSH1 0x1F NOT DUP5 AND PUSH2 0x192B DUP7 PUSH2 0x1718 JUMP JUMPDEST PUSH0 JUMPDEST DUP3 DUP2 LT ISZERO PUSH2 0x1952 JUMPI DUP5 DUP10 ADD MLOAD DUP3 SSTORE PUSH1 0x1 DUP3 ADD SWAP2 POP PUSH1 0x20 DUP6 ADD SWAP5 POP PUSH1 0x20 DUP2 ADD SWAP1 POP PUSH2 0x192D JUMP JUMPDEST DUP7 DUP4 LT ISZERO PUSH2 0x196F JUMPI DUP5 DUP10 ADD MLOAD PUSH2 0x196B PUSH1 0x1F DUP10 AND DUP3 PUSH2 0x187E JUMP JUMPDEST DUP4 SSTORE POP JUMPDEST PUSH1 0x1 PUSH1 0x2 DUP9 MUL ADD DUP9 SSTORE POP POP POP JUMPDEST POP POP POP POP POP POP JUMP JUMPDEST PUSH0 PUSH1 0x60 DUP3 ADD SWAP1 POP PUSH2 0x1997 PUSH0 DUP4 ADD DUP7 PUSH2 0xE1D JUMP JUMPDEST DUP2 DUP2 SUB PUSH1 0x20 DUP4 ADD MSTORE PUSH2 0x19A9 DUP2 DUP6 PUSH2 0xE73 JUMP JUMPDEST SWAP1 POP PUSH2 0x19B8 PUSH1 0x40 DUP4 ADD DUP5 PUSH2 0xE1D JUMP JUMPDEST SWAP5 SWAP4 POP POP POP POP JUMP INVALID LOG2 PUSH5 0x6970667358 0x22 SLT KECCAK256 LT 0x4B SWAP1 PUSH10 0x3D0BBB264F8591F15BCB 0xD8 JUMPI 0xB9 PUSH23 0x2B9C835F6B1278F96A0F7EE86BAC64736F6C634300081A STOP CALLER "
				},
				"gasEstimates": {
					"creation": {
						"codeDepositCost": "1329200",
						"executionCost": "49962",
						"totalCost": "1379162"
					},
					"external": {
						"MAX_TWEET_LENGTH()": "2538",
						"changeTweetLength(uint16)": "26956",
						"createTweet(string)": "infinite",
						"getAllTweets(address)": "infinite",
						"getTweet(uint256)": "infinite",
						"likeTweet(address,uint256)": "infinite",
						"owner()": "2571",
						"tweets(address,uint256)": "infinite",
						"unlikeTweet(address,uint256)": "infinite"
					}
				},
				"methodIdentifiers": {
					"MAX_TWEET_LENGTH()": "6eb10797",
					"changeTweetLength(uint16)": "58bfa4ab",
					"createTweet(string)": "7c9cd2bc",
					"getAllTweets(address)": "12e7ee1c",
					"getTweet(uint256)": "c3ad5ecb",
					"likeTweet(address,uint256)": "63378216",
					"owner()": "8da5cb5b",
					"tweets(address,uint256)": "05a1b4a9",
					"unlikeTweet(address,uint256)": "3d9b569f"
				}
			},
			"storageLayout": {
				"storage": [
					{
						"astId": 3,
						"contract": "contracts/Twitter.sol:Twitter",
						"label": "owner",
						"offset": 0,
						"slot": "0",
						"type": "t_address"
					},
					{
						"astId": 15,
						"contract": "contracts/Twitter.sol:Twitter",
						"label": "MAX_TWEET_LENGTH",
						"offset": 20,
						"slot": "0",
						"type": "t_uint16"
					},
					{
						"astId": 62,
						"contract": "contracts/Twitter.sol:Twitter",
						"label": "tweets",
						"offset": 0,
						"slot": "1",
						"type": "t_mapping(t_address,t_array(t_struct(Tweet)26_storage)dyn_storage)"
					}
				],
				"types": {
					"t_address": {
						"encoding": "inplace",
						"label": "address",
						"numberOfBytes": "20"
					},
					"t_array(t_struct(Tweet)26_storage)dyn_storage": {
						"base": "t_struct(Tweet)26_storage",
						"encoding": "dynamic_array",
						"label": "struct Twitter.Tweet[]",
						"numberOfBytes": "32"
					},
					"t_mapping(t_address,t_array(t_struct(Tweet)26_storage)dyn_storage)": {
						"encoding": "mapping",
						"key": "t_address",
						"label": "mapping(address => struct Twitter.Tweet[])",
						"numberOfBytes": "32",
						"value": "t_array(t_struct(Tweet)26_storage)dyn_storage"
					},
					"t_string_storage": {
						"encoding": "bytes",
						"label": "string",
						"numberOfBytes": "32"
					},
					"t_struct(Tweet)26_storage": {
						"encoding": "inplace",
						"label": "struct Twitter.Tweet",
						"members": [
							{
								"astId": 17,
								"contract": "contracts/Twitter.sol:Twitter",
								"label": "id",
								"offset": 0,
								"slot": "0",
								"type": "t_uint256"
							},
							{
								"astId": 19,
								"contract": "contracts/Twitter.sol:Twitter",
								"label": "author",
								"offset": 0,
								"slot": "1",
								"type": "t_address"
							},
							{
								"astId": 21,
								"contract": "contracts/Twitter.sol:Twitter",
								"label": "content",
								"offset": 0,
								"slot": "2",
								"type": "t_string_storage"
							},
							{
								"astId": 23,
								"contract": "contracts/Twitter.sol:Twitter",
								"label": "createdAt",
								"offset": 0,
								"slot": "3",
								"type": "t_uint256"
							},
							{
								"astId": 25,
								"contract": "contracts/Twitter.sol:Twitter",
								"label": "likes",
								"offset": 0,
								"slot": "4",
								"type": "t_uint256"
							}
						],
						"numberOfBytes": "160"
					},
					"t_uint16": {
						"encoding": "inplace",
						"label": "uint16",
						"numberOfBytes": "2"
					},
					"t_uint256": {
						"encoding": "inplace",
						"label": "uint256",
						"numberOfBytes": "32"
					}
				}
			},
			"userdoc": {
				"kind": "user",
				"methods": {},
				"version": 1
			}
		}
	}
}