{
	"data": {
		"bytecode": {
			"linkReferences": {},
			"object": "60806040526040518060600160405280600160ff168152602001600260ff168152602001600360ff168152505f90600361003a9291906100dc565b5060405180604001604052806040518060400160405280600381526020017f626f62000000000000000000000000000000000000000000000000000000000081525081526020016040518060400160405280600581526020017f616c69636500000000000000000000000000000000000000000000000000000081525081525060019060026100ca92919061012c565b503480156100d6575f80fd5b50610507565b828054828255905f5260205f2090810192821561011b579160200282015b8281111561011a578251829060ff169055916020019190600101906100fa565b5b5090506101289190610183565b5090565b828054828255905f5260205f20908101928215610172579160200282015b828111156101715782518290816101619190610438565b509160200191906001019061014a565b5b50905061017f919061019e565b5090565b5b8082111561019a575f815f905550600101610184565b5090565b5b808211156101bd575f81816101b491906101c1565b5060010161019f565b5090565b5080546101cd90610262565b5f825580601f106101de57506101fb565b601f0160209004905f5260205f20908101906101fa9190610183565b5b50565b5f81519050919050565b7f4e487b71000000000000000000000000000000000000000000000000000000005f52604160045260245ffd5b7f4e487b71000000000000000000000000000000000000000000000000000000005f52602260045260245ffd5b5f600282049050600182168061027957607f821691505b60208210810361028c5761028b610235565b5b50919050565b5f819050815f5260205f209050919050565b5f6020601f8301049050919050565b5f82821b905092915050565b5f600883026102ee7fffffffffffffffffffffffffffffffffffffffffffffffffffffffffffffffff826102b3565b6102f886836102b3565b95508019841693508086168417925050509392505050565b5f819050919050565b5f819050919050565b5f61033c61033761033284610310565b610319565b610310565b9050919050565b5f819050919050565b61035583610322565b61036961036182610343565b8484546102bf565b825550505050565b5f90565b61037d610371565b61038881848461034c565b505050565b5b818110156103ab576103a05f82610375565b60018101905061038e565b5050565b601f8211156103f0576103c181610292565b6103ca846102a4565b810160208510156103d9578190505b6103ed6103e5856102a4565b83018261038d565b50505b505050565b5f82821c905092915050565b5f6104105f19846008026103f5565b1980831691505092915050565b5f6104288383610401565b9150826002028217905092915050565b610441826101fe565b67ffffffffffffffff81111561045a57610459610208565b5b6104648254610262565b61046f8282856103af565b5f60209050601f8311600181146104a0575f841561048e578287015190505b610498858261041d565b8655506104ff565b601f1984166104ae86610292565b5f5b828110156104d5578489015182556001820191506020850194506020810190506104b0565b868310156104f257848901516104ee601f891682610401565b8355505b6001600288020188555050505b505050505050565b610832806105145f395ff3fe608060405234801561000f575f80fd5b5060043610610055575f3560e01c80634622ab03146100595780634ed3885e146100895780639507d39a146100a5578063cc3e57d9146100d5578063d39fa23314610105575b5f80fd5b610073600480360381019061006e91906102b0565b610135565b604051610080919061034b565b60405180910390f35b6100a3600480360381019061009e9190610497565b6101db565b005b6100bf60048036038101906100ba91906102b0565b610210565b6040516100cc91906104ed565b60405180910390f35b6100ef60048036038101906100ea91906102b0565b610234565b6040516100fc91906104ed565b60405180910390f35b61011f600480360381019061011a91906102b0565b61024d565b60405161012c91906104ed565b60405180910390f35b60018181548110610144575f80fd5b905f5260205f20015f91509050805461015c90610533565b80601f016020809104026020016040519081016040528092919081815260200182805461018890610533565b80156101d35780601f106101aa576101008083540402835291602001916101d3565b820191905f5260205f20905b8154815290600101906020018083116101b657829003601f168201915b505050505081565b600181908060018154018082558091505060019003905f5260205f20015f90919091909150908161020c9190610700565b5050565b5f808281548110610224576102236107cf565b5b905f5260205f2001549050919050565b60028160058110610243575f80fd5b015f915090505481565b5f818154811061025b575f80fd5b905f5260205f20015f915090505481565b5f604051905090565b5f80fd5b5f80fd5b5f819050919050565b61028f8161027d565b8114610299575f80fd5b50565b5f813590506102aa81610286565b92915050565b5f602082840312156102c5576102c4610275565b5b5f6102d28482850161029c565b91505092915050565b5f81519050919050565b5f82825260208201905092915050565b8281835e5f83830152505050565b5f601f19601f8301169050919050565b5f61031d826102db565b61032781856102e5565b93506103378185602086016102f5565b61034081610303565b840191505092915050565b5f6020820190508181035f8301526103638184610313565b905092915050565b5f80fd5b5f80fd5b7f4e487b71000000000000000000000000000000000000000000000000000000005f52604160045260245ffd5b6103a982610303565b810181811067ffffffffffffffff821117156103c8576103c7610373565b5b80604052505050565b5f6103da61026c565b90506103e682826103a0565b919050565b5f67ffffffffffffffff82111561040557610404610373565b5b61040e82610303565b9050602081019050919050565b828183375f83830152505050565b5f61043b610436846103eb565b6103d1565b9050828152602081018484840111156104575761045661036f565b5b61046284828561041b565b509392505050565b5f82601f83011261047e5761047d61036b565b5b813561048e848260208601610429565b91505092915050565b5f602082840312156104ac576104ab610275565b5b5f82013567ffffffffffffffff8111156104c9576104c8610279565b5b6104d58482850161046a565b91505092915050565b6104e78161027d565b82525050565b5f6020820190506105005f8301846104de565b92915050565b7f4e487b71000000000000000000000000000000000000000000000000000000005f52602260045260245ffd5b5f600282049050600182168061054a57607f821691505b60208210810361055d5761055c610506565b5b50919050565b5f819050815f5260205f209050919050565b5f6020601f8301049050919050565b5f82821b905092915050565b5f600883026105bf7fffffffffffffffffffffffffffffffffffffffffffffffffffffffffffffffff82610584565b6105c98683610584565b95508019841693508086168417925050509392505050565b5f819050919050565b5f6106046105ff6105fa8461027d565b6105e1565b61027d565b9050919050565b5f819050919050565b61061d836105ea565b6106316106298261060b565b848454610590565b825550505050565b5f90565b610645610639565b610650818484610614565b505050565b5b81811015610673576106685f8261063d565b600181019050610656565b5050565b601f8211156106b85761068981610563565b61069284610575565b810160208510156106a1578190505b6106b56106ad85610575565b830182610655565b50505b505050565b5f82821c905092915050565b5f6106d85f19846008026106bd565b1980831691505092915050565b5f6106f083836106c9565b9150826002028217905092915050565b610709826102db565b67ffffffffffffffff81111561072257610721610373565b5b61072c8254610533565b610737828285610677565b5f60209050601f831160018114610768575f8415610756578287015190505b61076085826106e5565b8655506107c7565b601f19841661077686610563565b5f5b8281101561079d57848901518255600182019150602085019450602081019050610778565b868310156107ba57848901516107b6601f8916826106c9565b8355505b6001600288020188555050505b505050505050565b7f4e487b71000000000000000000000000000000000000000000000000000000005f52603260045260245ffdfea2646970667358221220bd1831b603475b3267307eb0d6aa413bdb0bc061608d636dc9b77b66c723c7e964736f6c634300081a0033",
			"opcodes": "PUSH1 0x80 PUSH1 0x40 MSTORE PUSH1 0x40 MLOAD DUP1 PUSH1 0x60 ADD PUSH1 0x40 MSTORE DUP1 PUSH1 0x1 PUSH1 0xFF AND DUP2 MSTORE PUSH1 0x20 ADD PUSH1 0x2 PUSH1 0xFF AND DUP2 MSTORE PUSH1 0x20 ADD PUSH1 0x3 PUSH1 0xFF AND DUP2 MSTORE POP PUSH0 SWAP1 PUSH1 0x3 PUSH2 0x3A SWAP3 SWAP2 SWAP1 PUSH2 0xDC JUMP JUMPDEST POP PUSH1 0x40 MLOAD DUP1 PUSH1 0x40 ADD PUSH1 0x40 MSTORE DUP1 PUSH1 0x40 MLOAD DUP1 PUSH1 0x40 ADD PUSH1 0x40 MSTORE DUP1 PUSH1 0x3 DUP2 MSTORE PUSH1 0x20 ADD PUSH32 0x626F620000000000000000000000000000000000000000000000000000000000 DUP2 MSTORE POP DUP2 MSTORE PUSH1 0x20 ADD PUSH1 0x40 MLOAD DUP1 PUSH1 0x40 ADD PUSH1 0x40 MSTORE DUP1 PUSH1 0x5 DUP2 MSTORE PUSH1 0x20 ADD PUSH32 0x616C696365000000000000000000000000000000000000000000000000000000 DUP2 MSTORE POP DUP2 MSTORE POP PUSH1 0x1 SWAP1 PUSH1 0x2 PUSH2 0xCA SWAP3 SWAP2 SWAP1 PUSH2 0x12C JUMP JUMPDEST POP CALLVALUE DUP1 ISZERO PUSH2 0xD6 JUMPI PUSH0 DUP1 REVERT JUMPDEST POP PUSH2 0x507 JUMP JUMPDEST DUP3 DUP1 SLOAD DUP3 DUP3 SSTORE SWAP1 PUSH0 MSTORE PUSH1 0x20 PUSH0 KECCAK256 SWAP1 DUP2 ADD SWAP3 DUP3 ISZERO PUSH2 0x11B JUMPI SWAP2 PUSH1 0x20 MUL DUP3 ADD JUMPDEST DUP3 DUP2 GT ISZERO PUSH2 0x11A JUMPI DUP3 MLOAD DUP3 SWAP1 PUSH1 0xFF AND SWAP1 SSTORE SWAP2 PUSH1 0x20 ADD SWAP2 SWAP1 PUSH1 0x1 ADD SWAP1 PUSH2 0xFA JUMP JUMPDEST JUMPDEST POP SWAP1 POP PUSH2 0x128 SWAP2 SWAP1 PUSH2 0x183 JUMP JUMPDEST POP SWAP1 JUMP JUMPDEST DUP3 DUP1 SLOAD DUP3 DUP3 SSTORE SWAP1 PUSH0 MSTORE PUSH1 0x20 PUSH0 KECCAK256 SWAP1 DUP2 ADD SWAP3 DUP3 ISZERO PUSH2 0x172 JUMPI SWAP2 PUSH1 0x20 MUL DUP3 ADD JUMPDEST DUP3 DUP2 GT ISZERO PUSH2 0x171 JUMPI DUP3 MLOAD DUP3 SWAP1 DUP2 PUSH2 0x161 SWAP2 SWAP1 PUSH2 0x438 JUMP JUMPDEST POP SWAP2 PUSH1 0x20 ADD SWAP2 SWAP1 PUSH1 0x1 ADD SWAP1 PUSH2 0x14A JUMP JUMPDEST JUMPDEST POP SWAP1 POP PUSH2 0x17F SWAP2 SWAP1 PUSH2 0x19E JUMP JUMPDEST POP SWAP1 JUMP JUMPDEST JUMPDEST DUP1 DUP3 GT ISZERO PUSH2 0x19A JUMPI PUSH0 DUP2 PUSH0 SWAP1 SSTORE POP PUSH1 0x1 ADD PUSH2 0x184 JUMP JUMPDEST POP SWAP1 JUMP JUMPDEST JUMPDEST DUP1 DUP3 GT ISZERO PUSH2 0x1BD JUMPI PUSH0 DUP2 DUP2 PUSH2 0x1B4 SWAP2 SWAP1 PUSH2 0x1C1 JUMP JUMPDEST POP PUSH1 0x1 ADD PUSH2 0x19F JUMP JUMPDEST POP SWAP1 JUMP JUMPDEST POP DUP1 SLOAD PUSH2 0x1CD SWAP1 PUSH2 0x262 JUMP JUMPDEST PUSH0 DUP3 SSTORE DUP1 PUSH1 0x1F LT PUSH2 0x1DE JUMPI POP PUSH2 0x1FB JUMP JUMPDEST PUSH1 0x1F ADD PUSH1 0x20 SWAP1 DIV SWAP1 PUSH0 MSTORE PUSH1 0x20 PUSH0 KECCAK256 SWAP1 DUP2 ADD SWAP1 PUSH2 0x1FA SWAP2 SWAP1 PUSH2 0x183 JUMP JUMPDEST JUMPDEST POP JUMP JUMPDEST PUSH0 DUP2 MLOAD SWAP1 POP SWAP2 SWAP1 POP JUMP JUMPDEST PUSH32 0x4E487B7100000000000000000000000000000000000000000000000000000000 PUSH0 MSTORE PUSH1 0x41 PUSH1 0x4 MSTORE PUSH1 0x24 PUSH0 REVERT JUMPDEST PUSH32 0x4E487B7100000000000000000000000000000000000000000000000000000000 PUSH0 MSTORE PUSH1 0x22 PUSH1 0x4 MSTORE PUSH1 0x24 PUSH0 REVERT JUMPDEST PUSH0 PUSH1 0x2 DUP3 DIV SWAP1 POP PUSH1 0x1 DUP3 AND DUP1 PUSH2 0x279 JUMPI PUSH1 0x7F DUP3 AND SWAP2 POP JUMPDEST PUSH1 0x20 DUP3 LT DUP2 SUB PUSH2 0x28C JUMPI PUSH2 0x28B PUSH2 0x235 JUMP JUMPDEST JUMPDEST POP SWAP2 SWAP1 POP JUMP JUMPDEST PUSH0 DUP2 SWAP1 POP DUP2 PUSH0 MSTORE PUSH1 0x20 PUSH0 KECCAK256 SWAP1 POP SWAP2 SWAP1 POP JUMP JUMPDEST PUSH0 PUSH1 0x20 PUSH1 0x1F DUP4 ADD DIV SWAP1 POP SWAP2 SWAP1 POP JUMP JUMPDEST PUSH0 DUP3 DUP3 SHL SWAP1 POP SWAP3 SWAP2 POP POP JUMP JUMPDEST PUSH0 PUSH1 0x8 DUP4 MUL PUSH2 0x2EE PUSH32 0xFFFFFFFFFFFFFFFFFFFFFFFFFFFFFFFFFFFFFFFFFFFFFFFFFFFFFFFFFFFFFFFF DUP3 PUSH2 0x2B3 JUMP JUMPDEST PUSH2 0x2F8 DUP7 DUP4 PUSH2 0x2B3 JUMP JUMPDEST SWAP6 POP DUP1 NOT DUP5 AND SWAP4 POP DUP1 DUP7 AND DUP5 OR SWAP3 POP POP POP SWAP4 SWAP3 POP POP POP JUMP JUMPDEST PUSH0 DUP2 SWAP1 POP SWAP2 SWAP1 POP JUMP JUMPDEST PUSH0 DUP2 SWAP1 POP SWAP2 SWAP1 POP JUMP JUMPDEST PUSH0 PUSH2 0x33C PUSH2 0x337 PUSH2 0x332 DUP5 PUSH2 0x310 JUMP JUMPDEST PUSH2 0x319 JUMP JUMPDEST PUSH2 0x310 JUMP JUMPDEST SWAP1 POP SWAP2 SWAP1 POP JUMP JUMPDEST PUSH0 DUP2 SWAP1 POP SWAP2 SWAP1 POP JUMP JUMPDEST PUSH2 0x355 DUP4 PUSH2 0x322 JUMP JUMPDEST PUSH2 0x369 PUSH2 0x361 DUP3 PUSH2 0x343 JUMP JUMPDEST DUP5 DUP5 SLOAD PUSH2 0x2BF JUMP JUMPDEST DUP3 SSTORE POP POP POP POP JUMP JUMPDEST PUSH0 SWAP1 JUMP JUMPDEST PUSH2 0x37D PUSH2 0x371 JUMP JUMPDEST PUSH2 0x388 DUP2 DUP5 DUP5 PUSH2 0x34C JUMP JUMPDEST POP POP POP JUMP JUMPDEST JUMPDEST DUP2 DUP2 LT ISZERO PUSH2 0x3AB JUMPI PUSH2 0x3A0 PUSH0 DUP3 PUSH2 0x375 JUMP JUMPDEST PUSH1 0x1 DUP2 ADD SWAP1 POP PUSH2 0x38E JUMP JUMPDEST POP POP JUMP JUMPDEST PUSH1 0x1F DUP3 GT ISZERO PUSH2 0x3F0 JUMPI PUSH2 0x3C1 DUP2 PUSH2 0x292 JUMP JUMPDEST PUSH2 0x3CA DUP5 PUSH2 0x2A4 JUMP JUMPDEST DUP2 ADD PUSH1 0x20 DUP6 LT ISZERO PUSH2 0x3D9 JUMPI DUP2 SWAP1 POP JUMPDEST PUSH2 0x3ED PUSH2 0x3E5 DUP6 PUSH2 0x2A4 JUMP JUMPDEST DUP4 ADD DUP3 PUSH2 0x38D JUMP JUMPDEST POP POP JUMPDEST POP POP POP JUMP JUMPDEST PUSH0 DUP3 DUP3 SHR SWAP1 POP SWAP3 SWAP2 POP POP JUMP JUMPDEST PUSH0 PUSH2 0x410 PUSH0 NOT DUP5 PUSH1 0x8 MUL PUSH2 0x3F5 JUMP JUMPDEST NOT DUP1 DUP4 AND SWAP2 POP POP SWAP3 SWAP2 POP POP JUMP JUMPDEST PUSH0 PUSH2 0x428 DUP4 DUP4 PUSH2 0x401 JUMP JUMPDEST SWAP2 POP DUP3 PUSH1 0x2 MUL DUP3 OR SWAP1 POP SWAP3 SWAP2 POP POP JUMP JUMPDEST PUSH2 0x441 DUP3 PUSH2 0x1FE JUMP JUMPDEST PUSH8 0xFFFFFFFFFFFFFFFF DUP2 GT ISZERO PUSH2 0x45A JUMPI PUSH2 0x459 PUSH2 0x208 JUMP JUMPDEST JUMPDEST PUSH2 0x464 DUP3 SLOAD PUSH2 0x262 JUMP JUMPDEST PUSH2 0x46F DUP3 DUP3 DUP6 PUSH2 0x3AF JUMP JUMPDEST PUSH0 PUSH1 0x20 SWAP1 POP PUSH1 0x1F DUP4 GT PUSH1 0x1 DUP2 EQ PUSH2 0x4A0 JUMPI PUSH0 DUP5 ISZERO PUSH2 0x48E JUMPI DUP3 DUP8 ADD MLOAD SWAP1 POP JUMPDEST PUSH2 0x498 DUP6 DUP3 PUSH2 0x41D JUMP JUMPDEST DUP7 SSTORE POP PUSH2 0x4FF JUMP JUMPDEST PUSH1 0x1F NOT DUP5 AND PUSH2 0x4AE DUP7 PUSH2 0x292 JUMP JUMPDEST PUSH0 JUMPDEST DUP3 DUP2 LT ISZERO PUSH2 0x4D5 JUMPI DUP5 DUP10 ADD MLOAD DUP3 SSTORE PUSH1 0x1 DUP3 ADD SWAP2 POP PUSH1 0x20 DUP6 ADD SWAP5 POP PUSH1 0x20 DUP2 ADD SWAP1 POP PUSH2 0x4B0 JUMP JUMPDEST DUP7 DUP4 LT ISZERO PUSH2 0x4F2 JUMPI DUP5 DUP10 ADD MLOAD PUSH2 0x4EE PUSH1 0x1F DUP10 AND DUP3 PUSH2 0x401 JUMP JUMPDEST DUP4 SSTORE POP JUMPDEST PUSH1 0x1 PUSH1 0x2 DUP9 MUL ADD DUP9 SSTORE POP POP POP JUMPDEST POP POP POP POP POP POP JUMP JUMPDEST PUSH2 0x832 DUP1 PUSH2 0x514 PUSH0 CODECOPY PUSH0 RETURN INVALID PUSH1 0x80 PUSH1 0x40 MSTORE CALLVALUE DUP1 ISZERO PUSH2 0xF JUMPI PUSH0 DUP1 REVERT JUMPDEST POP PUSH1 0x4 CALLDATASIZE LT PUSH2 0x55 JUMPI PUSH0 CALLDATALOAD PUSH1 0xE0 SHR DUP1 PUSH4 0x4622AB03 EQ PUSH2 0x59 JUMPI DUP1 PUSH4 0x4ED3885E EQ PUSH2 0x89 JUMPI DUP1 PUSH4 0x9507D39A EQ PUSH2 0xA5 JUMPI DUP1 PUSH4 0xCC3E57D9 EQ PUSH2 0xD5 JUMPI DUP1 PUSH4 0xD39FA233 EQ PUSH2 0x105 JUMPI JUMPDEST PUSH0 DUP1 REVERT JUMPDEST PUSH2 0x73 PUSH1 0x4 DUP1 CALLDATASIZE SUB DUP2 ADD SWAP1 PUSH2 0x6E SWAP2 SWAP1 PUSH2 0x2B0 JUMP JUMPDEST PUSH2 0x135 JUMP JUMPDEST PUSH1 0x40 MLOAD PUSH2 0x80 SWAP2 SWAP1 PUSH2 0x34B JUMP JUMPDEST PUSH1 0x40 MLOAD DUP1 SWAP2 SUB SWAP1 RETURN JUMPDEST PUSH2 0xA3 PUSH1 0x4 DUP1 CALLDATASIZE SUB DUP2 ADD SWAP1 PUSH2 0x9E SWAP2 SWAP1 PUSH2 0x497 JUMP JUMPDEST PUSH2 0x1DB JUMP JUMPDEST STOP JUMPDEST PUSH2 0xBF PUSH1 0x4 DUP1 CALLDATASIZE SUB DUP2 ADD SWAP1 PUSH2 0xBA SWAP2 SWAP1 PUSH2 0x2B0 JUMP JUMPDEST PUSH2 0x210 JUMP JUMPDEST PUSH1 0x40 MLOAD PUSH2 0xCC SWAP2 SWAP1 PUSH2 0x4ED JUMP JUMPDEST PUSH1 0x40 MLOAD DUP1 SWAP2 SUB SWAP1 RETURN JUMPDEST PUSH2 0xEF PUSH1 0x4 DUP1 CALLDATASIZE SUB DUP2 ADD SWAP1 PUSH2 0xEA SWAP2 SWAP1 PUSH2 0x2B0 JUMP JUMPDEST PUSH2 0x234 JUMP JUMPDEST PUSH1 0x40 MLOAD PUSH2 0xFC SWAP2 SWAP1 PUSH2 0x4ED JUMP JUMPDEST PUSH1 0x40 MLOAD DUP1 SWAP2 SUB SWAP1 RETURN JUMPDEST PUSH2 0x11F PUSH1 0x4 DUP1 CALLDATASIZE SUB DUP2 ADD SWAP1 PUSH2 0x11A SWAP2 SWAP1 PUSH2 0x2B0 JUMP JUMPDEST PUSH2 0x24D JUMP JUMPDEST PUSH1 0x40 MLOAD PUSH2 0x12C SWAP2 SWAP1 PUSH2 0x4ED JUMP JUMPDEST PUSH1 0x40 MLOAD DUP1 SWAP2 SUB SWAP1 RETURN JUMPDEST PUSH1 0x1 DUP2 DUP2 SLOAD DUP2 LT PUSH2 0x144 JUMPI PUSH0 DUP1 REVERT JUMPDEST SWAP1 PUSH0 MSTORE PUSH1 0x20 PUSH0 KECCAK256 ADD PUSH0 SWAP2 POP SWAP1 POP DUP1 SLOAD PUSH2 0x15C SWAP1 PUSH2 0x533 JUMP JUMPDEST DUP1 PUSH1 0x1F ADD PUSH1 0x20 DUP1 SWAP2 DIV MUL PUSH1 0x20 ADD PUSH1 0x40 MLOAD SWAP1 DUP2 ADD PUSH1 0x40 MSTORE DUP1 SWAP3 SWAP2 SWAP1 DUP2 DUP2 MSTORE PUSH1 0x20 ADD DUP3 DUP1 SLOAD PUSH2 0x188 SWAP1 PUSH2 0x533 JUMP JUMPDEST DUP1 ISZERO PUSH2 0x1D3 JUMPI DUP1 PUSH1 0x1F LT PUSH2 0x1AA JUMPI PUSH2 0x100 DUP1 DUP4 SLOAD DIV MUL DUP4 MSTORE SWAP2 PUSH1 0x20 ADD SWAP2 PUSH2 0x1D3 JUMP JUMPDEST DUP3 ADD SWAP2 SWAP1 PUSH0 MSTORE PUSH1 0x20 PUSH0 KECCAK256 SWAP1 JUMPDEST DUP2 SLOAD DUP2 MSTORE SWAP1 PUSH1 0x1 ADD SWAP1 PUSH1 0x20 ADD DUP1 DUP4 GT PUSH2 0x1B6 JUMPI DUP3 SWAP1 SUB PUSH1 0x1F AND DUP3 ADD SWAP2 JUMPDEST POP POP POP POP POP DUP2 JUMP JUMPDEST PUSH1 0x1 DUP2 SWAP1 DUP1 PUSH1 0x1 DUP2 SLOAD ADD DUP1 DUP3 SSTORE DUP1 SWAP2 POP POP PUSH1 0x1 SWAP1 SUB SWAP1 PUSH0 MSTORE PUSH1 0x20 PUSH0 KECCAK256 ADD PUSH0 SWAP1 SWAP2 SWAP1 SWAP2 SWAP1 SWAP2 POP SWAP1 DUP2 PUSH2 0x20C SWAP2 SWAP1 PUSH2 0x700 JUMP JUMPDEST POP POP JUMP JUMPDEST PUSH0 DUP1 DUP3 DUP2 SLOAD DUP2 LT PUSH2 0x224 JUMPI PUSH2 0x223 PUSH2 0x7CF JUMP JUMPDEST JUMPDEST SWAP1 PUSH0 MSTORE PUSH1 0x20 PUSH0 KECCAK256 ADD SLOAD SWAP1 POP SWAP2 SWAP1 POP JUMP JUMPDEST PUSH1 0x2 DUP2 PUSH1 0x5 DUP2 LT PUSH2 0x243 JUMPI PUSH0 DUP1 REVERT JUMPDEST ADD PUSH0 SWAP2 POP SWAP1 POP SLOAD DUP2 JUMP JUMPDEST PUSH0 DUP2 DUP2 SLOAD DUP2 LT PUSH2 0x25B JUMPI PUSH0 DUP1 REVERT JUMPDEST SWAP1 PUSH0 MSTORE PUSH1 0x20 PUSH0 KECCAK256 ADD PUSH0 SWAP2 POP SWAP1 POP SLOAD DUP2 JUMP JUMPDEST PUSH0 PUSH1 0x40 MLOAD SWAP1 POP SWAP1 JUMP JUMPDEST PUSH0 DUP1 REVERT JUMPDEST PUSH0 DUP1 REVERT JUMPDEST PUSH0 DUP2 SWAP1 POP SWAP2 SWAP1 POP JUMP JUMPDEST PUSH2 0x28F DUP2 PUSH2 0x27D JUMP JUMPDEST DUP2 EQ PUSH2 0x299 JUMPI PUSH0 DUP1 REVERT JUMPDEST POP JUMP JUMPDEST PUSH0 DUP2 CALLDATALOAD SWAP1 POP PUSH2 0x2AA DUP2 PUSH2 0x286 JUMP JUMPDEST SWAP3 SWAP2 POP POP JUMP JUMPDEST PUSH0 PUSH1 0x20 DUP3 DUP5 SUB SLT ISZERO PUSH2 0x2C5 JUMPI PUSH2 0x2C4 PUSH2 0x275 JUMP JUMPDEST JUMPDEST PUSH0 PUSH2 0x2D2 DUP5 DUP3 DUP6 ADD PUSH2 0x29C JUMP JUMPDEST SWAP2 POP POP SWAP3 SWAP2 POP POP JUMP JUMPDEST PUSH0 DUP2 MLOAD SWAP1 POP SWAP2 SWAP1 POP JUMP JUMPDEST PUSH0 DUP3 DUP3 MSTORE PUSH1 0x20 DUP3 ADD SWAP1 POP SWAP3 SWAP2 POP POP JUMP JUMPDEST DUP3 DUP2 DUP4 MCOPY PUSH0 DUP4 DUP4 ADD MSTORE POP POP POP JUMP JUMPDEST PUSH0 PUSH1 0x1F NOT PUSH1 0x1F DUP4 ADD AND SWAP1 POP SWAP2 SWAP1 POP JUMP JUMPDEST PUSH0 PUSH2 0x31D DUP3 PUSH2 0x2DB JUMP JUMPDEST PUSH2 0x327 DUP2 DUP6 PUSH2 0x2E5 JUMP JUMPDEST SWAP4 POP PUSH2 0x337 DUP2 DUP6 PUSH1 0x20 DUP7 ADD PUSH2 0x2F5 JUMP JUMPDEST PUSH2 0x340 DUP2 PUSH2 0x303 JUMP JUMPDEST DUP5 ADD SWAP2 POP POP SWAP3 SWAP2 POP POP JUMP JUMPDEST PUSH0 PUSH1 0x20 DUP3 ADD SWAP1 POP DUP2 DUP2 SUB PUSH0 DUP4 ADD MSTORE PUSH2 0x363 DUP2 DUP5 PUSH2 0x313 JUMP JUMPDEST SWAP1 POP SWAP3 SWAP2 POP POP JUMP JUMPDEST PUSH0 DUP1 REVERT JUMPDEST PUSH0 DUP1 REVERT JUMPDEST PUSH32 0x4E487B7100000000000000000000000000000000000000000000000000000000 PUSH0 MSTORE PUSH1 0x41 PUSH1 0x4 MSTORE PUSH1 0x24 PUSH0 REVERT JUMPDEST PUSH2 0x3A9 DUP3 PUSH2 0x303 JUMP JUMPDEST DUP2 ADD DUP2 DUP2 LT PUSH8 0xFFFFFFFFFFFFFFFF DUP3 GT OR ISZERO PUSH2 0x3C8 JUMPI PUSH2 0x3C7 PUSH2 0x373 JUMP JUMPDEST JUMPDEST DUP1 PUSH1 0x40 MSTORE POP POP POP JUMP JUMPDEST PUSH0 PUSH2 0x3DA PUSH2 0x26C JUMP JUMPDEST SWAP1 POP PUSH2 0x3E6 DUP3 DUP3 PUSH2 0x3A0 JUMP JUMPDEST SWAP2 SWAP1 POP JUMP JUMPDEST PUSH0 PUSH8 0xFFFFFFFFFFFFFFFF DUP3 GT ISZERO PUSH2 0x405 JUMPI PUSH2 0x404 PUSH2 0x373 JUMP JUMPDEST JUMPDEST PUSH2 0x40E DUP3 PUSH2 0x303 JUMP JUMPDEST SWAP1 POP PUSH1 0x20 DUP2 ADD SWAP1 POP SWAP2 SWAP1 POP JUMP JUMPDEST DUP3 DUP2 DUP4 CALLDATACOPY PUSH0 DUP4 DUP4 ADD MSTORE POP POP POP JUMP JUMPDEST PUSH0 PUSH2 0x43B PUSH2 0x436 DUP5 PUSH2 0x3EB JUMP JUMPDEST PUSH2 0x3D1 JUMP JUMPDEST SWAP1 POP DUP3 DUP2 MSTORE PUSH1 0x20 DUP2 ADD DUP5 DUP5 DUP5 ADD GT ISZERO PUSH2 0x457 JUMPI PUSH2 0x456 PUSH2 0x36F JUMP JUMPDEST JUMPDEST PUSH2 0x462 DUP5 DUP3 DUP6 PUSH2 0x41B JUMP JUMPDEST POP SWAP4 SWAP3 POP POP POP JUMP JUMPDEST PUSH0 DUP3 PUSH1 0x1F DUP4 ADD SLT PUSH2 0x47E JUMPI PUSH2 0x47D PUSH2 0x36B JUMP JUMPDEST JUMPDEST DUP2 CALLDATALOAD PUSH2 0x48E DUP5 DUP3 PUSH1 0x20 DUP7 ADD PUSH2 0x429 JUMP JUMPDEST SWAP2 POP POP SWAP3 SWAP2 POP POP JUMP JUMPDEST PUSH0 PUSH1 0x20 DUP3 DUP5 SUB SLT ISZERO PUSH2 0x4AC JUMPI PUSH2 0x4AB PUSH2 0x275 JUMP JUMPDEST JUMPDEST PUSH0 DUP3 ADD CALLDATALOAD PUSH8 0xFFFFFFFFFFFFFFFF DUP2 GT ISZERO PUSH2 0x4C9 JUMPI PUSH2 0x4C8 PUSH2 0x279 JUMP JUMPDEST JUMPDEST PUSH2 0x4D5 DUP5 DUP3 DUP6 ADD PUSH2 0x46A JUMP JUMPDEST SWAP2 POP POP SWAP3 SWAP2 POP POP JUMP JUMPDEST PUSH2 0x4E7 DUP2 PUSH2 0x27D JUMP JUMPDEST DUP3 MSTORE POP POP JUMP JUMPDEST PUSH0 PUSH1 0x20 DUP3 ADD SWAP1 POP PUSH2 0x500 PUSH0 DUP4 ADD DUP5 PUSH2 0x4DE JUMP JUMPDEST SWAP3 SWAP2 POP POP JUMP JUMPDEST PUSH32 0x4E487B7100000000000000000000000000000000000000000000000000000000 PUSH0 MSTORE PUSH1 0x22 PUSH1 0x4 MSTORE PUSH1 0x24 PUSH0 REVERT JUMPDEST PUSH0 PUSH1 0x2 DUP3 DIV SWAP1 POP PUSH1 0x1 DUP3 AND DUP1 PUSH2 0x54A JUMPI PUSH1 0x7F DUP3 AND SWAP2 POP JUMPDEST PUSH1 0x20 DUP3 LT DUP2 SUB PUSH2 0x55D JUMPI PUSH2 0x55C PUSH2 0x506 JUMP JUMPDEST JUMPDEST POP SWAP2 SWAP1 POP JUMP JUMPDEST PUSH0 DUP2 SWAP1 POP DUP2 PUSH0 MSTORE PUSH1 0x20 PUSH0 KECCAK256 SWAP1 POP SWAP2 SWAP1 POP JUMP JUMPDEST PUSH0 PUSH1 0x20 PUSH1 0x1F DUP4 ADD DIV SWAP1 POP SWAP2 SWAP1 POP JUMP JUMPDEST PUSH0 DUP3 DUP3 SHL SWAP1 POP SWAP3 SWAP2 POP POP JUMP JUMPDEST PUSH0 PUSH1 0x8 DUP4 MUL PUSH2 0x5BF PUSH32 0xFFFFFFFFFFFFFFFFFFFFFFFFFFFFFFFFFFFFFFFFFFFFFFFFFFFFFFFFFFFFFFFF DUP3 PUSH2 0x584 JUMP JUMPDEST PUSH2 0x5C9 DUP7 DUP4 PUSH2 0x584 JUMP JUMPDEST SWAP6 POP DUP1 NOT DUP5 AND SWAP4 POP DUP1 DUP7 AND DUP5 OR SWAP3 POP POP POP SWAP4 SWAP3 POP POP POP JUMP JUMPDEST PUSH0 DUP2 SWAP1 POP SWAP2 SWAP1 POP JUMP JUMPDEST PUSH0 PUSH2 0x604 PUSH2 0x5FF PUSH2 0x5FA DUP5 PUSH2 0x27D JUMP JUMPDEST PUSH2 0x5E1 JUMP JUMPDEST PUSH2 0x27D JUMP JUMPDEST SWAP1 POP SWAP2 SWAP1 POP JUMP JUMPDEST PUSH0 DUP2 SWAP1 POP SWAP2 SWAP1 POP JUMP JUMPDEST PUSH2 0x61D DUP4 PUSH2 0x5EA JUMP JUMPDEST PUSH2 0x631 PUSH2 0x629 DUP3 PUSH2 0x60B JUMP JUMPDEST DUP5 DUP5 SLOAD PUSH2 0x590 JUMP JUMPDEST DUP3 SSTORE POP POP POP POP JUMP JUMPDEST PUSH0 SWAP1 JUMP JUMPDEST PUSH2 0x645 PUSH2 0x639 JUMP JUMPDEST PUSH2 0x650 DUP2 DUP5 DUP5 PUSH2 0x614 JUMP JUMPDEST POP POP POP JUMP JUMPDEST JUMPDEST DUP2 DUP2 LT ISZERO PUSH2 0x673 JUMPI PUSH2 0x668 PUSH0 DUP3 PUSH2 0x63D JUMP JUMPDEST PUSH1 0x1 DUP2 ADD SWAP1 POP PUSH2 0x656 JUMP JUMPDEST POP POP JUMP JUMPDEST PUSH1 0x1F DUP3 GT ISZERO PUSH2 0x6B8 JUMPI PUSH2 0x689 DUP2 PUSH2 0x563 JUMP JUMPDEST PUSH2 0x692 DUP5 PUSH2 0x575 JUMP JUMPDEST DUP2 ADD PUSH1 0x20 DUP6 LT ISZERO PUSH2 0x6A1 JUMPI DUP2 SWAP1 POP JUMPDEST PUSH2 0x6B5 PUSH2 0x6AD DUP6 PUSH2 0x575 JUMP JUMPDEST DUP4 ADD DUP3 PUSH2 0x655 JUMP JUMPDEST POP POP JUMPDEST POP POP POP JUMP JUMPDEST PUSH0 DUP3 DUP3 SHR SWAP1 POP SWAP3 SWAP2 POP POP JUMP JUMPDEST PUSH0 PUSH2 0x6D8 PUSH0 NOT DUP5 PUSH1 0x8 MUL PUSH2 0x6BD JUMP JUMPDEST NOT DUP1 DUP4 AND SWAP2 POP POP SWAP3 SWAP2 POP POP JUMP JUMPDEST PUSH0 PUSH2 0x6F0 DUP4 DUP4 PUSH2 0x6C9 JUMP JUMPDEST SWAP2 POP DUP3 PUSH1 0x2 MUL DUP3 OR SWAP1 POP SWAP3 SWAP2 POP POP JUMP JUMPDEST PUSH2 0x709 DUP3 PUSH2 0x2DB JUMP JUMPDEST PUSH8 0xFFFFFFFFFFFFFFFF DUP2 GT ISZERO PUSH2 0x722 JUMPI PUSH2 0x721 PUSH2 0x373 JUMP JUMPDEST JUMPDEST PUSH2 0x72C DUP3 SLOAD PUSH2 0x533 JUMP JUMPDEST PUSH2 0x737 DUP3 DUP3 DUP6 PUSH2 0x677 JUMP JUMPDEST PUSH0 PUSH1 0x20 SWAP1 POP PUSH1 0x1F DUP4 GT PUSH1 0x1 DUP2 EQ PUSH2 0x768 JUMPI PUSH0 DUP5 ISZERO PUSH2 0x756 JUMPI DUP3 DUP8 ADD MLOAD SWAP1 POP JUMPDEST PUSH2 0x760 DUP6 DUP3 PUSH2 0x6E5 JUMP JUMPDEST DUP7 SSTORE POP PUSH2 0x7C7 JUMP JUMPDEST PUSH1 0x1F NOT DUP5 AND PUSH2 0x776 DUP7 PUSH2 0x563 JUMP JUMPDEST PUSH0 JUMPDEST DUP3 DUP2 LT ISZERO PUSH2 0x79D JUMPI DUP5 DUP10 ADD MLOAD DUP3 SSTORE PUSH1 0x1 DUP3 ADD SWAP2 POP PUSH1 0x20 DUP6 ADD SWAP5 POP PUSH1 0x20 DUP2 ADD SWAP1 POP PUSH2 0x778 JUMP JUMPDEST DUP7 DUP4 LT ISZERO PUSH2 0x7BA JUMPI DUP5 DUP10 ADD MLOAD PUSH2 0x7B6 PUSH1 0x1F DUP10 AND DUP3 PUSH2 0x6C9 JUMP JUMPDEST DUP4 SSTORE POP JUMPDEST PUSH1 0x1 PUSH1 0x2 DUP9 MUL ADD DUP9 SSTORE POP POP POP JUMPDEST POP POP POP POP POP POP JUMP JUMPDEST PUSH32 0x4E487B7100000000000000000000000000000000000000000000000000000000 PUSH0 MSTORE PUSH1 0x32 PUSH1 0x4 MSTORE PUSH1 0x24 PUSH0 REVERT INVALID LOG2 PUSH5 0x6970667358 0x22 SLT KECCAK256 0xBD XOR BALANCE 0xB6 SUB SELFBALANCE JUMPDEST ORIGIN PUSH8 0x307EB0D6AA413BDB SIGNEXTEND 0xC0 PUSH2 0x608D PUSH4 0x6DC9B77B PUSH7 0xC723C7E964736F PUSH13 0x634300081A0033000000000000 "
		},
		"gasEstimates": {
			"creation": {
				"codeDepositCost": "419600",
				"executionCost": "infinite",
				"totalCost": "infinite"
			},
			"external": {
				"get(uint256)": "infinite",
				"myArray(uint256)": "infinite",
				"names(uint256)": "infinite",
				"numbers(uint256)": "infinite",
				"set(string)": "infinite"
			}
		},
		"methodIdentifiers": {
			"get(uint256)": "9507d39a",
			"myArray(uint256)": "cc3e57d9",
			"names(uint256)": "4622ab03",
			"numbers(uint256)": "d39fa233",
			"set(string)": "4ed3885e"
		}
	},
	"abi": [
		{
			"inputs": [
				{
					"internalType": "uint256",
					"name": "index",
					"type": "uint256"
				}
			],
			"name": "get",
			"outputs": [
				{
					"internalType": "uint256",
					"name": "",
					"type": "uint256"
				}
			],
			"stateMutability": "view",
			"type": "function"
		},
		{
			"inputs": [
				{
					"internalType": "uint256",
					"name": "",
					"type": "uint256"
				}
			],
			"name": "myArray",
			"outputs": [
				{
					"internalType": "uint256",
					"name": "",
					"type": "uint256"
				}
			],
			"stateMutability": "view",
			"type": "function"
		},
		{
			"inputs": [
				{
					"internalType": "uint256",
					"name": "",
					"type": "uint256"
				}
			],
			"name": "names",
			"outputs": [
				{
					"internalType": "string",
					"name": "",
					"type": "string"
				}
			],
			"stateMutability": "view",
			"type": "function"
		},
		{
			"inputs": [
				{
					"internalType": "uint256",
					"name": "",
					"type": "uint256"
				}
			],
			"name": "numbers",
			"outputs": [
				{
					"internalType": "uint256",
					"name": "",
					"type": "uint256"
				}
			],
			"stateMutability": "view",
			"type": "function"
		},
		{
			"inputs": [
				{
					"internalType": "string",
					"name": "value",
					"type": "string"
				}
			],
			"name": "set",
			"outputs": [],
			"stateMutability": "nonpayable",
			"type": "function"
		}
	]
}