{
	"data": {
		"bytecode": {
			"linkReferences": {},
			"object": "60806040526101185f60146101000a81548161ffff021916908361ffff160217905550348015602c575f80fd5b50335f806101000a81548173ffffffffffffffffffffffffffffffffffffffff021916908373ffffffffffffffffffffffffffffffffffffffff160217905550611a1c806100795f395ff3fe608060405234801561000f575f80fd5b5060043610610091575f3560e01c8063633782161161006457806363378216146101315780636eb107971461014d5780637c9cd2bc1461016b5780638da5cb5b14610187578063c3ad5ecb146101a557610091565b806305a1b4a91461009557806312e7ee1c146100c95780633d9b569f146100f957806358bfa4ab14610115575b5f80fd5b6100af60048036038101906100aa9190610ddf565b6101d5565b6040516100c0959493929190610eab565b60405180910390f35b6100e360048036038101906100de9190610f03565b6102c6565b6040516100f091906110c2565b60405180910390f35b610113600480360381019061010e9190610ddf565b610461565b005b61012f600480360381019061012a9190611119565b6106c7565b005b61014b60048036038101906101469190610ddf565b610773565b005b610155610939565b6040516101629190611153565b60405180910390f35b61018560048036038101906101809190611298565b61094c565b005b61018f610b66565b60405161019c91906112df565b60405180910390f35b6101bf60048036038101906101ba91906112f8565b610b89565b6040516101cc9190611396565b60405180910390f35b6001602052815f5260405f2081815481106101ee575f80fd5b905f5260205f2090600502015f9150915050805f015490806001015f9054906101000a900473ffffffffffffffffffffffffffffffffffffffff1690806002018054610239906113e3565b80601f0160208091040260200160405190810160405280929190818152602001828054610265906113e3565b80156102b05780601f10610287576101008083540402835291602001916102b0565b820191905f5260205f20905b81548152906001019060200180831161029357829003601f168201915b5050505050908060030154908060040154905085565b606060015f8373ffffffffffffffffffffffffffffffffffffffff1673ffffffffffffffffffffffffffffffffffffffff1681526020019081526020015f20805480602002602001604051908101604052809291908181526020015f905b82821015610456578382905f5260205f2090600502016040518060a00160405290815f8201548152602001600182015f9054906101000a900473ffffffffffffffffffffffffffffffffffffffff1673ffffffffffffffffffffffffffffffffffffffff1673ffffffffffffffffffffffffffffffffffffffff1681526020016002820180546103b3906113e3565b80601f01602080910402602001604051908101604052809291908181526020018280546103df906113e3565b801561042a5780601f106104015761010080835404028352916020019161042a565b820191905f5260205f20905b81548152906001019060200180831161040d57829003601f168201915b505050505081526020016003820154815260200160048201548152505081526020019060010190610324565b505050509050919050565b8060015f8473ffffffffffffffffffffffffffffffffffffffff1673ffffffffffffffffffffffffffffffffffffffff1681526020019081526020015f2082815481106104b1576104b0611413565b5b905f5260205f2090600502015f015414610500576040517f08c379a00000000000000000000000000000000000000000000000000000000081526004016104f79061148a565b60405180910390fd5b5f60015f8473ffffffffffffffffffffffffffffffffffffffff1673ffffffffffffffffffffffffffffffffffffffff1681526020019081526020015f2082815481106105505761054f611413565b5b905f5260205f20906005020160040154116105a0576040517f08c379a0000000000000000000000000000000000000000000000000000000008152600401610597906114f2565b60405180910390fd5b60015f8373ffffffffffffffffffffffffffffffffffffffff1673ffffffffffffffffffffffffffffffffffffffff1681526020019081526020015f2081815481106105ef576105ee611413565b5b905f5260205f2090600502016004015f81548092919061060e9061153d565b91905055508173ffffffffffffffffffffffffffffffffffffffff167f762c2616349603ac16eba0de8e6141b79129a07ab63bd99e0a80b3a471716943338360015f8773ffffffffffffffffffffffffffffffffffffffff1673ffffffffffffffffffffffffffffffffffffffff1681526020019081526020015f20858154811061069c5761069b611413565b5b905f5260205f209060050201600401546040516106bb93929190611564565b60405180910390a25050565b5f8054906101000a900473ffffffffffffffffffffffffffffffffffffffff1673ffffffffffffffffffffffffffffffffffffffff163373ffffffffffffffffffffffffffffffffffffffff1614610754576040517f08c379a000000000000000000000000000000000000000000000000000000000815260040161074b90611609565b60405180910390fd5b805f60146101000a81548161ffff021916908361ffff16021790555050565b8060015f8473ffffffffffffffffffffffffffffffffffffffff1673ffffffffffffffffffffffffffffffffffffffff1681526020019081526020015f2082815481106107c3576107c2611413565b5b905f5260205f2090600502015f015414610812576040517f08c379a000000000000000000000000000000000000000000000000000000000815260040161080990611671565b60405180910390fd5b60015f8373ffffffffffffffffffffffffffffffffffffffff1673ffffffffffffffffffffffffffffffffffffffff1681526020019081526020015f20818154811061086157610860611413565b5b905f5260205f2090600502016004015f8154809291906108809061168f565b91905055508173ffffffffffffffffffffffffffffffffffffffff167fe8a76fc0f16d11a00d1e93b689b63d76cf60af914dd3d915375dc41d01a0c3c8338360015f8773ffffffffffffffffffffffffffffffffffffffff1673ffffffffffffffffffffffffffffffffffffffff1681526020019081526020015f20858154811061090e5761090d611413565b5b905f5260205f2090600502016004015460405161092d93929190611564565b60405180910390a25050565b5f60149054906101000a900461ffff1681565b5f60149054906101000a900461ffff1661ffff16815111156109a3576040517f08c379a000000000000000000000000000000000000000000000000000000000815260040161099a90611720565b60405180910390fd5b5f6040518060a0016040528060015f3373ffffffffffffffffffffffffffffffffffffffff1673ffffffffffffffffffffffffffffffffffffffff1681526020019081526020015f208054905081526020013373ffffffffffffffffffffffffffffffffffffffff1681526020018381526020014281526020015f815250905060015f3373ffffffffffffffffffffffffffffffffffffffff1673ffffffffffffffffffffffffffffffffffffffff1681526020019081526020015f2081908060018154018082558091505060019003905f5260205f2090600502015f909190919091505f820151815f01556020820151816001015f6101000a81548173ffffffffffffffffffffffffffffffffffffffff021916908373ffffffffffffffffffffffffffffffffffffffff1602179055506040820151816002019081610aea91906118db565b5060608201518160030155608082015181600401555050806020015173ffffffffffffffffffffffffffffffffffffffff167f16fd3c13e9d46923e0a8bce11c7b473ec508a72e6c96cd2404b29ce972afc29e825f015183604001518460600151604051610b5a939291906119aa565b60405180910390a25050565b5f8054906101000a900473ffffffffffffffffffffffffffffffffffffffff1681565b610b91610d00565b60015f3373ffffffffffffffffffffffffffffffffffffffff1673ffffffffffffffffffffffffffffffffffffffff1681526020019081526020015f208281548110610be057610bdf611413565b5b905f5260205f2090600502016040518060a00160405290815f8201548152602001600182015f9054906101000a900473ffffffffffffffffffffffffffffffffffffffff1673ffffffffffffffffffffffffffffffffffffffff1673ffffffffffffffffffffffffffffffffffffffff168152602001600282018054610c65906113e3565b80601f0160208091040260200160405190810160405280929190818152602001828054610c91906113e3565b8015610cdc5780601f10610cb357610100808354040283529160200191610cdc565b820191905f5260205f20905b815481529060010190602001808311610cbf57829003601f168201915b50505050508152602001600382015481526020016004820154815250509050919050565b6040518060a001604052805f81526020015f73ffffffffffffffffffffffffffffffffffffffff168152602001606081526020015f81526020015f81525090565b5f604051905090565b5f80fd5b5f80fd5b5f73ffffffffffffffffffffffffffffffffffffffff82169050919050565b5f610d7b82610d52565b9050919050565b610d8b81610d71565b8114610d95575f80fd5b50565b5f81359050610da681610d82565b92915050565b5f819050919050565b610dbe81610dac565b8114610dc8575f80fd5b50565b5f81359050610dd981610db5565b92915050565b5f8060408385031215610df557610df4610d4a565b5b5f610e0285828601610d98565b9250506020610e1385828601610dcb565b9150509250929050565b610e2681610dac565b82525050565b610e3581610d71565b82525050565b5f81519050919050565b5f82825260208201905092915050565b8281835e5f83830152505050565b5f601f19601f8301169050919050565b5f610e7d82610e3b565b610e878185610e45565b9350610e97818560208601610e55565b610ea081610e63565b840191505092915050565b5f60a082019050610ebe5f830188610e1d565b610ecb6020830187610e2c565b8181036040830152610edd8186610e73565b9050610eec6060830185610e1d565b610ef96080830184610e1d565b9695505050505050565b5f60208284031215610f1857610f17610d4a565b5b5f610f2584828501610d98565b91505092915050565b5f81519050919050565b5f82825260208201905092915050565b5f819050602082019050919050565b610f6081610dac565b82525050565b610f6f81610d71565b82525050565b5f82825260208201905092915050565b5f610f8f82610e3b565b610f998185610f75565b9350610fa9818560208601610e55565b610fb281610e63565b840191505092915050565b5f60a083015f830151610fd25f860182610f57565b506020830151610fe56020860182610f66565b5060408301518482036040860152610ffd8282610f85565b91505060608301516110126060860182610f57565b5060808301516110256080860182610f57565b508091505092915050565b5f61103b8383610fbd565b905092915050565b5f602082019050919050565b5f61105982610f2e565b6110638185610f38565b93508360208202850161107585610f48565b805f5b858110156110b057848403895281516110918582611030565b945061109c83611043565b925060208a01995050600181019050611078565b50829750879550505050505092915050565b5f6020820190508181035f8301526110da818461104f565b905092915050565b5f61ffff82169050919050565b6110f8816110e2565b8114611102575f80fd5b50565b5f81359050611113816110ef565b92915050565b5f6020828403121561112e5761112d610d4a565b5b5f61113b84828501611105565b91505092915050565b61114d816110e2565b82525050565b5f6020820190506111665f830184611144565b92915050565b5f80fd5b5f80fd5b7f4e487b71000000000000000000000000000000000000000000000000000000005f52604160045260245ffd5b6111aa82610e63565b810181811067ffffffffffffffff821117156111c9576111c8611174565b5b80604052505050565b5f6111db610d41565b90506111e782826111a1565b919050565b5f67ffffffffffffffff82111561120657611205611174565b5b61120f82610e63565b9050602081019050919050565b828183375f83830152505050565b5f61123c611237846111ec565b6111d2565b90508281526020810184848401111561125857611257611170565b5b61126384828561121c565b509392505050565b5f82601f83011261127f5761127e61116c565b5b813561128f84826020860161122a565b91505092915050565b5f602082840312156112ad576112ac610d4a565b5b5f82013567ffffffffffffffff8111156112ca576112c9610d4e565b5b6112d68482850161126b565b91505092915050565b5f6020820190506112f25f830184610e2c565b92915050565b5f6020828403121561130d5761130c610d4a565b5b5f61131a84828501610dcb565b91505092915050565b5f60a083015f8301516113385f860182610f57565b50602083015161134b6020860182610f66565b50604083015184820360408601526113638282610f85565b91505060608301516113786060860182610f57565b50608083015161138b6080860182610f57565b508091505092915050565b5f6020820190508181035f8301526113ae8184611323565b905092915050565b7f4e487b71000000000000000000000000000000000000000000000000000000005f52602260045260245ffd5b5f60028204905060018216806113fa57607f821691505b60208210810361140d5761140c6113b6565b5b50919050565b7f4e487b71000000000000000000000000000000000000000000000000000000005f52603260045260245ffd5b7f545745455420444f4553204e4f542045584953542100000000000000000000005f82015250565b5f611474601583610e45565b915061147f82611440565b602082019050919050565b5f6020820190508181035f8301526114a181611468565b9050919050565b7f545745455420484153204e4f204c494b455300000000000000000000000000005f82015250565b5f6114dc601283610e45565b91506114e7826114a8565b602082019050919050565b5f6020820190508181035f830152611509816114d0565b9050919050565b7f4e487b71000000000000000000000000000000000000000000000000000000005f52601160045260245ffd5b5f61154782610dac565b91505f820361155957611558611510565b5b600182039050919050565b5f6060820190506115775f830186610e2c565b6115846020830185610e1d565b6115916040830184610e1d565b949350505050565b7f4f6e6c79204f776e6572204f66205468652054776565742043616e20457865635f8201527f757465205468697320416374696f6e2100000000000000000000000000000000602082015250565b5f6115f3603083610e45565b91506115fe82611599565b604082019050919050565b5f6020820190508181035f830152611620816115e7565b9050919050565b7f545745455420444f4553204e4f542045584953540000000000000000000000005f82015250565b5f61165b601483610e45565b915061166682611627565b602082019050919050565b5f6020820190508181035f8301526116888161164f565b9050919050565b5f61169982610dac565b91507fffffffffffffffffffffffffffffffffffffffffffffffffffffffffffffffff82036116cb576116ca611510565b5b600182019050919050565b7f496e76616c6964207477656574206c656e6774680000000000000000000000005f82015250565b5f61170a601483610e45565b9150611715826116d6565b602082019050919050565b5f6020820190508181035f830152611737816116fe565b9050919050565b5f819050815f5260205f209050919050565b5f6020601f8301049050919050565b5f82821b905092915050565b5f6008830261179a7fffffffffffffffffffffffffffffffffffffffffffffffffffffffffffffffff8261175f565b6117a4868361175f565b95508019841693508086168417925050509392505050565b5f819050919050565b5f6117df6117da6117d584610dac565b6117bc565b610dac565b9050919050565b5f819050919050565b6117f8836117c5565b61180c611804826117e6565b84845461176b565b825550505050565b5f90565b611820611814565b61182b8184846117ef565b505050565b5b8181101561184e576118435f82611818565b600181019050611831565b5050565b601f821115611893576118648161173e565b61186d84611750565b8101602085101561187c578190505b61189061188885611750565b830182611830565b50505b505050565b5f82821c905092915050565b5f6118b35f1984600802611898565b1980831691505092915050565b5f6118cb83836118a4565b9150826002028217905092915050565b6118e482610e3b565b67ffffffffffffffff8111156118fd576118fc611174565b5b61190782546113e3565b611912828285611852565b5f60209050601f831160018114611943575f8415611931578287015190505b61193b85826118c0565b8655506119a2565b601f1984166119518661173e565b5f5b8281101561197857848901518255600182019150602085019450602081019050611953565b868310156119955784890151611991601f8916826118a4565b8355505b6001600288020188555050505b505050505050565b5f6060820190506119bd5f830186610e1d565b81810360208301526119cf8185610e73565b90506119de6040830184610e1d565b94935050505056fea264697066735822122023c7e5dc31829bf4a205c298bbdb80f682a7fab783b664c19c0a56bebbb7016364736f6c634300081a0033",
			"opcodes": "PUSH1 0x80 PUSH1 0x40 MSTORE PUSH2 0x118 PUSH0 PUSH1 0x14 PUSH2 0x100 EXP DUP2 SLOAD DUP2 PUSH2 0xFFFF MUL NOT AND SWAP1 DUP4 PUSH2 0xFFFF AND MUL OR SWAP1 SSTORE POP CALLVALUE DUP1 ISZERO PUSH1 0x2C JUMPI PUSH0 DUP1 REVERT JUMPDEST POP CALLER PUSH0 DUP1 PUSH2 0x100 EXP DUP2 SLOAD DUP2 PUSH20 0xFFFFFFFFFFFFFFFFFFFFFFFFFFFFFFFFFFFFFFFF MUL NOT AND SWAP1 DUP4 PUSH20 0xFFFFFFFFFFFFFFFFFFFFFFFFFFFFFFFFFFFFFFFF AND MUL OR SWAP1 SSTORE POP PUSH2 0x1A1C DUP1 PUSH2 0x79 PUSH0 CODECOPY PUSH0 RETURN INVALID PUSH1 0x80 PUSH1 0x40 MSTORE CALLVALUE DUP1 ISZERO PUSH2 0xF JUMPI PUSH0 DUP1 REVERT JUMPDEST POP PUSH1 0x4 CALLDATASIZE LT PUSH2 0x91 JUMPI PUSH0 CALLDATALOAD PUSH1 0xE0 SHR DUP1 PUSH4 0x63378216 GT PUSH2 0x64 JUMPI DUP1 PUSH4 0x63378216 EQ PUSH2 0x131 JUMPI DUP1 PUSH4 0x6EB10797 EQ PUSH2 0x14D JUMPI DUP1 PUSH4 0x7C9CD2BC EQ PUSH2 0x16B JUMPI DUP1 PUSH4 0x8DA5CB5B EQ PUSH2 0x187 JUMPI DUP1 PUSH4 0xC3AD5ECB EQ PUSH2 0x1A5 JUMPI PUSH2 0x91 JUMP JUMPDEST DUP1 PUSH4 0x5A1B4A9 EQ PUSH2 0x95 JUMPI DUP1 PUSH4 0x12E7EE1C EQ PUSH2 0xC9 JUMPI DUP1 PUSH4 0x3D9B569F EQ PUSH2 0xF9 JUMPI DUP1 PUSH4 0x58BFA4AB EQ PUSH2 0x115 JUMPI JUMPDEST PUSH0 DUP1 REVERT JUMPDEST PUSH2 0xAF PUSH1 0x4 DUP1 CALLDATASIZE SUB DUP2 ADD SWAP1 PUSH2 0xAA SWAP2 SWAP1 PUSH2 0xDDF JUMP JUMPDEST PUSH2 0x1D5 JUMP JUMPDEST PUSH1 0x40 MLOAD PUSH2 0xC0 SWAP6 SWAP5 SWAP4 SWAP3 SWAP2 SWAP1 PUSH2 0xEAB JUMP JUMPDEST PUSH1 0x40 MLOAD DUP1 SWAP2 SUB SWAP1 RETURN JUMPDEST PUSH2 0xE3 PUSH1 0x4 DUP1 CALLDATASIZE SUB DUP2 ADD SWAP1 PUSH2 0xDE SWAP2 SWAP1 PUSH2 0xF03 JUMP JUMPDEST PUSH2 0x2C6 JUMP JUMPDEST PUSH1 0x40 MLOAD PUSH2 0xF0 SWAP2 SWAP1 PUSH2 0x10C2 JUMP JUMPDEST PUSH1 0x40 MLOAD DUP1 SWAP2 SUB SWAP1 RETURN JUMPDEST PUSH2 0x113 PUSH1 0x4 DUP1 CALLDATASIZE SUB DUP2 ADD SWAP1 PUSH2 0x10E SWAP2 SWAP1 PUSH2 0xDDF JUMP JUMPDEST PUSH2 0x461 JUMP JUMPDEST STOP JUMPDEST PUSH2 0x12F PUSH1 0x4 DUP1 CALLDATASIZE SUB DUP2 ADD SWAP1 PUSH2 0x12A SWAP2 SWAP1 PUSH2 0x1119 JUMP JUMPDEST PUSH2 0x6C7 JUMP JUMPDEST STOP JUMPDEST PUSH2 0x14B PUSH1 0x4 DUP1 CALLDATASIZE SUB DUP2 ADD SWAP1 PUSH2 0x146 SWAP2 SWAP1 PUSH2 0xDDF JUMP JUMPDEST PUSH2 0x773 JUMP JUMPDEST STOP JUMPDEST PUSH2 0x155 PUSH2 0x939 JUMP JUMPDEST PUSH1 0x40 MLOAD PUSH2 0x162 SWAP2 SWAP1 PUSH2 0x1153 JUMP JUMPDEST PUSH1 0x40 MLOAD DUP1 SWAP2 SUB SWAP1 RETURN JUMPDEST PUSH2 0x185 PUSH1 0x4 DUP1 CALLDATASIZE SUB DUP2 ADD SWAP1 PUSH2 0x180 SWAP2 SWAP1 PUSH2 0x1298 JUMP JUMPDEST PUSH2 0x94C JUMP JUMPDEST STOP JUMPDEST PUSH2 0x18F PUSH2 0xB66 JUMP JUMPDEST PUSH1 0x40 MLOAD PUSH2 0x19C SWAP2 SWAP1 PUSH2 0x12DF JUMP JUMPDEST PUSH1 0x40 MLOAD DUP1 SWAP2 SUB SWAP1 RETURN JUMPDEST PUSH2 0x1BF PUSH1 0x4 DUP1 CALLDATASIZE SUB DUP2 ADD SWAP1 PUSH2 0x1BA SWAP2 SWAP1 PUSH2 0x12F8 JUMP JUMPDEST PUSH2 0xB89 JUMP JUMPDEST PUSH1 0x40 MLOAD PUSH2 0x1CC SWAP2 SWAP1 PUSH2 0x1396 JUMP JUMPDEST PUSH1 0x40 MLOAD DUP1 SWAP2 SUB SWAP1 RETURN JUMPDEST PUSH1 0x1 PUSH1 0x20 MSTORE DUP2 PUSH0 MSTORE PUSH1 0x40 PUSH0 KECCAK256 DUP2 DUP2 SLOAD DUP2 LT PUSH2 0x1EE JUMPI PUSH0 DUP1 REVERT JUMPDEST SWAP1 PUSH0 MSTORE PUSH1 0x20 PUSH0 KECCAK256 SWAP1 PUSH1 0x5 MUL ADD PUSH0 SWAP2 POP SWAP2 POP POP DUP1 PUSH0 ADD SLOAD SWAP1 DUP1 PUSH1 0x1 ADD PUSH0 SWAP1 SLOAD SWAP1 PUSH2 0x100 EXP SWAP1 DIV PUSH20 0xFFFFFFFFFFFFFFFFFFFFFFFFFFFFFFFFFFFFFFFF AND SWAP1 DUP1 PUSH1 0x2 ADD DUP1 SLOAD PUSH2 0x239 SWAP1 PUSH2 0x13E3 JUMP JUMPDEST DUP1 PUSH1 0x1F ADD PUSH1 0x20 DUP1 SWAP2 DIV MUL PUSH1 0x20 ADD PUSH1 0x40 MLOAD SWAP1 DUP2 ADD PUSH1 0x40 MSTORE DUP1 SWAP3 SWAP2 SWAP1 DUP2 DUP2 MSTORE PUSH1 0x20 ADD DUP3 DUP1 SLOAD PUSH2 0x265 SWAP1 PUSH2 0x13E3 JUMP JUMPDEST DUP1 ISZERO PUSH2 0x2B0 JUMPI DUP1 PUSH1 0x1F LT PUSH2 0x287 JUMPI PUSH2 0x100 DUP1 DUP4 SLOAD DIV MUL DUP4 MSTORE SWAP2 PUSH1 0x20 ADD SWAP2 PUSH2 0x2B0 JUMP JUMPDEST DUP3 ADD SWAP2 SWAP1 PUSH0 MSTORE PUSH1 0x20 PUSH0 KECCAK256 SWAP1 JUMPDEST DUP2 SLOAD DUP2 MSTORE SWAP1 PUSH1 0x1 ADD SWAP1 PUSH1 0x20 ADD DUP1 DUP4 GT PUSH2 0x293 JUMPI DUP3 SWAP1 SUB PUSH1 0x1F AND DUP3 ADD SWAP2 JUMPDEST POP POP POP POP POP SWAP1 DUP1 PUSH1 0x3 ADD SLOAD SWAP1 DUP1 PUSH1 0x4 ADD SLOAD SWAP1 POP DUP6 JUMP JUMPDEST PUSH1 0x60 PUSH1 0x1 PUSH0 DUP4 PUSH20 0xFFFFFFFFFFFFFFFFFFFFFFFFFFFFFFFFFFFFFFFF AND PUSH20 0xFFFFFFFFFFFFFFFFFFFFFFFFFFFFFFFFFFFFFFFF AND DUP2 MSTORE PUSH1 0x20 ADD SWAP1 DUP2 MSTORE PUSH1 0x20 ADD PUSH0 KECCAK256 DUP1 SLOAD DUP1 PUSH1 0x20 MUL PUSH1 0x20 ADD PUSH1 0x40 MLOAD SWAP1 DUP2 ADD PUSH1 0x40 MSTORE DUP1 SWAP3 SWAP2 SWAP1 DUP2 DUP2 MSTORE PUSH1 0x20 ADD PUSH0 SWAP1 JUMPDEST DUP3 DUP3 LT ISZERO PUSH2 0x456 JUMPI DUP4 DUP3 SWAP1 PUSH0 MSTORE PUSH1 0x20 PUSH0 KECCAK256 SWAP1 PUSH1 0x5 MUL ADD PUSH1 0x40 MLOAD DUP1 PUSH1 0xA0 ADD PUSH1 0x40 MSTORE SWAP1 DUP2 PUSH0 DUP3 ADD SLOAD DUP2 MSTORE PUSH1 0x20 ADD PUSH1 0x1 DUP3 ADD PUSH0 SWAP1 SLOAD SWAP1 PUSH2 0x100 EXP SWAP1 DIV PUSH20 0xFFFFFFFFFFFFFFFFFFFFFFFFFFFFFFFFFFFFFFFF AND PUSH20 0xFFFFFFFFFFFFFFFFFFFFFFFFFFFFFFFFFFFFFFFF AND PUSH20 0xFFFFFFFFFFFFFFFFFFFFFFFFFFFFFFFFFFFFFFFF AND DUP2 MSTORE PUSH1 0x20 ADD PUSH1 0x2 DUP3 ADD DUP1 SLOAD PUSH2 0x3B3 SWAP1 PUSH2 0x13E3 JUMP JUMPDEST DUP1 PUSH1 0x1F ADD PUSH1 0x20 DUP1 SWAP2 DIV MUL PUSH1 0x20 ADD PUSH1 0x40 MLOAD SWAP1 DUP2 ADD PUSH1 0x40 MSTORE DUP1 SWAP3 SWAP2 SWAP1 DUP2 DUP2 MSTORE PUSH1 0x20 ADD DUP3 DUP1 SLOAD PUSH2 0x3DF SWAP1 PUSH2 0x13E3 JUMP JUMPDEST DUP1 ISZERO PUSH2 0x42A JUMPI DUP1 PUSH1 0x1F LT PUSH2 0x401 JUMPI PUSH2 0x100 DUP1 DUP4 SLOAD DIV MUL DUP4 MSTORE SWAP2 PUSH1 0x20 ADD SWAP2 PUSH2 0x42A JUMP JUMPDEST DUP3 ADD SWAP2 SWAP1 PUSH0 MSTORE PUSH1 0x20 PUSH0 KECCAK256 SWAP1 JUMPDEST DUP2 SLOAD DUP2 MSTORE SWAP1 PUSH1 0x1 ADD SWAP1 PUSH1 0x20 ADD DUP1 DUP4 GT PUSH2 0x40D JUMPI DUP3 SWAP1 SUB PUSH1 0x1F AND DUP3 ADD SWAP2 JUMPDEST POP POP POP POP POP DUP2 MSTORE PUSH1 0x20 ADD PUSH1 0x3 DUP3 ADD SLOAD DUP2 MSTORE PUSH1 0x20 ADD PUSH1 0x4 DUP3 ADD SLOAD DUP2 MSTORE POP POP DUP2 MSTORE PUSH1 0x20 ADD SWAP1 PUSH1 0x1 ADD SWAP1 PUSH2 0x324 JUMP JUMPDEST POP POP POP POP SWAP1 POP SWAP2 SWAP1 POP JUMP JUMPDEST DUP1 PUSH1 0x1 PUSH0 DUP5 PUSH20 0xFFFFFFFFFFFFFFFFFFFFFFFFFFFFFFFFFFFFFFFF AND PUSH20 0xFFFFFFFFFFFFFFFFFFFFFFFFFFFFFFFFFFFFFFFF AND DUP2 MSTORE PUSH1 0x20 ADD SWAP1 DUP2 MSTORE PUSH1 0x20 ADD PUSH0 KECCAK256 DUP3 DUP2 SLOAD DUP2 LT PUSH2 0x4B1 JUMPI PUSH2 0x4B0 PUSH2 0x1413 JUMP JUMPDEST JUMPDEST SWAP1 PUSH0 MSTORE PUSH1 0x20 PUSH0 KECCAK256 SWAP1 PUSH1 0x5 MUL ADD PUSH0 ADD SLOAD EQ PUSH2 0x500 JUMPI PUSH1 0x40 MLOAD PUSH32 0x8C379A000000000000000000000000000000000000000000000000000000000 DUP2 MSTORE PUSH1 0x4 ADD PUSH2 0x4F7 SWAP1 PUSH2 0x148A JUMP JUMPDEST PUSH1 0x40 MLOAD DUP1 SWAP2 SUB SWAP1 REVERT JUMPDEST PUSH0 PUSH1 0x1 PUSH0 DUP5 PUSH20 0xFFFFFFFFFFFFFFFFFFFFFFFFFFFFFFFFFFFFFFFF AND PUSH20 0xFFFFFFFFFFFFFFFFFFFFFFFFFFFFFFFFFFFFFFFF AND DUP2 MSTORE PUSH1 0x20 ADD SWAP1 DUP2 MSTORE PUSH1 0x20 ADD PUSH0 KECCAK256 DUP3 DUP2 SLOAD DUP2 LT PUSH2 0x550 JUMPI PUSH2 0x54F PUSH2 0x1413 JUMP JUMPDEST JUMPDEST SWAP1 PUSH0 MSTORE PUSH1 0x20 PUSH0 KECCAK256 SWAP1 PUSH1 0x5 MUL ADD PUSH1 0x4 ADD SLOAD GT PUSH2 0x5A0 JUMPI PUSH1 0x40 MLOAD PUSH32 0x8C379A000000000000000000000000000000000000000000000000000000000 DUP2 MSTORE PUSH1 0x4 ADD PUSH2 0x597 SWAP1 PUSH2 0x14F2 JUMP JUMPDEST PUSH1 0x40 MLOAD DUP1 SWAP2 SUB SWAP1 REVERT JUMPDEST PUSH1 0x1 PUSH0 DUP4 PUSH20 0xFFFFFFFFFFFFFFFFFFFFFFFFFFFFFFFFFFFFFFFF AND PUSH20 0xFFFFFFFFFFFFFFFFFFFFFFFFFFFFFFFFFFFFFFFF AND DUP2 MSTORE PUSH1 0x20 ADD SWAP1 DUP2 MSTORE PUSH1 0x20 ADD PUSH0 KECCAK256 DUP2 DUP2 SLOAD DUP2 LT PUSH2 0x5EF JUMPI PUSH2 0x5EE PUSH2 0x1413 JUMP JUMPDEST JUMPDEST SWAP1 PUSH0 MSTORE PUSH1 0x20 PUSH0 KECCAK256 SWAP1 PUSH1 0x5 MUL ADD PUSH1 0x4 ADD PUSH0 DUP2 SLOAD DUP1 SWAP3 SWAP2 SWAP1 PUSH2 0x60E SWAP1 PUSH2 0x153D JUMP JUMPDEST SWAP2 SWAP1 POP SSTORE POP DUP2 PUSH20 0xFFFFFFFFFFFFFFFFFFFFFFFFFFFFFFFFFFFFFFFF AND PUSH32 0x762C2616349603AC16EBA0DE8E6141B79129A07AB63BD99E0A80B3A471716943 CALLER DUP4 PUSH1 0x1 PUSH0 DUP8 PUSH20 0xFFFFFFFFFFFFFFFFFFFFFFFFFFFFFFFFFFFFFFFF AND PUSH20 0xFFFFFFFFFFFFFFFFFFFFFFFFFFFFFFFFFFFFFFFF AND DUP2 MSTORE PUSH1 0x20 ADD SWAP1 DUP2 MSTORE PUSH1 0x20 ADD PUSH0 KECCAK256 DUP6 DUP2 SLOAD DUP2 LT PUSH2 0x69C JUMPI PUSH2 0x69B PUSH2 0x1413 JUMP JUMPDEST JUMPDEST SWAP1 PUSH0 MSTORE PUSH1 0x20 PUSH0 KECCAK256 SWAP1 PUSH1 0x5 MUL ADD PUSH1 0x4 ADD SLOAD PUSH1 0x40 MLOAD PUSH2 0x6BB SWAP4 SWAP3 SWAP2 SWAP1 PUSH2 0x1564 JUMP JUMPDEST PUSH1 0x40 MLOAD DUP1 SWAP2 SUB SWAP1 LOG2 POP POP JUMP JUMPDEST PUSH0 DUP1 SLOAD SWAP1 PUSH2 0x100 EXP SWAP1 DIV PUSH20 0xFFFFFFFFFFFFFFFFFFFFFFFFFFFFFFFFFFFFFFFF AND PUSH20 0xFFFFFFFFFFFFFFFFFFFFFFFFFFFFFFFFFFFFFFFF AND CALLER PUSH20 0xFFFFFFFFFFFFFFFFFFFFFFFFFFFFFFFFFFFFFFFF AND EQ PUSH2 0x754 JUMPI PUSH1 0x40 MLOAD PUSH32 0x8C379A000000000000000000000000000000000000000000000000000000000 DUP2 MSTORE PUSH1 0x4 ADD PUSH2 0x74B SWAP1 PUSH2 0x1609 JUMP JUMPDEST PUSH1 0x40 MLOAD DUP1 SWAP2 SUB SWAP1 REVERT JUMPDEST DUP1 PUSH0 PUSH1 0x14 PUSH2 0x100 EXP DUP2 SLOAD DUP2 PUSH2 0xFFFF MUL NOT AND SWAP1 DUP4 PUSH2 0xFFFF AND MUL OR SWAP1 SSTORE POP POP JUMP JUMPDEST DUP1 PUSH1 0x1 PUSH0 DUP5 PUSH20 0xFFFFFFFFFFFFFFFFFFFFFFFFFFFFFFFFFFFFFFFF AND PUSH20 0xFFFFFFFFFFFFFFFFFFFFFFFFFFFFFFFFFFFFFFFF AND DUP2 MSTORE PUSH1 0x20 ADD SWAP1 DUP2 MSTORE PUSH1 0x20 ADD PUSH0 KECCAK256 DUP3 DUP2 SLOAD DUP2 LT PUSH2 0x7C3 JUMPI PUSH2 0x7C2 PUSH2 0x1413 JUMP JUMPDEST JUMPDEST SWAP1 PUSH0 MSTORE PUSH1 0x20 PUSH0 KECCAK256 SWAP1 PUSH1 0x5 MUL ADD PUSH0 ADD SLOAD EQ PUSH2 0x812 JUMPI PUSH1 0x40 MLOAD PUSH32 0x8C379A000000000000000000000000000000000000000000000000000000000 DUP2 MSTORE PUSH1 0x4 ADD PUSH2 0x809 SWAP1 PUSH2 0x1671 JUMP JUMPDEST PUSH1 0x40 MLOAD DUP1 SWAP2 SUB SWAP1 REVERT JUMPDEST PUSH1 0x1 PUSH0 DUP4 PUSH20 0xFFFFFFFFFFFFFFFFFFFFFFFFFFFFFFFFFFFFFFFF AND PUSH20 0xFFFFFFFFFFFFFFFFFFFFFFFFFFFFFFFFFFFFFFFF AND DUP2 MSTORE PUSH1 0x20 ADD SWAP1 DUP2 MSTORE PUSH1 0x20 ADD PUSH0 KECCAK256 DUP2 DUP2 SLOAD DUP2 LT PUSH2 0x861 JUMPI PUSH2 0x860 PUSH2 0x1413 JUMP JUMPDEST JUMPDEST SWAP1 PUSH0 MSTORE PUSH1 0x20 PUSH0 KECCAK256 SWAP1 PUSH1 0x5 MUL ADD PUSH1 0x4 ADD PUSH0 DUP2 SLOAD DUP1 SWAP3 SWAP2 SWAP1 PUSH2 0x880 SWAP1 PUSH2 0x168F JUMP JUMPDEST SWAP2 SWAP1 POP SSTORE POP DUP2 PUSH20 0xFFFFFFFFFFFFFFFFFFFFFFFFFFFFFFFFFFFFFFFF AND PUSH32 0xE8A76FC0F16D11A00D1E93B689B63D76CF60AF914DD3D915375DC41D01A0C3C8 CALLER DUP4 PUSH1 0x1 PUSH0 DUP8 PUSH20 0xFFFFFFFFFFFFFFFFFFFFFFFFFFFFFFFFFFFFFFFF AND PUSH20 0xFFFFFFFFFFFFFFFFFFFFFFFFFFFFFFFFFFFFFFFF AND DUP2 MSTORE PUSH1 0x20 ADD SWAP1 DUP2 MSTORE PUSH1 0x20 ADD PUSH0 KECCAK256 DUP6 DUP2 SLOAD DUP2 LT PUSH2 0x90E JUMPI PUSH2 0x90D PUSH2 0x1413 JUMP JUMPDEST JUMPDEST SWAP1 PUSH0 MSTORE PUSH1 0x20 PUSH0 KECCAK256 SWAP1 PUSH1 0x5 MUL ADD PUSH1 0x4 ADD SLOAD PUSH1 0x40 MLOAD PUSH2 0x92D SWAP4 SWAP3 SWAP2 SWAP1 PUSH2 0x1564 JUMP JUMPDEST PUSH1 0x40 MLOAD DUP1 SWAP2 SUB SWAP1 LOG2 POP POP JUMP JUMPDEST PUSH0 PUSH1 0x14 SWAP1 SLOAD SWAP1 PUSH2 0x100 EXP SWAP1 DIV PUSH2 0xFFFF AND DUP2 JUMP JUMPDEST PUSH0 PUSH1 0x14 SWAP1 SLOAD SWAP1 PUSH2 0x100 EXP SWAP1 DIV PUSH2 0xFFFF AND PUSH2 0xFFFF AND DUP2 MLOAD GT ISZERO PUSH2 0x9A3 JUMPI PUSH1 0x40 MLOAD PUSH32 0x8C379A000000000000000000000000000000000000000000000000000000000 DUP2 MSTORE PUSH1 0x4 ADD PUSH2 0x99A SWAP1 PUSH2 0x1720 JUMP JUMPDEST PUSH1 0x40 MLOAD DUP1 SWAP2 SUB SWAP1 REVERT JUMPDEST PUSH0 PUSH1 0x40 MLOAD DUP1 PUSH1 0xA0 ADD PUSH1 0x40 MSTORE DUP1 PUSH1 0x1 PUSH0 CALLER PUSH20 0xFFFFFFFFFFFFFFFFFFFFFFFFFFFFFFFFFFFFFFFF AND PUSH20 0xFFFFFFFFFFFFFFFFFFFFFFFFFFFFFFFFFFFFFFFF AND DUP2 MSTORE PUSH1 0x20 ADD SWAP1 DUP2 MSTORE PUSH1 0x20 ADD PUSH0 KECCAK256 DUP1 SLOAD SWAP1 POP DUP2 MSTORE PUSH1 0x20 ADD CALLER PUSH20 0xFFFFFFFFFFFFFFFFFFFFFFFFFFFFFFFFFFFFFFFF AND DUP2 MSTORE PUSH1 0x20 ADD DUP4 DUP2 MSTORE PUSH1 0x20 ADD TIMESTAMP DUP2 MSTORE PUSH1 0x20 ADD PUSH0 DUP2 MSTORE POP SWAP1 POP PUSH1 0x1 PUSH0 CALLER PUSH20 0xFFFFFFFFFFFFFFFFFFFFFFFFFFFFFFFFFFFFFFFF AND PUSH20 0xFFFFFFFFFFFFFFFFFFFFFFFFFFFFFFFFFFFFFFFF AND DUP2 MSTORE PUSH1 0x20 ADD SWAP1 DUP2 MSTORE PUSH1 0x20 ADD PUSH0 KECCAK256 DUP2 SWAP1 DUP1 PUSH1 0x1 DUP2 SLOAD ADD DUP1 DUP3 SSTORE DUP1 SWAP2 POP POP PUSH1 0x1 SWAP1 SUB SWAP1 PUSH0 MSTORE PUSH1 0x20 PUSH0 KECCAK256 SWAP1 PUSH1 0x5 MUL ADD PUSH0 SWAP1 SWAP2 SWAP1 SWAP2 SWAP1 SWAP2 POP PUSH0 DUP3 ADD MLOAD DUP2 PUSH0 ADD SSTORE PUSH1 0x20 DUP3 ADD MLOAD DUP2 PUSH1 0x1 ADD PUSH0 PUSH2 0x100 EXP DUP2 SLOAD DUP2 PUSH20 0xFFFFFFFFFFFFFFFFFFFFFFFFFFFFFFFFFFFFFFFF MUL NOT AND SWAP1 DUP4 PUSH20 0xFFFFFFFFFFFFFFFFFFFFFFFFFFFFFFFFFFFFFFFF AND MUL OR SWAP1 SSTORE POP PUSH1 0x40 DUP3 ADD MLOAD DUP2 PUSH1 0x2 ADD SWAP1 DUP2 PUSH2 0xAEA SWAP2 SWAP1 PUSH2 0x18DB JUMP JUMPDEST POP PUSH1 0x60 DUP3 ADD MLOAD DUP2 PUSH1 0x3 ADD SSTORE PUSH1 0x80 DUP3 ADD MLOAD DUP2 PUSH1 0x4 ADD SSTORE POP POP DUP1 PUSH1 0x20 ADD MLOAD PUSH20 0xFFFFFFFFFFFFFFFFFFFFFFFFFFFFFFFFFFFFFFFF AND PUSH32 0x16FD3C13E9D46923E0A8BCE11C7B473EC508A72E6C96CD2404B29CE972AFC29E DUP3 PUSH0 ADD MLOAD DUP4 PUSH1 0x40 ADD MLOAD DUP5 PUSH1 0x60 ADD MLOAD PUSH1 0x40 MLOAD PUSH2 0xB5A SWAP4 SWAP3 SWAP2 SWAP1 PUSH2 0x19AA JUMP JUMPDEST PUSH1 0x40 MLOAD DUP1 SWAP2 SUB SWAP1 LOG2 POP POP JUMP JUMPDEST PUSH0 DUP1 SLOAD SWAP1 PUSH2 0x100 EXP SWAP1 DIV PUSH20 0xFFFFFFFFFFFFFFFFFFFFFFFFFFFFFFFFFFFFFFFF AND DUP2 JUMP JUMPDEST PUSH2 0xB91 PUSH2 0xD00 JUMP JUMPDEST PUSH1 0x1 PUSH0 CALLER PUSH20 0xFFFFFFFFFFFFFFFFFFFFFFFFFFFFFFFFFFFFFFFF AND PUSH20 0xFFFFFFFFFFFFFFFFFFFFFFFFFFFFFFFFFFFFFFFF AND DUP2 MSTORE PUSH1 0x20 ADD SWAP1 DUP2 MSTORE PUSH1 0x20 ADD PUSH0 KECCAK256 DUP3 DUP2 SLOAD DUP2 LT PUSH2 0xBE0 JUMPI PUSH2 0xBDF PUSH2 0x1413 JUMP JUMPDEST JUMPDEST SWAP1 PUSH0 MSTORE PUSH1 0x20 PUSH0 KECCAK256 SWAP1 PUSH1 0x5 MUL ADD PUSH1 0x40 MLOAD DUP1 PUSH1 0xA0 ADD PUSH1 0x40 MSTORE SWAP1 DUP2 PUSH0 DUP3 ADD SLOAD DUP2 MSTORE PUSH1 0x20 ADD PUSH1 0x1 DUP3 ADD PUSH0 SWAP1 SLOAD SWAP1 PUSH2 0x100 EXP SWAP1 DIV PUSH20 0xFFFFFFFFFFFFFFFFFFFFFFFFFFFFFFFFFFFFFFFF AND PUSH20 0xFFFFFFFFFFFFFFFFFFFFFFFFFFFFFFFFFFFFFFFF AND PUSH20 0xFFFFFFFFFFFFFFFFFFFFFFFFFFFFFFFFFFFFFFFF AND DUP2 MSTORE PUSH1 0x20 ADD PUSH1 0x2 DUP3 ADD DUP1 SLOAD PUSH2 0xC65 SWAP1 PUSH2 0x13E3 JUMP JUMPDEST DUP1 PUSH1 0x1F ADD PUSH1 0x20 DUP1 SWAP2 DIV MUL PUSH1 0x20 ADD PUSH1 0x40 MLOAD SWAP1 DUP2 ADD PUSH1 0x40 MSTORE DUP1 SWAP3 SWAP2 SWAP1 DUP2 DUP2 MSTORE PUSH1 0x20 ADD DUP3 DUP1 SLOAD PUSH2 0xC91 SWAP1 PUSH2 0x13E3 JUMP JUMPDEST DUP1 ISZERO PUSH2 0xCDC JUMPI DUP1 PUSH1 0x1F LT PUSH2 0xCB3 JUMPI PUSH2 0x100 DUP1 DUP4 SLOAD DIV MUL DUP4 MSTORE SWAP2 PUSH1 0x20 ADD SWAP2 PUSH2 0xCDC JUMP JUMPDEST DUP3 ADD SWAP2 SWAP1 PUSH0 MSTORE PUSH1 0x20 PUSH0 KECCAK256 SWAP1 JUMPDEST DUP2 SLOAD DUP2 MSTORE SWAP1 PUSH1 0x1 ADD SWAP1 PUSH1 0x20 ADD DUP1 DUP4 GT PUSH2 0xCBF JUMPI DUP3 SWAP1 SUB PUSH1 0x1F AND DUP3 ADD SWAP2 JUMPDEST POP POP POP POP POP DUP2 MSTORE PUSH1 0x20 ADD PUSH1 0x3 DUP3 ADD SLOAD DUP2 MSTORE PUSH1 0x20 ADD PUSH1 0x4 DUP3 ADD SLOAD DUP2 MSTORE POP POP SWAP1 POP SWAP2 SWAP1 POP JUMP JUMPDEST PUSH1 0x40 MLOAD DUP1 PUSH1 0xA0 ADD PUSH1 0x40 MSTORE DUP1 PUSH0 DUP2 MSTORE PUSH1 0x20 ADD PUSH0 PUSH20 0xFFFFFFFFFFFFFFFFFFFFFFFFFFFFFFFFFFFFFFFF AND DUP2 MSTORE PUSH1 0x20 ADD PUSH1 0x60 DUP2 MSTORE PUSH1 0x20 ADD PUSH0 DUP2 MSTORE PUSH1 0x20 ADD PUSH0 DUP2 MSTORE POP SWAP1 JUMP JUMPDEST PUSH0 PUSH1 0x40 MLOAD SWAP1 POP SWAP1 JUMP JUMPDEST PUSH0 DUP1 REVERT JUMPDEST PUSH0 DUP1 REVERT JUMPDEST PUSH0 PUSH20 0xFFFFFFFFFFFFFFFFFFFFFFFFFFFFFFFFFFFFFFFF DUP3 AND SWAP1 POP SWAP2 SWAP1 POP JUMP JUMPDEST PUSH0 PUSH2 0xD7B DUP3 PUSH2 0xD52 JUMP JUMPDEST SWAP1 POP SWAP2 SWAP1 POP JUMP JUMPDEST PUSH2 0xD8B DUP2 PUSH2 0xD71 JUMP JUMPDEST DUP2 EQ PUSH2 0xD95 JUMPI PUSH0 DUP1 REVERT JUMPDEST POP JUMP JUMPDEST PUSH0 DUP2 CALLDATALOAD SWAP1 POP PUSH2 0xDA6 DUP2 PUSH2 0xD82 JUMP JUMPDEST SWAP3 SWAP2 POP POP JUMP JUMPDEST PUSH0 DUP2 SWAP1 POP SWAP2 SWAP1 POP JUMP JUMPDEST PUSH2 0xDBE DUP2 PUSH2 0xDAC JUMP JUMPDEST DUP2 EQ PUSH2 0xDC8 JUMPI PUSH0 DUP1 REVERT JUMPDEST POP JUMP JUMPDEST PUSH0 DUP2 CALLDATALOAD SWAP1 POP PUSH2 0xDD9 DUP2 PUSH2 0xDB5 JUMP JUMPDEST SWAP3 SWAP2 POP POP JUMP JUMPDEST PUSH0 DUP1 PUSH1 0x40 DUP4 DUP6 SUB SLT ISZERO PUSH2 0xDF5 JUMPI PUSH2 0xDF4 PUSH2 0xD4A JUMP JUMPDEST JUMPDEST PUSH0 PUSH2 0xE02 DUP6 DUP3 DUP7 ADD PUSH2 0xD98 JUMP JUMPDEST SWAP3 POP POP PUSH1 0x20 PUSH2 0xE13 DUP6 DUP3 DUP7 ADD PUSH2 0xDCB JUMP JUMPDEST SWAP2 POP POP SWAP3 POP SWAP3 SWAP1 POP JUMP JUMPDEST PUSH2 0xE26 DUP2 PUSH2 0xDAC JUMP JUMPDEST DUP3 MSTORE POP POP JUMP JUMPDEST PUSH2 0xE35 DUP2 PUSH2 0xD71 JUMP JUMPDEST DUP3 MSTORE POP POP JUMP JUMPDEST PUSH0 DUP2 MLOAD SWAP1 POP SWAP2 SWAP1 POP JUMP JUMPDEST PUSH0 DUP3 DUP3 MSTORE PUSH1 0x20 DUP3 ADD SWAP1 POP SWAP3 SWAP2 POP POP JUMP JUMPDEST DUP3 DUP2 DUP4 MCOPY PUSH0 DUP4 DUP4 ADD MSTORE POP POP POP JUMP JUMPDEST PUSH0 PUSH1 0x1F NOT PUSH1 0x1F DUP4 ADD AND SWAP1 POP SWAP2 SWAP1 POP JUMP JUMPDEST PUSH0 PUSH2 0xE7D DUP3 PUSH2 0xE3B JUMP JUMPDEST PUSH2 0xE87 DUP2 DUP6 PUSH2 0xE45 JUMP JUMPDEST SWAP4 POP PUSH2 0xE97 DUP2 DUP6 PUSH1 0x20 DUP7 ADD PUSH2 0xE55 JUMP JUMPDEST PUSH2 0xEA0 DUP2 PUSH2 0xE63 JUMP JUMPDEST DUP5 ADD SWAP2 POP POP SWAP3 SWAP2 POP POP JUMP JUMPDEST PUSH0 PUSH1 0xA0 DUP3 ADD SWAP1 POP PUSH2 0xEBE PUSH0 DUP4 ADD DUP9 PUSH2 0xE1D JUMP JUMPDEST PUSH2 0xECB PUSH1 0x20 DUP4 ADD DUP8 PUSH2 0xE2C JUMP JUMPDEST DUP2 DUP2 SUB PUSH1 0x40 DUP4 ADD MSTORE PUSH2 0xEDD DUP2 DUP7 PUSH2 0xE73 JUMP JUMPDEST SWAP1 POP PUSH2 0xEEC PUSH1 0x60 DUP4 ADD DUP6 PUSH2 0xE1D JUMP JUMPDEST PUSH2 0xEF9 PUSH1 0x80 DUP4 ADD DUP5 PUSH2 0xE1D JUMP JUMPDEST SWAP7 SWAP6 POP POP POP POP POP POP JUMP JUMPDEST PUSH0 PUSH1 0x20 DUP3 DUP5 SUB SLT ISZERO PUSH2 0xF18 JUMPI PUSH2 0xF17 PUSH2 0xD4A JUMP JUMPDEST JUMPDEST PUSH0 PUSH2 0xF25 DUP5 DUP3 DUP6 ADD PUSH2 0xD98 JUMP JUMPDEST SWAP2 POP POP SWAP3 SWAP2 POP POP JUMP JUMPDEST PUSH0 DUP2 MLOAD SWAP1 POP SWAP2 SWAP1 POP JUMP JUMPDEST PUSH0 DUP3 DUP3 MSTORE PUSH1 0x20 DUP3 ADD SWAP1 POP SWAP3 SWAP2 POP POP JUMP JUMPDEST PUSH0 DUP2 SWAP1 POP PUSH1 0x20 DUP3 ADD SWAP1 POP SWAP2 SWAP1 POP JUMP JUMPDEST PUSH2 0xF60 DUP2 PUSH2 0xDAC JUMP JUMPDEST DUP3 MSTORE POP POP JUMP JUMPDEST PUSH2 0xF6F DUP2 PUSH2 0xD71 JUMP JUMPDEST DUP3 MSTORE POP POP JUMP JUMPDEST PUSH0 DUP3 DUP3 MSTORE PUSH1 0x20 DUP3 ADD SWAP1 POP SWAP3 SWAP2 POP POP JUMP JUMPDEST PUSH0 PUSH2 0xF8F DUP3 PUSH2 0xE3B JUMP JUMPDEST PUSH2 0xF99 DUP2 DUP6 PUSH2 0xF75 JUMP JUMPDEST SWAP4 POP PUSH2 0xFA9 DUP2 DUP6 PUSH1 0x20 DUP7 ADD PUSH2 0xE55 JUMP JUMPDEST PUSH2 0xFB2 DUP2 PUSH2 0xE63 JUMP JUMPDEST DUP5 ADD SWAP2 POP POP SWAP3 SWAP2 POP POP JUMP JUMPDEST PUSH0 PUSH1 0xA0 DUP4 ADD PUSH0 DUP4 ADD MLOAD PUSH2 0xFD2 PUSH0 DUP7 ADD DUP3 PUSH2 0xF57 JUMP JUMPDEST POP PUSH1 0x20 DUP4 ADD MLOAD PUSH2 0xFE5 PUSH1 0x20 DUP7 ADD DUP3 PUSH2 0xF66 JUMP JUMPDEST POP PUSH1 0x40 DUP4 ADD MLOAD DUP5 DUP3 SUB PUSH1 0x40 DUP7 ADD MSTORE PUSH2 0xFFD DUP3 DUP3 PUSH2 0xF85 JUMP JUMPDEST SWAP2 POP POP PUSH1 0x60 DUP4 ADD MLOAD PUSH2 0x1012 PUSH1 0x60 DUP7 ADD DUP3 PUSH2 0xF57 JUMP JUMPDEST POP PUSH1 0x80 DUP4 ADD MLOAD PUSH2 0x1025 PUSH1 0x80 DUP7 ADD DUP3 PUSH2 0xF57 JUMP JUMPDEST POP DUP1 SWAP2 POP POP SWAP3 SWAP2 POP POP JUMP JUMPDEST PUSH0 PUSH2 0x103B DUP4 DUP4 PUSH2 0xFBD JUMP JUMPDEST SWAP1 POP SWAP3 SWAP2 POP POP JUMP JUMPDEST PUSH0 PUSH1 0x20 DUP3 ADD SWAP1 POP SWAP2 SWAP1 POP JUMP JUMPDEST PUSH0 PUSH2 0x1059 DUP3 PUSH2 0xF2E JUMP JUMPDEST PUSH2 0x1063 DUP2 DUP6 PUSH2 0xF38 JUMP JUMPDEST SWAP4 POP DUP4 PUSH1 0x20 DUP3 MUL DUP6 ADD PUSH2 0x1075 DUP6 PUSH2 0xF48 JUMP JUMPDEST DUP1 PUSH0 JUMPDEST DUP6 DUP2 LT ISZERO PUSH2 0x10B0 JUMPI DUP5 DUP5 SUB DUP10 MSTORE DUP2 MLOAD PUSH2 0x1091 DUP6 DUP3 PUSH2 0x1030 JUMP JUMPDEST SWAP5 POP PUSH2 0x109C DUP4 PUSH2 0x1043 JUMP JUMPDEST SWAP3 POP PUSH1 0x20 DUP11 ADD SWAP10 POP POP PUSH1 0x1 DUP2 ADD SWAP1 POP PUSH2 0x1078 JUMP JUMPDEST POP DUP3 SWAP8 POP DUP8 SWAP6 POP POP POP POP POP POP SWAP3 SWAP2 POP POP JUMP JUMPDEST PUSH0 PUSH1 0x20 DUP3 ADD SWAP1 POP DUP2 DUP2 SUB PUSH0 DUP4 ADD MSTORE PUSH2 0x10DA DUP2 DUP5 PUSH2 0x104F JUMP JUMPDEST SWAP1 POP SWAP3 SWAP2 POP POP JUMP JUMPDEST PUSH0 PUSH2 0xFFFF DUP3 AND SWAP1 POP SWAP2 SWAP1 POP JUMP JUMPDEST PUSH2 0x10F8 DUP2 PUSH2 0x10E2 JUMP JUMPDEST DUP2 EQ PUSH2 0x1102 JUMPI PUSH0 DUP1 REVERT JUMPDEST POP JUMP JUMPDEST PUSH0 DUP2 CALLDATALOAD SWAP1 POP PUSH2 0x1113 DUP2 PUSH2 0x10EF JUMP JUMPDEST SWAP3 SWAP2 POP POP JUMP JUMPDEST PUSH0 PUSH1 0x20 DUP3 DUP5 SUB SLT ISZERO PUSH2 0x112E JUMPI PUSH2 0x112D PUSH2 0xD4A JUMP JUMPDEST JUMPDEST PUSH0 PUSH2 0x113B DUP5 DUP3 DUP6 ADD PUSH2 0x1105 JUMP JUMPDEST SWAP2 POP POP SWAP3 SWAP2 POP POP JUMP JUMPDEST PUSH2 0x114D DUP2 PUSH2 0x10E2 JUMP JUMPDEST DUP3 MSTORE POP POP JUMP JUMPDEST PUSH0 PUSH1 0x20 DUP3 ADD SWAP1 POP PUSH2 0x1166 PUSH0 DUP4 ADD DUP5 PUSH2 0x1144 JUMP JUMPDEST SWAP3 SWAP2 POP POP JUMP JUMPDEST PUSH0 DUP1 REVERT JUMPDEST PUSH0 DUP1 REVERT JUMPDEST PUSH32 0x4E487B7100000000000000000000000000000000000000000000000000000000 PUSH0 MSTORE PUSH1 0x41 PUSH1 0x4 MSTORE PUSH1 0x24 PUSH0 REVERT JUMPDEST PUSH2 0x11AA DUP3 PUSH2 0xE63 JUMP JUMPDEST DUP2 ADD DUP2 DUP2 LT PUSH8 0xFFFFFFFFFFFFFFFF DUP3 GT OR ISZERO PUSH2 0x11C9 JUMPI PUSH2 0x11C8 PUSH2 0x1174 JUMP JUMPDEST JUMPDEST DUP1 PUSH1 0x40 MSTORE POP POP POP JUMP JUMPDEST PUSH0 PUSH2 0x11DB PUSH2 0xD41 JUMP JUMPDEST SWAP1 POP PUSH2 0x11E7 DUP3 DUP3 PUSH2 0x11A1 JUMP JUMPDEST SWAP2 SWAP1 POP JUMP JUMPDEST PUSH0 PUSH8 0xFFFFFFFFFFFFFFFF DUP3 GT ISZERO PUSH2 0x1206 JUMPI PUSH2 0x1205 PUSH2 0x1174 JUMP JUMPDEST JUMPDEST PUSH2 0x120F DUP3 PUSH2 0xE63 JUMP JUMPDEST SWAP1 POP PUSH1 0x20 DUP2 ADD SWAP1 POP SWAP2 SWAP1 POP JUMP JUMPDEST DUP3 DUP2 DUP4 CALLDATACOPY PUSH0 DUP4 DUP4 ADD MSTORE POP POP POP JUMP JUMPDEST PUSH0 PUSH2 0x123C PUSH2 0x1237 DUP5 PUSH2 0x11EC JUMP JUMPDEST PUSH2 0x11D2 JUMP JUMPDEST SWAP1 POP DUP3 DUP2 MSTORE PUSH1 0x20 DUP2 ADD DUP5 DUP5 DUP5 ADD GT ISZERO PUSH2 0x1258 JUMPI PUSH2 0x1257 PUSH2 0x1170 JUMP JUMPDEST JUMPDEST PUSH2 0x1263 DUP5 DUP3 DUP6 PUSH2 0x121C JUMP JUMPDEST POP SWAP4 SWAP3 POP POP POP JUMP JUMPDEST PUSH0 DUP3 PUSH1 0x1F DUP4 ADD SLT PUSH2 0x127F JUMPI PUSH2 0x127E PUSH2 0x116C JUMP JUMPDEST JUMPDEST DUP2 CALLDATALOAD PUSH2 0x128F DUP5 DUP3 PUSH1 0x20 DUP7 ADD PUSH2 0x122A JUMP JUMPDEST SWAP2 POP POP SWAP3 SWAP2 POP POP JUMP JUMPDEST PUSH0 PUSH1 0x20 DUP3 DUP5 SUB SLT ISZERO PUSH2 0x12AD JUMPI PUSH2 0x12AC PUSH2 0xD4A JUMP JUMPDEST JUMPDEST PUSH0 DUP3 ADD CALLDATALOAD PUSH8 0xFFFFFFFFFFFFFFFF DUP2 GT ISZERO PUSH2 0x12CA JUMPI PUSH2 0x12C9 PUSH2 0xD4E JUMP JUMPDEST JUMPDEST PUSH2 0x12D6 DUP5 DUP3 DUP6 ADD PUSH2 0x126B JUMP JUMPDEST SWAP2 POP POP SWAP3 SWAP2 POP POP JUMP JUMPDEST PUSH0 PUSH1 0x20 DUP3 ADD SWAP1 POP PUSH2 0x12F2 PUSH0 DUP4 ADD DUP5 PUSH2 0xE2C JUMP JUMPDEST SWAP3 SWAP2 POP POP JUMP JUMPDEST PUSH0 PUSH1 0x20 DUP3 DUP5 SUB SLT ISZERO PUSH2 0x130D JUMPI PUSH2 0x130C PUSH2 0xD4A JUMP JUMPDEST JUMPDEST PUSH0 PUSH2 0x131A DUP5 DUP3 DUP6 ADD PUSH2 0xDCB JUMP JUMPDEST SWAP2 POP POP SWAP3 SWAP2 POP POP JUMP JUMPDEST PUSH0 PUSH1 0xA0 DUP4 ADD PUSH0 DUP4 ADD MLOAD PUSH2 0x1338 PUSH0 DUP7 ADD DUP3 PUSH2 0xF57 JUMP JUMPDEST POP PUSH1 0x20 DUP4 ADD MLOAD PUSH2 0x134B PUSH1 0x20 DUP7 ADD DUP3 PUSH2 0xF66 JUMP JUMPDEST POP PUSH1 0x40 DUP4 ADD MLOAD DUP5 DUP3 SUB PUSH1 0x40 DUP7 ADD MSTORE PUSH2 0x1363 DUP3 DUP3 PUSH2 0xF85 JUMP JUMPDEST SWAP2 POP POP PUSH1 0x60 DUP4 ADD MLOAD PUSH2 0x1378 PUSH1 0x60 DUP7 ADD DUP3 PUSH2 0xF57 JUMP JUMPDEST POP PUSH1 0x80 DUP4 ADD MLOAD PUSH2 0x138B PUSH1 0x80 DUP7 ADD DUP3 PUSH2 0xF57 JUMP JUMPDEST POP DUP1 SWAP2 POP POP SWAP3 SWAP2 POP POP JUMP JUMPDEST PUSH0 PUSH1 0x20 DUP3 ADD SWAP1 POP DUP2 DUP2 SUB PUSH0 DUP4 ADD MSTORE PUSH2 0x13AE DUP2 DUP5 PUSH2 0x1323 JUMP JUMPDEST SWAP1 POP SWAP3 SWAP2 POP POP JUMP JUMPDEST PUSH32 0x4E487B7100000000000000000000000000000000000000000000000000000000 PUSH0 MSTORE PUSH1 0x22 PUSH1 0x4 MSTORE PUSH1 0x24 PUSH0 REVERT JUMPDEST PUSH0 PUSH1 0x2 DUP3 DIV SWAP1 POP PUSH1 0x1 DUP3 AND DUP1 PUSH2 0x13FA JUMPI PUSH1 0x7F DUP3 AND SWAP2 POP JUMPDEST PUSH1 0x20 DUP3 LT DUP2 SUB PUSH2 0x140D JUMPI PUSH2 0x140C PUSH2 0x13B6 JUMP JUMPDEST JUMPDEST POP SWAP2 SWAP1 POP JUMP JUMPDEST PUSH32 0x4E487B7100000000000000000000000000000000000000000000000000000000 PUSH0 MSTORE PUSH1 0x32 PUSH1 0x4 MSTORE PUSH1 0x24 PUSH0 REVERT JUMPDEST PUSH32 0x545745455420444F4553204E4F54204558495354210000000000000000000000 PUSH0 DUP3 ADD MSTORE POP JUMP JUMPDEST PUSH0 PUSH2 0x1474 PUSH1 0x15 DUP4 PUSH2 0xE45 JUMP JUMPDEST SWAP2 POP PUSH2 0x147F DUP3 PUSH2 0x1440 JUMP JUMPDEST PUSH1 0x20 DUP3 ADD SWAP1 POP SWAP2 SWAP1 POP JUMP JUMPDEST PUSH0 PUSH1 0x20 DUP3 ADD SWAP1 POP DUP2 DUP2 SUB PUSH0 DUP4 ADD MSTORE PUSH2 0x14A1 DUP2 PUSH2 0x1468 JUMP JUMPDEST SWAP1 POP SWAP2 SWAP1 POP JUMP JUMPDEST PUSH32 0x545745455420484153204E4F204C494B45530000000000000000000000000000 PUSH0 DUP3 ADD MSTORE POP JUMP JUMPDEST PUSH0 PUSH2 0x14DC PUSH1 0x12 DUP4 PUSH2 0xE45 JUMP JUMPDEST SWAP2 POP PUSH2 0x14E7 DUP3 PUSH2 0x14A8 JUMP JUMPDEST PUSH1 0x20 DUP3 ADD SWAP1 POP SWAP2 SWAP1 POP JUMP JUMPDEST PUSH0 PUSH1 0x20 DUP3 ADD SWAP1 POP DUP2 DUP2 SUB PUSH0 DUP4 ADD MSTORE PUSH2 0x1509 DUP2 PUSH2 0x14D0 JUMP JUMPDEST SWAP1 POP SWAP2 SWAP1 POP JUMP JUMPDEST PUSH32 0x4E487B7100000000000000000000000000000000000000000000000000000000 PUSH0 MSTORE PUSH1 0x11 PUSH1 0x4 MSTORE PUSH1 0x24 PUSH0 REVERT JUMPDEST PUSH0 PUSH2 0x1547 DUP3 PUSH2 0xDAC JUMP JUMPDEST SWAP2 POP PUSH0 DUP3 SUB PUSH2 0x1559 JUMPI PUSH2 0x1558 PUSH2 0x1510 JUMP JUMPDEST JUMPDEST PUSH1 0x1 DUP3 SUB SWAP1 POP SWAP2 SWAP1 POP JUMP JUMPDEST PUSH0 PUSH1 0x60 DUP3 ADD SWAP1 POP PUSH2 0x1577 PUSH0 DUP4 ADD DUP7 PUSH2 0xE2C JUMP JUMPDEST PUSH2 0x1584 PUSH1 0x20 DUP4 ADD DUP6 PUSH2 0xE1D JUMP JUMPDEST PUSH2 0x1591 PUSH1 0x40 DUP4 ADD DUP5 PUSH2 0xE1D JUMP JUMPDEST SWAP5 SWAP4 POP POP POP POP JUMP JUMPDEST PUSH32 0x4F6E6C79204F776E6572204F66205468652054776565742043616E2045786563 PUSH0 DUP3 ADD MSTORE PUSH32 0x757465205468697320416374696F6E2100000000000000000000000000000000 PUSH1 0x20 DUP3 ADD MSTORE POP JUMP JUMPDEST PUSH0 PUSH2 0x15F3 PUSH1 0x30 DUP4 PUSH2 0xE45 JUMP JUMPDEST SWAP2 POP PUSH2 0x15FE DUP3 PUSH2 0x1599 JUMP JUMPDEST PUSH1 0x40 DUP3 ADD SWAP1 POP SWAP2 SWAP1 POP JUMP JUMPDEST PUSH0 PUSH1 0x20 DUP3 ADD SWAP1 POP DUP2 DUP2 SUB PUSH0 DUP4 ADD MSTORE PUSH2 0x1620 DUP2 PUSH2 0x15E7 JUMP JUMPDEST SWAP1 POP SWAP2 SWAP1 POP JUMP JUMPDEST PUSH32 0x545745455420444F4553204E4F54204558495354000000000000000000000000 PUSH0 DUP3 ADD MSTORE POP JUMP JUMPDEST PUSH0 PUSH2 0x165B PUSH1 0x14 DUP4 PUSH2 0xE45 JUMP JUMPDEST SWAP2 POP PUSH2 0x1666 DUP3 PUSH2 0x1627 JUMP JUMPDEST PUSH1 0x20 DUP3 ADD SWAP1 POP SWAP2 SWAP1 POP JUMP JUMPDEST PUSH0 PUSH1 0x20 DUP3 ADD SWAP1 POP DUP2 DUP2 SUB PUSH0 DUP4 ADD MSTORE PUSH2 0x1688 DUP2 PUSH2 0x164F JUMP JUMPDEST SWAP1 POP SWAP2 SWAP1 POP JUMP JUMPDEST PUSH0 PUSH2 0x1699 DUP3 PUSH2 0xDAC JUMP JUMPDEST SWAP2 POP PUSH32 0xFFFFFFFFFFFFFFFFFFFFFFFFFFFFFFFFFFFFFFFFFFFFFFFFFFFFFFFFFFFFFFFF DUP3 SUB PUSH2 0x16CB JUMPI PUSH2 0x16CA PUSH2 0x1510 JUMP JUMPDEST JUMPDEST PUSH1 0x1 DUP3 ADD SWAP1 POP SWAP2 SWAP1 POP JUMP JUMPDEST PUSH32 0x496E76616C6964207477656574206C656E677468000000000000000000000000 PUSH0 DUP3 ADD MSTORE POP JUMP JUMPDEST PUSH0 PUSH2 0x170A PUSH1 0x14 DUP4 PUSH2 0xE45 JUMP JUMPDEST SWAP2 POP PUSH2 0x1715 DUP3 PUSH2 0x16D6 JUMP JUMPDEST PUSH1 0x20 DUP3 ADD SWAP1 POP SWAP2 SWAP1 POP JUMP JUMPDEST PUSH0 PUSH1 0x20 DUP3 ADD SWAP1 POP DUP2 DUP2 SUB PUSH0 DUP4 ADD MSTORE PUSH2 0x1737 DUP2 PUSH2 0x16FE JUMP JUMPDEST SWAP1 POP SWAP2 SWAP1 POP JUMP JUMPDEST PUSH0 DUP2 SWAP1 POP DUP2 PUSH0 MSTORE PUSH1 0x20 PUSH0 KECCAK256 SWAP1 POP SWAP2 SWAP1 POP JUMP JUMPDEST PUSH0 PUSH1 0x20 PUSH1 0x1F DUP4 ADD DIV SWAP1 POP SWAP2 SWAP1 POP JUMP JUMPDEST PUSH0 DUP3 DUP3 SHL SWAP1 POP SWAP3 SWAP2 POP POP JUMP JUMPDEST PUSH0 PUSH1 0x8 DUP4 MUL PUSH2 0x179A PUSH32 0xFFFFFFFFFFFFFFFFFFFFFFFFFFFFFFFFFFFFFFFFFFFFFFFFFFFFFFFFFFFFFFFF DUP3 PUSH2 0x175F JUMP JUMPDEST PUSH2 0x17A4 DUP7 DUP4 PUSH2 0x175F JUMP JUMPDEST SWAP6 POP DUP1 NOT DUP5 AND SWAP4 POP DUP1 DUP7 AND DUP5 OR SWAP3 POP POP POP SWAP4 SWAP3 POP POP POP JUMP JUMPDEST PUSH0 DUP2 SWAP1 POP SWAP2 SWAP1 POP JUMP JUMPDEST PUSH0 PUSH2 0x17DF PUSH2 0x17DA PUSH2 0x17D5 DUP5 PUSH2 0xDAC JUMP JUMPDEST PUSH2 0x17BC JUMP JUMPDEST PUSH2 0xDAC JUMP JUMPDEST SWAP1 POP SWAP2 SWAP1 POP JUMP JUMPDEST PUSH0 DUP2 SWAP1 POP SWAP2 SWAP1 POP JUMP JUMPDEST PUSH2 0x17F8 DUP4 PUSH2 0x17C5 JUMP JUMPDEST PUSH2 0x180C PUSH2 0x1804 DUP3 PUSH2 0x17E6 JUMP JUMPDEST DUP5 DUP5 SLOAD PUSH2 0x176B JUMP JUMPDEST DUP3 SSTORE POP POP POP POP JUMP JUMPDEST PUSH0 SWAP1 JUMP JUMPDEST PUSH2 0x1820 PUSH2 0x1814 JUMP JUMPDEST PUSH2 0x182B DUP2 DUP5 DUP5 PUSH2 0x17EF JUMP JUMPDEST POP POP POP JUMP JUMPDEST JUMPDEST DUP2 DUP2 LT ISZERO PUSH2 0x184E JUMPI PUSH2 0x1843 PUSH0 DUP3 PUSH2 0x1818 JUMP JUMPDEST PUSH1 0x1 DUP2 ADD SWAP1 POP PUSH2 0x1831 JUMP JUMPDEST POP POP JUMP JUMPDEST PUSH1 0x1F DUP3 GT ISZERO PUSH2 0x1893 JUMPI PUSH2 0x1864 DUP2 PUSH2 0x173E JUMP JUMPDEST PUSH2 0x186D DUP5 PUSH2 0x1750 JUMP JUMPDEST DUP2 ADD PUSH1 0x20 DUP6 LT ISZERO PUSH2 0x187C JUMPI DUP2 SWAP1 POP JUMPDEST PUSH2 0x1890 PUSH2 0x1888 DUP6 PUSH2 0x1750 JUMP JUMPDEST DUP4 ADD DUP3 PUSH2 0x1830 JUMP JUMPDEST POP POP JUMPDEST POP POP POP JUMP JUMPDEST PUSH0 DUP3 DUP3 SHR SWAP1 POP SWAP3 SWAP2 POP POP JUMP JUMPDEST PUSH0 PUSH2 0x18B3 PUSH0 NOT DUP5 PUSH1 0x8 MUL PUSH2 0x1898 JUMP JUMPDEST NOT DUP1 DUP4 AND SWAP2 POP POP SWAP3 SWAP2 POP POP JUMP JUMPDEST PUSH0 PUSH2 0x18CB DUP4 DUP4 PUSH2 0x18A4 JUMP JUMPDEST SWAP2 POP DUP3 PUSH1 0x2 MUL DUP3 OR SWAP1 POP SWAP3 SWAP2 POP POP JUMP JUMPDEST PUSH2 0x18E4 DUP3 PUSH2 0xE3B JUMP JUMPDEST PUSH8 0xFFFFFFFFFFFFFFFF DUP2 GT ISZERO PUSH2 0x18FD JUMPI PUSH2 0x18FC PUSH2 0x1174 JUMP JUMPDEST JUMPDEST PUSH2 0x1907 DUP3 SLOAD PUSH2 0x13E3 JUMP JUMPDEST PUSH2 0x1912 DUP3 DUP3 DUP6 PUSH2 0x1852 JUMP JUMPDEST PUSH0 PUSH1 0x20 SWAP1 POP PUSH1 0x1F DUP4 GT PUSH1 0x1 DUP2 EQ PUSH2 0x1943 JUMPI PUSH0 DUP5 ISZERO PUSH2 0x1931 JUMPI DUP3 DUP8 ADD MLOAD SWAP1 POP JUMPDEST PUSH2 0x193B DUP6 DUP3 PUSH2 0x18C0 JUMP JUMPDEST DUP7 SSTORE POP PUSH2 0x19A2 JUMP JUMPDEST PUSH1 0x1F NOT DUP5 AND PUSH2 0x1951 DUP7 PUSH2 0x173E JUMP JUMPDEST PUSH0 JUMPDEST DUP3 DUP2 LT ISZERO PUSH2 0x1978 JUMPI DUP5 DUP10 ADD MLOAD DUP3 SSTORE PUSH1 0x1 DUP3 ADD SWAP2 POP PUSH1 0x20 DUP6 ADD SWAP5 POP PUSH1 0x20 DUP2 ADD SWAP1 POP PUSH2 0x1953 JUMP JUMPDEST DUP7 DUP4 LT ISZERO PUSH2 0x1995 JUMPI DUP5 DUP10 ADD MLOAD PUSH2 0x1991 PUSH1 0x1F DUP10 AND DUP3 PUSH2 0x18A4 JUMP JUMPDEST DUP4 SSTORE POP JUMPDEST PUSH1 0x1 PUSH1 0x2 DUP9 MUL ADD DUP9 SSTORE POP POP POP JUMPDEST POP POP POP POP POP POP JUMP JUMPDEST PUSH0 PUSH1 0x60 DUP3 ADD SWAP1 POP PUSH2 0x19BD PUSH0 DUP4 ADD DUP7 PUSH2 0xE1D JUMP JUMPDEST DUP2 DUP2 SUB PUSH1 0x20 DUP4 ADD MSTORE PUSH2 0x19CF DUP2 DUP6 PUSH2 0xE73 JUMP JUMPDEST SWAP1 POP PUSH2 0x19DE PUSH1 0x40 DUP4 ADD DUP5 PUSH2 0xE1D JUMP JUMPDEST SWAP5 SWAP4 POP POP POP POP JUMP INVALID LOG2 PUSH5 0x6970667358 0x22 SLT KECCAK256 0x23 0xC7 0xE5 0xDC BALANCE DUP3 SWAP12 DELEGATECALL LOG2 SDIV 0xC2 SWAP9 0xBB 0xDB DUP1 0xF6 DUP3 0xA7 STATICCALL 0xB7 DUP4 0xB6 PUSH5 0xC19C0A56BE 0xBB 0xB7 ADD PUSH4 0x64736F6C PUSH4 0x4300081A STOP CALLER "
		},
		"gasEstimates": {
			"creation": {
				"codeDepositCost": "1336800",
				"executionCost": "49969",
				"totalCost": "1386769"
			},
			"external": {
				"MAX_TWEET_LENGTH()": "2538",
				"changeTweetLength(uint16)": "26956",
				"createTweet(string)": "infinite",
				"getAllTweets(address)": "infinite",
				"getTweet(uint256)": "infinite",
				"likeTweet(address,uint256)": "infinite",
				"owner()": "2571",
				"tweets(address,uint256)": "infinite",
				"unlikeTweet(address,uint256)": "infinite"
			}
		},
		"methodIdentifiers": {
			"MAX_TWEET_LENGTH()": "6eb10797",
			"changeTweetLength(uint16)": "58bfa4ab",
			"createTweet(string)": "7c9cd2bc",
			"getAllTweets(address)": "12e7ee1c",
			"getTweet(uint256)": "c3ad5ecb",
			"likeTweet(address,uint256)": "63378216",
			"owner()": "8da5cb5b",
			"tweets(address,uint256)": "05a1b4a9",
			"unlikeTweet(address,uint256)": "3d9b569f"
		}
	},
	"abi": [
		{
			"inputs": [],
			"stateMutability": "nonpayable",
			"type": "constructor"
		},
		{
			"anonymous": false,
			"inputs": [
				{
					"indexed": false,
					"internalType": "uint256",
					"name": "id",
					"type": "uint256"
				},
				{
					"indexed": true,
					"internalType": "address",
					"name": "author",
					"type": "address"
				},
				{
					"indexed": false,
					"internalType": "string",
					"name": "content",
					"type": "string"
				},
				{
					"indexed": false,
					"internalType": "uint256",
					"name": "timestamp",
					"type": "uint256"
				}
			],
			"name": "TweetCreated",
			"type": "event"
		},
		{
			"anonymous": false,
			"inputs": [
				{
					"indexed": false,
					"internalType": "address",
					"name": "liker",
					"type": "address"
				},
				{
					"indexed": true,
					"internalType": "address",
					"name": "tweetAuthor",
					"type": "address"
				},
				{
					"indexed": false,
					"internalType": "uint256",
					"name": "tweetId",
					"type": "uint256"
				},
				{
					"indexed": false,
					"internalType": "uint256",
					"name": "newLikeCount",
					"type": "uint256"
				}
			],
			"name": "TweetLiked",
			"type": "event"
		},
		{
			"anonymous": false,
			"inputs": [
				{
					"indexed": false,
					"internalType": "address",
					"name": "liker",
					"type": "address"
				},
				{
					"indexed": true,
					"internalType": "address",
					"name": "tweetAuthor",
					"type": "address"
				},
				{
					"indexed": false,
					"internalType": "uint256",
					"name": "tweetId",
					"type": "uint256"
				},
				{
					"indexed": false,
					"internalType": "uint256",
					"name": "newLikeCount",
					"type": "uint256"
				}
			],
			"name": "TweetUnliked",
			"type": "event"
		},
		{
			"inputs": [],
			"name": "MAX_TWEET_LENGTH",
			"outputs": [
				{
					"internalType": "uint16",
					"name": "",
					"type": "uint16"
				}
			],
			"stateMutability": "view",
			"type": "function"
		},
		{
			"inputs": [
				{
					"internalType": "uint16",
					"name": "newLength",
					"type": "uint16"
				}
			],
			"name": "changeTweetLength",
			"outputs": [],
			"stateMutability": "nonpayable",
			"type": "function"
		},
		{
			"inputs": [
				{
					"internalType": "string",
					"name": "_tweet",
					"type": "string"
				}
			],
			"name": "createTweet",
			"outputs": [],
			"stateMutability": "nonpayable",
			"type": "function"
		},
		{
			"inputs": [
				{
					"internalType": "address",
					"name": "_owner",
					"type": "address"
				}
			],
			"name": "getAllTweets",
			"outputs": [
				{
					"components": [
						{
							"internalType": "uint256",
							"name": "id",
							"type": "uint256"
						},
						{
							"internalType": "address",
							"name": "author",
							"type": "address"
						},
						{
							"internalType": "string",
							"name": "content",
							"type": "string"
						},
						{
							"internalType": "uint256",
							"name": "createdAt",
							"type": "uint256"
						},
						{
							"internalType": "uint256",
							"name": "likes",
							"type": "uint256"
						}
					],
					"internalType": "struct Twitter.Tweet[]",
					"name": "",
					"type": "tuple[]"
				}
			],
			"stateMutability": "view",
			"type": "function"
		},
		{
			"inputs": [
				{
					"internalType": "uint256",
					"name": "_i",
					"type": "uint256"
				}
			],
			"name": "getTweet",
			"outputs": [
				{
					"components": [
						{
							"internalType": "uint256",
							"name": "id",
							"type": "uint256"
						},
						{
							"internalType": "address",
							"name": "author",
							"type": "address"
						},
						{
							"internalType": "string",
							"name": "content",
							"type": "string"
						},
						{
							"internalType": "uint256",
							"name": "createdAt",
							"type": "uint256"
						},
						{
							"internalType": "uint256",
							"name": "likes",
							"type": "uint256"
						}
					],
					"internalType": "struct Twitter.Tweet",
					"name": "",
					"type": "tuple"
				}
			],
			"stateMutability": "view",
			"type": "function"
		},
		{
			"inputs": [
				{
					"internalType": "address",
					"name": "author",
					"type": "address"
				},
				{
					"internalType": "uint256",
					"name": "id",
					"type": "uint256"
				}
			],
			"name": "likeTweet",
			"outputs": [],
			"stateMutability": "nonpayable",
			"type": "function"
		},
		{
			"inputs": [],
			"name": "owner",
			"outputs": [
				{
					"internalType": "address",
					"name": "",
					"type": "address"
				}
			],
			"stateMutability": "view",
			"type": "function"
		},
		{
			"inputs": [
				{
					"internalType": "address",
					"name": "",
					"type": "address"
				},
				{
					"internalType": "uint256",
					"name": "",
					"type": "uint256"
				}
			],
			"name": "tweets",
			"outputs": [
				{
					"internalType": "uint256",
					"name": "id",
					"type": "uint256"
				},
				{
					"internalType": "address",
					"name": "author",
					"type": "address"
				},
				{
					"internalType": "string",
					"name": "content",
					"type": "string"
				},
				{
					"internalType": "uint256",
					"name": "createdAt",
					"type": "uint256"
				},
				{
					"internalType": "uint256",
					"name": "likes",
					"type": "uint256"
				}
			],
			"stateMutability": "view",
			"type": "function"
		},
		{
			"inputs": [
				{
					"internalType": "address",
					"name": "author",
					"type": "address"
				},
				{
					"internalType": "uint256",
					"name": "id",
					"type": "uint256"
				}
			],
			"name": "unlikeTweet",
			"outputs": [],
			"stateMutability": "nonpayable",
			"type": "function"
		}
	]
}